{
  "_format": "hh-sol-artifact-1",
  "contractName": "LazyMintFactory",
  "sourceName": "contracts/LazyMintFactory.sol",
  "abi": [
    {
      "inputs": [],
      "name": "MaxSupplyMustBeGreaterThanZero",
      "type": "error"
    },
    {
      "anonymous": false,
      "inputs": [
        {
          "indexed": true,
          "internalType": "address",
          "name": "creator",
          "type": "address"
        },
        {
          "indexed": false,
          "internalType": "address",
          "name": "lazyMintAddress",
          "type": "address"
        },
        {
          "indexed": false,
          "internalType": "string",
          "name": "uri",
          "type": "string"
        },
        {
          "indexed": false,
          "internalType": "uint256",
          "name": "maxSupply",
          "type": "uint256"
        }
      ],
      "name": "LazyMintDeployed",
      "type": "event"
    },
    {
      "inputs": [
        {
          "internalType": "string",
          "name": "_uri",
          "type": "string"
        },
        {
          "internalType": "uint256",
          "name": "_maxSupply",
          "type": "uint256"
        },
        {
          "internalType": "uint256",
          "name": "_claimExpiration",
          "type": "uint256"
        },
        {
          "internalType": "uint256",
          "name": "_redeemExpiration",
          "type": "uint256"
        },
        {
          "internalType": "uint256",
          "name": "_lockedBudget",
          "type": "uint256"
        },
        {
          "internalType": "address",
          "name": "_currencyAddress",
          "type": "address"
        }
      ],
      "name": "createLazyMint",
      "outputs": [
        {
          "internalType": "address",
          "name": "",
          "type": "address"
        }
      ],
      "stateMutability": "nonpayable",
      "type": "function"
    }
  ],
  "bytecode": "0x6080604052348015600f57600080fd5b50614f5c8061001f6000396000f3fe608060405234801561001057600080fd5b506004361061002b5760003560e01c80630544352614610030575b600080fd5b61004a600480360381019061004591906103a3565b610060565b604051610057919061045b565b60405180910390f35b600080861161009b576040517fad03f1cd00000000000000000000000000000000000000000000000000000000815260040160405180910390fd5b60008787878787876040516100af906101a8565b6100be96959493929190610504565b604051809103906000f0801580156100da573d6000803e3d6000fd5b5090508073ffffffffffffffffffffffffffffffffffffffff1663f2fde38b336040518263ffffffff1660e01b8152600401610116919061045b565b600060405180830381600087803b15801561013057600080fd5b505af1158015610144573d6000803e3d6000fd5b505050503373ffffffffffffffffffffffffffffffffffffffff167fa6f46e8dc8869a1036c381162b60b5e2ddc7ad3bcd3723ba82527d691e953e12828a8a6040516101929392919061056c565b60405180910390a2809150509695505050505050565b61497c806105ab83390190565b6000604051905090565b600080fd5b600080fd5b600080fd5b600080fd5b6000601f19601f8301169050919050565b7f4e487b7100000000000000000000000000000000000000000000000000000000600052604160045260246000fd5b61021c826101d3565b810181811067ffffffffffffffff8211171561023b5761023a6101e4565b5b80604052505050565b600061024e6101b5565b905061025a8282610213565b919050565b600067ffffffffffffffff82111561027a576102796101e4565b5b610283826101d3565b9050602081019050919050565b82818337600083830152505050565b60006102b26102ad8461025f565b610244565b9050828152602081018484840111156102ce576102cd6101ce565b5b6102d9848285610290565b509392505050565b600082601f8301126102f6576102f56101c9565b5b813561030684826020860161029f565b91505092915050565b6000819050919050565b6103228161030f565b811461032d57600080fd5b50565b60008135905061033f81610319565b92915050565b600073ffffffffffffffffffffffffffffffffffffffff82169050919050565b600061037082610345565b9050919050565b61038081610365565b811461038b57600080fd5b50565b60008135905061039d81610377565b92915050565b60008060008060008060c087890312156103c0576103bf6101bf565b5b600087013567ffffffffffffffff8111156103de576103dd6101c4565b5b6103ea89828a016102e1565b96505060206103fb89828a01610330565b955050604061040c89828a01610330565b945050606061041d89828a01610330565b935050608061042e89828a01610330565b92505060a061043f89828a0161038e565b9150509295509295509295565b61045581610365565b82525050565b6000602082019050610470600083018461044c565b92915050565b600081519050919050565b600082825260208201905092915050565b60005b838110156104b0578082015181840152602081019050610495565b60008484015250505050565b60006104c782610476565b6104d18185610481565b93506104e1818560208601610492565b6104ea816101d3565b840191505092915050565b6104fe8161030f565b82525050565b600060c082019050818103600083015261051e81896104bc565b905061052d60208301886104f5565b61053a60408301876104f5565b61054760608301866104f5565b61055460808301856104f5565b61056160a083018461044c565b979650505050505050565b6000606082019050610581600083018661044c565b818103602083015261059381856104bc565b90506105a260408301846104f5565b94935050505056fe60806040526103e8600655600160085534801561001b57600080fd5b5060405161497c38038061497c833981810160405281019061003d9190610465565b338661004e8161018360201b60201c565b50600073ffffffffffffffffffffffffffffffffffffffff168173ffffffffffffffffffffffffffffffffffffffff16036100c15760006040517f1e4fbdf70000000000000000000000000000000000000000000000000000000081526004016100b8919061051d565b60405180910390fd5b6100d08161019660201b60201c565b506000851161010b576040517fad03f1cd00000000000000000000000000000000000000000000000000000000815260040160405180910390fd5b856007908161011a919061074f565b508460058190555083600e8190555082600f819055508160108190555080601160006101000a81548173ffffffffffffffffffffffffffffffffffffffff021916908373ffffffffffffffffffffffffffffffffffffffff160217905550505050505050610821565b8060029081610192919061074f565b5050565b6000600360009054906101000a900473ffffffffffffffffffffffffffffffffffffffff16905081600360006101000a81548173ffffffffffffffffffffffffffffffffffffffff021916908373ffffffffffffffffffffffffffffffffffffffff1602179055508173ffffffffffffffffffffffffffffffffffffffff168173ffffffffffffffffffffffffffffffffffffffff167f8be0079c531659141344cd1fd0a4f28419497f9722a3daafe3b4186f6b6457e060405160405180910390a35050565b6000604051905090565b600080fd5b600080fd5b600080fd5b600080fd5b6000601f19601f8301169050919050565b7f4e487b7100000000000000000000000000000000000000000000000000000000600052604160045260246000fd5b6102c38261027a565b810181811067ffffffffffffffff821117156102e2576102e161028b565b5b80604052505050565b60006102f561025c565b905061030182826102ba565b919050565b600067ffffffffffffffff8211156103215761032061028b565b5b61032a8261027a565b9050602081019050919050565b60005b8381101561035557808201518184015260208101905061033a565b60008484015250505050565b600061037461036f84610306565b6102eb565b9050828152602081018484840111156103905761038f610275565b5b61039b848285610337565b509392505050565b600082601f8301126103b8576103b7610270565b5b81516103c8848260208601610361565b91505092915050565b6000819050919050565b6103e4816103d1565b81146103ef57600080fd5b50565b600081519050610401816103db565b92915050565b600073ffffffffffffffffffffffffffffffffffffffff82169050919050565b600061043282610407565b9050919050565b61044281610427565b811461044d57600080fd5b50565b60008151905061045f81610439565b92915050565b60008060008060008060c0878903121561048257610481610266565b5b600087015167ffffffffffffffff8111156104a05761049f61026b565b5b6104ac89828a016103a3565b96505060206104bd89828a016103f2565b95505060406104ce89828a016103f2565b94505060606104df89828a016103f2565b93505060806104f089828a016103f2565b92505060a061050189828a01610450565b9150509295509295509295565b61051781610427565b82525050565b6000602082019050610532600083018461050e565b92915050565b600081519050919050565b7f4e487b7100000000000000000000000000000000000000000000000000000000600052602260045260246000fd5b6000600282049050600182168061058a57607f821691505b60208210810361059d5761059c610543565b5b50919050565b60008190508160005260206000209050919050565b60006020601f8301049050919050565b600082821b905092915050565b6000600883026106057fffffffffffffffffffffffffffffffffffffffffffffffffffffffffffffffff826105c8565b61060f86836105c8565b95508019841693508086168417925050509392505050565b6000819050919050565b600061064c610647610642846103d1565b610627565b6103d1565b9050919050565b6000819050919050565b61066683610631565b61067a61067282610653565b8484546105d5565b825550505050565b600090565b61068f610682565b61069a81848461065d565b505050565b5b818110156106be576106b3600082610687565b6001810190506106a0565b5050565b601f821115610703576106d4816105a3565b6106dd846105b8565b810160208510156106ec578190505b6107006106f8856105b8565b83018261069f565b50505b505050565b600082821c905092915050565b600061072660001984600802610708565b1980831691505092915050565b600061073f8383610715565b9150826002028217905092915050565b61075882610538565b67ffffffffffffffff8111156107715761077061028b565b5b61077b8254610572565b6107868282856106c2565b600060209050601f8311600181146107b957600084156107a7578287015190505b6107b18582610733565b865550610819565b601f1984166107c7866105a3565b60005b828110156107ef578489015182556001820191506020850194506020810190506107ca565b8683101561080c5784890151610808601f891682610715565b8355505b6001600288020188555050505b505050505050565b61414c806108306000396000f3fe60806040526004361061020d5760003560e01c80637057b94111610118578063becf0426116100a0578063ddca3f431161006f578063ddca3f4314610793578063e985e9c5146107be578063eac989f8146107fb578063f242432a14610826578063f2fde38b1461084f5761020d565b8063becf0426146106eb578063bf396c2314610702578063c03f18a11461073f578063d5abeb01146107685761020d565b80638da5cb5b116100e75780638da5cb5b1461061a5780639012c4a814610645578063a22cb4651461066e578063a80d520c14610697578063b481e22d146106c05761020d565b80637057b9411461055e578063715018a61461059b5780637456a7a2146105b257806389a89002146105ef5761020d565b80632cc81a611161019b578063466ee2611161016a578063466ee26114610474578063474af7921461049f5780634e1273f4146104bb578063500867f3146104f8578063702510d7146105215761020d565b80632cc81a61146103dd5780632eb2c2d61461040657806330635cd31461042f5780633e2f2e92146104585761020d565b806312e51490116101e257806312e514901461030657806315eb29541461033157806318160ddd1461035c5780631b3dad64146103875780631c1cb323146103b25761020d565b806207476c14610212578062fdd58e1461024f57806301ffc9a71461028c5780630e89341c146102c9575b600080fd5b34801561021e57600080fd5b50610239600480360381019061023491906130a6565b610878565b60405161024691906130f5565b60405180910390f35b34801561025b57600080fd5b5061027660048036038101906102719190613110565b61089d565b60405161028391906130f5565b60405180910390f35b34801561029857600080fd5b506102b360048036038101906102ae91906131a8565b6108f7565b6040516102c091906131f0565b60405180910390f35b3480156102d557600080fd5b506102f060048036038101906102eb919061320b565b6109d9565b6040516102fd91906132c8565b60405180910390f35b34801561031257600080fd5b5061031b610a6d565b60405161032891906130f5565b60405180910390f35b34801561033d57600080fd5b50610346610a73565b60405161035391906130f5565b60405180910390f35b34801561036857600080fd5b50610371610a79565b60405161037e91906130f5565b60405180910390f35b34801561039357600080fd5b5061039c610a7f565b6040516103a991906130f5565b60405180910390f35b3480156103be57600080fd5b506103c7610a85565b6040516103d491906132f9565b60405180910390f35b3480156103e957600080fd5b5061040460048036038101906103ff919061320b565b610aab565b005b34801561041257600080fd5b5061042d60048036038101906104289190613511565b610c7d565b005b34801561043b57600080fd5b5061045660048036038101906104519190613110565b610d25565b005b610472600480360381019061046d919061320b565b61113d565b005b34801561048057600080fd5b50610489611260565b60405161049691906130f5565b60405180910390f35b6104b960048036038101906104b491906135e0565b6112a1565b005b3480156104c757600080fd5b506104e260048036038101906104dd91906136f6565b6114d9565b6040516104ef919061382c565b60405180910390f35b34801561050457600080fd5b5061051f600480360381019061051a919061320b565b6115e2565b005b34801561052d57600080fd5b506105486004803603810190610543919061384e565b61162d565b60405161055591906130f5565b60405180910390f35b34801561056a57600080fd5b506105856004803603810190610580919061320b565b611645565b60405161059291906130f5565b60405180910390f35b3480156105a757600080fd5b506105b061165d565b005b3480156105be57600080fd5b506105d960048036038101906105d4919061320b565b611671565b6040516105e691906132f9565b60405180910390f35b3480156105fb57600080fd5b506106046116a4565b60405161061191906130f5565b60405180910390f35b34801561062657600080fd5b5061062f6116a9565b60405161063c91906132f9565b60405180910390f35b34801561065157600080fd5b5061066c6004803603810190610667919061320b565b6116d3565b005b34801561067a57600080fd5b50610695600480360381019061069091906138a7565b61171f565b005b3480156106a357600080fd5b506106be60048036038101906106b9919061384e565b611735565b005b3480156106cc57600080fd5b506106d56117b9565b6040516106e291906130f5565b60405180910390f35b3480156106f757600080fd5b506107006117bf565b005b34801561070e57600080fd5b50610729600480360381019061072491906130a6565b6119b2565b60405161073691906130f5565b60405180910390f35b34801561074b57600080fd5b506107666004803603810190610761919061320b565b6119d7565b005b34801561077457600080fd5b5061077d611a22565b60405161078a91906130f5565b60405180910390f35b34801561079f57600080fd5b506107a8611a28565b6040516107b591906130f5565b60405180910390f35b3480156107ca57600080fd5b506107e560048036038101906107e091906138e7565b611a2e565b6040516107f291906131f0565b60405180910390f35b34801561080757600080fd5b50610810611ac2565b60405161081d91906132c8565b60405180910390f35b34801561083257600080fd5b5061084d60048036038101906108489190613927565b611b54565b005b34801561085b57600080fd5b506108766004803603810190610871919061384e565b611bfc565b005b600c602052816000526040600020602052806000526040600020600091509150505481565b600080600083815260200190815260200160002060008473ffffffffffffffffffffffffffffffffffffffff1673ffffffffffffffffffffffffffffffffffffffff16815260200190815260200160002054905092915050565b60007fd9b67a26000000000000000000000000000000000000000000000000000000007bffffffffffffffffffffffffffffffffffffffffffffffffffffffff1916827bffffffffffffffffffffffffffffffffffffffffffffffffffffffff191614806109c257507f0e89341c000000000000000000000000000000000000000000000000000000007bffffffffffffffffffffffffffffffffffffffffffffffffffffffff1916827bffffffffffffffffffffffffffffffffffffffffffffffffffffffff1916145b806109d257506109d182611c82565b5b9050919050565b6060600280546109e8906139ed565b80601f0160208091040260200160405190810160405280929190818152602001828054610a14906139ed565b8015610a615780601f10610a3657610100808354040283529160200191610a61565b820191906000526020600020905b815481529060010190602001808311610a4457829003601f168201915b50505050509050919050565b60085481565b60105481565b60045481565b600f5481565b601160009054906101000a900473ffffffffffffffffffffffffffffffffffffffff1681565b610ab3611cec565b6000600d60006001815260200190815260200160002054600554610ad79190613a4d565b9050600060065482610ae99190613a81565b9050601054831115610b27576040517f9abc749100000000000000000000000000000000000000000000000000000000815260040160405180910390fd5b8083601054610b369190613a4d565b1015610b6e576040517f4dd23c8b00000000000000000000000000000000000000000000000000000000815260040160405180910390fd5b8260106000828254610b809190613a4d565b92505081905550601160009054906101000a900473ffffffffffffffffffffffffffffffffffffffff1673ffffffffffffffffffffffffffffffffffffffff1663a9059cbb33856040518363ffffffff1660e01b8152600401610be4929190613ac3565b6020604051808303816000875af1158015610c03573d6000803e3d6000fd5b505050506040513d601f19601f82011682018060405250810190610c279190613b01565b503373ffffffffffffffffffffffffffffffffffffffff167fcccac05118081db07a70bb781aabe8f0db7182a0b52d7374fa4821e9ed33cc858430604051610c70929190613b2e565b60405180910390a2505050565b6000610c87611d73565b90508073ffffffffffffffffffffffffffffffffffffffff168673ffffffffffffffffffffffffffffffffffffffff1614158015610ccc5750610cca8682611a2e565b155b15610d105780866040517fe237d922000000000000000000000000000000000000000000000000000000008152600401610d07929190613b57565b60405180910390fd5b610d1d8686868686611d7b565b505050505050565b610d2d611cec565b6000610d3a83600161089d565b11610d71576040517f2207388300000000000000000000000000000000000000000000000000000000815260040160405180910390fd5b600f54421115610dad576040517f528acf4f00000000000000000000000000000000000000000000000000000000815260040160405180910390fd5b6000600c60006001815260200190815260200160002060008473ffffffffffffffffffffffffffffffffffffffff1673ffffffffffffffffffffffffffffffffffffffff1681526020019081526020016000205490506000610e1084600161089d565b905060008383610e209190613b80565b905081811115610e5c576040517f7b38ef1f00000000000000000000000000000000000000000000000000000000815260040160405180910390fd5b6000600b60006001815260200190815260200160002060008773ffffffffffffffffffffffffffffffffffffffff1673ffffffffffffffffffffffffffffffffffffffff16815260200190815260200160002054905060008114610fe35760006009600083815260200190815260200160002060009054906101000a900473ffffffffffffffffffffffffffffffffffffffff169050600073ffffffffffffffffffffffffffffffffffffffff168173ffffffffffffffffffffffffffffffffffffffff1603610f58576040517f2241f9f800000000000000000000000000000000000000000000000000000000815260040160405180910390fd5b6006546010541015610f96576040517f4dd23c8b00000000000000000000000000000000000000000000000000000000815260040160405180910390fd5b60065460106000828254610faa9190613a4d565b92505081905550610fe1601160009054906101000a900473ffffffffffffffffffffffffffffffffffffffff163083600654611e73565b505b84600c60006001815260200190815260200160002060008873ffffffffffffffffffffffffffffffffffffffff1673ffffffffffffffffffffffffffffffffffffffff16815260200190815260200160002060008282546110449190613b80565b9250508190555084600d600060018152602001908152602001600020600082825461106f9190613b80565b9250508190555060018673ffffffffffffffffffffffffffffffffffffffff167f9740ccd7632c212cf0c62b84fe8a88c610b74aa9c4ca8a98ba3038fbefceb0b1600084036110bf5760006110f4565b6009600085815260200190815260200160002060009054906101000a900473ffffffffffffffffffffffffffffffffffffffff165b6006543042601160009054906101000a900473ffffffffffffffffffffffffffffffffffffffff1660405161112d959493929190613bb4565b60405180910390a3505050505050565b611145611cec565b6000600d600060018152602001908152602001600020546005546111699190613a4d565b905060006006548261117b9190613a81565b9050808360105461118c9190613b80565b11156111c4576040517f5937a0c800000000000000000000000000000000000000000000000000000000815260040160405180910390fd5b6111f2601160009054906101000a900473ffffffffffffffffffffffffffffffffffffffff16333086611ee6565b82601060008282546112049190613b80565b925050819055503373ffffffffffffffffffffffffffffffffffffffff167f599419cc9c3fed0d4c06df68b361976b3559f232e25700cc78c51471251a73a58430604051611253929190613b2e565b60405180910390a2505050565b600080600d600060018152602001908152602001600020546005546112859190613a4d565b90506000600654826112979190613a81565b9050809250505090565b600073ffffffffffffffffffffffffffffffffffffffff168373ffffffffffffffffffffffffffffffffffffffff1603611307576040517f2241f9f800000000000000000000000000000000000000000000000000000000815260040160405180910390fd5b60008211611341576040517f0cdcd02000000000000000000000000000000000000000000000000000000000815260040160405180910390fd5b600554826004546113529190613b80565b111561138a576040517fc30436e900000000000000000000000000000000000000000000000000000000815260040160405180910390fd5b61139383611735565b60006009600083815260200190815260200160002060009054906101000a900473ffffffffffffffffffffffffffffffffffffffff169050600073ffffffffffffffffffffffffffffffffffffffff168173ffffffffffffffffffffffffffffffffffffffff1603611431576040517faa68955800000000000000000000000000000000000000000000000000000000815260040160405180910390fd5b61144d8460018560405180602001604052806000815250611f6f565b826004600082825461145f9190613b80565b9250508190555060018473ffffffffffffffffffffffffffffffffffffffff163373ffffffffffffffffffffffffffffffffffffffff167f54a9329ce7340d2dbf8d028e46b91d8fe1b4148071ed343d884ae391e9ebd10a868530426040516114cb9493929190613c07565b60405180910390a450505050565b6060815183511461152557815183516040517f5b05999100000000000000000000000000000000000000000000000000000000815260040161151c929190613c4c565b60405180910390fd5b6000835167ffffffffffffffff81111561154257611541613319565b5b6040519080825280602002602001820160405280156115705781602001602082028036833780820191505090505b50905060005b84518110156115d7576115ad611595828761200890919063ffffffff16565b6115a8838761201c90919063ffffffff16565b61089d565b8282815181106115c0576115bf613c75565b5b602002602001018181525050806001019050611576565b508091505092915050565b6115ea611cec565b428111611623576040517f82a49d9e00000000000000000000000000000000000000000000000000000000815260040160405180910390fd5b80600e8190555050565b600a6020528060005260406000206000915090505481565b600d6020528060005260406000206000915090505481565b611665611cec565b61166f6000612030565b565b60096020528060005260406000206000915054906101000a900473ffffffffffffffffffffffffffffffffffffffff1681565b600181565b6000600360009054906101000a900473ffffffffffffffffffffffffffffffffffffffff16905090565b6116db611cec565b60008111611715576040517f3d85076c00000000000000000000000000000000000000000000000000000000815260040160405180910390fd5b8060068190555050565b61173161172a611d73565b83836120f6565b5050565b600061174282600161089d565b111561177a576040517f7ad4e5de00000000000000000000000000000000000000000000000000000000815260040160405180910390fd5b600e544211156117b6576040517f82a49d9e00000000000000000000000000000000000000000000000000000000815260040160405180910390fd5b50565b600e5481565b6000600a60003373ffffffffffffffffffffffffffffffffffffffff1673ffffffffffffffffffffffffffffffffffffffff1681526020019081526020016000205414611838576040517f08697c2000000000000000000000000000000000000000000000000000000000815260040160405180910390fd5b6000600d6000600181526020019081526020016000205460055461185c9190613a4d565b905060006006548261186e9190613a81565b90508060105410156118ac576040517f4dd23c8b00000000000000000000000000000000000000000000000000000000815260040160405180910390fd5b6000600860008154809291906118c190613ca4565b919050559050336009600083815260200190815260200160002060006101000a81548173ffffffffffffffffffffffffffffffffffffffff021916908373ffffffffffffffffffffffffffffffffffffffff16021790555080600a60003373ffffffffffffffffffffffffffffffffffffffff1673ffffffffffffffffffffffffffffffffffffffff168152602001908152602001600020819055503373ffffffffffffffffffffffffffffffffffffffff167f36222dbcb12e3d563f4a8ea93e599a695e3632943becf0da5ad2ec10076a51dc82306040516119a5929190613b2e565b60405180910390a2505050565b600b602052816000526040600020602052806000526040600020600091509150505481565b6119df611cec565b428111611a18576040517f528acf4f00000000000000000000000000000000000000000000000000000000815260040160405180910390fd5b80600f8190555050565b60055481565b60065481565b6000600160008473ffffffffffffffffffffffffffffffffffffffff1673ffffffffffffffffffffffffffffffffffffffff16815260200190815260200160002060008373ffffffffffffffffffffffffffffffffffffffff1673ffffffffffffffffffffffffffffffffffffffff16815260200190815260200160002060009054906101000a900460ff16905092915050565b606060078054611ad1906139ed565b80601f0160208091040260200160405190810160405280929190818152602001828054611afd906139ed565b8015611b4a5780601f10611b1f57610100808354040283529160200191611b4a565b820191906000526020600020905b815481529060010190602001808311611b2d57829003601f168201915b5050505050905090565b6000611b5e611d73565b90508073ffffffffffffffffffffffffffffffffffffffff168673ffffffffffffffffffffffffffffffffffffffff1614158015611ba35750611ba18682611a2e565b155b15611be75780866040517fe237d922000000000000000000000000000000000000000000000000000000008152600401611bde929190613b57565b60405180910390fd5b611bf48686868686612266565b505050505050565b611c04611cec565b600073ffffffffffffffffffffffffffffffffffffffff168173ffffffffffffffffffffffffffffffffffffffff1603611c765760006040517f1e4fbdf7000000000000000000000000000000000000000000000000000000008152600401611c6d91906132f9565b60405180910390fd5b611c7f81612030565b50565b60007f01ffc9a7000000000000000000000000000000000000000000000000000000007bffffffffffffffffffffffffffffffffffffffffffffffffffffffff1916827bffffffffffffffffffffffffffffffffffffffffffffffffffffffff1916149050919050565b611cf4611d73565b73ffffffffffffffffffffffffffffffffffffffff16611d126116a9565b73ffffffffffffffffffffffffffffffffffffffff1614611d7157611d35611d73565b6040517f118cdaa7000000000000000000000000000000000000000000000000000000008152600401611d6891906132f9565b60405180910390fd5b565b600033905090565b600073ffffffffffffffffffffffffffffffffffffffff168473ffffffffffffffffffffffffffffffffffffffff1603611ded5760006040517f57f447ce000000000000000000000000000000000000000000000000000000008152600401611de491906132f9565b60405180910390fd5b600073ffffffffffffffffffffffffffffffffffffffff168573ffffffffffffffffffffffffffffffffffffffff1603611e5f5760006040517f01a83514000000000000000000000000000000000000000000000000000000008152600401611e5691906132f9565b60405180910390fd5b611e6c8585858585612371565b5050505050565b6000810315611ee05773eeeeeeeeeeeeeeeeeeeeeeeeeeeeeeeeeeeeeeee73ffffffffffffffffffffffffffffffffffffffff168473ffffffffffffffffffffffffffffffffffffffff1603611ed257611ecd8282612423565b611edf565b611ede848484846124d8565b5b5b50505050565b611f69846323b872dd60e01b858585604051602401611f0793929190613cec565b604051602081830303815290604052907bffffffffffffffffffffffffffffffffffffffffffffffffffffffff19166020820180517bffffffffffffffffffffffffffffffffffffffffffffffffffffffff83818316178352505050506125a4565b50505050565b600073ffffffffffffffffffffffffffffffffffffffff168473ffffffffffffffffffffffffffffffffffffffff1603611fe15760006040517f57f447ce000000000000000000000000000000000000000000000000000000008152600401611fd891906132f9565b60405180910390fd5b600080611fee858561266b565b91509150612000600087848487612371565b505050505050565b600060208202602084010151905092915050565b600060208202602084010151905092915050565b6000600360009054906101000a900473ffffffffffffffffffffffffffffffffffffffff16905081600360006101000a81548173ffffffffffffffffffffffffffffffffffffffff021916908373ffffffffffffffffffffffffffffffffffffffff1602179055508173ffffffffffffffffffffffffffffffffffffffff168173ffffffffffffffffffffffffffffffffffffffff167f8be0079c531659141344cd1fd0a4f28419497f9722a3daafe3b4186f6b6457e060405160405180910390a35050565b600073ffffffffffffffffffffffffffffffffffffffff168273ffffffffffffffffffffffffffffffffffffffff16036121685760006040517fced3e10000000000000000000000000000000000000000000000000000000000815260040161215f91906132f9565b60405180910390fd5b80600160008573ffffffffffffffffffffffffffffffffffffffff1673ffffffffffffffffffffffffffffffffffffffff16815260200190815260200160002060008473ffffffffffffffffffffffffffffffffffffffff1673ffffffffffffffffffffffffffffffffffffffff16815260200190815260200160002060006101000a81548160ff0219169083151502179055508173ffffffffffffffffffffffffffffffffffffffff168373ffffffffffffffffffffffffffffffffffffffff167f17307eab39ab6107e8899845ad3d59bd9653f200f220920489ca2b5937696c318360405161225991906131f0565b60405180910390a3505050565b600073ffffffffffffffffffffffffffffffffffffffff168473ffffffffffffffffffffffffffffffffffffffff16036122d85760006040517f57f447ce0000000000000000000000000000000000000000000000000000000081526004016122cf91906132f9565b60405180910390fd5b600073ffffffffffffffffffffffffffffffffffffffff168573ffffffffffffffffffffffffffffffffffffffff160361234a5760006040517f01a8351400000000000000000000000000000000000000000000000000000000815260040161234191906132f9565b60405180910390fd5b600080612357858561266b565b915091506123688787848487612371565b50505050505050565b61237d8585858561269b565b600073ffffffffffffffffffffffffffffffffffffffff168473ffffffffffffffffffffffffffffffffffffffff161461241c5760006123bb611d73565b9050600184510361240b5760006123dc60008661201c90919063ffffffff16565b905060006123f460008661201c90919063ffffffff16565b9050612404838989858589612a43565b505061241a565b612419818787878787612bf7565b5b505b5050505050565b60008273ffffffffffffffffffffffffffffffffffffffff168260405161244990613d54565b60006040518083038185875af1925050503d8060008114612486576040519150601f19603f3d011682016040523d82523d6000602084013e61248b565b606091505b50509050806124d35782826040517fbfb89d820000000000000000000000000000000000000000000000000000000081526004016124ca929190613ac3565b60405180910390fd5b505050565b8173ffffffffffffffffffffffffffffffffffffffff168373ffffffffffffffffffffffffffffffffffffffff16031561259e573073ffffffffffffffffffffffffffffffffffffffff168373ffffffffffffffffffffffffffffffffffffffff160361256f5761256a82828673ffffffffffffffffffffffffffffffffffffffff16612dab9092919063ffffffff16565b61259d565b61259c8383838773ffffffffffffffffffffffffffffffffffffffff16611ee6909392919063ffffffff16565b5b5b50505050565b6000612606826040518060400160405280602081526020017f5361666545524332303a206c6f772d6c6576656c2063616c6c206661696c65648152508573ffffffffffffffffffffffffffffffffffffffff16612e319092919063ffffffff16565b905060008151111561266657808060200190518101906126269190613b01565b612665576040517f08c379a000000000000000000000000000000000000000000000000000000000815260040161265c90613ddb565b60405180910390fd5b5b505050565b60608060405191506001825283602083015260408201905060018152826020820152604081016040529250929050565b80518251146126e557815181516040517f5b0599910000000000000000000000000000000000000000000000000000000081526004016126dc929190613c4c565b60405180910390fd5b60006126ef611d73565b905060005b83518110156128fe576000612712828661201c90919063ffffffff16565b90506000612729838661201c90919063ffffffff16565b9050600073ffffffffffffffffffffffffffffffffffffffff168873ffffffffffffffffffffffffffffffffffffffff161461285657600080600084815260200190815260200160002060008a73ffffffffffffffffffffffffffffffffffffffff1673ffffffffffffffffffffffffffffffffffffffff168152602001908152602001600020549050818110156127fe57888183856040517f03dee4c50000000000000000000000000000000000000000000000000000000081526004016127f59493929190613dfb565b60405180910390fd5b81810360008085815260200190815260200160002060008b73ffffffffffffffffffffffffffffffffffffffff1673ffffffffffffffffffffffffffffffffffffffff16815260200190815260200160002081905550505b600073ffffffffffffffffffffffffffffffffffffffff168773ffffffffffffffffffffffffffffffffffffffff16146128f1578060008084815260200190815260200160002060008973ffffffffffffffffffffffffffffffffffffffff1673ffffffffffffffffffffffffffffffffffffffff16815260200190815260200160002060008282546128e99190613b80565b925050819055505b50508060010190506126f4565b5060018351036129bd57600061291e60008561201c90919063ffffffff16565b9050600061293660008561201c90919063ffffffff16565b90508573ffffffffffffffffffffffffffffffffffffffff168773ffffffffffffffffffffffffffffffffffffffff168473ffffffffffffffffffffffffffffffffffffffff167fc3d58168c5ae7397731d063d5bbf3d657854427343f4c083240f7aacaa2d0f6285856040516129ae929190613c4c565b60405180910390a45050612a3c565b8373ffffffffffffffffffffffffffffffffffffffff168573ffffffffffffffffffffffffffffffffffffffff168273ffffffffffffffffffffffffffffffffffffffff167f4a39dc06d4c0dbc64b70af90fd698a233a518aa5d07e595d983b8c0526c8f7fb8686604051612a33929190613e40565b60405180910390a45b5050505050565b60008473ffffffffffffffffffffffffffffffffffffffff163b1115612bef578373ffffffffffffffffffffffffffffffffffffffff1663f23a6e6187878686866040518663ffffffff1660e01b8152600401612aa4959493929190613ecc565b6020604051808303816000875af1925050508015612ae057506040513d601f19601f82011682018060405250810190612add9190613f3b565b60015b612b64573d8060008114612b10576040519150601f19603f3d011682016040523d82523d6000602084013e612b15565b606091505b506000815103612b5c57846040517f57f447ce000000000000000000000000000000000000000000000000000000008152600401612b5391906132f9565b60405180910390fd5b805181602001fd5b63f23a6e6160e01b7bffffffffffffffffffffffffffffffffffffffffffffffffffffffff1916817bffffffffffffffffffffffffffffffffffffffffffffffffffffffff191614612bed57846040517f57f447ce000000000000000000000000000000000000000000000000000000008152600401612be491906132f9565b60405180910390fd5b505b505050505050565b60008473ffffffffffffffffffffffffffffffffffffffff163b1115612da3578373ffffffffffffffffffffffffffffffffffffffff1663bc197c8187878686866040518663ffffffff1660e01b8152600401612c58959493929190613f68565b6020604051808303816000875af1925050508015612c9457506040513d601f19601f82011682018060405250810190612c919190613f3b565b60015b612d18573d8060008114612cc4576040519150601f19603f3d011682016040523d82523d6000602084013e612cc9565b606091505b506000815103612d1057846040517f57f447ce000000000000000000000000000000000000000000000000000000008152600401612d0791906132f9565b60405180910390fd5b805181602001fd5b63bc197c8160e01b7bffffffffffffffffffffffffffffffffffffffffffffffffffffffff1916817bffffffffffffffffffffffffffffffffffffffffffffffffffffffff191614612da157846040517f57f447ce000000000000000000000000000000000000000000000000000000008152600401612d9891906132f9565b60405180910390fd5b505b505050505050565b612e2c8363a9059cbb60e01b8484604051602401612dca929190613ac3565b604051602081830303815290604052907bffffffffffffffffffffffffffffffffffffffffffffffffffffffff19166020820180517bffffffffffffffffffffffffffffffffffffffffffffffffffffffff83818316178352505050506125a4565b505050565b6060612e408484600085612e49565b90509392505050565b606082471015612e8e576040517f08c379a0000000000000000000000000000000000000000000000000000000008152600401612e8590614042565b60405180910390fd5b6000808673ffffffffffffffffffffffffffffffffffffffff168587604051612eb79190614093565b60006040518083038185875af1925050503d8060008114612ef4576040519150601f19603f3d011682016040523d82523d6000602084013e612ef9565b606091505b5091509150612f0a87838387612f16565b92505050949350505050565b60608315612f78576000835103612f7057612f3085612f8b565b612f6f576040517f08c379a0000000000000000000000000000000000000000000000000000000008152600401612f66906140f6565b60405180910390fd5b5b829050612f83565b612f828383612fae565b5b949350505050565b6000808273ffffffffffffffffffffffffffffffffffffffff163b119050919050565b600082511115612fc15781518083602001fd5b806040517f08c379a0000000000000000000000000000000000000000000000000000000008152600401612ff591906132c8565b60405180910390fd5b6000604051905090565b600080fd5b600080fd5b6000819050919050565b61302581613012565b811461303057600080fd5b50565b6000813590506130428161301c565b92915050565b600073ffffffffffffffffffffffffffffffffffffffff82169050919050565b600061307382613048565b9050919050565b61308381613068565b811461308e57600080fd5b50565b6000813590506130a08161307a565b92915050565b600080604083850312156130bd576130bc613008565b5b60006130cb85828601613033565b92505060206130dc85828601613091565b9150509250929050565b6130ef81613012565b82525050565b600060208201905061310a60008301846130e6565b92915050565b6000806040838503121561312757613126613008565b5b600061313585828601613091565b925050602061314685828601613033565b9150509250929050565b60007fffffffff0000000000000000000000000000000000000000000000000000000082169050919050565b61318581613150565b811461319057600080fd5b50565b6000813590506131a28161317c565b92915050565b6000602082840312156131be576131bd613008565b5b60006131cc84828501613193565b91505092915050565b60008115159050919050565b6131ea816131d5565b82525050565b600060208201905061320560008301846131e1565b92915050565b60006020828403121561322157613220613008565b5b600061322f84828501613033565b91505092915050565b600081519050919050565b600082825260208201905092915050565b60005b83811015613272578082015181840152602081019050613257565b60008484015250505050565b6000601f19601f8301169050919050565b600061329a82613238565b6132a48185613243565b93506132b4818560208601613254565b6132bd8161327e565b840191505092915050565b600060208201905081810360008301526132e2818461328f565b905092915050565b6132f381613068565b82525050565b600060208201905061330e60008301846132ea565b92915050565b600080fd5b7f4e487b7100000000000000000000000000000000000000000000000000000000600052604160045260246000fd5b6133518261327e565b810181811067ffffffffffffffff821117156133705761336f613319565b5b80604052505050565b6000613383612ffe565b905061338f8282613348565b919050565b600067ffffffffffffffff8211156133af576133ae613319565b5b602082029050602081019050919050565b600080fd5b60006133d86133d384613394565b613379565b905080838252602082019050602084028301858111156133fb576133fa6133c0565b5b835b8181101561342457806134108882613033565b8452602084019350506020810190506133fd565b5050509392505050565b600082601f83011261344357613442613314565b5b81356134538482602086016133c5565b91505092915050565b600080fd5b600067ffffffffffffffff82111561347c5761347b613319565b5b6134858261327e565b9050602081019050919050565b82818337600083830152505050565b60006134b46134af84613461565b613379565b9050828152602081018484840111156134d0576134cf61345c565b5b6134db848285613492565b509392505050565b600082601f8301126134f8576134f7613314565b5b81356135088482602086016134a1565b91505092915050565b600080600080600060a0868803121561352d5761352c613008565b5b600061353b88828901613091565b955050602061354c88828901613091565b945050604086013567ffffffffffffffff81111561356d5761356c61300d565b5b6135798882890161342e565b935050606086013567ffffffffffffffff81111561359a5761359961300d565b5b6135a68882890161342e565b925050608086013567ffffffffffffffff8111156135c7576135c661300d565b5b6135d3888289016134e3565b9150509295509295909350565b6000806000606084860312156135f9576135f8613008565b5b600061360786828701613091565b935050602061361886828701613033565b925050604061362986828701613033565b9150509250925092565b600067ffffffffffffffff82111561364e5761364d613319565b5b602082029050602081019050919050565b600061367261366d84613633565b613379565b90508083825260208201905060208402830185811115613695576136946133c0565b5b835b818110156136be57806136aa8882613091565b845260208401935050602081019050613697565b5050509392505050565b600082601f8301126136dd576136dc613314565b5b81356136ed84826020860161365f565b91505092915050565b6000806040838503121561370d5761370c613008565b5b600083013567ffffffffffffffff81111561372b5761372a61300d565b5b613737858286016136c8565b925050602083013567ffffffffffffffff8111156137585761375761300d565b5b6137648582860161342e565b9150509250929050565b600081519050919050565b600082825260208201905092915050565b6000819050602082019050919050565b6137a381613012565b82525050565b60006137b5838361379a565b60208301905092915050565b6000602082019050919050565b60006137d98261376e565b6137e38185613779565b93506137ee8361378a565b8060005b8381101561381f57815161380688826137a9565b9750613811836137c1565b9250506001810190506137f2565b5085935050505092915050565b6000602082019050818103600083015261384681846137ce565b905092915050565b60006020828403121561386457613863613008565b5b600061387284828501613091565b91505092915050565b613884816131d5565b811461388f57600080fd5b50565b6000813590506138a18161387b565b92915050565b600080604083850312156138be576138bd613008565b5b60006138cc85828601613091565b92505060206138dd85828601613892565b9150509250929050565b600080604083850312156138fe576138fd613008565b5b600061390c85828601613091565b925050602061391d85828601613091565b9150509250929050565b600080600080600060a0868803121561394357613942613008565b5b600061395188828901613091565b955050602061396288828901613091565b945050604061397388828901613033565b935050606061398488828901613033565b925050608086013567ffffffffffffffff8111156139a5576139a461300d565b5b6139b1888289016134e3565b9150509295509295909350565b7f4e487b7100000000000000000000000000000000000000000000000000000000600052602260045260246000fd5b60006002820490506001821680613a0557607f821691505b602082108103613a1857613a176139be565b5b50919050565b7f4e487b7100000000000000000000000000000000000000000000000000000000600052601160045260246000fd5b6000613a5882613012565b9150613a6383613012565b9250828203905081811115613a7b57613a7a613a1e565b5b92915050565b6000613a8c82613012565b9150613a9783613012565b9250828202613aa581613012565b91508282048414831517613abc57613abb613a1e565b5b5092915050565b6000604082019050613ad860008301856132ea565b613ae560208301846130e6565b9392505050565b600081519050613afb8161387b565b92915050565b600060208284031215613b1757613b16613008565b5b6000613b2584828501613aec565b91505092915050565b6000604082019050613b4360008301856130e6565b613b5060208301846132ea565b9392505050565b6000604082019050613b6c60008301856132ea565b613b7960208301846132ea565b9392505050565b6000613b8b82613012565b9150613b9683613012565b9250828201905080821115613bae57613bad613a1e565b5b92915050565b600060a082019050613bc960008301886132ea565b613bd660208301876130e6565b613be360408301866132ea565b613bf060608301856130e6565b613bfd60808301846132ea565b9695505050505050565b6000608082019050613c1c60008301876130e6565b613c2960208301866132ea565b613c3660408301856132ea565b613c4360608301846130e6565b95945050505050565b6000604082019050613c6160008301856130e6565b613c6e60208301846130e6565b9392505050565b7f4e487b7100000000000000000000000000000000000000000000000000000000600052603260045260246000fd5b6000613caf82613012565b91507fffffffffffffffffffffffffffffffffffffffffffffffffffffffffffffffff8203613ce157613ce0613a1e565b5b600182019050919050565b6000606082019050613d0160008301866132ea565b613d0e60208301856132ea565b613d1b60408301846130e6565b949350505050565b600081905092915050565b50565b6000613d3e600083613d23565b9150613d4982613d2e565b600082019050919050565b6000613d5f82613d31565b9150819050919050565b7f5361666545524332303a204552433230206f7065726174696f6e20646964206e60008201527f6f74207375636365656400000000000000000000000000000000000000000000602082015250565b6000613dc5602a83613243565b9150613dd082613d69565b604082019050919050565b60006020820190508181036000830152613df481613db8565b9050919050565b6000608082019050613e1060008301876132ea565b613e1d60208301866130e6565b613e2a60408301856130e6565b613e3760608301846130e6565b95945050505050565b60006040820190508181036000830152613e5a81856137ce565b90508181036020830152613e6e81846137ce565b90509392505050565b600081519050919050565b600082825260208201905092915050565b6000613e9e82613e77565b613ea88185613e82565b9350613eb8818560208601613254565b613ec18161327e565b840191505092915050565b600060a082019050613ee160008301886132ea565b613eee60208301876132ea565b613efb60408301866130e6565b613f0860608301856130e6565b8181036080830152613f1a8184613e93565b90509695505050505050565b600081519050613f358161317c565b92915050565b600060208284031215613f5157613f50613008565b5b6000613f5f84828501613f26565b91505092915050565b600060a082019050613f7d60008301886132ea565b613f8a60208301876132ea565b8181036040830152613f9c81866137ce565b90508181036060830152613fb081856137ce565b90508181036080830152613fc48184613e93565b90509695505050505050565b7f416464726573733a20696e73756666696369656e742062616c616e636520666f60008201527f722063616c6c0000000000000000000000000000000000000000000000000000602082015250565b600061402c602683613243565b915061403782613fd0565b604082019050919050565b6000602082019050818103600083015261405b8161401f565b9050919050565b600061406d82613e77565b6140778185613d23565b9350614087818560208601613254565b80840191505092915050565b600061409f8284614062565b915081905092915050565b7f416464726573733a2063616c6c20746f206e6f6e2d636f6e7472616374000000600082015250565b60006140e0601d83613243565b91506140eb826140aa565b602082019050919050565b6000602082019050818103600083015261410f816140d3565b905091905056fea2646970667358221220c13d7ba1b0177679cfb76dc42a586b5f0a4a07588f8149a4e542c8a2cff5835364736f6c634300081b0033a264697066735822122054f1adb59b8175c7c8d814cb9ccea033faf4fb8493980b0645d24667cbc17c9b64736f6c634300081b0033",
  "linkReferences": {},
  "deployedLinkReferences": {}
}