{
  "_format": "hh-sol-artifact-1",
  "contractName": "TokenFactory",
  "sourceName": "contracts/LazyMintFactory.sol",
  "abi": [
    {
      "inputs": [
        {
          "internalType": "address",
          "name": "_implementation",
          "type": "address"
        }
      ],
      "stateMutability": "nonpayable",
      "type": "constructor"
    },
    {
      "inputs": [],
      "name": "FailedDeployment",
      "type": "error"
    },
    {
      "inputs": [],
      "name": "FeeMustBeSetWithBudget",
      "type": "error"
    },
    {
      "inputs": [],
      "name": "ImplementationNotSet",
      "type": "error"
    },
    {
      "inputs": [
        {
          "internalType": "uint256",
          "name": "balance",
          "type": "uint256"
        },
        {
          "internalType": "uint256",
          "name": "needed",
          "type": "uint256"
        }
      ],
      "name": "InsufficientBalance",
      "type": "error"
    },
    {
      "inputs": [],
      "name": "MaxSupplyMustBeGreaterThanZero",
      "type": "error"
    },
    {
      "inputs": [],
      "name": "NotProjectOwner",
      "type": "error"
    },
    {
      "inputs": [
        {
          "internalType": "address",
          "name": "owner",
          "type": "address"
        }
      ],
      "name": "OwnableInvalidOwner",
      "type": "error"
    },
    {
      "inputs": [
        {
          "internalType": "address",
          "name": "account",
          "type": "address"
        }
      ],
      "name": "OwnableUnauthorizedAccount",
      "type": "error"
    },
    {
      "inputs": [],
      "name": "ProjectDoesNotExist",
      "type": "error"
    },
    {
      "anonymous": false,
      "inputs": [
        {
          "indexed": true,
          "internalType": "address",
          "name": "oldImplementation",
          "type": "address"
        },
        {
          "indexed": true,
          "internalType": "address",
          "name": "newImplementation",
          "type": "address"
        }
      ],
      "name": "ImplementationUpdated",
      "type": "event"
    },
    {
      "anonymous": false,
      "inputs": [
        {
          "indexed": true,
          "internalType": "address",
          "name": "creator",
          "type": "address"
        },
        {
          "indexed": false,
          "internalType": "address",
          "name": "lazyMintAddress",
          "type": "address"
        },
        {
          "indexed": false,
          "internalType": "string",
          "name": "uri",
          "type": "string"
        },
        {
          "indexed": false,
          "internalType": "uint256",
          "name": "maxSupply",
          "type": "uint256"
        },
        {
          "indexed": false,
          "internalType": "uint256",
          "name": "claimStart",
          "type": "uint256"
        },
        {
          "indexed": false,
          "internalType": "uint256",
          "name": "claimEnd",
          "type": "uint256"
        },
        {
          "indexed": false,
          "internalType": "uint256",
          "name": "redeemExpiration",
          "type": "uint256"
        },
        {
          "indexed": false,
          "internalType": "uint256",
          "name": "lockedBudget",
          "type": "uint256"
        },
        {
          "indexed": false,
          "internalType": "address",
          "name": "currencyAddress",
          "type": "address"
        },
        {
          "indexed": false,
          "internalType": "uint256",
          "name": "tokenId",
          "type": "uint256"
        },
        {
          "indexed": false,
          "internalType": "uint256",
          "name": "fee",
          "type": "uint256"
        },
        {
          "indexed": true,
          "internalType": "uint256",
          "name": "projectId",
          "type": "uint256"
        }
      ],
      "name": "LazyMintDeployed",
      "type": "event"
    },
    {
      "anonymous": false,
      "inputs": [
        {
          "indexed": true,
          "internalType": "address",
          "name": "previousOwner",
          "type": "address"
        },
        {
          "indexed": true,
          "internalType": "address",
          "name": "newOwner",
          "type": "address"
        }
      ],
      "name": "OwnershipTransferred",
      "type": "event"
    },
    {
      "anonymous": false,
      "inputs": [
        {
          "indexed": true,
          "internalType": "uint256",
          "name": "projectId",
          "type": "uint256"
        },
        {
          "indexed": true,
          "internalType": "address",
          "name": "owner",
          "type": "address"
        },
        {
          "indexed": false,
          "internalType": "string",
          "name": "name",
          "type": "string"
        }
      ],
      "name": "ProjectCreated",
      "type": "event"
    },
    {
      "anonymous": false,
      "inputs": [
        {
          "indexed": true,
          "internalType": "uint256",
          "name": "projectId",
          "type": "uint256"
        },
        {
          "indexed": true,
          "internalType": "address",
          "name": "owner",
          "type": "address"
        },
        {
          "indexed": false,
          "internalType": "string",
          "name": "name",
          "type": "string"
        }
      ],
      "name": "ProjectUpdated",
      "type": "event"
    },
    {
      "inputs": [],
      "name": "NO_PROJECT_ID",
      "outputs": [
        {
          "internalType": "uint256",
          "name": "",
          "type": "uint256"
        }
      ],
      "stateMutability": "view",
      "type": "function"
    },
    {
      "inputs": [],
      "name": "TOKEN_ID",
      "outputs": [
        {
          "internalType": "uint256",
          "name": "",
          "type": "uint256"
        }
      ],
      "stateMutability": "view",
      "type": "function"
    },
    {
      "inputs": [
        {
          "internalType": "address",
          "name": "",
          "type": "address"
        }
      ],
      "name": "couponToProject",
      "outputs": [
        {
          "internalType": "uint256",
          "name": "",
          "type": "uint256"
        }
      ],
      "stateMutability": "view",
      "type": "function"
    },
    {
      "inputs": [
        {
          "internalType": "uint256",
          "name": "_projectId",
          "type": "uint256"
        },
        {
          "internalType": "string",
          "name": "_projectName",
          "type": "string"
        },
        {
          "internalType": "string",
          "name": "_uri",
          "type": "string"
        },
        {
          "internalType": "uint256",
          "name": "_maxSupply",
          "type": "uint256"
        },
        {
          "internalType": "uint256",
          "name": "_claimStart",
          "type": "uint256"
        },
        {
          "internalType": "uint256",
          "name": "_claimEnd",
          "type": "uint256"
        },
        {
          "internalType": "uint256",
          "name": "_redeemExpiration",
          "type": "uint256"
        },
        {
          "internalType": "uint256",
          "name": "_lockedBudget",
          "type": "uint256"
        },
        {
          "internalType": "address",
          "name": "_currencyAddress",
          "type": "address"
        },
        {
          "internalType": "uint256",
          "name": "_fee",
          "type": "uint256"
        },
        {
          "internalType": "bytes32",
          "name": "_salt",
          "type": "bytes32"
        }
      ],
      "name": "createLazyMint",
      "outputs": [
        {
          "internalType": "address",
          "name": "",
          "type": "address"
        }
      ],
      "stateMutability": "payable",
      "type": "function"
    },
    {
      "inputs": [
        {
          "internalType": "string",
          "name": "_name",
          "type": "string"
        }
      ],
      "name": "createProject",
      "outputs": [
        {
          "internalType": "uint256",
          "name": "",
          "type": "uint256"
        }
      ],
      "stateMutability": "nonpayable",
      "type": "function"
    },
    {
      "inputs": [
        {
          "internalType": "address",
          "name": "_couponAddress",
          "type": "address"
        }
      ],
      "name": "getCouponProject",
      "outputs": [
        {
          "internalType": "uint256",
          "name": "",
          "type": "uint256"
        }
      ],
      "stateMutability": "view",
      "type": "function"
    },
    {
      "inputs": [
        {
          "internalType": "uint256",
          "name": "_projectId",
          "type": "uint256"
        }
      ],
      "name": "getProjectCoupons",
      "outputs": [
        {
          "internalType": "address[]",
          "name": "",
          "type": "address[]"
        }
      ],
      "stateMutability": "view",
      "type": "function"
    },
    {
      "inputs": [],
      "name": "implementation",
      "outputs": [
        {
          "internalType": "address",
          "name": "",
          "type": "address"
        }
      ],
      "stateMutability": "view",
      "type": "function"
    },
    {
      "inputs": [],
      "name": "owner",
      "outputs": [
        {
          "internalType": "address",
          "name": "",
          "type": "address"
        }
      ],
      "stateMutability": "view",
      "type": "function"
    },
    {
      "inputs": [
        {
          "internalType": "bytes32",
          "name": "_salt",
          "type": "bytes32"
        }
      ],
      "name": "predictCouponAddress",
      "outputs": [
        {
          "internalType": "address",
          "name": "",
          "type": "address"
        }
      ],
      "stateMutability": "view",
      "type": "function"
    },
    {
      "inputs": [],
      "name": "projectCount",
      "outputs": [
        {
          "internalType": "uint256",
          "name": "",
          "type": "uint256"
        }
      ],
      "stateMutability": "view",
      "type": "function"
    },
    {
      "inputs": [
        {
          "internalType": "uint256",
          "name": "",
          "type": "uint256"
        }
      ],
      "name": "projects",
      "outputs": [
        {
          "internalType": "string",
          "name": "name",
          "type": "string"
        },
        {
          "internalType": "address",
          "name": "owner",
          "type": "address"
        },
        {
          "internalType": "uint256",
          "name": "createdAt",
          "type": "uint256"
        }
      ],
      "stateMutability": "view",
      "type": "function"
    },
    {
      "inputs": [],
      "name": "renounceOwnership",
      "outputs": [],
      "stateMutability": "nonpayable",
      "type": "function"
    },
    {
      "inputs": [
        {
          "internalType": "address",
          "name": "newOwner",
          "type": "address"
        }
      ],
      "name": "transferOwnership",
      "outputs": [],
      "stateMutability": "nonpayable",
      "type": "function"
    },
    {
      "inputs": [
        {
          "internalType": "address",
          "name": "_newImplementation",
          "type": "address"
        }
      ],
      "name": "updateImplementation",
      "outputs": [],
      "stateMutability": "nonpayable",
      "type": "function"
    },
    {
      "inputs": [
        {
          "internalType": "uint256",
          "name": "_projectId",
          "type": "uint256"
        },
        {
          "internalType": "string",
          "name": "_name",
          "type": "string"
        }
      ],
      "name": "updateProject",
      "outputs": [],
      "stateMutability": "nonpayable",
      "type": "function"
    }
  ],
  "bytecode": "0x6080346100fa57601f610f3538819003918201601f19168301916001600160401b038311848410176100ff578084926020946040528339810103126100fa57516001600160a01b038116908190036100fa5733156100e45760008054336001600160a01b0319821681178355604051939290916001600160a01b0316907f8be0079c531659141344cd1fd0a4f28419497f9722a3daafe3b4186f6b6457e09080a3600180546001600160a01b0319168217905560007faa3f731066a578e5f39b4215468d826cdd15373cbc0dfc9cb9bdc649718ef7da8180a3610e1f90816101168239f35b631e4fbdf760e01b600052600060045260246000fd5b600080fd5b634e487b7160e01b600052604160045260246000fdfe608080604052600436101561001357600080fd5b600090813560e01c908163018e2b2a14610ac857508063025b22bc14610a5d578063107046bd1461096d57806315ee4df11461092957806336fbad261461090b57806342c64442146108885780635c60da1b1461085f5780636e08547b14610826578063715018a6146107cc57806389a89002146107b05780638da5cb5b14610789578063bbc3a7f3146105af578063bc502f391461024b578063cd8cf88f14610176578063f2fde38b146100f05763f4495159146100d157600080fd5b346100ed57806003193601126100ed5760206040516000198152f35b80fd5b50346100ed5760203660031901126100ed5761010a610b02565b610112610dc0565b6001600160a01b031680156101625781546001600160a01b03198116821783556001600160a01b03167f8be0079c531659141344cd1fd0a4f28419497f9722a3daafe3b4186f6b6457e08380a380f35b631e4fbdf760e01b82526004829052602482fd5b50346100ed5760203660031901126100ed5760043560045481101561023c578152600260205260026040822001604051908160208254918281520190819285526020852090855b81811061021d57505050826101d3910383610b57565b604051928392602084019060208552518091526040840192915b8181106101fb575050500390f35b82516001600160a01b03168452859450602093840193909201916001016101ed565b82546001600160a01b03168452602090930192600192830192016101bd565b6338fde52b60e01b8252600482fd5b506101603660031901126100ed5760043560243567ffffffffffffffff81116105ab5761027c903690600401610bd0565b9060443567ffffffffffffffff81116105a75761029d903690600401610bd0565b606435906084359360a4359360c43560e43590610104359260018060a01b0384168094036105a3576001546101243595906001600160a01b031615610594576000198203610546576102ef9150610c27565b965b8615610537578215158061052f575b61052057600154608881901c62ffffff16763d602d80600a3d3981f3363d3d373d3d3d363d73000000178b5260781b6effffffffffffffffffffffffffffff19166e5af43d82803e903d91602b57fd5bf3176020526001600160a01b0361014435603760098df51698891561051157893b1561050d576040516395e74bc760e01b815261014060048201528b818c81808d61039f61014483018f610b8f565b9060248301528760448301528860648301528960848301528a60a48301528b60c48301528560e48301528c61010483015233610124830152039134905af18015610502576104ee575b50888b526002602052600260408c2001805490680100000000000000008210156104da57600182018082558210156104c657918c9593917fb0d2e457bcb08670e640ae345c7a03d7e41de4d24bfeafda0dfec84077e07df5999897959360209e528d8720018c6bffffffffffffffffffffffff60a01b8254161790558b865260038d528a604087205561048d604051988d8a526101408f8b01526101408a0190610b8f565b9960408901526060880152608087015260a086015260c085015260e08401526101008301526101208201528033930390a3604051908152f35b634e487b7160e01b8d52603260045260248dfd5b634e487b7160e01b8d52604160045260248dfd5b8b6104fb919c929c610b57565b99386103e8565b6040513d8e823e3d90fd5b8a80fd5b63b06ebf3d60e01b8b5260048bfd5b63938693cf60e01b8a5260048afd5b508415610300565b63ad03f1cd60e01b8a5260048afd5b5060045481101561058557808a52600260205260408a20600101546001600160a01b0316330361057657966102f1565b637c2411e960e01b8a5260048afd5b6338fde52b60e01b8a5260048afd5b6340dde93560e01b8b5260048bfd5b8980fd5b8380fd5b8280fd5b50346100ed5760403660031901126100ed5760043560243567ffffffffffffffff81116105ab576105e4903690600401610bd0565b9060045481101561077a57808352600260205260408320600101546001600160a01b0316330361076b57808352600260205260408320825167ffffffffffffffff8111610757576106358254610b1d565b601f8111610712575b50806020601f82116001146106b15786916106a6575b508160011b916000199060031b1c19161790555b7fc5415528ee86488fe1f477421de501f322736399c3109615bf3be675485a928b60405160208152806106a033956020830190610b8f565b0390a380f35b905084015138610654565b8387528087209150601f198316875b8181106106fa575090836001949392106106e1575b5050811b019055610668565b86015160001960f88460031b161c1916905538806106d5565b9192602060018192868b0151815501940192016106c0565b82865260208620601f830160051c8101916020841061074d575b601f0160051c01905b818110610742575061063e565b868155600101610735565b909150819061072c565b634e487b7160e01b85526041600452602485fd5b637c2411e960e01b8352600483fd5b6338fde52b60e01b8352600483fd5b50346100ed57806003193601126100ed57546040516001600160a01b039091168152602090f35b50346100ed57806003193601126100ed57602090604051908152f35b50346100ed57806003193601126100ed576107e5610dc0565b80546001600160a01b03198116825581906001600160a01b03167f8be0079c531659141344cd1fd0a4f28419497f9722a3daafe3b4186f6b6457e08280a380f35b50346100ed5760203660031901126100ed576020906040906001600160a01b0361084e610b02565b168152600383522054604051908152f35b50346100ed57806003193601126100ed576001546040516001600160a01b039091168152602090f35b50346100ed5760203660031901126100ed57600154604080513060388201526f5af43d82803e903d91602b57fd5bf3ff60248201526001600160a01b039283166014820152733d602d80600a3d3981f3363d3d373d3d3d363d73815260043560588201526037600c82012060788201526055604390910120905191168152602090f35b50346100ed57806003193601126100ed576020600454604051908152f35b50346100ed5760203660031901126100ed576004359067ffffffffffffffff82116100ed5760206109656109603660048601610bd0565b610c27565b604051908152f35b50346100ed5760203660031901126100ed576004358152600260205260408120604051908281549061099e82610b1d565b8085529160018116908115610a3557506001146109fc575b50506109c7826109ed940383610b57565b600360018060a01b03600183015416910154604051938493606085526060850190610b8f565b91602084015260408301520390f35b909350818152602081205b848210610a1f5750820160200192506109c7826109b6565b6001816020925483858801015201910190610a07565b6109ed965085925060209150926109c79360ff191682840152151560051b82010194506109b6565b50346100ed5760203660031901126100ed57610a77610b02565b610a7f610dc0565b600180546001600160a01b039283166001600160a01b0319821681179092559091167faa3f731066a578e5f39b4215468d826cdd15373cbc0dfc9cb9bdc649718ef7da8380a380f35b905034610afe576020366003190112610afe576020916040906001600160a01b03610af1610b02565b1681526003845220548152f35b5080fd5b600435906001600160a01b0382168203610b1857565b600080fd5b90600182811c92168015610b4d575b6020831014610b3757565b634e487b7160e01b600052602260045260246000fd5b91607f1691610b2c565b90601f8019910116810190811067ffffffffffffffff821117610b7957604052565b634e487b7160e01b600052604160045260246000fd5b919082519283825260005b848110610bbb575050826000602080949584010152601f8019910116010190565b80602080928401015182828601015201610b9a565b81601f82011215610b185780359067ffffffffffffffff8211610b795760405192610c05601f8401601f191660200185610b57565b82845260208383010111610b1857816000926020809301838601378301015290565b600454908160005260026020526040600020815167ffffffffffffffff8111610b7957610c548254610b1d565b601f8111610d78575b50806020601f8211600114610d1557600091610d0a575b508160011b916000199060031b1c19161781555b6001810180546001600160a01b03191633179055426003909101556004546000198114610cf457600101600455817f9d9ec461f162f3f4fdb9f6d189bfe13c59e48d8acd23a4c3bfcf7cc0fe4e84ed6040516020815280610cee33956020830190610b8f565b0390a390565b634e487b7160e01b600052601160045260246000fd5b905083015138610c74565b60008481528181209250601f198416905b818110610d6057509083600194939210610d47575b5050811b018155610c88565b85015160001960f88460031b161c191690553880610d3b565b9192602060018192868a015181550194019201610d26565b826000526020600020601f830160051c81019160208410610db6575b601f0160051c01905b818110610daa5750610c5d565b60008155600101610d9d565b9091508190610d94565b6000546001600160a01b03163303610dd457565b63118cdaa760e01b6000523360045260246000fdfea2646970667358221220b9418d4e214ce1a16ed80ff4da2468df665297d9fad76c5f7a298b166868240d64736f6c634300081c0033",
  "linkReferences": {},
  "deployedLinkReferences": {}
}