{
  "_format": "hh-sol-artifact-1",
  "contractName": "Coupon",
  "sourceName": "contracts/Coupon.sol",
  "abi": [
    {
      "inputs": [],
      "stateMutability": "nonpayable",
      "type": "constructor"
    },
    {
      "inputs": [],
      "name": "AlreadyInitialized",
      "type": "error"
    },
    {
      "inputs": [],
      "name": "AlreadyRegisteredAsAffiliate",
      "type": "error"
    },
    {
      "inputs": [],
      "name": "ClaimEndMustBeBeforeRedeemExpiration",
      "type": "error"
    },
    {
      "inputs": [],
      "name": "ClaimExpired",
      "type": "error"
    },
    {
      "inputs": [],
      "name": "ClaimNotStarted",
      "type": "error"
    },
    {
      "inputs": [],
      "name": "ClaimStartMustBeBeforeClaimEnd",
      "type": "error"
    },
    {
      "inputs": [
        {
          "internalType": "address",
          "name": "recipient",
          "type": "address"
        },
        {
          "internalType": "uint256",
          "name": "value",
          "type": "uint256"
        }
      ],
      "name": "CurrencyTransferLibFailedNativeTransfer",
      "type": "error"
    },
    {
      "inputs": [
        {
          "internalType": "address",
          "name": "sender",
          "type": "address"
        },
        {
          "internalType": "uint256",
          "name": "balance",
          "type": "uint256"
        },
        {
          "internalType": "uint256",
          "name": "needed",
          "type": "uint256"
        },
        {
          "internalType": "uint256",
          "name": "tokenId",
          "type": "uint256"
        }
      ],
      "name": "ERC1155InsufficientBalance",
      "type": "error"
    },
    {
      "inputs": [
        {
          "internalType": "address",
          "name": "approver",
          "type": "address"
        }
      ],
      "name": "ERC1155InvalidApprover",
      "type": "error"
    },
    {
      "inputs": [
        {
          "internalType": "uint256",
          "name": "idsLength",
          "type": "uint256"
        },
        {
          "internalType": "uint256",
          "name": "valuesLength",
          "type": "uint256"
        }
      ],
      "name": "ERC1155InvalidArrayLength",
      "type": "error"
    },
    {
      "inputs": [
        {
          "internalType": "address",
          "name": "operator",
          "type": "address"
        }
      ],
      "name": "ERC1155InvalidOperator",
      "type": "error"
    },
    {
      "inputs": [
        {
          "internalType": "address",
          "name": "receiver",
          "type": "address"
        }
      ],
      "name": "ERC1155InvalidReceiver",
      "type": "error"
    },
    {
      "inputs": [
        {
          "internalType": "address",
          "name": "sender",
          "type": "address"
        }
      ],
      "name": "ERC1155InvalidSender",
      "type": "error"
    },
    {
      "inputs": [
        {
          "internalType": "address",
          "name": "operator",
          "type": "address"
        },
        {
          "internalType": "address",
          "name": "owner",
          "type": "address"
        }
      ],
      "name": "ERC1155MissingApprovalForAll",
      "type": "error"
    },
    {
      "inputs": [],
      "name": "ExceedsMaxSupply",
      "type": "error"
    },
    {
      "inputs": [],
      "name": "ExcessiveBudget",
      "type": "error"
    },
    {
      "inputs": [],
      "name": "FeeMustBeGreaterThanZero",
      "type": "error"
    },
    {
      "inputs": [],
      "name": "InsufficientBudget",
      "type": "error"
    },
    {
      "inputs": [],
      "name": "InvalidAffiliateAddress",
      "type": "error"
    },
    {
      "inputs": [],
      "name": "InvalidAffiliateID",
      "type": "error"
    },
    {
      "inputs": [],
      "name": "InvalidCurrencyAmount",
      "type": "error"
    },
    {
      "inputs": [],
      "name": "InvalidInitialization",
      "type": "error"
    },
    {
      "inputs": [],
      "name": "InvalidWithdrawalAmount",
      "type": "error"
    },
    {
      "inputs": [],
      "name": "MaxSupplyMustBeGreaterThanZero",
      "type": "error"
    },
    {
      "inputs": [],
      "name": "MustSendTotalFee",
      "type": "error"
    },
    {
      "inputs": [],
      "name": "NoAffiliateAssociated",
      "type": "error"
    },
    {
      "inputs": [],
      "name": "NotInitializing",
      "type": "error"
    },
    {
      "inputs": [
        {
          "internalType": "address",
          "name": "owner",
          "type": "address"
        }
      ],
      "name": "OwnableInvalidOwner",
      "type": "error"
    },
    {
      "inputs": [
        {
          "internalType": "address",
          "name": "account",
          "type": "address"
        }
      ],
      "name": "OwnableUnauthorizedAccount",
      "type": "error"
    },
    {
      "inputs": [],
      "name": "OwnerDoesNotOwnToken",
      "type": "error"
    },
    {
      "inputs": [],
      "name": "QuantityMustBeGreaterThanZero",
      "type": "error"
    },
    {
      "inputs": [],
      "name": "RedeemExpired",
      "type": "error"
    },
    {
      "inputs": [],
      "name": "TokenAlreadyClaimed",
      "type": "error"
    },
    {
      "inputs": [],
      "name": "TokenQuantityAlreadyRedeemed",
      "type": "error"
    },
    {
      "anonymous": false,
      "inputs": [
        {
          "indexed": true,
          "internalType": "address",
          "name": "affiliateAddress",
          "type": "address"
        },
        {
          "indexed": false,
          "internalType": "address",
          "name": "contractAddress",
          "type": "address"
        },
        {
          "indexed": false,
          "internalType": "uint256",
          "name": "timestamp",
          "type": "uint256"
        }
      ],
      "name": "AffiliateRegistered",
      "type": "event"
    },
    {
      "anonymous": false,
      "inputs": [
        {
          "indexed": true,
          "internalType": "address",
          "name": "account",
          "type": "address"
        },
        {
          "indexed": true,
          "internalType": "address",
          "name": "operator",
          "type": "address"
        },
        {
          "indexed": false,
          "internalType": "bool",
          "name": "approved",
          "type": "bool"
        }
      ],
      "name": "ApprovalForAll",
      "type": "event"
    },
    {
      "anonymous": false,
      "inputs": [
        {
          "indexed": true,
          "internalType": "address",
          "name": "locker",
          "type": "address"
        },
        {
          "indexed": false,
          "internalType": "uint256",
          "name": "amount",
          "type": "uint256"
        },
        {
          "indexed": false,
          "internalType": "address",
          "name": "contractAddress",
          "type": "address"
        }
      ],
      "name": "BudgetLocked",
      "type": "event"
    },
    {
      "anonymous": false,
      "inputs": [
        {
          "indexed": true,
          "internalType": "address",
          "name": "withdrawer",
          "type": "address"
        },
        {
          "indexed": false,
          "internalType": "uint256",
          "name": "amount",
          "type": "uint256"
        },
        {
          "indexed": false,
          "internalType": "address",
          "name": "contractAddress",
          "type": "address"
        }
      ],
      "name": "BudgetWithdrawn",
      "type": "event"
    },
    {
      "anonymous": false,
      "inputs": [
        {
          "indexed": true,
          "internalType": "address",
          "name": "owner",
          "type": "address"
        },
        {
          "indexed": true,
          "internalType": "uint256",
          "name": "tokenId",
          "type": "uint256"
        },
        {
          "indexed": false,
          "internalType": "address",
          "name": "affiliateAddress",
          "type": "address"
        },
        {
          "indexed": false,
          "internalType": "uint256",
          "name": "fee",
          "type": "uint256"
        },
        {
          "indexed": false,
          "internalType": "address",
          "name": "contractAddress",
          "type": "address"
        },
        {
          "indexed": false,
          "internalType": "uint256",
          "name": "timestamp",
          "type": "uint256"
        },
        {
          "indexed": false,
          "internalType": "address",
          "name": "currency",
          "type": "address"
        }
      ],
      "name": "CouponRedeemed",
      "type": "event"
    },
    {
      "anonymous": false,
      "inputs": [
        {
          "indexed": false,
          "internalType": "uint64",
          "name": "version",
          "type": "uint64"
        }
      ],
      "name": "Initialized",
      "type": "event"
    },
    {
      "anonymous": false,
      "inputs": [
        {
          "indexed": true,
          "internalType": "address",
          "name": "previousOwner",
          "type": "address"
        },
        {
          "indexed": true,
          "internalType": "address",
          "name": "newOwner",
          "type": "address"
        }
      ],
      "name": "OwnershipTransferred",
      "type": "event"
    },
    {
      "anonymous": false,
      "inputs": [
        {
          "indexed": true,
          "internalType": "address",
          "name": "claimer",
          "type": "address"
        },
        {
          "indexed": true,
          "internalType": "address",
          "name": "receiver",
          "type": "address"
        },
        {
          "indexed": true,
          "internalType": "uint256",
          "name": "tokenId",
          "type": "uint256"
        },
        {
          "indexed": false,
          "internalType": "address",
          "name": "affiliateAddress",
          "type": "address"
        },
        {
          "indexed": false,
          "internalType": "address",
          "name": "contractAddress",
          "type": "address"
        },
        {
          "indexed": false,
          "internalType": "uint256",
          "name": "timestamp",
          "type": "uint256"
        },
        {
          "indexed": false,
          "internalType": "string",
          "name": "_tokenURI",
          "type": "string"
        }
      ],
      "name": "TokenClaimed",
      "type": "event"
    },
    {
      "anonymous": false,
      "inputs": [
        {
          "indexed": true,
          "internalType": "address",
          "name": "operator",
          "type": "address"
        },
        {
          "indexed": true,
          "internalType": "address",
          "name": "from",
          "type": "address"
        },
        {
          "indexed": true,
          "internalType": "address",
          "name": "to",
          "type": "address"
        },
        {
          "indexed": false,
          "internalType": "uint256[]",
          "name": "ids",
          "type": "uint256[]"
        },
        {
          "indexed": false,
          "internalType": "uint256[]",
          "name": "values",
          "type": "uint256[]"
        }
      ],
      "name": "TransferBatch",
      "type": "event"
    },
    {
      "anonymous": false,
      "inputs": [
        {
          "indexed": true,
          "internalType": "address",
          "name": "operator",
          "type": "address"
        },
        {
          "indexed": true,
          "internalType": "address",
          "name": "from",
          "type": "address"
        },
        {
          "indexed": true,
          "internalType": "address",
          "name": "to",
          "type": "address"
        },
        {
          "indexed": false,
          "internalType": "uint256",
          "name": "id",
          "type": "uint256"
        },
        {
          "indexed": false,
          "internalType": "uint256",
          "name": "value",
          "type": "uint256"
        }
      ],
      "name": "TransferSingle",
      "type": "event"
    },
    {
      "anonymous": false,
      "inputs": [
        {
          "indexed": false,
          "internalType": "string",
          "name": "value",
          "type": "string"
        },
        {
          "indexed": true,
          "internalType": "uint256",
          "name": "id",
          "type": "uint256"
        }
      ],
      "name": "URI",
      "type": "event"
    },
    {
      "inputs": [
        {
          "internalType": "address",
          "name": "",
          "type": "address"
        }
      ],
      "name": "affiliateReferrals",
      "outputs": [
        {
          "internalType": "uint256",
          "name": "",
          "type": "uint256"
        }
      ],
      "stateMutability": "view",
      "type": "function"
    },
    {
      "inputs": [
        {
          "internalType": "address",
          "name": "account",
          "type": "address"
        },
        {
          "internalType": "uint256",
          "name": "id",
          "type": "uint256"
        }
      ],
      "name": "balanceOf",
      "outputs": [
        {
          "internalType": "uint256",
          "name": "",
          "type": "uint256"
        }
      ],
      "stateMutability": "view",
      "type": "function"
    },
    {
      "inputs": [
        {
          "internalType": "address[]",
          "name": "accounts",
          "type": "address[]"
        },
        {
          "internalType": "uint256[]",
          "name": "ids",
          "type": "uint256[]"
        }
      ],
      "name": "balanceOfBatch",
      "outputs": [
        {
          "internalType": "uint256[]",
          "name": "",
          "type": "uint256[]"
        }
      ],
      "stateMutability": "view",
      "type": "function"
    },
    {
      "inputs": [],
      "name": "calculateRequiredBudget",
      "outputs": [
        {
          "internalType": "uint256",
          "name": "",
          "type": "uint256"
        }
      ],
      "stateMutability": "view",
      "type": "function"
    },
    {
      "inputs": [],
      "name": "claimEnd",
      "outputs": [
        {
          "internalType": "uint256",
          "name": "",
          "type": "uint256"
        }
      ],
      "stateMutability": "view",
      "type": "function"
    },
    {
      "inputs": [],
      "name": "claimStart",
      "outputs": [
        {
          "internalType": "uint256",
          "name": "",
          "type": "uint256"
        }
      ],
      "stateMutability": "view",
      "type": "function"
    },
    {
      "inputs": [],
      "name": "currencyAddress",
      "outputs": [
        {
          "internalType": "address",
          "name": "",
          "type": "address"
        }
      ],
      "stateMutability": "view",
      "type": "function"
    },
    {
      "inputs": [
        {
          "internalType": "address",
          "name": "affiliateAddress",
          "type": "address"
        }
      ],
      "name": "customClaim",
      "outputs": [],
      "stateMutability": "payable",
      "type": "function"
    },
    {
      "inputs": [],
      "name": "fee",
      "outputs": [
        {
          "internalType": "uint256",
          "name": "",
          "type": "uint256"
        }
      ],
      "stateMutability": "view",
      "type": "function"
    },
    {
      "inputs": [],
      "name": "getAvailableBudget",
      "outputs": [
        {
          "internalType": "uint256",
          "name": "",
          "type": "uint256"
        }
      ],
      "stateMutability": "view",
      "type": "function"
    },
    {
      "inputs": [
        {
          "internalType": "string",
          "name": "_uri",
          "type": "string"
        },
        {
          "internalType": "uint256",
          "name": "_maxSupply",
          "type": "uint256"
        },
        {
          "internalType": "uint256",
          "name": "_claimStart",
          "type": "uint256"
        },
        {
          "internalType": "uint256",
          "name": "_claimEnd",
          "type": "uint256"
        },
        {
          "internalType": "uint256",
          "name": "_redeemExpiration",
          "type": "uint256"
        },
        {
          "internalType": "uint256",
          "name": "_lockedBudget",
          "type": "uint256"
        },
        {
          "internalType": "address",
          "name": "_currencyAddress",
          "type": "address"
        },
        {
          "internalType": "uint256",
          "name": "_tokenId",
          "type": "uint256"
        },
        {
          "internalType": "uint256",
          "name": "_fee",
          "type": "uint256"
        },
        {
          "internalType": "address",
          "name": "_owner",
          "type": "address"
        }
      ],
      "name": "initialize",
      "outputs": [],
      "stateMutability": "payable",
      "type": "function"
    },
    {
      "inputs": [
        {
          "internalType": "address",
          "name": "",
          "type": "address"
        }
      ],
      "name": "isAffiliate",
      "outputs": [
        {
          "internalType": "bool",
          "name": "",
          "type": "bool"
        }
      ],
      "stateMutability": "view",
      "type": "function"
    },
    {
      "inputs": [
        {
          "internalType": "address",
          "name": "account",
          "type": "address"
        },
        {
          "internalType": "address",
          "name": "operator",
          "type": "address"
        }
      ],
      "name": "isApprovedForAll",
      "outputs": [
        {
          "internalType": "bool",
          "name": "",
          "type": "bool"
        }
      ],
      "stateMutability": "view",
      "type": "function"
    },
    {
      "inputs": [
        {
          "internalType": "uint256",
          "name": "amount",
          "type": "uint256"
        }
      ],
      "name": "lockBudget",
      "outputs": [],
      "stateMutability": "payable",
      "type": "function"
    },
    {
      "inputs": [],
      "name": "lockedBudget",
      "outputs": [
        {
          "internalType": "uint256",
          "name": "",
          "type": "uint256"
        }
      ],
      "stateMutability": "view",
      "type": "function"
    },
    {
      "inputs": [],
      "name": "maxSupply",
      "outputs": [
        {
          "internalType": "uint256",
          "name": "",
          "type": "uint256"
        }
      ],
      "stateMutability": "view",
      "type": "function"
    },
    {
      "inputs": [],
      "name": "owner",
      "outputs": [
        {
          "internalType": "address",
          "name": "",
          "type": "address"
        }
      ],
      "stateMutability": "view",
      "type": "function"
    },
    {
      "inputs": [
        {
          "internalType": "address",
          "name": "tokenOwner",
          "type": "address"
        }
      ],
      "name": "redeemCoupon",
      "outputs": [],
      "stateMutability": "nonpayable",
      "type": "function"
    },
    {
      "inputs": [],
      "name": "redeemExpiration",
      "outputs": [
        {
          "internalType": "uint256",
          "name": "",
          "type": "uint256"
        }
      ],
      "stateMutability": "view",
      "type": "function"
    },
    {
      "inputs": [
        {
          "internalType": "uint256",
          "name": "",
          "type": "uint256"
        },
        {
          "internalType": "address",
          "name": "",
          "type": "address"
        }
      ],
      "name": "redeemedQuantities",
      "outputs": [
        {
          "internalType": "uint256",
          "name": "",
          "type": "uint256"
        }
      ],
      "stateMutability": "view",
      "type": "function"
    },
    {
      "inputs": [
        {
          "internalType": "uint256",
          "name": "",
          "type": "uint256"
        }
      ],
      "name": "redeemedTokenCount",
      "outputs": [
        {
          "internalType": "uint256",
          "name": "",
          "type": "uint256"
        }
      ],
      "stateMutability": "view",
      "type": "function"
    },
    {
      "inputs": [],
      "name": "registerAffiliate",
      "outputs": [],
      "stateMutability": "nonpayable",
      "type": "function"
    },
    {
      "inputs": [],
      "name": "renounceOwnership",
      "outputs": [],
      "stateMutability": "nonpayable",
      "type": "function"
    },
    {
      "inputs": [
        {
          "internalType": "address",
          "name": "from",
          "type": "address"
        },
        {
          "internalType": "address",
          "name": "to",
          "type": "address"
        },
        {
          "internalType": "uint256[]",
          "name": "ids",
          "type": "uint256[]"
        },
        {
          "internalType": "uint256[]",
          "name": "values",
          "type": "uint256[]"
        },
        {
          "internalType": "bytes",
          "name": "data",
          "type": "bytes"
        }
      ],
      "name": "safeBatchTransferFrom",
      "outputs": [],
      "stateMutability": "nonpayable",
      "type": "function"
    },
    {
      "inputs": [
        {
          "internalType": "address",
          "name": "from",
          "type": "address"
        },
        {
          "internalType": "address",
          "name": "to",
          "type": "address"
        },
        {
          "internalType": "uint256",
          "name": "id",
          "type": "uint256"
        },
        {
          "internalType": "uint256",
          "name": "value",
          "type": "uint256"
        },
        {
          "internalType": "bytes",
          "name": "data",
          "type": "bytes"
        }
      ],
      "name": "safeTransferFrom",
      "outputs": [],
      "stateMutability": "nonpayable",
      "type": "function"
    },
    {
      "inputs": [
        {
          "internalType": "address",
          "name": "operator",
          "type": "address"
        },
        {
          "internalType": "bool",
          "name": "approved",
          "type": "bool"
        }
      ],
      "name": "setApprovalForAll",
      "outputs": [],
      "stateMutability": "nonpayable",
      "type": "function"
    },
    {
      "inputs": [
        {
          "internalType": "uint256",
          "name": "_newBudget",
          "type": "uint256"
        }
      ],
      "name": "setLockedBudgetForTesting",
      "outputs": [],
      "stateMutability": "nonpayable",
      "type": "function"
    },
    {
      "inputs": [
        {
          "internalType": "string",
          "name": "newURI",
          "type": "string"
        }
      ],
      "name": "setURI",
      "outputs": [],
      "stateMutability": "nonpayable",
      "type": "function"
    },
    {
      "inputs": [
        {
          "internalType": "bytes4",
          "name": "interfaceId",
          "type": "bytes4"
        }
      ],
      "name": "supportsInterface",
      "outputs": [
        {
          "internalType": "bool",
          "name": "",
          "type": "bool"
        }
      ],
      "stateMutability": "view",
      "type": "function"
    },
    {
      "inputs": [],
      "name": "tokenId",
      "outputs": [
        {
          "internalType": "uint256",
          "name": "",
          "type": "uint256"
        }
      ],
      "stateMutability": "view",
      "type": "function"
    },
    {
      "inputs": [
        {
          "internalType": "uint256",
          "name": "",
          "type": "uint256"
        },
        {
          "internalType": "address",
          "name": "",
          "type": "address"
        }
      ],
      "name": "tokenOwnerAffiliates",
      "outputs": [
        {
          "internalType": "address",
          "name": "",
          "type": "address"
        }
      ],
      "stateMutability": "view",
      "type": "function"
    },
    {
      "inputs": [],
      "name": "tokensWithAffiliates",
      "outputs": [
        {
          "internalType": "uint256",
          "name": "",
          "type": "uint256"
        }
      ],
      "stateMutability": "view",
      "type": "function"
    },
    {
      "inputs": [],
      "name": "totalSupply",
      "outputs": [
        {
          "internalType": "uint256",
          "name": "",
          "type": "uint256"
        }
      ],
      "stateMutability": "view",
      "type": "function"
    },
    {
      "inputs": [
        {
          "internalType": "address",
          "name": "newOwner",
          "type": "address"
        }
      ],
      "name": "transferOwnership",
      "outputs": [],
      "stateMutability": "nonpayable",
      "type": "function"
    },
    {
      "inputs": [
        {
          "internalType": "uint256",
          "name": "",
          "type": "uint256"
        }
      ],
      "name": "uri",
      "outputs": [
        {
          "internalType": "string",
          "name": "",
          "type": "string"
        }
      ],
      "stateMutability": "view",
      "type": "function"
    },
    {
      "inputs": [
        {
          "internalType": "address",
          "name": "_claimer",
          "type": "address"
        }
      ],
      "name": "verifyClaim",
      "outputs": [],
      "stateMutability": "view",
      "type": "function"
    },
    {
      "inputs": [
        {
          "internalType": "uint256",
          "name": "amount",
          "type": "uint256"
        }
      ],
      "name": "withdrawBudget",
      "outputs": [],
      "stateMutability": "nonpayable",
      "type": "function"
    },
    {
      "stateMutability": "payable",
      "type": "receive"
    }
  ],
  "bytecode": "0x6080806040523460d2577ff0c57e16840df040f15088dc2f81fe391c3923bec73e23a9662efc9c229c6a005460ff8160401c1660c1576002600160401b03196001600160401b03821601605c575b60405161288690816100d88239f35b6001600160401b0319166001600160401b039081177ff0c57e16840df040f15088dc2f81fe391c3923bec73e23a9662efc9c229c6a005581527fc7f505b2f371ae2175ee4913f4499e1f2633a7b5936321eed1cdaeb6115181d290602090a13880604d565b63f92ee8a960e01b60005260046000fd5b600080fdfe6080604052600436101561001b575b361561001957600080fd5b005b60003560e01c806207476c14610269578062fdd58e1461026457806301ffc9a71461025f57806302fe53051461025a5780630e89341c1461025557806315eb29541461025057806317d70f7c1461024b57806318160ddd146102465780631b3dad64146102415780631c1cb3231461023c5780632cc81a61146102375780632eb2c2d6146102325780633ccfa92f1461022d57806347a395fd146102285780634e1273f4146102235780634fa851861461021e5780635ca2a204146102195780637057b94114610214578063715018a61461020f57806374d8f48e1461020a57806374f5a9f9146102055780638da5cb5b1461020057806395e74bc7146101fb578063a22cb465146101f6578063a80d520c146101f1578063b328a4d3146101ec578063becf0426146101e7578063bf396c23146101e2578063c4a0e40c146101dd578063d5abeb01146101d8578063d88053e9146101d3578063ddca3f43146101ce578063e985e9c5146101c9578063f04d688f146101c4578063f242432a146101bf578063f2fde38b146101ba5763ffa3816a0361000e57611407565b6113de565b6112e2565b6112c4565b611287565b611269565b61122f565b611211565b611157565b61110e565b611070565b611055565b611034565b610f9d565b610f29565b610ef3565b610ed5565b610cb9565b610c4f565b610c23565b610bf9565b610bba565b610afb565b610908565b6108ea565b610860565b6107c8565b61079f565b610781565b610763565b610745565b610727565b61065c565b6104ff565b6103f5565b610380565b610332565b602435906001600160a01b038216820361028457565b600080fd5b600435906001600160a01b038216820361028457565b61012435906001600160a01b038216820361028457565b35906001600160a01b038216820361028457565b6000527f88be536d5240c274a3b1d3a1be54482fd9caa294f08c62a7cde569f49a3c4500602052604060002090565b6001600160a01b031660009081527f88be536d5240c274a3b1d3a1be54482fd9caa294f08c62a7cde569f49a3c45016020526040902090565b3461028457604036600319011261028457602061037760043561035361026e565b906000526006835260406000209060018060a01b0316600052602052604060002090565b54604051908152f35b3461028457604036600319011261028457602061037761039e610289565b6024356000527f88be536d5240c274a3b1d3a1be54482fd9caa294f08c62a7cde569f49a3c4500835260406000209060018060a01b0316600052602052604060002090565b6001600160e01b031981160361028457565b34610284576020366003190112610284576020600435610414816103e3565b63ffffffff60e01b16636cdb3d1360e11b8114908115610452575b8115610441575b506040519015158152f35b6301ffc9a760e01b14905038610436565b6303a24d0760e21b8114915061042f565b634e487b7160e01b600052604160045260246000fd5b90601f801991011681019081106001600160401b0382111761049a57604052565b610463565b6001600160401b03811161049a57601f01601f191660200190565b81601f82011215610284576020813591016104d48261049f565b926104e26040519485610479565b828452828201116102845781600092602092838601378301015290565b34610284576020366003190112610284576004356001600160401b0381116102845761052f9036906004016104ba565b610537611e1d565b80516001600160401b03811161049a5761055b81610556600454611473565b6114ad565b602091601f821160011461059b5761058b9260009183610590575b50508160011b916000199060031b1c19161790565b600455005b015190503880610576565b6004600052601f198216926000805160206127f18339815191529160005b8581106105ef575083600195106105d6575b505050811b01600455005b015160001960f88460031b161c191690553880806105cb565b919260206001819286850151815501940192016105b9565b919082519283825260005b848110610633575050826000602080949584010152601f8019910116010190565b80602080928401015182828601015201610612565b906020610659928181520190610607565b90565b3461028457602036600319011261028457604051600060045461067e81611473565b808452906001811690811561070357506001146106b6575b6106b2836106a681850382610479565b60405191829182610648565b0390f35b600460009081526000805160206127f1833981519152939250905b8082106106e9575090915081016020016106a6610696565b9192600181602092548385880101520191019092916106d1565b60ff191660208086019190915291151560051b840190910191506106a69050610696565b34610284576000366003190112610284576020600b54604051908152f35b34610284576000366003190112610284576020600054604051908152f35b34610284576000366003190112610284576020600154604051908152f35b34610284576000366003190112610284576020600a54604051908152f35b3461028457600036600319011261028457600c546040516001600160a01b039091168152602090f35b34610284576020366003190112610284576100196004356107e7611e1d565b611736565b6001600160401b03811161049a5760051b60200190565b9080601f8301121561028457813561081a816107ec565b926108286040519485610479565b81845260208085019260051b82010192831161028457602001905b8282106108505750505090565b8135815260209182019101610843565b346102845760a036600319011261028457610879610289565b61088161026e565b906044356001600160401b038111610284576108a1903690600401610803565b6064356001600160401b038111610284576108c0903690600401610803565b90608435936001600160401b038511610284576108e46100199536906004016104ba565b93611819565b34610284576000366003190112610284576020600954604051908152f35b60203660031901126102845761091c610289565b61092760015461186c565b60025410610aa55761093833611d0e565b6001600160a01b038116806109b1575b5061095e6000546109576116b3565b9033611ecd565b61097161096c60015461186c565b600155565b60005490604051907fa3b41b96fbf46594f80c7153bb4984e94d289af9e17816f61ecf53c029dd7d233392806109ac33944290309084611887565b0390a4005b6001600160a01b0382166000908152600e602052604090206109dd906109d9905b5460ff1690565b1590565b610a94573314610a9457600b5460035411610a83576001600160a01b0381166000908152600f60205260409020610a14815461186c565b9055610a29610a24600d5461186c565b600d55565b610a7d81610a5e33610a476000546000526005602052604060002090565b9060018060a01b0316600052602052604060002090565b80546001600160a01b0319166001600160a01b03909216919091179055565b38610948565b634dd23c8b60e01b60005260046000fd5b6304483f3f60e31b60005260046000fd5b63c30436e960e01b60005260046000fd5b906020808351928381520192019060005b818110610ad45750505090565b8251845260209384019390920191600101610ac7565b906020610659928181520190610ab6565b34610284576040366003190112610284576004356001600160401b038111610284573660238201121561028457806004013590610b37826107ec565b91610b456040519384610479565b8083526024602084019160051b8301019136831161028457602401905b828210610ba257836024356001600160401b038111610284576106b291610b90610b96923690600401610803565b90611962565b60405191829182610aea565b60208091610baf846102b6565b815201910190610b62565b34610284576020366003190112610284576001600160a01b03610bdb610289565b16600052600e602052602060ff604060002054166040519015158152f35b34610284576000366003190112610284576020610c1b600d54600354906119fa565b604051908152f35b346102845760203660031901126102845760043560005260076020526020604060002054604051908152f35b3461028457600036600319011261028457610c68611e1d565b6000805160206127d183398151915280546001600160a01b031981169091556000906001600160a01b03167f8be0079c531659141344cd1fd0a4f28419497f9722a3daafe3b4186f6b6457e08280a3005b3461028457602036600319011261028457610cd2610289565b610cda611e1d565b600054610ce78183611428565b15610ec457600a544211610eb357610d0d82610a47836000526006602052604060002090565b54610ea257610d2d82610a47610d3a936000526005602052604060002090565b546001600160a01b031690565b6001600160a01b038116610df0575b610d6c610d6683610a476000546000526006602052604060002090565b60019055565b610d826000546000526007602052604060002090565b610d8c815461186c565b9055600054600354600c54604080516001600160a01b03958616815260208101939093523090830152426060830152831660808201529092909116907f9740ccd7632c212cf0c62b84fe8a88c610b74aa9c4ca8a98ba3038fbefceb0b19060a090a3005b6001600160a01b0381166000908152600e60205260409020610e15906109d9906109d2565b610a9457600b5460035411610a8357610e32610a24600d54611692565b610e48610e43600354600b546116a6565b600b55565b600c546001600160a01b031673eeeeeeeeeeeeeeeeeeeeeeeeeeeeeeeeeeeeeeee819003610e925750610e8d6000808080600354865af1610e876116c8565b506116f8565b610d49565b610e8d9082600354913090611e53565b637b38ef1f60e01b60005260046000fd5b63528acf4f60e01b60005260046000fd5b632207388360e01b60005260046000fd5b34610284576000366003190112610284576020600d54604051908152f35b34610284576000366003190112610284576000805160206127d1833981519152546040516001600160a01b039091168152602090f35b610140366003190112610284576004356001600160401b03811161028457610f559036906004016104ba565b6064359060243560443560c43560a4356084356001600160a01b0383168303610284576100199660e435946101043596610f8d61029f565b98611a1c565b8015150361028457565b3461028457604036600319011261028457610fb6610289565b602435610fc281610f93565b6001600160a01b03821691821561101f57610fe090610a47336102f9565b60ff1981541660ff8315151617905560405190151581527f17307eab39ab6107e8899845ad3d59bd9653f200f220920489ca2b5937696c3160203392a3005b62ced3e160e81b600052600060045260246000fd5b3461028457602036600319011261028457610019611050610289565b611d0e565b34610284576000366003190112610284576020610c1b611d65565b346102845760003660031901126102845733600052600e60205260ff604060002054166110fe57600b5460035411610a8357336000908152600e602052604090206110c290805460ff19166001179055565b6040805130815242602082015233917f990349658e7763fcf9afe1ec1a24f36dc2225f1506509a9169a1205e9a536a689190819081015b0390a2005b62434be160e51b60005260046000fd5b3461028457604036600319011261028457602060043561112c61026e565b60009182526005835260408083206001600160a01b0392831684526020529091205416604051908152f35b602036600319011261028457600435600c546001600160a01b03166001600160a01b03811673eeeeeeeeeeeeeeeeeeeeeeeeeeeeeeeeeeeeeeee036111f957508034036111e8575b6111ae610e4382600b5461187a565b6040805191825230602083015233917f599419cc9c3fed0d4c06df68b361976b3559f232e25700cc78c51471251a73a591819081016110f9565b6368b1946560e01b60005260046000fd5b346111e8578161120c9130903390611e53565b61119f565b34610284576000366003190112610284576020600254604051908152f35b34610284576020366003190112610284576001600160a01b03611250610289565b16600052600f6020526020604060002054604051908152f35b34610284576000366003190112610284576020600354604051908152f35b3461028457604036600319011261028457602060ff6112b86112a7610289565b610a476112b261026e565b916102f9565b54166040519015158152f35b34610284576000366003190112610284576020600854604051908152f35b346102845760a0366003190112610284576112fb610289565b61130361026e565b60443590606435926084356001600160401b0381116102845761132a9036906004016104ba565b926001600160a01b03821633811415806113cd575b6113b5576001600160a01b0384161561139f571561138a576100199461138260405192600184526020840152604083019160018352606084015260808301604052565b929091612202565b626a0d4560e21b600052600060045260246000fd5b632bfa23e760e11b600052600060045260246000fd5b63711bec9160e11b6000523360045260245260446000fd5b506113d83384611d93565b1561133f565b34610284576020366003190112610284576100196113fa610289565b611402611e1d565b611da7565b3461028457602036600319011261028457600435611423611e1d565b600b55005b61146f916000527f88be536d5240c274a3b1d3a1be54482fd9caa294f08c62a7cde569f49a3c450060205260406000209060018060a01b0316600052602052604060002090565b5490565b90600182811c921680156114a3575b602083101461148d57565b634e487b7160e01b600052602260045260246000fd5b91607f1691611482565b601f81116114b9575050565b60046000526020600020906020601f840160051c830193106114f6575b601f0160051c01905b8181106114ea575050565b600081556001016114df565b90915081906114d6565b601f811161150c575050565b6000805160206128318339815191526000526020600020906020601f840160051c83019310611556575b601f0160051c01905b81811061154a575050565b6000815560010161153f565b9091508190611536565b601f821161156d57505050565b6000526020600020906020601f840160051c830193106115a8575b601f0160051c01905b81811061159c575050565b60008155600101611591565b9091508190611588565b9081516001600160401b03811161049a576115d9816115d2600454611473565b6004611560565b602092601f821160011461160f5761160a929382916000926105905750508160011b916000199060031b1c19161790565b600455565b6004600052601f198216936000805160206127f18339815191529160005b868110611664575083600195961061164b575b505050811b01600455565b015160001960f88460031b161c19169055388080611640565b9192602060018192868501518155019401920161162d565b634e487b7160e01b600052601160045260246000fd5b6000198101919082116116a157565b61167c565b919082039182116116a157565b604051906116c2602083610479565b60008252565b3d156116f3573d906116d98261049f565b916116e76040519384610479565b82523d6000602084013e565b606090565b156116ff57565b60405162461bcd60e51b815260206004820152600f60248201526e151c985b9cd9995c8819985a5b1959608a1b6044820152606490fd5b600b54808211611808578190600a5442116117fb575050611755611a0d565b600b549061176383836116a6565b10610a8357610e4382611775926116a6565b600c546001600160a01b03168173eeeeeeeeeeeeeeeeeeeeeeeeeeeeeeeeeeeeeeee8290036117e9576117b49150600080808093335af1610e876116c8565b6040805191825230602083015233917fcccac05118081db07a70bb781aabe8f0db7182a0b52d7374fa4821e9ed33cc859190a2565b6117f69133903090611e53565b6117b4565b61177591610e43916116a6565b639abc749160e01b60005260046000fd5b939291906001600160a01b0385163381141580611854575b6113b5576001600160a01b0382161561139f571561138a5761185294612202565b565b5060ff61186433610a47896102f9565b541615611831565b90600182018092116116a157565b919082018092116116a157565b6001600160a01b039182168152911660208201526040810191909152608060608201526004546000916118b982611473565b9182608083015260018116908160001461191b57506001146118da57505090565b600460009081529250906000805160206127f18339815191525b8184106119045750500160a00190565b805484840160a001526020909301926001016118f4565b60209450608093915060ff191660a0830152151560051b01010190565b805182101561194c5760209160051b010190565b634e487b7160e01b600052603260045260246000fd5b919091805183518082036119e357505080519061197e826107ec565b9161198c6040519384610479565b80835261199b601f19916107ec565b0136602084013760005b81518110156119dc57806119cb60019260051b6020808287010151918901015190611428565b6119d58286611938565b52016119a5565b5090925050565b635b05999160e01b60005260045260245260446000fd5b818102929181159184041417156116a157565b610659600d54600354906119fa565b9795939160ff99979593916001600160401b03611a5e611a51600080516020612811833981519152549d8e60401c1615151590565b9c6001600160401b031690565b1680159081611b80575b6001149081611b76575b159081611b6d575b50611b5c57611abf998b611ab660016001600160401b031960008051602061281183398151915254161760008051602061281183398151915255565b611b2057611b88565b611ac557565b611af160ff60401b19600080516020612811833981519152541660008051602061281183398151915255565b604051600181527fc7f505b2f371ae2175ee4913f4499e1f2633a7b5936321eed1cdaeb6115181d290602090a1565b611b576801000000000000000060ff60401b1960008051602061281183398151915254161760008051602061281183398151915255565b611b88565b63f92ee8a960e01b60005260046000fd5b90501538611a7a565b303b159150611a72565b8c9150611a68565b93929091959698611b9885612025565b611ba181612143565b8215611cfd5781871015611cec5783821015611cdb5788151580611cc9575b610a83578515611ca2576001600160a01b03881673eeeeeeeeeeeeeeeeeeeeeeeeeeeeeeeeeeeeeeee03611c6957508434036111e857611c26611c3096611c21611c2b94611c1c610e4398611c17611c529e600355565b6115b2565b600255565b600855565b600955565b600a55565b60018060a01b03166bffffffffffffffffffffffff60a01b600c541617600c55565b600055611c5f6000600155565b6118526000600d55565b95979193346111e857611c5298611c21610e4396611c1c611c2694611c17611c2b98611c9d8f611c309f908f913091611e53565b600355565b50346111e857611c26611c3096611c21611c2b94611c1c610e4398611c17611c529e600355565b50611cd4838a6119fa565b8610611bc0565b6368f6151d60e11b60005260046000fd5b6397c0867360e01b60005260046000fd5b63ad03f1cd60e01b60005260046000fd5b600054611d1a91611428565b611d54576008544210611d43576009544211611d3257565b6341524ecf60e11b60005260046000fd5b635874e70f60e11b60005260046000fd5b633d6a72ef60e11b60005260046000fd5b611d74600d54600354906119fa565b600b549081811015611d8c5781039081116116a15790565b5050600090565b60ff91610a47611da2926102f9565b541690565b6001600160a01b03168015611e07576000805160206127d183398151915280546001600160a01b0319811683179091556001600160a01b03167f8be0079c531659141344cd1fd0a4f28419497f9722a3daafe3b4186f6b6457e0600080a3565b631e4fbdf760e01b600052600060045260246000fd5b6000805160206127d1833981519152546001600160a01b03163303611e3e57565b63118cdaa760e01b6000523360045260246000fd5b9291908215611ec7576001600160a01b03841673eeeeeeeeeeeeeeeeeeeeeeeeeeeeeeeeeeeeeeee03611ebe5750909150600080808085855af1611e956116c8565b5015611e9f575050565b635fdc4ec160e11b60005260018060a01b031660045260245260446000fd5b61185293612157565b50505050565b6001600160a01b0381169291831561139f576001611f0860405192600184526020840152604083019160018352606084015260808301604052565b92815184519081810361200e57505060005b8251811015611f57578060019160051b611f4f611f4787610a47602080868b010151958c010151946102ca565b91825461187a565b905501611f1a565b509291936001825114600014611fd25760208281015184820151604080519283529282015260009133917fc3d58168c5ae7397731d063d5bbf3d657854427343f4c083240f7aacaa2d0f629190a45b8051600103611fc6579060208061185295930151910151916000336125b6565b61185293600033612481565b60006040517f4a39dc06d4c0dbc64b70af90fd698a233a518aa5d07e595d983b8c0526c8f7fb3391806120068888836123f4565b0390a4611fa6565b635b05999160e01b60005260045260245260446000fd5b9061202e6123c6565b6120366123c6565b81516001600160401b03811161049a576120678161206260008051602061283183398151915254611473565b611500565b602092601f82116001146120aa57612098929382916000926105905750508160011b916000199060031b1c19161790565b60008051602061283183398151915255565b600080516020612831833981519152600052601f198216937ff429cb5e2ec84cbb765e76b31964a56ccde03e7a6122d6cc4afb19edc55edeed9160005b86811061212b5750836001959610612112575b505050811b0160008051602061283183398151915255565b015160001960f88460031b161c191690553880806120fa565b919260206001819286850151815501940192016120e7565b6118529061214f6123c6565b6114026123c6565b919291906001600160a01b039081169084168181146121fb573082036121c457505060405163a9059cbb60e01b60208201526001600160a01b0393909316602484015260448084019290925290825261185291906121b6606483610479565b6001600160a01b0316612656565b6118529450604093919351936323b872dd60e01b6020860152602485015260448401526064830152606482526121b6608483610479565b5050505050565b949392909193845182519081810361200e5750506001600160a01b0386811695861515959185168015159391929060005b84518110156122f9578060051b90898988602080868b010151958c01015192612283575b93600194612269575b50505001612233565b61227991610a47611f47926102ca565b9055388981612260565b505090916122948d610a47836102ca565b548281106122bd578291898f6122b4600197968f950391610a47856102ca565b55909450612257565b6040516303dee4c560e01b81526001600160a01b038f1660048201526024810191909152604481018390526064810182905280608481015b0390fd5b50919895939297909650600188511460001461238c5760208881015186820151604080519283529282015233917fc3d58168c5ae7397731d063d5bbf3d657854427343f4c083240f7aacaa2d0f6291a45b612355575050505050565b845160010361237b5760208061237196015192015192336125b6565b38808080806121fb565b61238794919233612481565b612371565b6040517f4a39dc06d4c0dbc64b70af90fd698a233a518aa5d07e595d983b8c0526c8f7fb3391806123be898d836123f4565b0390a461234a565b60ff6000805160206128118339815191525460401c16156123e357565b631afcd79f60e31b60005260046000fd5b909161240b61065993604084526040840190610ab6565b916020818403910152610ab6565b908160209103126102845751610659816103e3565b6001600160a01b0391821681529116602082015260a060408201819052610659949193919261247392916124659190860190610ab6565b908482036060860152610ab6565b916080818403910152610607565b9091949293853b612495575b505050505050565b6020936124b791604051968795869563bc197c8160e01b87526004870161242e565b038160006001600160a01b0387165af16000918161254c575b5061250c57506124de6116c8565b805191908261250557632bfa23e760e11b6000526001600160a01b03821660045260246000fd5b9050602001fd5b6001600160e01b0319166343e6837f60e01b0161252f575038808080808061248d565b632bfa23e760e11b6000526001600160a01b031660045260246000fd5b61256f91925060203d602011612576575b6125678183610479565b810190612419565b90386124d0565b503d61255d565b6001600160a01b039182168152911660208201526040810191909152606081019190915260a06080820181905261065992910190610607565b9091949293853b6125c957505050505050565b6020936125eb91604051968795869563f23a6e6160e01b87526004870161257d565b038160006001600160a01b0387165af160009181612635575b5061261257506124de6116c8565b6001600160e01b031916630dc5919f60e01b0161252f575038808080808061248d565b61264f91925060203d602011612576576125678183610479565b9038612604565b6040805190926126bb926001600160a01b03169060009081906126798786610479565b602085527f5361666545524332303a206c6f772d6c6576656c2063616c6c206661696c6564602086015260208151910182855af16126b56116c8565b9161273f565b8051806126c757505050565b60209082018290031261028457602001516126e181610f93565b156126e95750565b5162461bcd60e51b815260206004820152602a60248201527f5361666545524332303a204552433230206f7065726174696f6e20646964206e6044820152691bdd081cdd58d8d9595960b21b6064820152608490fd5b919290156127a15750815115612753575090565b3b1561275c5790565b60405162461bcd60e51b815260206004820152601d60248201527f416464726573733a2063616c6c20746f206e6f6e2d636f6e74726163740000006044820152606490fd5b8251909150156127b45750805190602001fd5b60405162461bcd60e51b81529081906122f5906004830161064856fe9016d09d72d40fdae2fd8ceac6b6234c7706214fd39c1cd1e609a0528c1993008a35acfbc15ff81a39ae7d344fd709f28e8600b4aa8c65c6b64bfe7fe36bd19bf0c57e16840df040f15088dc2f81fe391c3923bec73e23a9662efc9c229c6a0088be536d5240c274a3b1d3a1be54482fd9caa294f08c62a7cde569f49a3c4502a2646970667358221220e049aaeaa21378d5c80699886b38ce161a69bd81d57daf34c0c87f9e3989559164736f6c634300081c0033",
  "linkReferences": {},
  "deployedLinkReferences": {}
}