{
  "_format": "hh-sol-artifact-1",
  "contractName": "Coupon",
  "sourceName": "contracts/Coupon.sol",
  "abi": [
    {
      "inputs": [],
      "stateMutability": "nonpayable",
      "type": "constructor"
    },
    {
      "inputs": [],
      "name": "AlreadyInitialized",
      "type": "error"
    },
    {
      "inputs": [],
      "name": "AlreadyRegisteredAsAffiliate",
      "type": "error"
    },
    {
      "inputs": [],
      "name": "ClaimEndMustBeBeforeRedeemExpiration",
      "type": "error"
    },
    {
      "inputs": [],
      "name": "ClaimExpired",
      "type": "error"
    },
    {
      "inputs": [],
      "name": "ClaimNotStarted",
      "type": "error"
    },
    {
      "inputs": [],
      "name": "ClaimStartMustBeBeforeClaimEnd",
      "type": "error"
    },
    {
      "inputs": [
        {
          "internalType": "address",
          "name": "recipient",
          "type": "address"
        },
        {
          "internalType": "uint256",
          "name": "value",
          "type": "uint256"
        }
      ],
      "name": "CurrencyTransferLibFailedNativeTransfer",
      "type": "error"
    },
    {
      "inputs": [
        {
          "internalType": "address",
          "name": "sender",
          "type": "address"
        },
        {
          "internalType": "uint256",
          "name": "balance",
          "type": "uint256"
        },
        {
          "internalType": "uint256",
          "name": "needed",
          "type": "uint256"
        },
        {
          "internalType": "uint256",
          "name": "tokenId",
          "type": "uint256"
        }
      ],
      "name": "ERC1155InsufficientBalance",
      "type": "error"
    },
    {
      "inputs": [
        {
          "internalType": "address",
          "name": "approver",
          "type": "address"
        }
      ],
      "name": "ERC1155InvalidApprover",
      "type": "error"
    },
    {
      "inputs": [
        {
          "internalType": "uint256",
          "name": "idsLength",
          "type": "uint256"
        },
        {
          "internalType": "uint256",
          "name": "valuesLength",
          "type": "uint256"
        }
      ],
      "name": "ERC1155InvalidArrayLength",
      "type": "error"
    },
    {
      "inputs": [
        {
          "internalType": "address",
          "name": "operator",
          "type": "address"
        }
      ],
      "name": "ERC1155InvalidOperator",
      "type": "error"
    },
    {
      "inputs": [
        {
          "internalType": "address",
          "name": "receiver",
          "type": "address"
        }
      ],
      "name": "ERC1155InvalidReceiver",
      "type": "error"
    },
    {
      "inputs": [
        {
          "internalType": "address",
          "name": "sender",
          "type": "address"
        }
      ],
      "name": "ERC1155InvalidSender",
      "type": "error"
    },
    {
      "inputs": [
        {
          "internalType": "address",
          "name": "operator",
          "type": "address"
        },
        {
          "internalType": "address",
          "name": "owner",
          "type": "address"
        }
      ],
      "name": "ERC1155MissingApprovalForAll",
      "type": "error"
    },
    {
      "inputs": [],
      "name": "ExceedsMaxSupply",
      "type": "error"
    },
    {
      "inputs": [],
      "name": "ExcessiveBudget",
      "type": "error"
    },
    {
      "inputs": [],
      "name": "FeeMustBeGreaterThanZero",
      "type": "error"
    },
    {
      "inputs": [],
      "name": "InsufficientBudget",
      "type": "error"
    },
    {
      "inputs": [],
      "name": "InvalidAffiliateAddress",
      "type": "error"
    },
    {
      "inputs": [],
      "name": "InvalidAffiliateID",
      "type": "error"
    },
    {
      "inputs": [],
      "name": "InvalidCurrencyAmount",
      "type": "error"
    },
    {
      "inputs": [],
      "name": "InvalidInitialization",
      "type": "error"
    },
    {
      "inputs": [],
      "name": "InvalidTokenId",
      "type": "error"
    },
    {
      "inputs": [],
      "name": "InvalidWithdrawalAmount",
      "type": "error"
    },
    {
      "inputs": [],
      "name": "MaxSupplyMustBeGreaterThanZero",
      "type": "error"
    },
    {
      "inputs": [],
      "name": "MustSendTotalFee",
      "type": "error"
    },
    {
      "inputs": [],
      "name": "NoAffiliateAssociated",
      "type": "error"
    },
    {
      "inputs": [],
      "name": "NotInitializing",
      "type": "error"
    },
    {
      "inputs": [
        {
          "internalType": "address",
          "name": "owner",
          "type": "address"
        }
      ],
      "name": "OwnableInvalidOwner",
      "type": "error"
    },
    {
      "inputs": [
        {
          "internalType": "address",
          "name": "account",
          "type": "address"
        }
      ],
      "name": "OwnableUnauthorizedAccount",
      "type": "error"
    },
    {
      "inputs": [],
      "name": "OwnerDoesNotOwnToken",
      "type": "error"
    },
    {
      "inputs": [],
      "name": "QuantityMustBeGreaterThanZero",
      "type": "error"
    },
    {
      "inputs": [],
      "name": "RedeemExpired",
      "type": "error"
    },
    {
      "inputs": [],
      "name": "TokenAlreadyClaimed",
      "type": "error"
    },
    {
      "inputs": [],
      "name": "TokenDoesNotExist",
      "type": "error"
    },
    {
      "inputs": [],
      "name": "TokenQuantityAlreadyRedeemed",
      "type": "error"
    },
    {
      "anonymous": false,
      "inputs": [
        {
          "indexed": true,
          "internalType": "address",
          "name": "affiliateAddress",
          "type": "address"
        },
        {
          "indexed": false,
          "internalType": "address",
          "name": "contractAddress",
          "type": "address"
        },
        {
          "indexed": false,
          "internalType": "uint256",
          "name": "timestamp",
          "type": "uint256"
        }
      ],
      "name": "AffiliateRegistered",
      "type": "event"
    },
    {
      "anonymous": false,
      "inputs": [
        {
          "indexed": true,
          "internalType": "address",
          "name": "account",
          "type": "address"
        },
        {
          "indexed": true,
          "internalType": "address",
          "name": "operator",
          "type": "address"
        },
        {
          "indexed": false,
          "internalType": "bool",
          "name": "approved",
          "type": "bool"
        }
      ],
      "name": "ApprovalForAll",
      "type": "event"
    },
    {
      "anonymous": false,
      "inputs": [
        {
          "indexed": true,
          "internalType": "address",
          "name": "locker",
          "type": "address"
        },
        {
          "indexed": false,
          "internalType": "uint256",
          "name": "amount",
          "type": "uint256"
        },
        {
          "indexed": false,
          "internalType": "address",
          "name": "contractAddress",
          "type": "address"
        }
      ],
      "name": "BudgetLocked",
      "type": "event"
    },
    {
      "anonymous": false,
      "inputs": [
        {
          "indexed": true,
          "internalType": "address",
          "name": "withdrawer",
          "type": "address"
        },
        {
          "indexed": false,
          "internalType": "uint256",
          "name": "amount",
          "type": "uint256"
        },
        {
          "indexed": false,
          "internalType": "address",
          "name": "contractAddress",
          "type": "address"
        }
      ],
      "name": "BudgetWithdrawn",
      "type": "event"
    },
    {
      "anonymous": false,
      "inputs": [
        {
          "indexed": true,
          "internalType": "uint256",
          "name": "tokenId",
          "type": "uint256"
        },
        {
          "indexed": false,
          "internalType": "string",
          "name": "uri",
          "type": "string"
        },
        {
          "indexed": false,
          "internalType": "uint256",
          "name": "maxSupply",
          "type": "uint256"
        },
        {
          "indexed": false,
          "internalType": "uint256",
          "name": "claimStart",
          "type": "uint256"
        },
        {
          "indexed": false,
          "internalType": "uint256",
          "name": "claimEnd",
          "type": "uint256"
        },
        {
          "indexed": false,
          "internalType": "uint256",
          "name": "redeemExpiration",
          "type": "uint256"
        },
        {
          "indexed": false,
          "internalType": "uint256",
          "name": "fee",
          "type": "uint256"
        },
        {
          "indexed": false,
          "internalType": "uint256",
          "name": "lockedBudget",
          "type": "uint256"
        },
        {
          "indexed": false,
          "internalType": "address",
          "name": "contractAddress",
          "type": "address"
        },
        {
          "indexed": false,
          "internalType": "uint256",
          "name": "timestamp",
          "type": "uint256"
        }
      ],
      "name": "CouponCreated",
      "type": "event"
    },
    {
      "anonymous": false,
      "inputs": [
        {
          "indexed": true,
          "internalType": "address",
          "name": "owner",
          "type": "address"
        },
        {
          "indexed": true,
          "internalType": "uint256",
          "name": "tokenId",
          "type": "uint256"
        },
        {
          "indexed": false,
          "internalType": "address",
          "name": "affiliateAddress",
          "type": "address"
        },
        {
          "indexed": false,
          "internalType": "uint256",
          "name": "fee",
          "type": "uint256"
        },
        {
          "indexed": false,
          "internalType": "address",
          "name": "contractAddress",
          "type": "address"
        },
        {
          "indexed": false,
          "internalType": "uint256",
          "name": "timestamp",
          "type": "uint256"
        },
        {
          "indexed": false,
          "internalType": "address",
          "name": "currency",
          "type": "address"
        }
      ],
      "name": "CouponRedeemed",
      "type": "event"
    },
    {
      "anonymous": false,
      "inputs": [
        {
          "indexed": false,
          "internalType": "uint64",
          "name": "version",
          "type": "uint64"
        }
      ],
      "name": "Initialized",
      "type": "event"
    },
    {
      "anonymous": false,
      "inputs": [
        {
          "indexed": true,
          "internalType": "address",
          "name": "previousOwner",
          "type": "address"
        },
        {
          "indexed": true,
          "internalType": "address",
          "name": "newOwner",
          "type": "address"
        }
      ],
      "name": "OwnershipTransferred",
      "type": "event"
    },
    {
      "anonymous": false,
      "inputs": [
        {
          "indexed": false,
          "internalType": "string",
          "name": "metadataURI",
          "type": "string"
        },
        {
          "indexed": false,
          "internalType": "address",
          "name": "contractAddress",
          "type": "address"
        },
        {
          "indexed": false,
          "internalType": "uint256",
          "name": "timestamp",
          "type": "uint256"
        }
      ],
      "name": "ProjectMetadataUpdated",
      "type": "event"
    },
    {
      "anonymous": false,
      "inputs": [
        {
          "indexed": true,
          "internalType": "address",
          "name": "claimer",
          "type": "address"
        },
        {
          "indexed": true,
          "internalType": "address",
          "name": "receiver",
          "type": "address"
        },
        {
          "indexed": true,
          "internalType": "uint256",
          "name": "tokenId",
          "type": "uint256"
        },
        {
          "indexed": false,
          "internalType": "address",
          "name": "affiliateAddress",
          "type": "address"
        },
        {
          "indexed": false,
          "internalType": "address",
          "name": "contractAddress",
          "type": "address"
        },
        {
          "indexed": false,
          "internalType": "uint256",
          "name": "timestamp",
          "type": "uint256"
        },
        {
          "indexed": false,
          "internalType": "string",
          "name": "_tokenURI",
          "type": "string"
        }
      ],
      "name": "TokenClaimed",
      "type": "event"
    },
    {
      "anonymous": false,
      "inputs": [
        {
          "indexed": true,
          "internalType": "address",
          "name": "operator",
          "type": "address"
        },
        {
          "indexed": true,
          "internalType": "address",
          "name": "from",
          "type": "address"
        },
        {
          "indexed": true,
          "internalType": "address",
          "name": "to",
          "type": "address"
        },
        {
          "indexed": false,
          "internalType": "uint256[]",
          "name": "ids",
          "type": "uint256[]"
        },
        {
          "indexed": false,
          "internalType": "uint256[]",
          "name": "values",
          "type": "uint256[]"
        }
      ],
      "name": "TransferBatch",
      "type": "event"
    },
    {
      "anonymous": false,
      "inputs": [
        {
          "indexed": true,
          "internalType": "address",
          "name": "operator",
          "type": "address"
        },
        {
          "indexed": true,
          "internalType": "address",
          "name": "from",
          "type": "address"
        },
        {
          "indexed": true,
          "internalType": "address",
          "name": "to",
          "type": "address"
        },
        {
          "indexed": false,
          "internalType": "uint256",
          "name": "id",
          "type": "uint256"
        },
        {
          "indexed": false,
          "internalType": "uint256",
          "name": "value",
          "type": "uint256"
        }
      ],
      "name": "TransferSingle",
      "type": "event"
    },
    {
      "anonymous": false,
      "inputs": [
        {
          "indexed": false,
          "internalType": "string",
          "name": "value",
          "type": "string"
        },
        {
          "indexed": true,
          "internalType": "uint256",
          "name": "id",
          "type": "uint256"
        }
      ],
      "name": "URI",
      "type": "event"
    },
    {
      "inputs": [
        {
          "internalType": "address",
          "name": "",
          "type": "address"
        }
      ],
      "name": "affiliateReferrals",
      "outputs": [
        {
          "internalType": "uint256",
          "name": "",
          "type": "uint256"
        }
      ],
      "stateMutability": "view",
      "type": "function"
    },
    {
      "inputs": [
        {
          "internalType": "address",
          "name": "account",
          "type": "address"
        },
        {
          "internalType": "uint256",
          "name": "id",
          "type": "uint256"
        }
      ],
      "name": "balanceOf",
      "outputs": [
        {
          "internalType": "uint256",
          "name": "",
          "type": "uint256"
        }
      ],
      "stateMutability": "view",
      "type": "function"
    },
    {
      "inputs": [
        {
          "internalType": "address[]",
          "name": "accounts",
          "type": "address[]"
        },
        {
          "internalType": "uint256[]",
          "name": "ids",
          "type": "uint256[]"
        }
      ],
      "name": "balanceOfBatch",
      "outputs": [
        {
          "internalType": "uint256[]",
          "name": "",
          "type": "uint256[]"
        }
      ],
      "stateMutability": "view",
      "type": "function"
    },
    {
      "inputs": [
        {
          "internalType": "uint256",
          "name": "_tokenId",
          "type": "uint256"
        }
      ],
      "name": "calculateRequiredBudget",
      "outputs": [
        {
          "internalType": "uint256",
          "name": "",
          "type": "uint256"
        }
      ],
      "stateMutability": "view",
      "type": "function"
    },
    {
      "inputs": [
        {
          "internalType": "string",
          "name": "_uri",
          "type": "string"
        },
        {
          "internalType": "uint256",
          "name": "_maxSupply",
          "type": "uint256"
        },
        {
          "internalType": "uint256",
          "name": "_claimStart",
          "type": "uint256"
        },
        {
          "internalType": "uint256",
          "name": "_claimEnd",
          "type": "uint256"
        },
        {
          "internalType": "uint256",
          "name": "_redeemExpiration",
          "type": "uint256"
        },
        {
          "internalType": "uint256",
          "name": "_fee",
          "type": "uint256"
        },
        {
          "internalType": "uint256",
          "name": "_lockedBudget",
          "type": "uint256"
        }
      ],
      "name": "createCoupon",
      "outputs": [
        {
          "internalType": "uint256",
          "name": "",
          "type": "uint256"
        }
      ],
      "stateMutability": "payable",
      "type": "function"
    },
    {
      "inputs": [],
      "name": "currencyAddress",
      "outputs": [
        {
          "internalType": "address",
          "name": "",
          "type": "address"
        }
      ],
      "stateMutability": "view",
      "type": "function"
    },
    {
      "inputs": [
        {
          "internalType": "uint256",
          "name": "_tokenId",
          "type": "uint256"
        },
        {
          "internalType": "address",
          "name": "affiliateAddress",
          "type": "address"
        }
      ],
      "name": "customClaim",
      "outputs": [],
      "stateMutability": "nonpayable",
      "type": "function"
    },
    {
      "inputs": [
        {
          "internalType": "uint256",
          "name": "_tokenId",
          "type": "uint256"
        }
      ],
      "name": "getAvailableBudget",
      "outputs": [
        {
          "internalType": "uint256",
          "name": "",
          "type": "uint256"
        }
      ],
      "stateMutability": "view",
      "type": "function"
    },
    {
      "inputs": [
        {
          "internalType": "uint256",
          "name": "_tokenId",
          "type": "uint256"
        }
      ],
      "name": "getTokenData",
      "outputs": [
        {
          "components": [
            {
              "internalType": "uint256",
              "name": "totalSupply",
              "type": "uint256"
            },
            {
              "internalType": "uint256",
              "name": "maxSupply",
              "type": "uint256"
            },
            {
              "internalType": "uint256",
              "name": "claimStart",
              "type": "uint256"
            },
            {
              "internalType": "uint256",
              "name": "claimEnd",
              "type": "uint256"
            },
            {
              "internalType": "uint256",
              "name": "redeemExpiration",
              "type": "uint256"
            },
            {
              "internalType": "uint256",
              "name": "fee",
              "type": "uint256"
            },
            {
              "internalType": "uint256",
              "name": "lockedBudget",
              "type": "uint256"
            },
            {
              "internalType": "uint256",
              "name": "tokensWithAffiliates",
              "type": "uint256"
            },
            {
              "internalType": "string",
              "name": "uri",
              "type": "string"
            },
            {
              "internalType": "bool",
              "name": "exists",
              "type": "bool"
            }
          ],
          "internalType": "struct Coupon.TokenData",
          "name": "",
          "type": "tuple"
        }
      ],
      "stateMutability": "view",
      "type": "function"
    },
    {
      "inputs": [],
      "name": "getTotalCoupons",
      "outputs": [
        {
          "internalType": "uint256",
          "name": "",
          "type": "uint256"
        }
      ],
      "stateMutability": "view",
      "type": "function"
    },
    {
      "inputs": [
        {
          "internalType": "string",
          "name": "_projectMetadataURI",
          "type": "string"
        },
        {
          "internalType": "address",
          "name": "_currencyAddress",
          "type": "address"
        },
        {
          "internalType": "address",
          "name": "_owner",
          "type": "address"
        },
        {
          "components": [
            {
              "internalType": "string",
              "name": "uri",
              "type": "string"
            },
            {
              "internalType": "uint256",
              "name": "maxSupply",
              "type": "uint256"
            },
            {
              "internalType": "uint256",
              "name": "claimStart",
              "type": "uint256"
            },
            {
              "internalType": "uint256",
              "name": "claimEnd",
              "type": "uint256"
            },
            {
              "internalType": "uint256",
              "name": "redeemExpiration",
              "type": "uint256"
            },
            {
              "internalType": "uint256",
              "name": "fee",
              "type": "uint256"
            },
            {
              "internalType": "uint256",
              "name": "lockedBudget",
              "type": "uint256"
            }
          ],
          "internalType": "struct Coupon.FirstCouponData",
          "name": "_firstCouponData",
          "type": "tuple"
        }
      ],
      "name": "initialize",
      "outputs": [],
      "stateMutability": "payable",
      "type": "function"
    },
    {
      "inputs": [
        {
          "internalType": "address",
          "name": "",
          "type": "address"
        }
      ],
      "name": "isAffiliate",
      "outputs": [
        {
          "internalType": "bool",
          "name": "",
          "type": "bool"
        }
      ],
      "stateMutability": "view",
      "type": "function"
    },
    {
      "inputs": [
        {
          "internalType": "address",
          "name": "account",
          "type": "address"
        },
        {
          "internalType": "address",
          "name": "operator",
          "type": "address"
        }
      ],
      "name": "isApprovedForAll",
      "outputs": [
        {
          "internalType": "bool",
          "name": "",
          "type": "bool"
        }
      ],
      "stateMutability": "view",
      "type": "function"
    },
    {
      "inputs": [
        {
          "internalType": "uint256",
          "name": "_tokenId",
          "type": "uint256"
        },
        {
          "internalType": "uint256",
          "name": "amount",
          "type": "uint256"
        }
      ],
      "name": "lockBudget",
      "outputs": [],
      "stateMutability": "payable",
      "type": "function"
    },
    {
      "inputs": [],
      "name": "nextTokenId",
      "outputs": [
        {
          "internalType": "uint256",
          "name": "",
          "type": "uint256"
        }
      ],
      "stateMutability": "view",
      "type": "function"
    },
    {
      "inputs": [],
      "name": "owner",
      "outputs": [
        {
          "internalType": "address",
          "name": "",
          "type": "address"
        }
      ],
      "stateMutability": "view",
      "type": "function"
    },
    {
      "inputs": [],
      "name": "projectMetadataURI",
      "outputs": [
        {
          "internalType": "string",
          "name": "",
          "type": "string"
        }
      ],
      "stateMutability": "view",
      "type": "function"
    },
    {
      "inputs": [
        {
          "internalType": "uint256",
          "name": "_tokenId",
          "type": "uint256"
        },
        {
          "internalType": "address",
          "name": "tokenOwner",
          "type": "address"
        }
      ],
      "name": "redeemCoupon",
      "outputs": [],
      "stateMutability": "nonpayable",
      "type": "function"
    },
    {
      "inputs": [
        {
          "internalType": "uint256",
          "name": "",
          "type": "uint256"
        },
        {
          "internalType": "address",
          "name": "",
          "type": "address"
        }
      ],
      "name": "redeemedQuantities",
      "outputs": [
        {
          "internalType": "uint256",
          "name": "",
          "type": "uint256"
        }
      ],
      "stateMutability": "view",
      "type": "function"
    },
    {
      "inputs": [
        {
          "internalType": "uint256",
          "name": "",
          "type": "uint256"
        }
      ],
      "name": "redeemedTokenCount",
      "outputs": [
        {
          "internalType": "uint256",
          "name": "",
          "type": "uint256"
        }
      ],
      "stateMutability": "view",
      "type": "function"
    },
    {
      "inputs": [],
      "name": "registerAffiliate",
      "outputs": [],
      "stateMutability": "nonpayable",
      "type": "function"
    },
    {
      "inputs": [],
      "name": "renounceOwnership",
      "outputs": [],
      "stateMutability": "nonpayable",
      "type": "function"
    },
    {
      "inputs": [
        {
          "internalType": "address",
          "name": "from",
          "type": "address"
        },
        {
          "internalType": "address",
          "name": "to",
          "type": "address"
        },
        {
          "internalType": "uint256[]",
          "name": "ids",
          "type": "uint256[]"
        },
        {
          "internalType": "uint256[]",
          "name": "values",
          "type": "uint256[]"
        },
        {
          "internalType": "bytes",
          "name": "data",
          "type": "bytes"
        }
      ],
      "name": "safeBatchTransferFrom",
      "outputs": [],
      "stateMutability": "nonpayable",
      "type": "function"
    },
    {
      "inputs": [
        {
          "internalType": "address",
          "name": "from",
          "type": "address"
        },
        {
          "internalType": "address",
          "name": "to",
          "type": "address"
        },
        {
          "internalType": "uint256",
          "name": "id",
          "type": "uint256"
        },
        {
          "internalType": "uint256",
          "name": "value",
          "type": "uint256"
        },
        {
          "internalType": "bytes",
          "name": "data",
          "type": "bytes"
        }
      ],
      "name": "safeTransferFrom",
      "outputs": [],
      "stateMutability": "nonpayable",
      "type": "function"
    },
    {
      "inputs": [
        {
          "internalType": "address",
          "name": "operator",
          "type": "address"
        },
        {
          "internalType": "bool",
          "name": "approved",
          "type": "bool"
        }
      ],
      "name": "setApprovalForAll",
      "outputs": [],
      "stateMutability": "nonpayable",
      "type": "function"
    },
    {
      "inputs": [
        {
          "internalType": "uint256",
          "name": "_tokenId",
          "type": "uint256"
        },
        {
          "internalType": "uint256",
          "name": "_newBudget",
          "type": "uint256"
        }
      ],
      "name": "setLockedBudgetForTesting",
      "outputs": [],
      "stateMutability": "nonpayable",
      "type": "function"
    },
    {
      "inputs": [
        {
          "internalType": "uint256",
          "name": "_tokenId",
          "type": "uint256"
        },
        {
          "internalType": "string",
          "name": "_newURI",
          "type": "string"
        }
      ],
      "name": "setTokenURI",
      "outputs": [],
      "stateMutability": "nonpayable",
      "type": "function"
    },
    {
      "inputs": [
        {
          "internalType": "bytes4",
          "name": "interfaceId",
          "type": "bytes4"
        }
      ],
      "name": "supportsInterface",
      "outputs": [
        {
          "internalType": "bool",
          "name": "",
          "type": "bool"
        }
      ],
      "stateMutability": "view",
      "type": "function"
    },
    {
      "inputs": [
        {
          "internalType": "uint256",
          "name": "",
          "type": "uint256"
        }
      ],
      "name": "tokenData",
      "outputs": [
        {
          "internalType": "uint256",
          "name": "totalSupply",
          "type": "uint256"
        },
        {
          "internalType": "uint256",
          "name": "maxSupply",
          "type": "uint256"
        },
        {
          "internalType": "uint256",
          "name": "claimStart",
          "type": "uint256"
        },
        {
          "internalType": "uint256",
          "name": "claimEnd",
          "type": "uint256"
        },
        {
          "internalType": "uint256",
          "name": "redeemExpiration",
          "type": "uint256"
        },
        {
          "internalType": "uint256",
          "name": "fee",
          "type": "uint256"
        },
        {
          "internalType": "uint256",
          "name": "lockedBudget",
          "type": "uint256"
        },
        {
          "internalType": "uint256",
          "name": "tokensWithAffiliates",
          "type": "uint256"
        },
        {
          "internalType": "string",
          "name": "uri",
          "type": "string"
        },
        {
          "internalType": "bool",
          "name": "exists",
          "type": "bool"
        }
      ],
      "stateMutability": "view",
      "type": "function"
    },
    {
      "inputs": [
        {
          "internalType": "uint256",
          "name": "",
          "type": "uint256"
        },
        {
          "internalType": "address",
          "name": "",
          "type": "address"
        }
      ],
      "name": "tokenOwnerAffiliates",
      "outputs": [
        {
          "internalType": "address",
          "name": "",
          "type": "address"
        }
      ],
      "stateMutability": "view",
      "type": "function"
    },
    {
      "inputs": [
        {
          "internalType": "address",
          "name": "newOwner",
          "type": "address"
        }
      ],
      "name": "transferOwnership",
      "outputs": [],
      "stateMutability": "nonpayable",
      "type": "function"
    },
    {
      "inputs": [
        {
          "internalType": "string",
          "name": "_metadataURI",
          "type": "string"
        }
      ],
      "name": "updateProjectMetadata",
      "outputs": [],
      "stateMutability": "nonpayable",
      "type": "function"
    },
    {
      "inputs": [
        {
          "internalType": "uint256",
          "name": "_tokenId",
          "type": "uint256"
        }
      ],
      "name": "uri",
      "outputs": [
        {
          "internalType": "string",
          "name": "",
          "type": "string"
        }
      ],
      "stateMutability": "view",
      "type": "function"
    },
    {
      "inputs": [
        {
          "internalType": "address",
          "name": "_claimer",
          "type": "address"
        },
        {
          "internalType": "uint256",
          "name": "_tokenId",
          "type": "uint256"
        }
      ],
      "name": "verifyClaim",
      "outputs": [],
      "stateMutability": "view",
      "type": "function"
    },
    {
      "inputs": [
        {
          "internalType": "uint256",
          "name": "_tokenId",
          "type": "uint256"
        },
        {
          "internalType": "uint256",
          "name": "amount",
          "type": "uint256"
        }
      ],
      "name": "withdrawBudget",
      "outputs": [],
      "stateMutability": "nonpayable",
      "type": "function"
    },
    {
      "stateMutability": "payable",
      "type": "receive"
    }
  ],
  "bytecode": "0x6080806040523460d2577ff0c57e16840df040f15088dc2f81fe391c3923bec73e23a9662efc9c229c6a005460ff8160401c1660c1576002600160401b03196001600160401b03821601605c575b60405161339d90816100d88239f35b6001600160401b0319166001600160401b039081177ff0c57e16840df040f15088dc2f81fe391c3923bec73e23a9662efc9c229c6a005581527fc7f505b2f371ae2175ee4913f4499e1f2633a7b5936321eed1cdaeb6115181d290602090a13880604d565b63f92ee8a960e01b60005260046000fd5b600080fdfe6080604052600436101561001b575b361561001957600080fd5b005b60003560e01c806207476c14610244578062fdd58e1461023f57806301ffc9a71461023a5780630d7cf8c1146102355780630e89341c14610230578063162094c41461022b5780631c1cb3231461022657806324b4a667146102215780632eb2c2d61461021c5780632f3dffc8146102175780632f92023a1461021257806342888dfe1461020d5780634ddd1aa1146101ea5780634e1273f4146102085780634fa8518614610203578063617002c0146101fe578063691f8ba7146101f95780637057b941146101f4578063715018a6146101ef57806375794a3c146101ea578063860c39fe146101e55780638da5cb5b146101e05780638fedea88146101db578063a22cb465146101d6578063b09afec1146101d1578063b4b5b48f146101cc578063becf0426146101c7578063bf396c23146101c2578063c9d1135c146101bd578063d88053e9146101b8578063e18099a8146101b3578063e985e9c5146101ae578063f242432a146101a9578063f2fde38b146101a45763f367cd0a0361000e57611a42565b611a19565b61191d565b6118e0565b6115c7565b61158d565b61156f565b611526565b611498565b61141b565b611321565b611205565b6111ac565b611176565b6110a8565b610ce8565b61103e565b611012565b610feb565b610f21565b610e0a565b610d4b565b610b91565b610b6c565b610911565b610887565b610782565b610759565b610627565b6104b8565b61043d565b6103cf565b61035a565b61030c565b602435906001600160a01b038216820361025f57565b600080fd5b600435906001600160a01b038216820361025f57565b604435906001600160a01b038216820361025f57565b35906001600160a01b038216820361025f57565b6000527f88be536d5240c274a3b1d3a1be54482fd9caa294f08c62a7cde569f49a3c4500602052604060002090565b6001600160a01b031660009081527f88be536d5240c274a3b1d3a1be54482fd9caa294f08c62a7cde569f49a3c45016020526040902090565b3461025f57604036600319011261025f57602061035160043561032d610249565b906000526004835260406000209060018060a01b0316600052602052604060002090565b54604051908152f35b3461025f57604036600319011261025f576020610351610378610264565b6024356000527f88be536d5240c274a3b1d3a1be54482fd9caa294f08c62a7cde569f49a3c4500835260406000209060018060a01b0316600052602052604060002090565b6001600160e01b031981160361025f57565b3461025f57602036600319011261025f5760206004356103ee816103bd565b63ffffffff60e01b16636cdb3d1360e11b811490811561042c575b811561041b575b506040519015158152f35b6301ffc9a760e01b14905038610410565b6303a24d0760e21b81149150610409565b3461025f57602036600319011261025f57602061045b600435611bb6565b604051908152f35b919082519283825260005b84811061048f575050826000602080949584010152601f8019910116010190565b8060208092840101518282860101520161046e565b9060206104b5928181520190610463565b90565b3461025f57602036600319011261025f5760043580600052600260205260ff600960406000200154161561052257600052600260205261051e61050b610512600860406000200160405192838092610e83565b0382610585565b604051918291826104a4565b0390f35b63677510db60e11b60005260046000fd5b634e487b7160e01b600052604160045260246000fd5b60e081019081106001600160401b0382111761056457604052565b610533565b61014081019081106001600160401b0382111761056457604052565b90601f801991011681019081106001600160401b0382111761056457604052565b604051906105b560e083610585565b565b604051906105b561014083610585565b6001600160401b03811161056457601f01601f191660200190565b81601f8201121561025f576020813591016105fc826105c7565b9261060a6040519485610585565b8284528282011161025f5781600092602092838601378301015290565b3461025f57604036600319011261025f576004356024356001600160401b03811161025f5761065a9036906004016105e2565b90610663612747565b80600052600260205260ff6009604060002001541615610522576000526002602052600860406000200181516001600160401b038111610564576106b1816106ab8454610e49565b84611ca4565b602092601f82116001146106f2576106e3929382916000926106e7575b50508160011b916000199060031b1c19161790565b9055005b0151905038806106ce565b601f1982169361070784600052602060002090565b9160005b8681106107415750836001959610610728575b505050811b019055005b015160001960f88460031b161c1916905538808061071e565b9192602060018192868501518155019401920161070b565b3461025f57600036600319011261025f576006546040516001600160a01b039091168152602090f35b60e036600319011261025f576004356001600160401b03811161025f576107b061051e9136906004016105e2565b60c43560a4356084356064356044356024356107ca612747565b604051966107d788610549565b8752602087015260408601526060850152608084015260a083015260c082015261080360015491612862565b6040519081529081906020820190565b6001600160401b0381116105645760051b60200190565b9080601f8301121561025f57813561084181610813565b9261084f6040519485610585565b81845260208085019260051b82010192831161025f57602001905b8282106108775750505090565b813581526020918201910161086a565b3461025f5760a036600319011261025f576108a0610264565b6108a8610249565b906044356001600160401b03811161025f576108c890369060040161082a565b6064356001600160401b03811161025f576108e790369060040161082a565b90608435936001600160401b03851161025f5761090b6100199536906004016105e2565b93611e90565b3461025f57604036600319011261025f5760043561092d610249565b6109556109516009610949856000526002602052604060002090565b015460ff1690565b1590565b61052257610976610970836000526002602052604060002090565b54611ee1565b600161098c846000526002602052604060002090565b015410610b5b5761099d8233611f42565b6001600160a01b03811680610a33575b506109c06109b9611efc565b8333612a8e565b6109d4826000526002602052604060002090565b6109de8154611ee1565b905560086109f6836000526002602052604060002090565b01907fa3b41b96fbf46594f80c7153bb4984e94d289af9e17816f61ecf53c029dd7d2360405180610a2e339533954290309085611f11565b0390a4005b6001600160a01b0382166000908152600760205260409020610a5b90610951905b5460ff1690565b610b4a573314610b4a576006610a7b836000526002602052604060002090565b01546005610a93846000526002602052604060002090565b015411610b39576001600160a01b0381166000908152600860205260409020610abc8154611ee1565b90556007610ad4836000526002602052604060002090565b01610adf8154611ee1565b9055610b3381610b1433610afd866000526003602052604060002090565b9060018060a01b0316600052602052604060002090565b80546001600160a01b0319166001600160a01b03909216919091179055565b386109ad565b634dd23c8b60e01b60005260046000fd5b6304483f3f60e31b60005260046000fd5b63c30436e960e01b60005260046000fd5b3461025f57604036600319011261025f57610019610b88610264565b60243590611f42565b3461025f57602036600319011261025f576004356001600160401b03811161025f57610bc19036906004016105e2565b610bc9612747565b80516001600160401b03811161056457610bed81610be8600054610e49565b611bf2565b6020601f8211600114610c535791610c2f82610c439360008051602061330883398151915295600091610c48575b508160011b916000199060031b1c19161790565b6000555b6040519182914290309084611fe5565b0390a1005b905083015138610c1b565b60008052601f198216907f290decd9548b62a8d60345a988386fc84ba6bc95484008f6362f93160ef3e5639160005b818110610cd0575092600080516020613308833981519152949260019282610c439610610cb7575b5050811b01600055610c33565b84015160001960f88460031b161c191690553880610caa565b91926020600181928689015181550194019201610c82565b3461025f57600036600319011261025f576020600154604051908152f35b906020808351928381520192019060005b818110610d245750505090565b8251845260209384019390920191600101610d17565b9060206104b5928181520190610d06565b3461025f57604036600319011261025f576004356001600160401b03811161025f573660238201121561025f57806004013590610d8782610813565b91610d956040519384610585565b8083526024602084019160051b8301019136831161025f57602401905b828210610df257836024356001600160401b03811161025f5761051e91610de0610de692369060040161082a565b9061203b565b60405191829182610d3a565b60208091610dff84610290565b815201910190610db2565b3461025f57602036600319011261025f576001600160a01b03610e2b610264565b166000526007602052602060ff604060002054166040519015158152f35b90600182811c92168015610e79575b6020831014610e6357565b634e487b7160e01b600052602260045260246000fd5b91607f1691610e58565b60009291815491610e9383610e49565b8083529260018116908115610ee95750600114610eaf57505050565b60009081526020812093945091925b838310610ecf575060209250010190565b600181602092949394548385870101520191019190610ebe565b915050602093945060ff929192191683830152151560051b010190565b906105b5610f1a9260405193848092610e83565b0383610585565b3461025f57600036600319011261025f5760405160008054610f4281610e49565b8084529060018116908115610fc75750600114610f6a575b61051e8361051281850382610585565b60008080527f290decd9548b62a8d60345a988386fc84ba6bc95484008f6362f93160ef3e563939250905b808210610fad57509091508101602001610512610f5a565b919260018160209254838588010152019101909291610f95565b60ff191660208086019190915291151560051b840190910191506105129050610f5a565b3461025f57604036600319011261025f5761001960243560043561100d612747565b61215d565b3461025f57602036600319011261025f5760043560005260056020526020604060002054604051908152f35b3461025f57600036600319011261025f57611057612747565b6000805160206132e883398151915280546001600160a01b031981169091556000906001600160a01b03167f8be0079c531659141344cd1fd0a4f28419497f9722a3daafe3b4186f6b6457e08280a3005b608036600319011261025f576004356001600160401b03811161025f576110d39036906004016105e2565b6110db610249565b906110e461027a565b606435926001600160401b03841161025f5760e0600319853603011261025f5761110c6105a6565b9284600401356001600160401b03811161025f576100199561113660c492600436918401016105e2565b86526024810135602087015260448101356040870152606481013560608701526084810135608087015260a481013560a0870152013560c08501526122bf565b3461025f57600036600319011261025f576000805160206132e8833981519152546040516001600160a01b039091168152602090f35b3461025f57604036600319011261025f576024356004356111cb612747565b80600052600260205260ff6009604060002001541615610522576000526002602052600660406000200155600080f35b8015150361025f57565b3461025f57604036600319011261025f5761121e610264565b60243561122a816111fb565b6001600160a01b03821691821561128d578161124c61125d92610afd336102d3565b9060ff801983541691151516179055565b60405190151581527f17307eab39ab6107e8899845ad3d59bd9653f200f220920489ca2b5937696c3160203392a3005b62ced3e160e81b600052600060045260246000fd5b6104b5906020815282516020820152602083015160408201526040830151606082015260608301516080820152608083015160a082015260a083015160c082015260c083015160e082015260e08301516101008201526101406101206113176101008601518383860152610160850190610463565b9401511515910152565b3461025f57602036600319011261025f57600435600061012060405161134681610569565b8281528260208201528260408201528260608201528260808201528260a08201528260c08201528260e0820152606061010082015201526113996109516009610949846000526002602052604060002090565b610522576113bc6113b761051e926000526002602052604060002090565b6125db565b604051918291826112a2565b9895926101209895926114139895929c9b9c8b5260208b015260408a01526060890152608088015260a087015260c086015260e0850152610140610100850152610140840190610463565b931515910152565b3461025f57602036600319011261025f5760043560005260026020526040600020805461051e60018301549260028101549060038101546004820154600583015460068401549160078501549360ff600960405197611488896114818160088501610e83565b038a610585565b015416966040519a8b9a8b6113c8565b3461025f57600036600319011261025f5733600052600760205260ff604060002054166115165733600081815260076020908152604091829020805460ff19166001179055815130815242918101919091527f990349658e7763fcf9afe1ec1a24f36dc2225f1506509a9169a1205e9a536a6891819081015b0390a2005b62434be160e51b60005260046000fd5b3461025f57604036600319011261025f576020600435611544610249565b60009182526003835260408083206001600160a01b0392831684526020529091205416604051908152f35b3461025f57602036600319011261025f57602061045b60043561265b565b3461025f57602036600319011261025f576001600160a01b036115ae610264565b1660005260086020526020604060002054604051908152f35b3461025f57604036600319011261025f576004356115e3610249565b6115eb612747565b6116076109516009610949856000526002602052604060002090565b6105225761161881610afd846102a4565b54156118cf576004611634836000526002602052604060002090565b015442116118be5761165481610afd846000526004602052604060002090565b546118ad5761168161167482610afd856000526003602052604060002090565b546001600160a01b031690565b906001600160a01b038216611743575b806116d46116ce7f9740ccd7632c212cf0c62b84fe8a88c610b74aa9c4ca8a98ba3038fbefceb0b193610afd876000526004602052604060002090565b60019055565b6116e8846000526005602052604060002090565b6116f28154611ee1565b9055600561170a856000526002602052604060002090565b0154600654604080516001600160a01b039687168152602081019390935230908301524260608301528416608082015292169160a090a3005b6001600160a01b03821660009081526007602052604090206117689061095190610a54565b610b4a576006611782846000526002602052604060002090565b0154600561179a856000526002602052604060002090565b015411610b39577f9740ccd7632c212cf0c62b84fe8a88c610b74aa9c4ca8a98ba3038fbefceb0b19060076117d9856000526002602052604060002090565b016117e481546120d3565b905560056117fc856000526002602052604060002090565b01546118206006611817876000526002602052604060002090565b019182546120e2565b90556006546001600160a01b031673eeeeeeeeeeeeeeeeeeeeeeeeeeeeeeeeeeeeeeee819003611883575061187c600080808060056118698a6000526002602052604060002090565b0154885af16118766120ef565b5061211f565b9050611691565b6118a89084600561189e886000526002602052604060002090565b0154913090612be6565b61187c565b637b38ef1f60e01b60005260046000fd5b63528acf4f60e01b60005260046000fd5b632207388360e01b60005260046000fd5b3461025f57604036600319011261025f57602060ff611911611900610264565b610afd61190b610249565b916102d3565b54166040519015158152f35b3461025f5760a036600319011261025f57611936610264565b61193e610249565b60443590606435926084356001600160401b03811161025f576119659036906004016105e2565b926001600160a01b0382163381141580611a08575b6119f0576001600160a01b038416156119da57156119c557610019946119bd60405192600184526020840152604083019160018352606084015260808301604052565b929091612c74565b626a0d4560e21b600052600060045260246000fd5b632bfa23e760e11b600052600060045260246000fd5b63711bec9160e11b6000523360045260245260446000fd5b50611a1333846126bd565b1561197a565b3461025f57602036600319011261025f57610019611a35610264565b611a3d612747565b6126d1565b604036600319011261025f5760043560243590611a716109516009610949846000526002602052604060002090565b610522576006546001600160a01b031673eeeeeeeeeeeeeeeeeeeeeeeeeeeeeeeeeeeeeeee819003611b145750813403611b0357611abb6006916000526002602052604060002090565b01611ac7828254611eef565b90556040805191825230602083015233917f599419cc9c3fed0d4c06df68b361976b3559f232e25700cc78c51471251a73a59181908101611511565b6368b1946560e01b60005260046000fd5b34611b0357600691611b2d84611abb9330903390612be6565b6000526002602052604060002090565b611b84916000527f88be536d5240c274a3b1d3a1be54482fd9caa294f08c62a7cde569f49a3c450060205260406000209060018060a01b0316600052602052604060002090565b5490565b634e487b7160e01b600052601160045260246000fd5b81810292918115918404141715611bb157565b611b88565b80600052600260205260ff600960406000200154161561052257600090815260026020526040902060078101546005909101546104b591611b9e565b601f8111611bfe575050565b600080526020600020906020601f840160051c83019310611c3a575b601f0160051c01905b818110611c2e575050565b60008155600101611c23565b9091508190611c1a565b601f8111611c50575050565b6000805160206133488339815191526000526020600020906020601f840160051c83019310611c9a575b601f0160051c01905b818110611c8e575050565b60008155600101611c83565b9091508190611c7a565b601f8211611cb157505050565b6000526020600020906020601f840160051c83019310611cec575b601f0160051c01905b818110611ce0575050565b60008155600101611cd5565b9091508190611ccc565b9081516001600160401b03811161056457611d1d81611d16600054610e49565b6000611ca4565b602092601f8211600114611d5357611d4e929382916000926106e75750508160011b916000199060031b1c19161790565b600055565b60008052601f198216937f290decd9548b62a8d60345a988386fc84ba6bc95484008f6362f93160ef3e5639160005b868110611db95750836001959610611da0575b505050811b01600055565b015160001960f88460031b161c19169055388080611d95565b91926020600181928685015181550194019201611d82565b91909182516001600160401b03811161056457611df2816106ab8454610e49565b6020601f8211600114611e27578190611e239394956000926106e75750508160011b916000199060031b1c19161790565b9055565b601f19821690611e3c84600052602060002090565b9160005b818110611e7857509583600195969710611e5f575b505050811b019055565b015160001960f88460031b161c19169055388080611e55565b9192602060018192868b015181550194019201611e40565b939291906001600160a01b0385163381141580611ec9575b6119f0576001600160a01b038216156119da57156119c5576105b594612c74565b5060ff611ed933610afd896102d3565b541615611ea8565b9060018201809211611bb157565b91908201809211611bb157565b60405190611f0b602083610585565b60008252565b6001600160a01b0391821681529116602082015260408101919091526080606082018190526104b592910190610e83565b611f5e6109516009610949856000526002602052604060002090565b61052257611f6f90610afd836102a4565b54611fd4576002611f8a826000526002602052604060002090565b01544210611fc357611fa86003916000526002602052604060002090565b01544211611fb257565b6341524ecf60e11b60005260046000fd5b635874e70f60e11b60005260046000fd5b633d6a72ef60e11b60005260046000fd5b611ffd60409295949395606083526060830190610463565b6001600160a01b0390951660208201520152565b80518210156120255760209160051b010190565b634e487b7160e01b600052603260045260246000fd5b919091805183518082036120bc57505080519061205782610813565b916120656040519384610585565b808352612074601f1991610813565b0136602084013760005b81518110156120b557806120a460019260051b6020808287010151918901015190611b3d565b6120ae8286612011565b520161207e565b5090925050565b635b05999160e01b60005260045260245260446000fd5b600019810191908211611bb157565b91908203918211611bb157565b3d1561211a573d90612100826105c7565b9161210e6040519384610585565b82523d6000602084013e565b606090565b1561212657565b60405162461bcd60e51b815260206004820152600f60248201526e151c985b9cd9995c8819985a5b1959608a1b6044820152606490fd5b6121796109516009610949846000526002602052604060002090565b610522576006612193826000526002602052604060002090565b015482116122ae5760046121b1826000526002602052604060002090565b01544211612298576121c281611bb6565b6121e38360066121dc856000526002602052604060002090565b01546120e2565b10610b39576121fe6006916000526002602052604060002090565b0161220a8282546120e2565b90556006546001600160a01b03168173eeeeeeeeeeeeeeeeeeeeeeeeeeeeeeeeeeeeeeee8290036122865761224b9150600080808093335af16118766120ef565b6040805191825230602083015233917fcccac05118081db07a70bb781aabe8f0db7182a0b52d7374fa4821e9ed33cc8591819081015b0390a2565b6122939133903090612be6565b61224b565b6121fe6006916000526002602052604060002090565b639abc749160e01b60005260046000fd5b6000805160206133288339815191525493909290916001600160401b036122f5604087901c60ff1615966001600160401b031690565b168015908161241c575b6001149081612412575b159081612409575b506123f857612356938561234d60016001600160401b031960008051602061332883398151915254161760008051602061332883398151915255565b6123bc57612424565b61235c57565b61238860ff60401b19600080516020613328833981519152541660008051602061332883398151915255565b604051600181527fc7f505b2f371ae2175ee4913f4499e1f2633a7b5936321eed1cdaeb6115181d29080602081015b0390a1565b6123f36801000000000000000060ff60401b1960008051602061332883398151915254161760008051602061332883398151915255565b612424565b63f92ee8a960e01b60005260046000fd5b90501538612311565b303b159150612309565b8691506122ff565b92916020604051906124368183610585565b60008252612442612edd565b61244a612edd565b8151916001600160401b0383116105645761247c8361247760008051602061334883398151915254610e49565b611c44565b81601f841160011461251a5750936124e0610c33946124cb856123b7999661250b966000805160206133088339815191529c9a6000926106e75750508160011b916000199060031b1c19161790565b60008051602061334883398151915255612c60565b6124e985611cf6565b60018060a01b03166bffffffffffffffffffffffff60a01b6006541617600655565b6125156000600155565b612862565b6000805160206133488339815191526000529190601f1984167ff429cb5e2ec84cbb765e76b31964a56ccde03e7a6122d6cc4afb19edc55edeed936000905b8282106125c35750509460018561250b956000805160206133088339815191529b99956124e0956123b79c99610c339b106125aa575b505050811b0160008051602061334883398151915255612c60565b015160001960f88460031b161c1916905538808061258f565b80600186978294978701518155019601940190612559565b906105b561265160096125ec6105b7565b948054865260018101546020870152600281015460408701526003810154606087015260048101546080870152600581015460a0870152600681015460c0870152600781015460e087015261264360088201610f06565b610100870152015460ff1690565b1515610120840152565b80600052600260205260ff60096040600020015416156105225761267e81611bb6565b908060005260026020526006604060002001548210156126b6576000526002602052600660406000200154908103908111611bb15790565b5050600090565b60ff91610afd6126cc926102d3565b541690565b6001600160a01b03168015612731576000805160206132e883398151915280546001600160a01b0319811683179091556001600160a01b03167f8be0079c531659141344cd1fd0a4f28419497f9722a3daafe3b4186f6b6457e0600080a3565b631e4fbdf760e01b600052600060045260246000fd5b6000805160206132e8833981519152546001600160a01b0316330361276857565b63118cdaa760e01b6000523360045260246000fd5b60096127ec6101206105b594805185556020810151600186015560408101516002860155606081015160038601556080810151600486015560a0810151600586015560c0810151600686015560e081015160078601556127e561010082015160088701611dd1565b0151151590565b91019060ff801983541691151516179055565b6000198114611bb15760010190565b959261282f6101009895929b9a9996939b6101208952610120890190610463565b602088019b909b5260408701526060860152608085015260a084015260c08301526001600160a01b031660e08201520152565b60208101805115612a7d5760408201908151606084019081511115612a6c57805191608085019283511115612a5b5760a085019384518015159081612a41575b50610b395760c08601805190929015612a11576006546001600160a01b031673eeeeeeeeeeeeeeeeeeeeeeeeeeeeeeeeeeeeeeee8190036129b5575082513403611b03577fcf94e89725d249897cdc87a490b71034417abce994d7d16ee69c74de225bda6095612281935b600154986129848451865189518b5187519087519287519461292d6105b7565b9660008852602088015260408701526060860152608085015260a084015260c0830152600060e083015261010082015261296b610120820160019052565b61297f8c6000526002602052604060002090565b61277d565b6129976129926001546127ff565b600155565b5192519351955196519151905191604051978897429630968a61280e565b929534611b03576000805160206132e88339815191525487517fcf94e89725d249897cdc87a490b71034417abce994d7d16ee69c74de225bda6098612281969092612a0c929130916001600160a01b031690612be6565b61290d565b34611b03577fcf94e89725d249897cdc87a490b71034417abce994d7d16ee69c74de225bda60956122819361290d565b9050612a5460c088015191845190611b9e565b11386128a2565b6368f6151d60e11b60005260046000fd5b6397c0867360e01b60005260046000fd5b63ad03f1cd60e01b60005260046000fd5b6001600160a01b038116929183156119da576001612ac960405192600184526020840152604083019160018352606084015260808301604052565b928151845190818103612bcf57505060005b8251811015612b18578060019160051b612b10612b0887610afd602080868b010151958c010151946102a4565b918254611eef565b905501612adb565b509291936001825114600014612b935760208281015184820151604080519283529282015260009133917fc3d58168c5ae7397731d063d5bbf3d657854427343f4c083240f7aacaa2d0f629190a45b8051600103612b8757906020806105b595930151910151916000336130cd565b6105b593600033612f98565b60006040517f4a39dc06d4c0dbc64b70af90fd698a233a518aa5d07e595d983b8c0526c8f7fb339180612bc7888883612f0b565b0390a4612b67565b635b05999160e01b60005260045260245260446000fd5b9291908215612c5a576001600160a01b03841673eeeeeeeeeeeeeeeeeeeeeeeeeeeeeeeeeeeeeeee03612c515750909150600080808085855af1612c286120ef565b5015612c32575050565b635fdc4ec160e11b60005260018060a01b031660045260245260446000fd5b6105b593612e39565b50505050565b6105b590612c6c612edd565b611a3d612edd565b9493929091938451825190818103612bcf5750506001600160a01b0386811695861515959185168015159391929060005b8451811015612d6b578060051b90898988602080868b010151958c01015192612cf5575b93600194612cdb575b50505001612ca5565b612ceb91610afd612b08926102a4565b9055388981612cd2565b50509091612d068d610afd836102a4565b54828110612d2f578291898f612d26600197968f950391610afd856102a4565b55909450612cc9565b6040516303dee4c560e01b81526001600160a01b038f1660048201526024810191909152604481018390526064810182905280608481015b0390fd5b509198959392979096506001885114600014612dff5760208881015186820151604080519283529282015233917fc3d58168c5ae7397731d063d5bbf3d657854427343f4c083240f7aacaa2d0f6291a45b612dc8575b5050505050565b8451600103612dee57602080612de496015192015192336130cd565b3880808080612dc1565b612dfa94919233612f98565b612de4565b6040517f4a39dc06d4c0dbc64b70af90fd698a233a518aa5d07e595d983b8c0526c8f7fb339180612e31898d83612f0b565b0390a4612dbc565b919291906001600160a01b03908116908416818114612dc157308203612ea657505060405163a9059cbb60e01b60208201526001600160a01b039390931660248401526044808401929092529082526105b59190612e98606483610585565b6001600160a01b031661316d565b6105b59450604093919351936323b872dd60e01b602086015260248501526044840152606483015260648252612e98608483610585565b60ff6000805160206133288339815191525460401c1615612efa57565b631afcd79f60e31b60005260046000fd5b9091612f226104b593604084526040840190610d06565b916020818403910152610d06565b9081602091031261025f57516104b5816103bd565b6001600160a01b0391821681529116602082015260a0604082018190526104b59491939192612f8a9291612f7c9190860190610d06565b908482036060860152610d06565b916080818403910152610463565b9091949293853b612fac575b505050505050565b602093612fce91604051968795869563bc197c8160e01b875260048701612f45565b038160006001600160a01b0387165af160009181613063575b506130235750612ff56120ef565b805191908261301c57632bfa23e760e11b6000526001600160a01b03821660045260246000fd5b9050602001fd5b6001600160e01b0319166343e6837f60e01b016130465750388080808080612fa4565b632bfa23e760e11b6000526001600160a01b031660045260246000fd5b61308691925060203d60201161308d575b61307e8183610585565b810190612f30565b9038612fe7565b503d613074565b6001600160a01b039182168152911660208201526040810191909152606081019190915260a0608082018190526104b592910190610463565b9091949293853b6130e057505050505050565b60209361310291604051968795869563f23a6e6160e01b875260048701613094565b038160006001600160a01b0387165af16000918161314c575b506131295750612ff56120ef565b6001600160e01b031916630dc5919f60e01b016130465750388080808080612fa4565b61316691925060203d60201161308d5761307e8183610585565b903861311b565b6040805190926131d2926001600160a01b03169060009081906131908786610585565b602085527f5361666545524332303a206c6f772d6c6576656c2063616c6c206661696c6564602086015260208151910182855af16131cc6120ef565b91613256565b8051806131de57505050565b60209082018290031261025f57602001516131f8816111fb565b156132005750565b5162461bcd60e51b815260206004820152602a60248201527f5361666545524332303a204552433230206f7065726174696f6e20646964206e6044820152691bdd081cdd58d8d9595960b21b6064820152608490fd5b919290156132b8575081511561326a575090565b3b156132735790565b60405162461bcd60e51b815260206004820152601d60248201527f416464726573733a2063616c6c20746f206e6f6e2d636f6e74726163740000006044820152606490fd5b8251909150156132cb5750805190602001fd5b60405162461bcd60e51b8152908190612d6790600483016104a456fe9016d09d72d40fdae2fd8ceac6b6234c7706214fd39c1cd1e609a0528c1993008072df8eafd9d42ebbfe56858b1f96cd9321f614f179625de5314a401b3631a6f0c57e16840df040f15088dc2f81fe391c3923bec73e23a9662efc9c229c6a0088be536d5240c274a3b1d3a1be54482fd9caa294f08c62a7cde569f49a3c4502a26469706673582212206c3dc29fa1e6d2f68a9af21fef336b9bc8ecf909046a6535ed896cb99fb4667464736f6c634300081c0033",
  "linkReferences": {},
  "deployedLinkReferences": {}
}