{"abi":[{"type":"constructor","inputs":[],"stateMutability":"nonpayable"},{"type":"receive","stateMutability":"payable"},{"type":"function","name":"affiliateIDs","inputs":[{"name":"","type":"address","internalType":"address"}],"outputs":[{"name":"","type":"uint256","internalType":"uint256"}],"stateMutability":"view"},{"type":"function","name":"affiliateOwners","inputs":[{"name":"","type":"uint256","internalType":"uint256"}],"outputs":[{"name":"","type":"address","internalType":"address"}],"stateMutability":"view"},{"type":"function","name":"balanceOf","inputs":[{"name":"account","type":"address","internalType":"address"},{"name":"id","type":"uint256","internalType":"uint256"}],"outputs":[{"name":"","type":"uint256","internalType":"uint256"}],"stateMutability":"view"},{"type":"function","name":"balanceOfBatch","inputs":[{"name":"accounts","type":"address[]","internalType":"address[]"},{"name":"ids","type":"uint256[]","internalType":"uint256[]"}],"outputs":[{"name":"","type":"uint256[]","internalType":"uint256[]"}],"stateMutability":"view"},{"type":"function","name":"calculateRequiredBudget","inputs":[],"outputs":[{"name":"","type":"uint256","internalType":"uint256"}],"stateMutability":"view"},{"type":"function","name":"claimEnd","inputs":[],"outputs":[{"name":"","type":"uint256","internalType":"uint256"}],"stateMutability":"view"},{"type":"function","name":"claimStart","inputs":[],"outputs":[{"name":"","type":"uint256","internalType":"uint256"}],"stateMutability":"view"},{"type":"function","name":"currencyAddress","inputs":[],"outputs":[{"name":"","type":"address","internalType":"address"}],"stateMutability":"view"},{"type":"function","name":"customClaim","inputs":[{"name":"affiliateId","type":"uint256","internalType":"uint256"}],"outputs":[],"stateMutability":"payable"},{"type":"function","name":"fee","inputs":[],"outputs":[{"name":"","type":"uint256","internalType":"uint256"}],"stateMutability":"view"},{"type":"function","name":"getAvailableBudget","inputs":[],"outputs":[{"name":"","type":"uint256","internalType":"uint256"}],"stateMutability":"view"},{"type":"function","name":"initialize","inputs":[{"name":"_uri","type":"string","internalType":"string"},{"name":"_maxSupply","type":"uint256","internalType":"uint256"},{"name":"_claimStart","type":"uint256","internalType":"uint256"},{"name":"_claimEnd","type":"uint256","internalType":"uint256"},{"name":"_redeemExpiration","type":"uint256","internalType":"uint256"},{"name":"_lockedBudget","type":"uint256","internalType":"uint256"},{"name":"_currencyAddress","type":"address","internalType":"address"},{"name":"_tokenId","type":"uint256","internalType":"uint256"},{"name":"_fee","type":"uint256","internalType":"uint256"},{"name":"_owner","type":"address","internalType":"address"}],"outputs":[],"stateMutability":"payable"},{"type":"function","name":"isApprovedForAll","inputs":[{"name":"account","type":"address","internalType":"address"},{"name":"operator","type":"address","internalType":"address"}],"outputs":[{"name":"","type":"bool","internalType":"bool"}],"stateMutability":"view"},{"type":"function","name":"lockBudget","inputs":[{"name":"amount","type":"uint256","internalType":"uint256"}],"outputs":[],"stateMutability":"payable"},{"type":"function","name":"lockedBudget","inputs":[],"outputs":[{"name":"","type":"uint256","internalType":"uint256"}],"stateMutability":"view"},{"type":"function","name":"maxSupply","inputs":[],"outputs":[{"name":"","type":"uint256","internalType":"uint256"}],"stateMutability":"view"},{"type":"function","name":"nextAffiliateId","inputs":[],"outputs":[{"name":"","type":"uint256","internalType":"uint256"}],"stateMutability":"view"},{"type":"function","name":"owner","inputs":[],"outputs":[{"name":"","type":"address","internalType":"address"}],"stateMutability":"view"},{"type":"function","name":"redeemCoupon","inputs":[{"name":"tokenOwner","type":"address","internalType":"address"}],"outputs":[],"stateMutability":"nonpayable"},{"type":"function","name":"redeemExpiration","inputs":[],"outputs":[{"name":"","type":"uint256","internalType":"uint256"}],"stateMutability":"view"},{"type":"function","name":"redeemedQuantities","inputs":[{"name":"","type":"uint256","internalType":"uint256"},{"name":"","type":"address","internalType":"address"}],"outputs":[{"name":"","type":"uint256","internalType":"uint256"}],"stateMutability":"view"},{"type":"function","name":"redeemedTokenCount","inputs":[{"name":"","type":"uint256","internalType":"uint256"}],"outputs":[{"name":"","type":"uint256","internalType":"uint256"}],"stateMutability":"view"},{"type":"function","name":"registerAffiliate","inputs":[],"outputs":[],"stateMutability":"nonpayable"},{"type":"function","name":"renounceOwnership","inputs":[],"outputs":[],"stateMutability":"nonpayable"},{"type":"function","name":"safeBatchTransferFrom","inputs":[{"name":"from","type":"address","internalType":"address"},{"name":"to","type":"address","internalType":"address"},{"name":"ids","type":"uint256[]","internalType":"uint256[]"},{"name":"values","type":"uint256[]","internalType":"uint256[]"},{"name":"data","type":"bytes","internalType":"bytes"}],"outputs":[],"stateMutability":"nonpayable"},{"type":"function","name":"safeTransferFrom","inputs":[{"name":"from","type":"address","internalType":"address"},{"name":"to","type":"address","internalType":"address"},{"name":"id","type":"uint256","internalType":"uint256"},{"name":"value","type":"uint256","internalType":"uint256"},{"name":"data","type":"bytes","internalType":"bytes"}],"outputs":[],"stateMutability":"nonpayable"},{"type":"function","name":"setApprovalForAll","inputs":[{"name":"operator","type":"address","internalType":"address"},{"name":"approved","type":"bool","internalType":"bool"}],"outputs":[],"stateMutability":"nonpayable"},{"type":"function","name":"setLockedBudgetForTesting","inputs":[{"name":"_newBudget","type":"uint256","internalType":"uint256"}],"outputs":[],"stateMutability":"nonpayable"},{"type":"function","name":"setURI","inputs":[{"name":"newURI","type":"string","internalType":"string"}],"outputs":[],"stateMutability":"nonpayable"},{"type":"function","name":"supportsInterface","inputs":[{"name":"interfaceId","type":"bytes4","internalType":"bytes4"}],"outputs":[{"name":"","type":"bool","internalType":"bool"}],"stateMutability":"view"},{"type":"function","name":"tokenId","inputs":[],"outputs":[{"name":"","type":"uint256","internalType":"uint256"}],"stateMutability":"view"},{"type":"function","name":"tokenOwnerAffiliates","inputs":[{"name":"","type":"uint256","internalType":"uint256"},{"name":"","type":"address","internalType":"address"}],"outputs":[{"name":"","type":"uint256","internalType":"uint256"}],"stateMutability":"view"},{"type":"function","name":"tokensWithAffiliates","inputs":[],"outputs":[{"name":"","type":"uint256","internalType":"uint256"}],"stateMutability":"view"},{"type":"function","name":"totalSupply","inputs":[],"outputs":[{"name":"","type":"uint256","internalType":"uint256"}],"stateMutability":"view"},{"type":"function","name":"transferOwnership","inputs":[{"name":"newOwner","type":"address","internalType":"address"}],"outputs":[],"stateMutability":"nonpayable"},{"type":"function","name":"uri","inputs":[{"name":"","type":"uint256","internalType":"uint256"}],"outputs":[{"name":"","type":"string","internalType":"string"}],"stateMutability":"view"},{"type":"function","name":"verifyClaim","inputs":[{"name":"_claimer","type":"address","internalType":"address"}],"outputs":[],"stateMutability":"view"},{"type":"function","name":"withdrawBudget","inputs":[{"name":"amount","type":"uint256","internalType":"uint256"}],"outputs":[],"stateMutability":"nonpayable"},{"type":"event","name":"AffiliateRegistered","inputs":[{"name":"user","type":"address","indexed":true,"internalType":"address"},{"name":"affiliateId","type":"uint256","indexed":false,"internalType":"uint256"},{"name":"contractAddress","type":"address","indexed":false,"internalType":"address"},{"name":"timestamp","type":"uint256","indexed":false,"internalType":"uint256"},{"name":"tokenId","type":"uint256","indexed":false,"internalType":"uint256"}],"anonymous":false},{"type":"event","name":"ApprovalForAll","inputs":[{"name":"account","type":"address","indexed":true,"internalType":"address"},{"name":"operator","type":"address","indexed":true,"internalType":"address"},{"name":"approved","type":"bool","indexed":false,"internalType":"bool"}],"anonymous":false},{"type":"event","name":"BudgetLocked","inputs":[{"name":"locker","type":"address","indexed":true,"internalType":"address"},{"name":"amount","type":"uint256","indexed":false,"internalType":"uint256"},{"name":"contractAddress","type":"address","indexed":false,"internalType":"address"}],"anonymous":false},{"type":"event","name":"BudgetWithdrawn","inputs":[{"name":"withdrawer","type":"address","indexed":true,"internalType":"address"},{"name":"amount","type":"uint256","indexed":false,"internalType":"uint256"},{"name":"contractAddress","type":"address","indexed":false,"internalType":"address"}],"anonymous":false},{"type":"event","name":"CouponRedeemed","inputs":[{"name":"owner","type":"address","indexed":true,"internalType":"address"},{"name":"tokenId","type":"uint256","indexed":true,"internalType":"uint256"},{"name":"affiliateAddress","type":"address","indexed":false,"internalType":"address"},{"name":"fee","type":"uint256","indexed":false,"internalType":"uint256"},{"name":"contractAddress","type":"address","indexed":false,"internalType":"address"},{"name":"timestamp","type":"uint256","indexed":false,"internalType":"uint256"},{"name":"currency","type":"address","indexed":false,"internalType":"address"}],"anonymous":false},{"type":"event","name":"Initialized","inputs":[{"name":"version","type":"uint64","indexed":false,"internalType":"uint64"}],"anonymous":false},{"type":"event","name":"OwnershipTransferred","inputs":[{"name":"previousOwner","type":"address","indexed":true,"internalType":"address"},{"name":"newOwner","type":"address","indexed":true,"internalType":"address"}],"anonymous":false},{"type":"event","name":"TokenClaimed","inputs":[{"name":"claimer","type":"address","indexed":true,"internalType":"address"},{"name":"receiver","type":"address","indexed":true,"internalType":"address"},{"name":"tokenId","type":"uint256","indexed":true,"internalType":"uint256"},{"name":"affiliateAddress","type":"address","indexed":false,"internalType":"address"},{"name":"contractAddress","type":"address","indexed":false,"internalType":"address"},{"name":"timestamp","type":"uint256","indexed":false,"internalType":"uint256"}],"anonymous":false},{"type":"event","name":"TransferBatch","inputs":[{"name":"operator","type":"address","indexed":true,"internalType":"address"},{"name":"from","type":"address","indexed":true,"internalType":"address"},{"name":"to","type":"address","indexed":true,"internalType":"address"},{"name":"ids","type":"uint256[]","indexed":false,"internalType":"uint256[]"},{"name":"values","type":"uint256[]","indexed":false,"internalType":"uint256[]"}],"anonymous":false},{"type":"event","name":"TransferSingle","inputs":[{"name":"operator","type":"address","indexed":true,"internalType":"address"},{"name":"from","type":"address","indexed":true,"internalType":"address"},{"name":"to","type":"address","indexed":true,"internalType":"address"},{"name":"id","type":"uint256","indexed":false,"internalType":"uint256"},{"name":"value","type":"uint256","indexed":false,"internalType":"uint256"}],"anonymous":false},{"type":"event","name":"URI","inputs":[{"name":"value","type":"string","indexed":false,"internalType":"string"},{"name":"id","type":"uint256","indexed":true,"internalType":"uint256"}],"anonymous":false},{"type":"error","name":"AlreadyInitialized","inputs":[]},{"type":"error","name":"AlreadyRegisteredAsAffiliate","inputs":[]},{"type":"error","name":"ClaimEndMustBeBeforeRedeemExpiration","inputs":[]},{"type":"error","name":"ClaimExpired","inputs":[]},{"type":"error","name":"ClaimNotStarted","inputs":[]},{"type":"error","name":"ClaimStartMustBeBeforeClaimEnd","inputs":[]},{"type":"error","name":"CurrencyTransferLibFailedNativeTransfer","inputs":[{"name":"recipient","type":"address","internalType":"address"},{"name":"value","type":"uint256","internalType":"uint256"}]},{"type":"error","name":"ERC1155InsufficientBalance","inputs":[{"name":"sender","type":"address","internalType":"address"},{"name":"balance","type":"uint256","internalType":"uint256"},{"name":"needed","type":"uint256","internalType":"uint256"},{"name":"tokenId","type":"uint256","internalType":"uint256"}]},{"type":"error","name":"ERC1155InvalidApprover","inputs":[{"name":"approver","type":"address","internalType":"address"}]},{"type":"error","name":"ERC1155InvalidArrayLength","inputs":[{"name":"idsLength","type":"uint256","internalType":"uint256"},{"name":"valuesLength","type":"uint256","internalType":"uint256"}]},{"type":"error","name":"ERC1155InvalidOperator","inputs":[{"name":"operator","type":"address","internalType":"address"}]},{"type":"error","name":"ERC1155InvalidReceiver","inputs":[{"name":"receiver","type":"address","internalType":"address"}]},{"type":"error","name":"ERC1155InvalidSender","inputs":[{"name":"sender","type":"address","internalType":"address"}]},{"type":"error","name":"ERC1155MissingApprovalForAll","inputs":[{"name":"operator","type":"address","internalType":"address"},{"name":"owner","type":"address","internalType":"address"}]},{"type":"error","name":"ExceedsMaxSupply","inputs":[]},{"type":"error","name":"ExcessiveBudget","inputs":[]},{"type":"error","name":"FeeMustBeGreaterThanZero","inputs":[]},{"type":"error","name":"InsufficientBudget","inputs":[]},{"type":"error","name":"InvalidAffiliateAddress","inputs":[]},{"type":"error","name":"InvalidAffiliateID","inputs":[]},{"type":"error","name":"InvalidCurrencyAmount","inputs":[]},{"type":"error","name":"InvalidInitialization","inputs":[]},{"type":"error","name":"InvalidWithdrawalAmount","inputs":[]},{"type":"error","name":"MaxSupplyMustBeGreaterThanZero","inputs":[]},{"type":"error","name":"MustSendTotalFee","inputs":[]},{"type":"error","name":"NoAffiliateAssociated","inputs":[]},{"type":"error","name":"NotInitializing","inputs":[]},{"type":"error","name":"OwnableInvalidOwner","inputs":[{"name":"owner","type":"address","internalType":"address"}]},{"type":"error","name":"OwnableUnauthorizedAccount","inputs":[{"name":"account","type":"address","internalType":"address"}]},{"type":"error","name":"OwnerDoesNotOwnToken","inputs":[]},{"type":"error","name":"QuantityMustBeGreaterThanZero","inputs":[]},{"type":"error","name":"RedeemExpired","inputs":[]},{"type":"error","name":"TokenAlreadyClaimed","inputs":[]},{"type":"error","name":"TokenQuantityAlreadyRedeemed","inputs":[]}],"bytecode":{"object":"0x608060405234801561000f575f5ffd5b5061001e61002360201b60201c565b610183565b5f61003261012160201b60201c565b9050805f0160089054906101000a900460ff161561007c576040517ff92ee8a900000000000000000000000000000000000000000000000000000000815260040160405180910390fd5b67ffffffffffffffff8016815f015f9054906101000a900467ffffffffffffffff1667ffffffffffffffff161461011e5767ffffffffffffffff815f015f6101000a81548167ffffffffffffffff021916908367ffffffffffffffff1602179055507fc7f505b2f371ae2175ee4913f4499e1f2633a7b5936321eed1cdaeb6115181d267ffffffffffffffff604051610115919061016a565b60405180910390a15b50565b5f7ff0c57e16840df040f15088dc2f81fe391c3923bec73e23a9662efc9c229c6a00905090565b5f67ffffffffffffffff82169050919050565b61016481610148565b82525050565b5f60208201905061017d5f83018461015b565b92915050565b614de3806101905f395ff3fe608060405260043610610225575f3560e01c8063715018a611610122578063becf0426116100aa578063e985e9c51161006e578063e985e9c5146107de578063f04d688f1461081a578063f242432a14610844578063f2fde38b1461086c578063ffa3816a146108945761022c565b8063becf04261461071c578063bf396c2314610732578063c4a0e40c1461076e578063d5abeb011461078a578063ddca3f43146107b45761022c565b80638da5cb5b116100f15780638da5cb5b1461065c57806395e74bc714610686578063a22cb465146106a2578063a80d520c146106ca578063b328a4d3146106f25761022c565b8063715018a6146105b85780637456a7a2146105ce57806374d8f48e1461060a57806374f5a9f9146106325761022c565b806318160ddd116101b05780633ccfa92f116101745780633ccfa92f146104b05780634e1273f4146104da5780635ca2a20414610516578063702510d7146105405780637057b9411461057c5761022c565b806318160ddd146103e25780631b3dad641461040c5780631c1cb323146104365780632cc81a61146104605780632eb2c2d6146104885761022c565b806302fe5305116101f757806302fe5305146103005780630e89341c1461032857806312e514901461036457806315eb29541461038e57806317d70f7c146103b85761022c565b806207476c146102305780625088d01461026c578062fdd58e1461028857806301ffc9a7146102c45761022c565b3661022c57005b5f5ffd5b34801561023b575f5ffd5b5061025660048036038101906102519190613916565b6108bc565b6040516102639190613963565b60405180910390f35b6102866004803603810190610281919061397c565b6108dc565b005b348015610293575f5ffd5b506102ae60048036038101906102a991906139a7565b610b83565b6040516102bb9190613963565b60405180910390f35b3480156102cf575f5ffd5b506102ea60048036038101906102e59190613a3a565b610be6565b6040516102f79190613a7f565b60405180910390f35b34801561030b575f5ffd5b5061032660048036038101906103219190613bd4565b610cc7565b005b348015610333575f5ffd5b5061034e6004803603810190610349919061397c565b610ce2565b60405161035b9190613c7b565b60405180910390f35b34801561036f575f5ffd5b50610378610d74565b6040516103859190613963565b60405180910390f35b348015610399575f5ffd5b506103a2610d7a565b6040516103af9190613963565b60405180910390f35b3480156103c3575f5ffd5b506103cc610d80565b6040516103d99190613963565b60405180910390f35b3480156103ed575f5ffd5b506103f6610d85565b6040516104039190613963565b60405180910390f35b348015610417575f5ffd5b50610420610d8b565b60405161042d9190613963565b60405180910390f35b348015610441575f5ffd5b5061044a610d91565b6040516104579190613caa565b60405180910390f35b34801561046b575f5ffd5b506104866004803603810190610481919061397c565b610db6565b005b348015610493575f5ffd5b506104ae60048036038101906104a99190613e25565b6111b8565b005b3480156104bb575f5ffd5b506104c461125f565b6040516104d19190613963565b60405180910390f35b3480156104e5575f5ffd5b5061050060048036038101906104fb9190613fb0565b611265565b60405161050d91906140dd565b60405180910390f35b348015610521575f5ffd5b5061052a61136f565b6040516105379190613963565b60405180910390f35b34801561054b575f5ffd5b50610566600480360381019061056191906140fd565b61138a565b6040516105739190613963565b60405180910390f35b348015610587575f5ffd5b506105a2600480360381019061059d919061397c565b61139f565b6040516105af9190613963565b60405180910390f35b3480156105c3575f5ffd5b506105cc6113b4565b005b3480156105d9575f5ffd5b506105f460048036038101906105ef919061397c565b6113c7565b6040516106019190613caa565b60405180910390f35b348015610615575f5ffd5b50610630600480360381019061062b91906140fd565b6113f7565b005b34801561063d575f5ffd5b506106466118b4565b6040516106539190613963565b60405180910390f35b348015610667575f5ffd5b506106706118ba565b60405161067d9190613caa565b60405180910390f35b6106a0600480360381019061069b9190614128565b6118ef565b005b3480156106ad575f5ffd5b506106c860048036038101906106c39190614247565b611d27565b005b3480156106d5575f5ffd5b506106f060048036038101906106eb91906140fd565b611d3d565b005b3480156106fd575f5ffd5b50610706611dfc565b6040516107139190613963565b60405180910390f35b348015610727575f5ffd5b50610730611e2f565b005b34801561073d575f5ffd5b5061075860048036038101906107539190613916565b611fe5565b6040516107659190613963565b60405180910390f35b6107886004803603810190610783919061397c565b612005565b005b348015610795575f5ffd5b5061079e61217e565b6040516107ab9190613963565b60405180910390f35b3480156107bf575f5ffd5b506107c8612184565b6040516107d59190613963565b60405180910390f35b3480156107e9575f5ffd5b5061080460048036038101906107ff9190614285565b61218a565b6040516108119190613a7f565b60405180910390f35b348015610825575f5ffd5b5061082e612226565b60405161083b9190613963565b60405180910390f35b34801561084f575f5ffd5b5061086a600480360381019061086591906142c3565b61222c565b005b348015610877575f5ffd5b50610892600480360381019061088d91906140fd565b6122d3565b005b34801561089f575f5ffd5b506108ba60048036038101906108b5919061397c565b612357565b005b6009602052815f5260405f20602052805f5260405f205f91509150505481565b600254600180546108ed9190614383565b1115610925576040517fc30436e900000000000000000000000000000000000000000000000000000000815260040160405180910390fd5b61092e33611d3d565b5f5f90505f8214610ae05760065f8381526020019081526020015f205f9054906101000a900473ffffffffffffffffffffffffffffffffffffffff1690505f73ffffffffffffffffffffffffffffffffffffffff168173ffffffffffffffffffffffffffffffffffffffff16036109d1576040517faa68955800000000000000000000000000000000000000000000000000000000815260040160405180910390fd5b3373ffffffffffffffffffffffffffffffffffffffff168173ffffffffffffffffffffffffffffffffffffffff1603610a36576040517faa68955800000000000000000000000000000000000000000000000000000000815260040160405180910390fd5b600354600e541015610a74576040517f4dd23c8b00000000000000000000000000000000000000000000000000000000815260040160405180910390fd5b8160085f5f5481526020019081526020015f205f3373ffffffffffffffffffffffffffffffffffffffff1673ffffffffffffffffffffffffffffffffffffffff1681526020019081526020015f2081905550600160105f828254610ad89190614383565b925050819055505b610afc335f54600160405180602001604052805f815250612369565b6001805f828254610b0d9190614383565b925050819055505f543373ffffffffffffffffffffffffffffffffffffffff163373ffffffffffffffffffffffffffffffffffffffff167f06c31125827aeb7d464454224f2be8b90d1f1d75324c9abd0dd13333f7dc5d2d843042604051610b77939291906143b6565b60405180910390a45050565b5f5f610b8d6123fe565b9050805f015f8481526020019081526020015f205f8573ffffffffffffffffffffffffffffffffffffffff1673ffffffffffffffffffffffffffffffffffffffff1681526020019081526020015f205491505092915050565b5f7fd9b67a26000000000000000000000000000000000000000000000000000000007bffffffffffffffffffffffffffffffffffffffffffffffffffffffff1916827bffffffffffffffffffffffffffffffffffffffffffffffffffffffff19161480610cb057507f0e89341c000000000000000000000000000000000000000000000000000000007bffffffffffffffffffffffffffffffffffffffffffffffffffffffff1916827bffffffffffffffffffffffffffffffffffffffffffffffffffffffff1916145b80610cc05750610cbf82612425565b5b9050919050565b610ccf61248e565b8060049081610cde91906145e8565b5050565b606060048054610cf190614418565b80601f0160208091040260200160405190810160405280929190818152602001828054610d1d90614418565b8015610d685780601f10610d3f57610100808354040283529160200191610d68565b820191905f5260205f20905b815481529060010190602001808311610d4b57829003601f168201915b50505050509050919050565b60055481565b600e5481565b5f5481565b60015481565b600d5481565b600f5f9054906101000a900473ffffffffffffffffffffffffffffffffffffffff1681565b610dbe61248e565b600e54811115610dfa576040517f9abc749100000000000000000000000000000000000000000000000000000000815260040160405180910390fd5b600d54421115610fb55780600e5f828254610e1591906146b7565b9250508190555073eeeeeeeeeeeeeeeeeeeeeeeeeeeeeeeeeeeeeeee73ffffffffffffffffffffffffffffffffffffffff16600f5f9054906101000a900473ffffffffffffffffffffffffffffffffffffffff1673ffffffffffffffffffffffffffffffffffffffff1603610f32575f3373ffffffffffffffffffffffffffffffffffffffff1682604051610ea990614717565b5f6040518083038185875af1925050503d805f8114610ee3576040519150601f19603f3d011682016040523d82523d5f602084013e610ee8565b606091505b5050905080610f2c576040517f08c379a0000000000000000000000000000000000000000000000000000000008152600401610f2390614775565b60405180910390fd5b50610f60565b610f5f600f5f9054906101000a900473ffffffffffffffffffffffffffffffffffffffff16303384612515565b5b3373ffffffffffffffffffffffffffffffffffffffff167fcccac05118081db07a70bb781aabe8f0db7182a0b52d7374fa4821e9ed33cc858230604051610fa8929190614793565b60405180910390a26111b5565b5f610fbe61136f565b90508082600e54610fcf91906146b7565b1015611007576040517f4dd23c8b00000000000000000000000000000000000000000000000000000000815260040160405180910390fd5b81600e5f82825461101891906146b7565b9250508190555073eeeeeeeeeeeeeeeeeeeeeeeeeeeeeeeeeeeeeeee73ffffffffffffffffffffffffffffffffffffffff16600f5f9054906101000a900473ffffffffffffffffffffffffffffffffffffffff1673ffffffffffffffffffffffffffffffffffffffff1603611135575f3373ffffffffffffffffffffffffffffffffffffffff16836040516110ac90614717565b5f6040518083038185875af1925050503d805f81146110e6576040519150601f19603f3d011682016040523d82523d5f602084013e6110eb565b606091505b505090508061112f576040517f08c379a000000000000000000000000000000000000000000000000000000000815260040161112690614775565b60405180910390fd5b50611163565b611162600f5f9054906101000a900473ffffffffffffffffffffffffffffffffffffffff16303385612515565b5b3373ffffffffffffffffffffffffffffffffffffffff167fcccac05118081db07a70bb781aabe8f0db7182a0b52d7374fa4821e9ed33cc8583306040516111ab929190614793565b60405180910390a2505b50565b5f6111c1612587565b90508073ffffffffffffffffffffffffffffffffffffffff168673ffffffffffffffffffffffffffffffffffffffff16141580156112065750611204868261218a565b155b1561124a5780866040517fe237d9220000000000000000000000000000000000000000000000000000000081526004016112419291906147ba565b60405180910390fd5b611257868686868661258e565b505050505050565b600c5481565b606081518351146112b157815183516040517f5b0599910000000000000000000000000000000000000000000000000000000081526004016112a89291906147e1565b60405180910390fd5b5f835167ffffffffffffffff8111156112cd576112cc613ab0565b5b6040519080825280602002602001820160405280156112fb5781602001602082028036833780820191505090505b5090505f5f90505b84518110156113645761133a611322828761268290919063ffffffff16565b611335838761269590919063ffffffff16565b610b83565b82828151811061134d5761134c614808565b5b602002602001018181525050806001019050611303565b508091505092915050565b5f5f6003546010546113819190614835565b90508091505090565b6007602052805f5260405f205f915090505481565b600a602052805f5260405f205f915090505481565b6113bc61248e565b6113c55f6126a8565b565b6006602052805f5260405f205f915054906101000a900473ffffffffffffffffffffffffffffffffffffffff1681565b6113ff61248e565b5f61140b825f54610b83565b11611442576040517f2207388300000000000000000000000000000000000000000000000000000000815260040160405180910390fd5b600d5442111561147e576040517f528acf4f00000000000000000000000000000000000000000000000000000000815260040160405180910390fd5b5f60095f5f5481526020019081526020015f205f8373ffffffffffffffffffffffffffffffffffffffff1673ffffffffffffffffffffffffffffffffffffffff1681526020019081526020015f205490505f811115611509576040517f7b38ef1f00000000000000000000000000000000000000000000000000000000815260040160405180910390fd5b5f60085f5f5481526020019081526020015f205f8473ffffffffffffffffffffffffffffffffffffffff1673ffffffffffffffffffffffffffffffffffffffff1681526020019081526020015f205490505f5f90505f82146117b75760065f8381526020019081526020015f205f9054906101000a900473ffffffffffffffffffffffffffffffffffffffff1690505f73ffffffffffffffffffffffffffffffffffffffff168173ffffffffffffffffffffffffffffffffffffffff16036115fd576040517f2241f9f800000000000000000000000000000000000000000000000000000000815260040160405180910390fd5b600354600e54101561163b576040517f4dd23c8b00000000000000000000000000000000000000000000000000000000815260040160405180910390fd5b600160105f82825461164d91906146b7565b92505081905550600354600e5f82825461166791906146b7565b9250508190555073eeeeeeeeeeeeeeeeeeeeeeeeeeeeeeeeeeeeeeee73ffffffffffffffffffffffffffffffffffffffff16600f5f9054906101000a900473ffffffffffffffffffffffffffffffffffffffff1673ffffffffffffffffffffffffffffffffffffffff1603611786575f8173ffffffffffffffffffffffffffffffffffffffff166003546040516116fd90614717565b5f6040518083038185875af1925050503d805f8114611737576040519150601f19603f3d011682016040523d82523d5f602084013e61173c565b606091505b5050905080611780576040517f08c379a000000000000000000000000000000000000000000000000000000000815260040161177790614775565b60405180910390fd5b506117b6565b6117b5600f5f9054906101000a900473ffffffffffffffffffffffffffffffffffffffff163083600354612515565b5b5b600160095f5f5481526020019081526020015f205f8673ffffffffffffffffffffffffffffffffffffffff1673ffffffffffffffffffffffffffffffffffffffff1681526020019081526020015f20819055506001600a5f5f5481526020019081526020015f205f82825461182c9190614383565b925050819055505f548473ffffffffffffffffffffffffffffffffffffffff167f9740ccd7632c212cf0c62b84fe8a88c610b74aa9c4ca8a98ba3038fbefceb0b1836003543042600f5f9054906101000a900473ffffffffffffffffffffffffffffffffffffffff166040516118a6959493929190614876565b60405180910390a350505050565b60105481565b5f5f6118c4612779565b9050805f015f9054906101000a900473ffffffffffffffffffffffffffffffffffffffff1691505090565b5f6118f86127a0565b90505f815f0160089054906101000a900460ff161590505f825f015f9054906101000a900467ffffffffffffffff1690505f5f8267ffffffffffffffff161480156119405750825b90505f60018367ffffffffffffffff1614801561197357505f3073ffffffffffffffffffffffffffffffffffffffff163b145b905081158015611981575080155b156119b8576040517ff92ee8a900000000000000000000000000000000000000000000000000000000815260040160405180910390fd5b6001855f015f6101000a81548167ffffffffffffffff021916908367ffffffffffffffff1602179055508315611a05576001855f0160086101000a81548160ff0219169083151502179055505b611a0e8f6127c7565b611a17866127db565b5f8e11611a50576040517fad03f1cd00000000000000000000000000000000000000000000000000000000815260040160405180910390fd5b8b8d10611a89576040517f97c0867300000000000000000000000000000000000000000000000000000000815260040160405180910390fd5b8a8c10611ac2576040517fd1ec2a3a00000000000000000000000000000000000000000000000000000000815260040160405180910390fd5b5f87118015611adb57508d87611ad89190614835565b8a105b15611b12576040517f4dd23c8b00000000000000000000000000000000000000000000000000000000815260040160405180910390fd5b5f8a1115611beb5773eeeeeeeeeeeeeeeeeeeeeeeeeeeeeeeeeeeeeeee73ffffffffffffffffffffffffffffffffffffffff168973ffffffffffffffffffffffffffffffffffffffff1603611b9f57893414611b9a576040517f68b1946500000000000000000000000000000000000000000000000000000000815260040160405180910390fd5b611be6565b5f341115611bd9576040517f68b1946500000000000000000000000000000000000000000000000000000000815260040160405180910390fd5b611be58933308d612515565b5b611c26565b5f341115611c25576040517f68b1946500000000000000000000000000000000000000000000000000000000815260040160405180910390fd5b5b866003819055508e60049081611c3c91906145e8565b508d6002819055508c600b819055508b600c819055508a600d8190555089600e8190555088600f5f6101000a81548173ffffffffffffffffffffffffffffffffffffffff021916908373ffffffffffffffffffffffffffffffffffffffff160217905550875f8190555060016005819055505f6001819055505f6010819055508315611d16575f855f0160086101000a81548160ff0219169083151502179055507fc7f505b2f371ae2175ee4913f4499e1f2633a7b5936321eed1cdaeb6115181d26001604051611d0d9190614913565b60405180910390a15b505050505050505050505050505050565b611d39611d32612587565b83836127ef565b5050565b5f611d49825f54610b83565b1115611d81576040517f7ad4e5de00000000000000000000000000000000000000000000000000000000815260040160405180910390fd5b600b54421015611dbd576040517fb0e9ce1e00000000000000000000000000000000000000000000000000000000815260040160405180910390fd5b600c54421115611df9576040517f82a49d9e00000000000000000000000000000000000000000000000000000000815260040160405180910390fd5b50565b5f5f611e0661136f565b9050600e548110611e1a575f915050611e2c565b80600e54611e2891906146b7565b9150505b90565b5f60075f3373ffffffffffffffffffffffffffffffffffffffff1673ffffffffffffffffffffffffffffffffffffffff1681526020019081526020015f205414611ea5576040517f08697c2000000000000000000000000000000000000000000000000000000000815260040160405180910390fd5b600354600e541015611ee3576040517f4dd23c8b00000000000000000000000000000000000000000000000000000000815260040160405180910390fd5b5f60055f815480929190611ef69061492c565b9190505590503360065f8381526020019081526020015f205f6101000a81548173ffffffffffffffffffffffffffffffffffffffff021916908373ffffffffffffffffffffffffffffffffffffffff1602179055508060075f3373ffffffffffffffffffffffffffffffffffffffff1673ffffffffffffffffffffffffffffffffffffffff1681526020019081526020015f20819055503373ffffffffffffffffffffffffffffffffffffffff167f54c252ed81f3bebb54e2e2f1f9b9d8d805cab1d787b6f4f7c93d0d6e721b7e898230425f54604051611fda9493929190614973565b60405180910390a250565b6008602052815f5260405f20602052805f5260405f205f91509150505481565b73eeeeeeeeeeeeeeeeeeeeeeeeeeeeeeeeeeeeeeee73ffffffffffffffffffffffffffffffffffffffff16600f5f9054906101000a900473ffffffffffffffffffffffffffffffffffffffff1673ffffffffffffffffffffffffffffffffffffffff16036120ab578034146120a6576040517f68b1946500000000000000000000000000000000000000000000000000000000815260040160405180910390fd5b612113565b5f3411156120e5576040517f68b1946500000000000000000000000000000000000000000000000000000000815260040160405180910390fd5b612112600f5f9054906101000a900473ffffffffffffffffffffffffffffffffffffffff16333084612515565b5b80600e5f8282546121249190614383565b925050819055503373ffffffffffffffffffffffffffffffffffffffff167f599419cc9c3fed0d4c06df68b361976b3559f232e25700cc78c51471251a73a58230604051612173929190614793565b60405180910390a250565b60025481565b60035481565b5f5f6121946123fe565b9050806001015f8573ffffffffffffffffffffffffffffffffffffffff1673ffffffffffffffffffffffffffffffffffffffff1681526020019081526020015f205f8473ffffffffffffffffffffffffffffffffffffffff1673ffffffffffffffffffffffffffffffffffffffff1681526020019081526020015f205f9054906101000a900460ff1691505092915050565b600b5481565b5f612235612587565b90508073ffffffffffffffffffffffffffffffffffffffff168673ffffffffffffffffffffffffffffffffffffffff161415801561227a5750612278868261218a565b155b156122be5780866040517fe237d9220000000000000000000000000000000000000000000000000000000081526004016122b59291906147ba565b60405180910390fd5b6122cb8686868686612966565b505050505050565b6122db61248e565b5f73ffffffffffffffffffffffffffffffffffffffff168173ffffffffffffffffffffffffffffffffffffffff160361234b575f6040517f1e4fbdf70000000000000000000000000000000000000000000000000000000081526004016123429190613caa565b60405180910390fd5b612354816126a8565b50565b61235f61248e565b80600e8190555050565b5f73ffffffffffffffffffffffffffffffffffffffff168473ffffffffffffffffffffffffffffffffffffffff16036123d9575f6040517f57f447ce0000000000000000000000000000000000000000000000000000000081526004016123d09190613caa565b60405180910390fd5b5f5f6123e58585612a6c565b915091506123f65f87848487612a9c565b505050505050565b5f7f88be536d5240c274a3b1d3a1be54482fd9caa294f08c62a7cde569f49a3c4500905090565b5f7f01ffc9a7000000000000000000000000000000000000000000000000000000007bffffffffffffffffffffffffffffffffffffffffffffffffffffffff1916827bffffffffffffffffffffffffffffffffffffffffffffffffffffffff1916149050919050565b612496612587565b73ffffffffffffffffffffffffffffffffffffffff166124b46118ba565b73ffffffffffffffffffffffffffffffffffffffff1614612513576124d7612587565b6040517f118cdaa700000000000000000000000000000000000000000000000000000000815260040161250a9190613caa565b60405180910390fd5b565b5f8103156125815773eeeeeeeeeeeeeeeeeeeeeeeeeeeeeeeeeeeeeeee73ffffffffffffffffffffffffffffffffffffffff168473ffffffffffffffffffffffffffffffffffffffff16036125735761256e8282612b48565b612580565b61257f84848484612bf9565b5b5b50505050565b5f33905090565b5f73ffffffffffffffffffffffffffffffffffffffff168473ffffffffffffffffffffffffffffffffffffffff16036125fe575f6040517f57f447ce0000000000000000000000000000000000000000000000000000000081526004016125f59190613caa565b60405180910390fd5b5f73ffffffffffffffffffffffffffffffffffffffff168573ffffffffffffffffffffffffffffffffffffffff160361266e575f6040517f01a835140000000000000000000000000000000000000000000000000000000081526004016126659190613caa565b60405180910390fd5b61267b8585858585612a9c565b5050505050565b5f60208202602084010151905092915050565b5f60208202602084010151905092915050565b5f6126b1612779565b90505f815f015f9054906101000a900473ffffffffffffffffffffffffffffffffffffffff16905082825f015f6101000a81548173ffffffffffffffffffffffffffffffffffffffff021916908373ffffffffffffffffffffffffffffffffffffffff1602179055508273ffffffffffffffffffffffffffffffffffffffff168173ffffffffffffffffffffffffffffffffffffffff167f8be0079c531659141344cd1fd0a4f28419497f9722a3daafe3b4186f6b6457e060405160405180910390a3505050565b5f7f9016d09d72d40fdae2fd8ceac6b6234c7706214fd39c1cd1e609a0528c199300905090565b5f7ff0c57e16840df040f15088dc2f81fe391c3923bec73e23a9662efc9c229c6a00905090565b6127cf612cc5565b6127d881612d05565b50565b6127e3612cc5565b6127ec81612d19565b50565b5f6127f86123fe565b90505f73ffffffffffffffffffffffffffffffffffffffff168373ffffffffffffffffffffffffffffffffffffffff160361286a575f6040517fced3e1000000000000000000000000000000000000000000000000000000000081526004016128619190613caa565b60405180910390fd5b81816001015f8673ffffffffffffffffffffffffffffffffffffffff1673ffffffffffffffffffffffffffffffffffffffff1681526020019081526020015f205f8573ffffffffffffffffffffffffffffffffffffffff1673ffffffffffffffffffffffffffffffffffffffff1681526020019081526020015f205f6101000a81548160ff0219169083151502179055508273ffffffffffffffffffffffffffffffffffffffff168473ffffffffffffffffffffffffffffffffffffffff167f17307eab39ab6107e8899845ad3d59bd9653f200f220920489ca2b5937696c31846040516129589190613a7f565b60405180910390a350505050565b5f73ffffffffffffffffffffffffffffffffffffffff168473ffffffffffffffffffffffffffffffffffffffff16036129d6575f6040517f57f447ce0000000000000000000000000000000000000000000000000000000081526004016129cd9190613caa565b60405180910390fd5b5f73ffffffffffffffffffffffffffffffffffffffff168573ffffffffffffffffffffffffffffffffffffffff1603612a46575f6040517f01a83514000000000000000000000000000000000000000000000000000000008152600401612a3d9190613caa565b60405180910390fd5b5f5f612a528585612a6c565b91509150612a638787848487612a9c565b50505050505050565b60608060405191506001825283602083015260408201905060018152826020820152604081016040529250929050565b612aa885858585612d9d565b5f73ffffffffffffffffffffffffffffffffffffffff168473ffffffffffffffffffffffffffffffffffffffff1614612b41575f612ae4612587565b90506001845103612b30575f612b035f8661269590919063ffffffff16565b90505f612b195f8661269590919063ffffffff16565b9050612b29838989858589613142565b5050612b3f565b612b3e8187878787876132f1565b5b505b5050505050565b5f8273ffffffffffffffffffffffffffffffffffffffff1682604051612b6d90614717565b5f6040518083038185875af1925050503d805f8114612ba7576040519150601f19603f3d011682016040523d82523d5f602084013e612bac565b606091505b5050905080612bf45782826040517fbfb89d82000000000000000000000000000000000000000000000000000000008152600401612beb9291906149b6565b60405180910390fd5b505050565b8173ffffffffffffffffffffffffffffffffffffffff168373ffffffffffffffffffffffffffffffffffffffff160315612cbf573073ffffffffffffffffffffffffffffffffffffffff168373ffffffffffffffffffffffffffffffffffffffff1603612c9057612c8b82828673ffffffffffffffffffffffffffffffffffffffff166134a09092919063ffffffff16565b612cbe565b612cbd8383838773ffffffffffffffffffffffffffffffffffffffff16613526909392919063ffffffff16565b5b5b50505050565b612ccd6135af565b612d03576040517fd7e6bcf800000000000000000000000000000000000000000000000000000000815260040160405180910390fd5b565b612d0d612cc5565b612d16816135cd565b50565b612d21612cc5565b5f73ffffffffffffffffffffffffffffffffffffffff168173ffffffffffffffffffffffffffffffffffffffff1603612d91575f6040517f1e4fbdf7000000000000000000000000000000000000000000000000000000008152600401612d889190613caa565b60405180910390fd5b612d9a816126a8565b50565b5f612da66123fe565b90508151835114612df257825182516040517f5b059991000000000000000000000000000000000000000000000000000000008152600401612de99291906147e1565b60405180910390fd5b5f612dfb612587565b90505f5f90505b8451811015613000575f612e1f828761269590919063ffffffff16565b90505f612e35838761269590919063ffffffff16565b90505f73ffffffffffffffffffffffffffffffffffffffff168973ffffffffffffffffffffffffffffffffffffffff1614612f5c575f855f015f8481526020019081526020015f205f8b73ffffffffffffffffffffffffffffffffffffffff1673ffffffffffffffffffffffffffffffffffffffff1681526020019081526020015f2054905081811015612f0657898183856040517f03dee4c5000000000000000000000000000000000000000000000000000000008152600401612efd94939291906149dd565b60405180910390fd5b818103865f015f8581526020019081526020015f205f8c73ffffffffffffffffffffffffffffffffffffffff1673ffffffffffffffffffffffffffffffffffffffff1681526020019081526020015f2081905550505b5f73ffffffffffffffffffffffffffffffffffffffff168873ffffffffffffffffffffffffffffffffffffffff1614612ff35780855f015f8481526020019081526020015f205f8a73ffffffffffffffffffffffffffffffffffffffff1673ffffffffffffffffffffffffffffffffffffffff1681526020019081526020015f205f828254612feb9190614383565b925050819055505b5050806001019050612e02565b5060018451036130bb575f61301e5f8661269590919063ffffffff16565b90505f6130345f8661269590919063ffffffff16565b90508673ffffffffffffffffffffffffffffffffffffffff168873ffffffffffffffffffffffffffffffffffffffff168473ffffffffffffffffffffffffffffffffffffffff167fc3d58168c5ae7397731d063d5bbf3d657854427343f4c083240f7aacaa2d0f6285856040516130ac9291906147e1565b60405180910390a4505061313a565b8473ffffffffffffffffffffffffffffffffffffffff168673ffffffffffffffffffffffffffffffffffffffff168273ffffffffffffffffffffffffffffffffffffffff167f4a39dc06d4c0dbc64b70af90fd698a233a518aa5d07e595d983b8c0526c8f7fb8787604051613131929190614a20565b60405180910390a45b505050505050565b5f8473ffffffffffffffffffffffffffffffffffffffff163b11156132e9578373ffffffffffffffffffffffffffffffffffffffff1663f23a6e6187878686866040518663ffffffff1660e01b81526004016131a2959493929190614aa7565b6020604051808303815f875af19250505080156131dd57506040513d601f19601f820116820180604052508101906131da9190614b13565b60015b61325e573d805f811461320b576040519150601f19603f3d011682016040523d82523d5f602084013e613210565b606091505b505f81510361325657846040517f57f447ce00000000000000000000000000000000000000000000000000000000815260040161324d9190613caa565b60405180910390fd5b805181602001fd5b63f23a6e6160e01b7bffffffffffffffffffffffffffffffffffffffffffffffffffffffff1916817bffffffffffffffffffffffffffffffffffffffffffffffffffffffff1916146132e757846040517f57f447ce0000000000000000000000000000000000000000000000000000000081526004016132de9190613caa565b60405180910390fd5b505b505050505050565b5f8473ffffffffffffffffffffffffffffffffffffffff163b1115613498578373ffffffffffffffffffffffffffffffffffffffff1663bc197c8187878686866040518663ffffffff1660e01b8152600401613351959493929190614b3e565b6020604051808303815f875af192505050801561338c57506040513d601f19601f820116820180604052508101906133899190614b13565b60015b61340d573d805f81146133ba576040519150601f19603f3d011682016040523d82523d5f602084013e6133bf565b606091505b505f81510361340557846040517f57f447ce0000000000000000000000000000000000000000000000000000000081526004016133fc9190613caa565b60405180910390fd5b805181602001fd5b63bc197c8160e01b7bffffffffffffffffffffffffffffffffffffffffffffffffffffffff1916817bffffffffffffffffffffffffffffffffffffffffffffffffffffffff19161461349657846040517f57f447ce00000000000000000000000000000000000000000000000000000000815260040161348d9190613caa565b60405180910390fd5b505b505050505050565b6135218363a9059cbb60e01b84846040516024016134bf9291906149b6565b604051602081830303815290604052907bffffffffffffffffffffffffffffffffffffffffffffffffffffffff19166020820180517bffffffffffffffffffffffffffffffffffffffffffffffffffffffff83818316178352505050506135ee565b505050565b6135a9846323b872dd60e01b858585604051602401613547939291906143b6565b604051602081830303815290604052907bffffffffffffffffffffffffffffffffffffffffffffffffffffffff19166020820180517bffffffffffffffffffffffffffffffffffffffffffffffffffffffff83818316178352505050506135ee565b50505050565b5f6135b86127a0565b5f0160089054906101000a900460ff16905090565b5f6135d66123fe565b9050818160020190816135e991906145e8565b505050565b5f61364f826040518060400160405280602081526020017f5361666545524332303a206c6f772d6c6576656c2063616c6c206661696c65648152508573ffffffffffffffffffffffffffffffffffffffff166136b39092919063ffffffff16565b90505f815111156136ae578080602001905181019061366e9190614bb8565b6136ad576040517f08c379a00000000000000000000000000000000000000000000000000000000081526004016136a490614c53565b60405180910390fd5b5b505050565b60606136c184845f856136ca565b90509392505050565b60608247101561370f576040517f08c379a000000000000000000000000000000000000000000000000000000000815260040161370690614ce1565b60405180910390fd5b5f5f8673ffffffffffffffffffffffffffffffffffffffff1685876040516137379190614d2f565b5f6040518083038185875af1925050503d805f8114613771576040519150601f19603f3d011682016040523d82523d5f602084013e613776565b606091505b509150915061378787838387613793565b92505050949350505050565b606083156137f4575f8351036137ec576137ac85613807565b6137eb576040517f08c379a00000000000000000000000000000000000000000000000000000000081526004016137e290614d8f565b60405180910390fd5b5b8290506137ff565b6137fe8383613829565b5b949350505050565b5f5f8273ffffffffffffffffffffffffffffffffffffffff163b119050919050565b5f8251111561383b5781518083602001fd5b806040517f08c379a000000000000000000000000000000000000000000000000000000000815260040161386f9190613c7b565b60405180910390fd5b5f604051905090565b5f5ffd5b5f5ffd5b5f819050919050565b61389b81613889565b81146138a5575f5ffd5b50565b5f813590506138b681613892565b92915050565b5f73ffffffffffffffffffffffffffffffffffffffff82169050919050565b5f6138e5826138bc565b9050919050565b6138f5816138db565b81146138ff575f5ffd5b50565b5f81359050613910816138ec565b92915050565b5f5f6040838503121561392c5761392b613881565b5b5f613939858286016138a8565b925050602061394a85828601613902565b9150509250929050565b61395d81613889565b82525050565b5f6020820190506139765f830184613954565b92915050565b5f6020828403121561399157613990613881565b5b5f61399e848285016138a8565b91505092915050565b5f5f604083850312156139bd576139bc613881565b5b5f6139ca85828601613902565b92505060206139db858286016138a8565b9150509250929050565b5f7fffffffff0000000000000000000000000000000000000000000000000000000082169050919050565b613a19816139e5565b8114613a23575f5ffd5b50565b5f81359050613a3481613a10565b92915050565b5f60208284031215613a4f57613a4e613881565b5b5f613a5c84828501613a26565b91505092915050565b5f8115159050919050565b613a7981613a65565b82525050565b5f602082019050613a925f830184613a70565b92915050565b5f5ffd5b5f5ffd5b5f601f19601f8301169050919050565b7f4e487b71000000000000000000000000000000000000000000000000000000005f52604160045260245ffd5b613ae682613aa0565b810181811067ffffffffffffffff82111715613b0557613b04613ab0565b5b80604052505050565b5f613b17613878565b9050613b238282613add565b919050565b5f67ffffffffffffffff821115613b4257613b41613ab0565b5b613b4b82613aa0565b9050602081019050919050565b828183375f83830152505050565b5f613b78613b7384613b28565b613b0e565b905082815260208101848484011115613b9457613b93613a9c565b5b613b9f848285613b58565b509392505050565b5f82601f830112613bbb57613bba613a98565b5b8135613bcb848260208601613b66565b91505092915050565b5f60208284031215613be957613be8613881565b5b5f82013567ffffffffffffffff811115613c0657613c05613885565b5b613c1284828501613ba7565b91505092915050565b5f81519050919050565b5f82825260208201905092915050565b8281835e5f83830152505050565b5f613c4d82613c1b565b613c578185613c25565b9350613c67818560208601613c35565b613c7081613aa0565b840191505092915050565b5f6020820190508181035f830152613c938184613c43565b905092915050565b613ca4816138db565b82525050565b5f602082019050613cbd5f830184613c9b565b92915050565b5f67ffffffffffffffff821115613cdd57613cdc613ab0565b5b602082029050602081019050919050565b5f5ffd5b5f613d04613cff84613cc3565b613b0e565b90508083825260208201905060208402830185811115613d2757613d26613cee565b5b835b81811015613d505780613d3c88826138a8565b845260208401935050602081019050613d29565b5050509392505050565b5f82601f830112613d6e57613d6d613a98565b5b8135613d7e848260208601613cf2565b91505092915050565b5f67ffffffffffffffff821115613da157613da0613ab0565b5b613daa82613aa0565b9050602081019050919050565b5f613dc9613dc484613d87565b613b0e565b905082815260208101848484011115613de557613de4613a9c565b5b613df0848285613b58565b509392505050565b5f82601f830112613e0c57613e0b613a98565b5b8135613e1c848260208601613db7565b91505092915050565b5f5f5f5f5f60a08688031215613e3e57613e3d613881565b5b5f613e4b88828901613902565b9550506020613e5c88828901613902565b945050604086013567ffffffffffffffff811115613e7d57613e7c613885565b5b613e8988828901613d5a565b935050606086013567ffffffffffffffff811115613eaa57613ea9613885565b5b613eb688828901613d5a565b925050608086013567ffffffffffffffff811115613ed757613ed6613885565b5b613ee388828901613df8565b9150509295509295909350565b5f67ffffffffffffffff821115613f0a57613f09613ab0565b5b602082029050602081019050919050565b5f613f2d613f2884613ef0565b613b0e565b90508083825260208201905060208402830185811115613f5057613f4f613cee565b5b835b81811015613f795780613f658882613902565b845260208401935050602081019050613f52565b5050509392505050565b5f82601f830112613f9757613f96613a98565b5b8135613fa7848260208601613f1b565b91505092915050565b5f5f60408385031215613fc657613fc5613881565b5b5f83013567ffffffffffffffff811115613fe357613fe2613885565b5b613fef85828601613f83565b925050602083013567ffffffffffffffff8111156140105761400f613885565b5b61401c85828601613d5a565b9150509250929050565b5f81519050919050565b5f82825260208201905092915050565b5f819050602082019050919050565b61405881613889565b82525050565b5f614069838361404f565b60208301905092915050565b5f602082019050919050565b5f61408b82614026565b6140958185614030565b93506140a083614040565b805f5b838110156140d05781516140b7888261405e565b97506140c283614075565b9250506001810190506140a3565b5085935050505092915050565b5f6020820190508181035f8301526140f58184614081565b905092915050565b5f6020828403121561411257614111613881565b5b5f61411f84828501613902565b91505092915050565b5f5f5f5f5f5f5f5f5f5f6101408b8d03121561414757614146613881565b5b5f8b013567ffffffffffffffff81111561416457614163613885565b5b6141708d828e01613ba7565b9a505060206141818d828e016138a8565b99505060406141928d828e016138a8565b98505060606141a38d828e016138a8565b97505060806141b48d828e016138a8565b96505060a06141c58d828e016138a8565b95505060c06141d68d828e01613902565b94505060e06141e78d828e016138a8565b9350506101006141f98d828e016138a8565b92505061012061420b8d828e01613902565b9150509295989b9194979a5092959850565b61422681613a65565b8114614230575f5ffd5b50565b5f813590506142418161421d565b92915050565b5f5f6040838503121561425d5761425c613881565b5b5f61426a85828601613902565b925050602061427b85828601614233565b9150509250929050565b5f5f6040838503121561429b5761429a613881565b5b5f6142a885828601613902565b92505060206142b985828601613902565b9150509250929050565b5f5f5f5f5f60a086880312156142dc576142db613881565b5b5f6142e988828901613902565b95505060206142fa88828901613902565b945050604061430b888289016138a8565b935050606061431c888289016138a8565b925050608086013567ffffffffffffffff81111561433d5761433c613885565b5b61434988828901613df8565b9150509295509295909350565b7f4e487b71000000000000000000000000000000000000000000000000000000005f52601160045260245ffd5b5f61438d82613889565b915061439883613889565b92508282019050808211156143b0576143af614356565b5b92915050565b5f6060820190506143c95f830186613c9b565b6143d66020830185613c9b565b6143e36040830184613954565b949350505050565b7f4e487b71000000000000000000000000000000000000000000000000000000005f52602260045260245ffd5b5f600282049050600182168061442f57607f821691505b602082108103614442576144416143eb565b5b50919050565b5f819050815f5260205f209050919050565b5f6020601f8301049050919050565b5f82821b905092915050565b5f600883026144a47fffffffffffffffffffffffffffffffffffffffffffffffffffffffffffffffff82614469565b6144ae8683614469565b95508019841693508086168417925050509392505050565b5f819050919050565b5f6144e96144e46144df84613889565b6144c6565b613889565b9050919050565b5f819050919050565b614502836144cf565b61451661450e826144f0565b848454614475565b825550505050565b5f5f905090565b61452d61451e565b6145388184846144f9565b505050565b5b8181101561455b576145505f82614525565b60018101905061453e565b5050565b601f8211156145a05761457181614448565b61457a8461445a565b81016020851015614589578190505b61459d6145958561445a565b83018261453d565b50505b505050565b5f82821c905092915050565b5f6145c05f19846008026145a5565b1980831691505092915050565b5f6145d883836145b1565b9150826002028217905092915050565b6145f182613c1b565b67ffffffffffffffff81111561460a57614609613ab0565b5b6146148254614418565b61461f82828561455f565b5f60209050601f831160018114614650575f841561463e578287015190505b61464885826145cd565b8655506146af565b601f19841661465e86614448565b5f5b8281101561468557848901518255600182019150602085019450602081019050614660565b868310156146a2578489015161469e601f8916826145b1565b8355505b6001600288020188555050505b505050505050565b5f6146c182613889565b91506146cc83613889565b92508282039050818111156146e4576146e3614356565b5b92915050565b5f81905092915050565b50565b5f6147025f836146ea565b915061470d826146f4565b5f82019050919050565b5f614721826146f7565b9150819050919050565b7f5472616e73666572206661696c656400000000000000000000000000000000005f82015250565b5f61475f600f83613c25565b915061476a8261472b565b602082019050919050565b5f6020820190508181035f83015261478c81614753565b9050919050565b5f6040820190506147a65f830185613954565b6147b36020830184613c9b565b9392505050565b5f6040820190506147cd5f830185613c9b565b6147da6020830184613c9b565b9392505050565b5f6040820190506147f45f830185613954565b6148016020830184613954565b9392505050565b7f4e487b71000000000000000000000000000000000000000000000000000000005f52603260045260245ffd5b5f61483f82613889565b915061484a83613889565b925082820261485881613889565b9150828204841483151761486f5761486e614356565b5b5092915050565b5f60a0820190506148895f830188613c9b565b6148966020830187613954565b6148a36040830186613c9b565b6148b06060830185613954565b6148bd6080830184613c9b565b9695505050505050565b5f819050919050565b5f67ffffffffffffffff82169050919050565b5f6148fd6148f86148f3846148c7565b6144c6565b6148d0565b9050919050565b61490d816148e3565b82525050565b5f6020820190506149265f830184614904565b92915050565b5f61493682613889565b91507fffffffffffffffffffffffffffffffffffffffffffffffffffffffffffffffff820361496857614967614356565b5b600182019050919050565b5f6080820190506149865f830187613954565b6149936020830186613c9b565b6149a06040830185613954565b6149ad6060830184613954565b95945050505050565b5f6040820190506149c95f830185613c9b565b6149d66020830184613954565b9392505050565b5f6080820190506149f05f830187613c9b565b6149fd6020830186613954565b614a0a6040830185613954565b614a176060830184613954565b95945050505050565b5f6040820190508181035f830152614a388185614081565b90508181036020830152614a4c8184614081565b90509392505050565b5f81519050919050565b5f82825260208201905092915050565b5f614a7982614a55565b614a838185614a5f565b9350614a93818560208601613c35565b614a9c81613aa0565b840191505092915050565b5f60a082019050614aba5f830188613c9b565b614ac76020830187613c9b565b614ad46040830186613954565b614ae16060830185613954565b8181036080830152614af38184614a6f565b90509695505050505050565b5f81519050614b0d81613a10565b92915050565b5f60208284031215614b2857614b27613881565b5b5f614b3584828501614aff565b91505092915050565b5f60a082019050614b515f830188613c9b565b614b5e6020830187613c9b565b8181036040830152614b708186614081565b90508181036060830152614b848185614081565b90508181036080830152614b988184614a6f565b90509695505050505050565b5f81519050614bb28161421d565b92915050565b5f60208284031215614bcd57614bcc613881565b5b5f614bda84828501614ba4565b91505092915050565b7f5361666545524332303a204552433230206f7065726174696f6e20646964206e5f8201527f6f74207375636365656400000000000000000000000000000000000000000000602082015250565b5f614c3d602a83613c25565b9150614c4882614be3565b604082019050919050565b5f6020820190508181035f830152614c6a81614c31565b9050919050565b7f416464726573733a20696e73756666696369656e742062616c616e636520666f5f8201527f722063616c6c0000000000000000000000000000000000000000000000000000602082015250565b5f614ccb602683613c25565b9150614cd682614c71565b604082019050919050565b5f6020820190508181035f830152614cf881614cbf565b9050919050565b5f614d0982614a55565b614d1381856146ea565b9350614d23818560208601613c35565b80840191505092915050565b5f614d3a8284614cff565b915081905092915050565b7f416464726573733a2063616c6c20746f206e6f6e2d636f6e74726163740000005f82015250565b5f614d79601d83613c25565b9150614d8482614d45565b602082019050919050565b5f6020820190508181035f830152614da681614d6d565b905091905056fea26469706673582212205fb76f3430bfcd103746be7635c06a01f36d65e4368b5f2a01b86f28d5bf93bb64736f6c634300081c0033","linkReferences":{}},"methodIdentifiers":{"affiliateIDs(address)":"702510d7","affiliateOwners(uint256)":"7456a7a2","balanceOf(address,uint256)":"00fdd58e","balanceOfBatch(address[],uint256[])":"4e1273f4","calculateRequiredBudget()":"5ca2a204","claimEnd()":"3ccfa92f","claimStart()":"f04d688f","currencyAddress()":"1c1cb323","customClaim(uint256)":"005088d0","fee()":"ddca3f43","getAvailableBudget()":"b328a4d3","initialize(string,uint256,uint256,uint256,uint256,uint256,address,uint256,uint256,address)":"95e74bc7","isApprovedForAll(address,address)":"e985e9c5","lockBudget(uint256)":"c4a0e40c","lockedBudget()":"15eb2954","maxSupply()":"d5abeb01","nextAffiliateId()":"12e51490","owner()":"8da5cb5b","redeemCoupon(address)":"74d8f48e","redeemExpiration()":"1b3dad64","redeemedQuantities(uint256,address)":"0007476c","redeemedTokenCount(uint256)":"7057b941","registerAffiliate()":"becf0426","renounceOwnership()":"715018a6","safeBatchTransferFrom(address,address,uint256[],uint256[],bytes)":"2eb2c2d6","safeTransferFrom(address,address,uint256,uint256,bytes)":"f242432a","setApprovalForAll(address,bool)":"a22cb465","setLockedBudgetForTesting(uint256)":"ffa3816a","setURI(string)":"02fe5305","supportsInterface(bytes4)":"01ffc9a7","tokenId()":"17d70f7c","tokenOwnerAffiliates(uint256,address)":"bf396c23","tokensWithAffiliates()":"74f5a9f9","totalSupply()":"18160ddd","transferOwnership(address)":"f2fde38b","uri(uint256)":"0e89341c","verifyClaim(address)":"a80d520c","withdrawBudget(uint256)":"2cc81a61"},"id":0}