{"abi":[{"type":"constructor","inputs":[],"stateMutability":"nonpayable"},{"type":"receive","stateMutability":"payable"},{"type":"function","name":"affiliateReferrals","inputs":[{"name":"","type":"address","internalType":"address"}],"outputs":[{"name":"","type":"uint256","internalType":"uint256"}],"stateMutability":"view"},{"type":"function","name":"balanceOf","inputs":[{"name":"account","type":"address","internalType":"address"},{"name":"id","type":"uint256","internalType":"uint256"}],"outputs":[{"name":"","type":"uint256","internalType":"uint256"}],"stateMutability":"view"},{"type":"function","name":"balanceOfBatch","inputs":[{"name":"accounts","type":"address[]","internalType":"address[]"},{"name":"ids","type":"uint256[]","internalType":"uint256[]"}],"outputs":[{"name":"","type":"uint256[]","internalType":"uint256[]"}],"stateMutability":"view"},{"type":"function","name":"calculateRequiredBudget","inputs":[],"outputs":[{"name":"","type":"uint256","internalType":"uint256"}],"stateMutability":"view"},{"type":"function","name":"claimEnd","inputs":[],"outputs":[{"name":"","type":"uint256","internalType":"uint256"}],"stateMutability":"view"},{"type":"function","name":"claimStart","inputs":[],"outputs":[{"name":"","type":"uint256","internalType":"uint256"}],"stateMutability":"view"},{"type":"function","name":"currencyAddress","inputs":[],"outputs":[{"name":"","type":"address","internalType":"address"}],"stateMutability":"view"},{"type":"function","name":"customClaim","inputs":[{"name":"affiliateAddress","type":"address","internalType":"address"}],"outputs":[],"stateMutability":"payable"},{"type":"function","name":"fee","inputs":[],"outputs":[{"name":"","type":"uint256","internalType":"uint256"}],"stateMutability":"view"},{"type":"function","name":"getAvailableBudget","inputs":[],"outputs":[{"name":"","type":"uint256","internalType":"uint256"}],"stateMutability":"view"},{"type":"function","name":"initialize","inputs":[{"name":"_uri","type":"string","internalType":"string"},{"name":"_maxSupply","type":"uint256","internalType":"uint256"},{"name":"_claimStart","type":"uint256","internalType":"uint256"},{"name":"_claimEnd","type":"uint256","internalType":"uint256"},{"name":"_redeemExpiration","type":"uint256","internalType":"uint256"},{"name":"_lockedBudget","type":"uint256","internalType":"uint256"},{"name":"_currencyAddress","type":"address","internalType":"address"},{"name":"_tokenId","type":"uint256","internalType":"uint256"},{"name":"_fee","type":"uint256","internalType":"uint256"},{"name":"_owner","type":"address","internalType":"address"}],"outputs":[],"stateMutability":"payable"},{"type":"function","name":"isAffiliate","inputs":[{"name":"","type":"address","internalType":"address"}],"outputs":[{"name":"","type":"bool","internalType":"bool"}],"stateMutability":"view"},{"type":"function","name":"isApprovedForAll","inputs":[{"name":"account","type":"address","internalType":"address"},{"name":"operator","type":"address","internalType":"address"}],"outputs":[{"name":"","type":"bool","internalType":"bool"}],"stateMutability":"view"},{"type":"function","name":"lockBudget","inputs":[{"name":"amount","type":"uint256","internalType":"uint256"}],"outputs":[],"stateMutability":"payable"},{"type":"function","name":"lockedBudget","inputs":[],"outputs":[{"name":"","type":"uint256","internalType":"uint256"}],"stateMutability":"view"},{"type":"function","name":"maxSupply","inputs":[],"outputs":[{"name":"","type":"uint256","internalType":"uint256"}],"stateMutability":"view"},{"type":"function","name":"owner","inputs":[],"outputs":[{"name":"","type":"address","internalType":"address"}],"stateMutability":"view"},{"type":"function","name":"redeemCoupon","inputs":[{"name":"tokenOwner","type":"address","internalType":"address"}],"outputs":[],"stateMutability":"nonpayable"},{"type":"function","name":"redeemExpiration","inputs":[],"outputs":[{"name":"","type":"uint256","internalType":"uint256"}],"stateMutability":"view"},{"type":"function","name":"redeemedQuantities","inputs":[{"name":"","type":"uint256","internalType":"uint256"},{"name":"","type":"address","internalType":"address"}],"outputs":[{"name":"","type":"uint256","internalType":"uint256"}],"stateMutability":"view"},{"type":"function","name":"redeemedTokenCount","inputs":[{"name":"","type":"uint256","internalType":"uint256"}],"outputs":[{"name":"","type":"uint256","internalType":"uint256"}],"stateMutability":"view"},{"type":"function","name":"registerAffiliate","inputs":[],"outputs":[],"stateMutability":"nonpayable"},{"type":"function","name":"renounceOwnership","inputs":[],"outputs":[],"stateMutability":"nonpayable"},{"type":"function","name":"safeBatchTransferFrom","inputs":[{"name":"from","type":"address","internalType":"address"},{"name":"to","type":"address","internalType":"address"},{"name":"ids","type":"uint256[]","internalType":"uint256[]"},{"name":"values","type":"uint256[]","internalType":"uint256[]"},{"name":"data","type":"bytes","internalType":"bytes"}],"outputs":[],"stateMutability":"nonpayable"},{"type":"function","name":"safeTransferFrom","inputs":[{"name":"from","type":"address","internalType":"address"},{"name":"to","type":"address","internalType":"address"},{"name":"id","type":"uint256","internalType":"uint256"},{"name":"value","type":"uint256","internalType":"uint256"},{"name":"data","type":"bytes","internalType":"bytes"}],"outputs":[],"stateMutability":"nonpayable"},{"type":"function","name":"setApprovalForAll","inputs":[{"name":"operator","type":"address","internalType":"address"},{"name":"approved","type":"bool","internalType":"bool"}],"outputs":[],"stateMutability":"nonpayable"},{"type":"function","name":"setLockedBudgetForTesting","inputs":[{"name":"_newBudget","type":"uint256","internalType":"uint256"}],"outputs":[],"stateMutability":"nonpayable"},{"type":"function","name":"setURI","inputs":[{"name":"newURI","type":"string","internalType":"string"}],"outputs":[],"stateMutability":"nonpayable"},{"type":"function","name":"supportsInterface","inputs":[{"name":"interfaceId","type":"bytes4","internalType":"bytes4"}],"outputs":[{"name":"","type":"bool","internalType":"bool"}],"stateMutability":"view"},{"type":"function","name":"tokenId","inputs":[],"outputs":[{"name":"","type":"uint256","internalType":"uint256"}],"stateMutability":"view"},{"type":"function","name":"tokenOwnerAffiliates","inputs":[{"name":"","type":"uint256","internalType":"uint256"},{"name":"","type":"address","internalType":"address"}],"outputs":[{"name":"","type":"address","internalType":"address"}],"stateMutability":"view"},{"type":"function","name":"tokensWithAffiliates","inputs":[],"outputs":[{"name":"","type":"uint256","internalType":"uint256"}],"stateMutability":"view"},{"type":"function","name":"totalSupply","inputs":[],"outputs":[{"name":"","type":"uint256","internalType":"uint256"}],"stateMutability":"view"},{"type":"function","name":"transferOwnership","inputs":[{"name":"newOwner","type":"address","internalType":"address"}],"outputs":[],"stateMutability":"nonpayable"},{"type":"function","name":"uri","inputs":[{"name":"","type":"uint256","internalType":"uint256"}],"outputs":[{"name":"","type":"string","internalType":"string"}],"stateMutability":"view"},{"type":"function","name":"verifyClaim","inputs":[{"name":"_claimer","type":"address","internalType":"address"}],"outputs":[],"stateMutability":"view"},{"type":"function","name":"withdrawBudget","inputs":[{"name":"amount","type":"uint256","internalType":"uint256"}],"outputs":[],"stateMutability":"nonpayable"},{"type":"event","name":"AffiliateRegistered","inputs":[{"name":"affiliateAddress","type":"address","indexed":true,"internalType":"address"},{"name":"contractAddress","type":"address","indexed":false,"internalType":"address"},{"name":"timestamp","type":"uint256","indexed":false,"internalType":"uint256"}],"anonymous":false},{"type":"event","name":"ApprovalForAll","inputs":[{"name":"account","type":"address","indexed":true,"internalType":"address"},{"name":"operator","type":"address","indexed":true,"internalType":"address"},{"name":"approved","type":"bool","indexed":false,"internalType":"bool"}],"anonymous":false},{"type":"event","name":"BudgetLocked","inputs":[{"name":"locker","type":"address","indexed":true,"internalType":"address"},{"name":"amount","type":"uint256","indexed":false,"internalType":"uint256"},{"name":"contractAddress","type":"address","indexed":false,"internalType":"address"}],"anonymous":false},{"type":"event","name":"BudgetWithdrawn","inputs":[{"name":"withdrawer","type":"address","indexed":true,"internalType":"address"},{"name":"amount","type":"uint256","indexed":false,"internalType":"uint256"},{"name":"contractAddress","type":"address","indexed":false,"internalType":"address"}],"anonymous":false},{"type":"event","name":"CouponRedeemed","inputs":[{"name":"owner","type":"address","indexed":true,"internalType":"address"},{"name":"tokenId","type":"uint256","indexed":true,"internalType":"uint256"},{"name":"affiliateAddress","type":"address","indexed":false,"internalType":"address"},{"name":"fee","type":"uint256","indexed":false,"internalType":"uint256"},{"name":"contractAddress","type":"address","indexed":false,"internalType":"address"},{"name":"timestamp","type":"uint256","indexed":false,"internalType":"uint256"},{"name":"currency","type":"address","indexed":false,"internalType":"address"}],"anonymous":false},{"type":"event","name":"Initialized","inputs":[{"name":"version","type":"uint64","indexed":false,"internalType":"uint64"}],"anonymous":false},{"type":"event","name":"OwnershipTransferred","inputs":[{"name":"previousOwner","type":"address","indexed":true,"internalType":"address"},{"name":"newOwner","type":"address","indexed":true,"internalType":"address"}],"anonymous":false},{"type":"event","name":"TokenClaimed","inputs":[{"name":"claimer","type":"address","indexed":true,"internalType":"address"},{"name":"receiver","type":"address","indexed":true,"internalType":"address"},{"name":"tokenId","type":"uint256","indexed":true,"internalType":"uint256"},{"name":"affiliateAddress","type":"address","indexed":false,"internalType":"address"},{"name":"contractAddress","type":"address","indexed":false,"internalType":"address"},{"name":"timestamp","type":"uint256","indexed":false,"internalType":"uint256"},{"name":"_tokenURI","type":"string","indexed":false,"internalType":"string"}],"anonymous":false},{"type":"event","name":"TransferBatch","inputs":[{"name":"operator","type":"address","indexed":true,"internalType":"address"},{"name":"from","type":"address","indexed":true,"internalType":"address"},{"name":"to","type":"address","indexed":true,"internalType":"address"},{"name":"ids","type":"uint256[]","indexed":false,"internalType":"uint256[]"},{"name":"values","type":"uint256[]","indexed":false,"internalType":"uint256[]"}],"anonymous":false},{"type":"event","name":"TransferSingle","inputs":[{"name":"operator","type":"address","indexed":true,"internalType":"address"},{"name":"from","type":"address","indexed":true,"internalType":"address"},{"name":"to","type":"address","indexed":true,"internalType":"address"},{"name":"id","type":"uint256","indexed":false,"internalType":"uint256"},{"name":"value","type":"uint256","indexed":false,"internalType":"uint256"}],"anonymous":false},{"type":"event","name":"URI","inputs":[{"name":"value","type":"string","indexed":false,"internalType":"string"},{"name":"id","type":"uint256","indexed":true,"internalType":"uint256"}],"anonymous":false},{"type":"error","name":"AlreadyInitialized","inputs":[]},{"type":"error","name":"AlreadyRegisteredAsAffiliate","inputs":[]},{"type":"error","name":"ClaimEndMustBeBeforeRedeemExpiration","inputs":[]},{"type":"error","name":"ClaimExpired","inputs":[]},{"type":"error","name":"ClaimNotStarted","inputs":[]},{"type":"error","name":"ClaimStartMustBeBeforeClaimEnd","inputs":[]},{"type":"error","name":"CurrencyTransferLibFailedNativeTransfer","inputs":[{"name":"recipient","type":"address","internalType":"address"},{"name":"value","type":"uint256","internalType":"uint256"}]},{"type":"error","name":"ERC1155InsufficientBalance","inputs":[{"name":"sender","type":"address","internalType":"address"},{"name":"balance","type":"uint256","internalType":"uint256"},{"name":"needed","type":"uint256","internalType":"uint256"},{"name":"tokenId","type":"uint256","internalType":"uint256"}]},{"type":"error","name":"ERC1155InvalidApprover","inputs":[{"name":"approver","type":"address","internalType":"address"}]},{"type":"error","name":"ERC1155InvalidArrayLength","inputs":[{"name":"idsLength","type":"uint256","internalType":"uint256"},{"name":"valuesLength","type":"uint256","internalType":"uint256"}]},{"type":"error","name":"ERC1155InvalidOperator","inputs":[{"name":"operator","type":"address","internalType":"address"}]},{"type":"error","name":"ERC1155InvalidReceiver","inputs":[{"name":"receiver","type":"address","internalType":"address"}]},{"type":"error","name":"ERC1155InvalidSender","inputs":[{"name":"sender","type":"address","internalType":"address"}]},{"type":"error","name":"ERC1155MissingApprovalForAll","inputs":[{"name":"operator","type":"address","internalType":"address"},{"name":"owner","type":"address","internalType":"address"}]},{"type":"error","name":"ExceedsMaxSupply","inputs":[]},{"type":"error","name":"ExcessiveBudget","inputs":[]},{"type":"error","name":"FeeMustBeGreaterThanZero","inputs":[]},{"type":"error","name":"InsufficientBudget","inputs":[]},{"type":"error","name":"InvalidAffiliateAddress","inputs":[]},{"type":"error","name":"InvalidAffiliateID","inputs":[]},{"type":"error","name":"InvalidCurrencyAmount","inputs":[]},{"type":"error","name":"InvalidInitialization","inputs":[]},{"type":"error","name":"InvalidWithdrawalAmount","inputs":[]},{"type":"error","name":"MaxSupplyMustBeGreaterThanZero","inputs":[]},{"type":"error","name":"MustSendTotalFee","inputs":[]},{"type":"error","name":"NoAffiliateAssociated","inputs":[]},{"type":"error","name":"NotInitializing","inputs":[]},{"type":"error","name":"OwnableInvalidOwner","inputs":[{"name":"owner","type":"address","internalType":"address"}]},{"type":"error","name":"OwnableUnauthorizedAccount","inputs":[{"name":"account","type":"address","internalType":"address"}]},{"type":"error","name":"OwnerDoesNotOwnToken","inputs":[]},{"type":"error","name":"QuantityMustBeGreaterThanZero","inputs":[]},{"type":"error","name":"RedeemExpired","inputs":[]},{"type":"error","name":"TokenAlreadyClaimed","inputs":[]},{"type":"error","name":"TokenQuantityAlreadyRedeemed","inputs":[]}],"bytecode":{"object":"0x60806040523461002757610011610036565b61001961002c565b61471b61020f823961471b90f35b610032565b60405190565b5f80fd5b61003e610132565b565b60401c90565b60ff1690565b61005861005d91610040565b610046565b90565b61006a905461004c565b90565b5f0190565b5f1c90565b60018060401b031690565b61008e61009391610072565b610077565b90565b6100a09054610082565b90565b60018060401b031690565b5f1b90565b906100c460018060401b03916100ae565b9181191691161790565b90565b6100e56100e06100ea926100a3565b6100ce565b6100a3565b90565b90565b9061010561010061010c926100d1565b6100ed565b82546100b3565b9055565b610119906100a3565b9052565b9190610130905f60208501940190610110565b565b61013a6101ea565b6101455f8201610060565b6101ce576101545f8201610096565b61016c61016660018060401b036100a3565b916100a3565b03610175575b50565b610188905f60018060401b0391016100f0565b60018060401b036101c57fc7f505b2f371ae2175ee4913f4499e1f2633a7b5936321eed1cdaeb6115181d2916101bc61002c565b9182918261011d565b0390a15f610172565b5f63f92ee8a960e01b8152806101e66004820161006d565b0390fd5b7ff0c57e16840df040f15088dc2f81fe391c3923bec73e23a9662efc9c229c6a009056fe60806040526004361015610015575b366114be57005b61001f5f3561026c565b806207476c14610267578062fdd58e1461026257806301ffc9a71461025d57806302fe5305146102585780630e89341c1461025357806315eb29541461024e57806317d70f7c1461024957806318160ddd146102445780631b3dad641461023f5780631c1cb3231461023a5780632cc81a61146102355780632eb2c2d6146102305780633ccfa92f1461022b57806347a395fd146102265780634e1273f4146102215780634fa851861461021c5780635ca2a204146102175780637057b94114610212578063715018a61461020d57806374d8f48e1461020857806374f5a9f9146102035780638da5cb5b146101fe57806395e74bc7146101f9578063a22cb465146101f4578063a80d520c146101ef578063b328a4d3146101ea578063becf0426146101e5578063bf396c23146101e0578063c4a0e40c146101db578063d5abeb01146101d6578063d88053e9146101d1578063ddca3f43146101cc578063e985e9c5146101c7578063f04d688f146101c2578063f242432a146101bd578063f2fde38b146101b85763ffa3816a0361000e5761148b565b611458565b611421565b61137d565b611338565b6112d6565b611292565b611244565b61120c565b6111d6565b611156565b611121565b6110ee565b6110ba565b611034565b610f4a565b610f15565b610ed3565b610ea0565b610e6b565b610e07565b610dd2565b610d41565b610b85565b610b32565b610aec565b610903565b6108ce565b610837565b6107f3565b6107af565b61076c565b610719565b610667565b61050d565b610463565b610400565b60e01c90565b60405190565b5f80fd5b5f80fd5b5f80fd5b90565b61029081610284565b0361029757565b5f80fd5b905035906102a882610287565b565b60018060a01b031690565b6102be906102aa565b90565b6102ca816102b5565b036102d157565b5f80fd5b905035906102e2826102c1565b565b919060408382031261030c5780610300610309925f860161029b565b936020016102d5565b90565b61027c565b90565b61032861032361032d92610284565b610311565b610284565b90565b9061033a90610314565b5f5260205260405f2090565b61035a61035561035f926102aa565b610311565b6102aa565b90565b61036b90610346565b90565b61037790610362565b90565b906103849061036e565b5f5260205260405f2090565b1c90565b90565b6103a79060086103ac9302610390565b610394565b90565b906103ba9154610397565b90565b6103d66103db926103d16006935f94610330565b61037a565b6103af565b90565b6103e790610284565b9052565b91906103fe905f602085019401906103de565b565b346104315761042d61041c6104163660046102e4565b906103bd565b610424610272565b918291826103eb565b0390f35b610278565b919060408382031261045e578061045261045b925f86016102d5565b9360200161029b565b90565b61027c565b346104945761049061047f610479366004610436565b906114ec565b610487610272565b918291826103eb565b0390f35b610278565b63ffffffff60e01b1690565b6104ae81610499565b036104b557565b5f80fd5b905035906104c6826104a5565b565b906020828203126104e1576104de915f016104b9565b90565b61027c565b151590565b6104f4906104e6565b9052565b919061050b905f602085019401906104eb565b565b3461053d576105396105286105233660046104c8565b611520565b610530610272565b918291826104f8565b0390f35b610278565b5f80fd5b5f80fd5b601f801991011690565b634e487b7160e01b5f52604160045260245ffd5b906105729061054a565b810190811067ffffffffffffffff82111761058c57604052565b610554565b906105a461059d610272565b9283610568565b565b67ffffffffffffffff81116105c4576105c060209161054a565b0190565b610554565b90825f939282370152565b909291926105e96105e4826105a6565b610591565b9381855260208501908284011161060557610603926105c9565b565b610546565b9080601f8301121561062857816020610625933591016105d4565b90565b610542565b9060208282031261065d575f82013567ffffffffffffffff811161065857610655920161060a565b90565b610280565b61027c565b5f0190565b346106955761067f61067a36600461062d565b6117d3565b610687610272565b8061069181610662565b0390f35b610278565b906020828203126106b3576106b0915f0161029b565b90565b61027c565b5190565b60209181520190565b90825f9392825e0152565b6106ef6106f86020936106fd936106e6816106b8565b938480936106bc565b958691016106c5565b61054a565b0190565b6107169160208201915f8184039101526106d0565b90565b346107495761074561073461072f36600461069a565b6118b3565b61073c610272565b91829182610701565b0390f35b610278565b5f91031261075857565b61027c565b610769600b5f906103af565b90565b3461079c5761077c36600461074e565b61079861078761075d565b61078f610272565b918291826103eb565b0390f35b610278565b6107ac5f5f906103af565b90565b346107df576107bf36600461074e565b6107db6107ca6107a1565b6107d2610272565b918291826103eb565b0390f35b610278565b6107f060015f906103af565b90565b346108235761080336600461074e565b61081f61080e6107e4565b610816610272565b918291826103eb565b0390f35b610278565b610834600a5f906103af565b90565b346108675761084736600461074e565b610863610852610828565b61085a610272565b918291826103eb565b0390f35b610278565b60018060a01b031690565b61088790600861088c9302610390565b61086c565b90565b9061089a9154610877565b90565b6108a9600c5f9061088f565b90565b6108b5906102b5565b9052565b91906108cc905f602085019401906108ac565b565b346108fe576108de36600461074e565b6108fa6108e961089d565b6108f1610272565b918291826108b9565b0390f35b610278565b346109315761091b61091636600461069a565b611d19565b610923610272565b8061092d81610662565b0390f35b610278565b67ffffffffffffffff811161094e5760208091020190565b610554565b5f80fd5b9092919261096c61096782610936565b610591565b93818552602080860192028301928184116109a957915b8383106109905750505050565b6020809161099e848661029b565b815201920191610983565b610953565b9080601f830112156109cc578160206109c993359101610957565b90565b610542565b67ffffffffffffffff81116109ef576109eb60209161054a565b0190565b610554565b90929192610a09610a04826109d1565b610591565b93818552602085019082840111610a2557610a23926105c9565b565b610546565b9080601f83011215610a4857816020610a45933591016109f4565b90565b610542565b91909160a081840312610ae757610a66835f83016102d5565b92610a7481602084016102d5565b92604083013567ffffffffffffffff8111610ae25782610a959185016109ae565b92606081013567ffffffffffffffff8111610add5783610ab69183016109ae565b92608082013567ffffffffffffffff8111610ad857610ad59201610a2a565b90565b610280565b610280565b610280565b61027c565b34610b1e57610b08610aff366004610a4d565b93929092611d47565b610b10610272565b80610b1a81610662565b0390f35b610278565b610b2f60095f906103af565b90565b34610b6257610b4236600461074e565b610b5e610b4d610b23565b610b55610272565b918291826103eb565b0390f35b610278565b90602082820312610b8057610b7d915f016102d5565b90565b61027c565b610b98610b93366004610b67565b611f8b565b610ba0610272565b80610baa81610662565b0390f35b67ffffffffffffffff8111610bc65760208091020190565b610554565b90929192610be0610bdb82610bae565b610591565b9381855260208086019202830192818411610c1d57915b838310610c045750505050565b60208091610c1284866102d5565b815201920191610bf7565b610953565b9080601f83011215610c4057816020610c3d93359101610bcb565b90565b610542565b919091604081840312610c9d575f81013567ffffffffffffffff8111610c985783610c71918301610c22565b92602082013567ffffffffffffffff8111610c9357610c9092016109ae565b90565b610280565b610280565b61027c565b5190565b60209181520190565b60200190565b610cbe90610284565b9052565b90610ccf81602093610cb5565b0190565b60200190565b90610cf6610cf0610ce984610ca2565b8093610ca6565b92610caf565b905f5b818110610d065750505090565b909192610d1f610d196001928651610cc2565b94610cd3565b9101919091610cf9565b610d3e9160208201915f818403910152610cd9565b90565b34610d7257610d6e610d5d610d57366004610c45565b906122e1565b610d65610272565b91829182610d29565b0390f35b610278565b90610d819061036e565b5f5260205260405f2090565b60ff1690565b610da3906008610da89302610390565b610d8d565b90565b90610db69154610d93565b90565b610dcf90610dca600e915f92610d77565b610dab565b90565b34610e0257610dfe610ded610de8366004610b67565b610db9565b610df5610272565b918291826104f8565b0390f35b610278565b34610e3757610e1736600461074e565b610e33610e226123fe565b610e2a610272565b918291826103eb565b0390f35b610278565b90610e4690610314565b5f5260205260405f2090565b610e6890610e636007915f92610e3c565b6103af565b90565b34610e9b57610e97610e86610e8136600461069a565b610e52565b610e8e610272565b918291826103eb565b0390f35b610278565b34610ece57610eb036600461074e565b610eb861244c565b610ec0610272565b80610eca81610662565b0390f35b610278565b34610f0157610eeb610ee6366004610b67565b61281e565b610ef3610272565b80610efd81610662565b0390f35b610278565b610f12600d5f906103af565b90565b34610f4557610f2536600461074e565b610f41610f30610f06565b610f38610272565b918291826103eb565b0390f35b610278565b34610f7a57610f5a36600461074e565b610f76610f6561282d565b610f6d610272565b918291826108b9565b0390f35b610278565b6101408183031261102f575f81013567ffffffffffffffff811161102a5782610fa991830161060a565b92610fb7836020840161029b565b92610fc5816040850161029b565b92610fd3826060830161029b565b92610fe1836080840161029b565b92610fef8160a0850161029b565b92610ffd8260c083016102d5565b9261102761100e8460e0850161029b565b9361101d81610100860161029b565b93610120016102d5565b90565b610280565b61027c565b611054611042366004610f7f565b98979097969196959295949394612e0a565b61105c610272565b8061106681610662565b0390f35b611073816104e6565b0361107a57565b5f80fd5b9050359061108b8261106a565b565b91906040838203126110b557806110a96110b2925f86016102d5565b9360200161107e565b90565b61027c565b346110e9576110d36110cd36600461108d565b90612e1e565b6110db610272565b806110e581610662565b0390f35b610278565b3461111c57611106611101366004610b67565b612e34565b61110e610272565b8061111881610662565b0390f35b610278565b346111515761113136600461074e565b61114d61113c612ef6565b611144610272565b918291826103eb565b0390f35b610278565b346111845761116636600461074e565b61116e612fa5565b611176610272565b8061118081610662565b0390f35b610278565b9061119390610314565b5f5260205260405f2090565b906111a99061036e565b5f5260205260405f2090565b6111ce6111d3926111c96005935f94611189565b61119f565b61088f565b90565b34611207576112036111f26111ec3660046102e4565b906111b5565b6111fa610272565b918291826108b9565b0390f35b610278565b61121f61121a36600461069a565b613084565b611227610272565b8061123181610662565b0390f35b61124160025f906103af565b90565b346112745761125436600461074e565b61127061125f611235565b611267610272565b918291826103eb565b0390f35b610278565b61128f9061128a600f915f9261037a565b6103af565b90565b346112c2576112be6112ad6112a8366004610b67565b611279565b6112b5610272565b918291826103eb565b0390f35b610278565b6112d360035f906103af565b90565b34611306576112e636600461074e565b6113026112f16112c7565b6112f9610272565b918291826103eb565b0390f35b610278565b91906040838203126113335780611327611330925f86016102d5565b936020016102d5565b90565b61027c565b346113695761136561135461134e36600461130b565b906131bc565b61135c610272565b918291826104f8565b0390f35b610278565b61137a60085f906103af565b90565b346113ad5761138d36600461074e565b6113a961139861136e565b6113a0610272565b918291826103eb565b0390f35b610278565b91909160a08184031261141c576113cb835f83016102d5565b926113d981602084016102d5565b926113e7826040850161029b565b926113f5836060830161029b565b92608082013567ffffffffffffffff8111611417576114149201610a2a565b90565b610280565b61027c565b346114535761143d6114343660046113b2565b939290926131ed565b611445610272565b8061144f81610662565b0390f35b610278565b346114865761147061146b366004610b67565b6132cb565b611478610272565b8061148281610662565b0390f35b610278565b346114b9576114a361149e36600461069a565b6132f6565b6114ab610272565b806114b581610662565b0390f35b610278565b5f80fd5b5f90565b5f1c90565b6114d76114dc916114c6565b610394565b90565b6114e990546114cb565b90565b6115149061150f611519936114ff6114c2565b505f611509613301565b01610330565b61037a565b6114df565b90565b5f90565b61152861151c565b508061154361153d636cdb3d1360e11b610499565b91610499565b148015611567575b908115611557575b5090565b6115619150613325565b5f611553565b508061158261157c6303a24d0760e21b610499565b91610499565b1461154b565b6115999061159461334b565b6117c6565b565b634e487b7160e01b5f52602260045260245ffd5b90600160028304921680156115cf575b60208310146115ca57565b61159b565b91607f16916115bf565b5f5260205f2090565b601f602091010490565b1b90565b9190600861160b9102916116055f19846115ec565b926115ec565b9181191691161790565b90565b919061162e61162961163693610314565b611615565b9083546115f0565b9055565b61164c916116466114c2565b91611618565b565b5b81811061165a575050565b806116675f60019361163a565b0161164f565b9190601f811161167d575b505050565b6116896116ae936115d9565b906020611695846115e2565b830193106116b6575b6116a7906115e2565b019061164e565b5f8080611678565b91506116a78192905061169e565b906116d4905f1990600802610390565b191690565b816116e3916116c4565b906002021790565b906116f5816106b8565b9067ffffffffffffffff82116117b5576117198261171385546115af565b8561166d565b602090601f831160011461174d5791809161173c935f92611741575b50506116d9565b90555b565b90915001515f80611735565b601f1983169161175c856115d9565b925f5b81811061179d57509160029391856001969410611783575b5050500201905561173f565b611793910151601f8416906116c4565b90555f8080611777565b9193602060018192878701518155019501920161175f565b610554565b906117c4916116eb565b565b6117d19060046117ba565b565b6117dc90611588565b565b606090565b60209181520190565b905f92918054906118066117ff836115af565b80946117e3565b916001811690815f1461185d5750600114611821575b505050565b61182e91929394506115d9565b915f925b81841061184557505001905f808061181c565b60018160209295939554848601520191019290611832565b92949550505060ff19168252151560200201905f808061181c565b90611882916117ec565b90565b906118a561189e92611895610272565b93848092611878565b0383610568565b565b6118b090611885565b90565b506118bc6117de565b506118c760046118a7565b90565b6118db906118d661334b565b611aa0565b565b634e487b7160e01b5f52601160045260245ffd5b61190061190691939293610284565b92610284565b820391821161191157565b6118dd565b5f1b90565b906119275f1991611916565b9181191691161790565b9061194661194161194d92610314565b611615565b825461191b565b9055565b61195d611962916114c6565b61086c565b90565b61196f9054611951565b90565b73eeeeeeeeeeeeeeeeeeeeeeeeeeeeeeeeeeeeeeee90565b61199390610362565b90565b905090565b6119a65f8092611996565b0190565b6119b39061199b565b90565b906119c86119c3836109d1565b610591565b918252565b606090565b3d5f146119ed576119e23d6119b6565b903d5f602084013e5b565b6119f56119cd565b906119eb565b5f7f5472616e73666572206661696c65640000000000000000000000000000000000910152565b611a2f600f6020926106bc565b611a38816119fb565b0190565b611a519060208101905f818303910152611a22565b90565b15611a5b57565b611a63610272565b62461bcd60e51b815280611a7960048201611a3c565b0390fd5b916020611a9e929493611a9760408201965f8301906103de565b01906108ac565b565b80611abc611ab6611ab1600b6114df565b610284565b91610284565b11611cfd5742611add611ad7611ad2600a6114df565b610284565b91610284565b11611c1757611aea6123fe565b611b10611b0a611b04611afd600b6114df565b85906118f1565b92610284565b91610284565b10611bfb57611b32611b2b82611b26600b6114df565b6118f1565b600b611931565b611b3c600c611965565b611b55611b4f611b4a611972565b6102b5565b916102b5565b145f14611bd757611b885f803384611b6b610272565b9081611b76816119aa565b03925af1611b826119d2565b50611a54565b5b33611b933061198a565b611bbd7fcccac05118081db07a70bb781aabe8f0db7182a0b52d7374fa4821e9ed33cc859261036e565b92611bd2611bc9610272565b92839283611a7d565b0390a2565b611bf6611be4600c611965565b611bed3061198a565b33908492613399565b611b89565b5f634dd23c8b60e01b815280611c1360048201610662565b0390fd5b611c34611c2d82611c28600b6114df565b6118f1565b600b611931565b611c3e600c611965565b611c57611c51611c4c611972565b6102b5565b916102b5565b145f14611cd957611c8a5f803384611c6d610272565b9081611c78816119aa565b03925af1611c846119d2565b50611a54565b5b33611c953061198a565b611cbf7fcccac05118081db07a70bb781aabe8f0db7182a0b52d7374fa4821e9ed33cc859261036e565b92611cd4611ccb610272565b92839283611a7d565b0390a2565b611cf8611ce6600c611965565b611cef3061198a565b33908492613399565b611c8b565b5f639abc749160e01b815280611d1560048201610662565b0390fd5b611d22906118ca565b565b916020611d45929493611d3e60408201965f8301906108ac565b01906108ac565b565b949391929092611d556133fd565b86611d68611d62836102b5565b916102b5565b141580611da6575b611d865750611d849495939091929361340a565b565b8690611da25f92839263711bec9160e11b845260048401611d24565b0390fd5b50611dbb611db58883906131bc565b156104e6565b611d70565b90565b611dd7611dd2611ddc92611dc0565b610311565b610284565b90565b611dee611df491939293610284565b92610284565b8201809211611dff57565b6118dd565b90565b611e1b611e16611e2092611e04565b610311565b6102aa565b90565b611e2c90611e07565b90565b611e3b611e40916114c6565b610d8d565b90565b611e4d9054611e2f565b90565b90611e6160018060a01b0391611916565b9181191691161790565b90565b90611e83611e7e611e8a9261036e565b611e6b565b8254611e50565b9055565b90611ea0611e9b836105a6565b610591565b918252565b611eae5f611e8e565b90565b611eb9611ea5565b90565b905f9291805490611ed6611ecf836115af565b80946106bc565b916001811690815f14611f2d5750600114611ef1575b505050565b611efe91929394506115d9565b915f925b818410611f1557505001905f8080611eec565b60018160209295939554848601520191019290611f02565b92949550505060ff19168252151560200201905f8080611eec565b9092611f7b90611f71611f889694611f6760808601975f8701906108ac565b60208501906108ac565b60408301906103de565b6060818403910152611ebc565b90565b611fa8611f9860016114df565b611fa26001611dc3565b90611ddf565b611fc3611fbd611fb860026114df565b610284565b91610284565b116121e957611fd133612e34565b80611fec611fe6611fe15f611e23565b6102b5565b916102b5565b036120af575b61201833611fff5f6114df565b6120096001611dc3565b90612012611eb1565b926134ac565b61203e6120376120286001611dc3565b61203260016114df565b611ddf565b6001611931565b33903361204a5f6114df565b91926120553061198a565b42946120aa600461209861209261208c7fa3b41b96fbf46594f80c7153bb4984e94d289af9e17816f61ecf53c029dd7d239761036e565b9761036e565b97610314565b976120a1610272565b94859485611f48565b0390a4565b6120cc6120c66120c1600e8490610d77565b611e43565b156104e6565b6121cd57806120e36120dd336102b5565b916102b5565b146121b1576120f2600b6114df565b61210d61210761210260036114df565b610284565b91610284565b106121955761214361211f6001611dc3565b61213d61212e600f859061037a565b91612138836114df565b611ddf565b90611931565b6121696121626121536001611dc3565b61215d600d6114df565b611ddf565b600d611931565b6121908161218b612184600561217e5f6114df565b90611189565b339061119f565b611e6e565b611ff2565b5f634dd23c8b60e01b8152806121ad60048201610662565b0390fd5b5f6304483f3f60e31b8152806121c960048201610662565b0390fd5b5f6304483f3f60e31b8152806121e560048201610662565b0390fd5b5f63c30436e960e01b81528061220160048201610662565b0390fd5b606090565b5190565b91602061222f92949361222860408201965f8301906103de565b01906103de565b565b9061224361223e83610936565b610591565b918252565b369037565b9061227261225a83612231565b926020806122688693610936565b9201910390612248565b565b61228861228361228d92611e04565b610311565b610284565b90565b600161229c9101610284565b90565b634e487b7160e01b5f52603260045260245ffd5b906122bd82610ca2565b8110156122ce576020809102010190565b61229f565b906122dd90610284565b9052565b906122ea612205565b506122f48261220a565b61230e61230861230384610ca2565b610284565b91610284565b036123985761232461231f8361220a565b61224d565b9161232e5f612274565b5b8061234a61234461233f8561220a565b610284565b91610284565b10156123925761238d90612388612376612365858490613519565b61237087859061352f565b906114ec565b61238387918490926122b3565b6122d3565b612290565b61232f565b50505090565b6123a46123aa91610ca2565b9161220a565b906123c55f928392635b05999160e01b84526004840161220e565b0390fd5b6123d86123de91939293610284565b92610284565b916123ea838202610284565b9281840414901517156123f957565b6118dd565b6124066114c2565b50612424612414600d6114df565b61241e60036114df565b906123c9565b90565b61242f61334b565b612437612439565b565b61244a6124455f611e23565b613545565b565b612454612427565b565b6124679061246261334b565b6124b6565b565b909594926124b4946124a36124ad9261249960809661248f60a088019c5f8901906108ac565b60208701906103de565b60408501906108ac565b60608301906103de565b01906108ac565b565b6124c9816124c35f6114df565b906114ec565b6124db6124d55f612274565b91610284565b111561280257426124fd6124f76124f2600a6114df565b610284565b91610284565b116127e65761252861252361251c60066125165f6114df565b90610330565b839061037a565b6114df565b61253a6125345f612274565b91610284565b116127ca5761256561256061255960056125535f6114df565b90611189565b839061119f565b611965565b908161258161257b6125765f611e23565b6102b5565b916102b5565b03612669575b6125b76125946001611dc3565b6125b26125ab60066125a55f6114df565b90610330565b849061037a565b611931565b6125f06125c46001611dc3565b6125ea6125db60076125d55f6114df565b90610e3c565b916125e5836114df565b611ddf565b90611931565b906125fa5f6114df565b909161260660036114df565b61260f3061198a565b936126644261261e600c611965565b9061265261264c7f9740ccd7632c212cf0c62b84fe8a88c610b74aa9c4ca8a98ba3038fbefceb0b19761036e565b97610314565b9761265b610272565b95869586612469565b0390a3565b61268661268061267b600e8590610d77565b611e43565b156104e6565b6127ae57612694600b6114df565b6126af6126a96126a460036114df565b610284565b91610284565b10612792576126da6126d36126c46001611dc3565b6126ce600d6114df565b6118f1565b600d611931565b6127006126f96126ea60036114df565b6126f4600b6114df565b6118f1565b600b611931565b61270a600c611965565b61272361271d612718611972565b6102b5565b916102b5565b145f146127655761275f5f808461273a60036114df565b612742610272565b908161274d816119aa565b03925af16127596119d2565b50611a54565b5b612587565b61278d612772600c611965565b61277b3061198a565b849061278760036114df565b92613399565b612760565b5f634dd23c8b60e01b8152806127aa60048201610662565b0390fd5b5f6304483f3f60e31b8152806127c660048201610662565b0390fd5b5f637b38ef1f60e01b8152806127e260048201610662565b0390fd5b5f63528acf4f60e01b8152806127fe60048201610662565b0390fd5b5f632207388360e01b81528061281a60048201610662565b0390fd5b61282790612456565b565b5f90565b612835612829565b506128485f6128426135b1565b01611965565b90565b60401c90565b61285d6128629161284b565b610d8d565b90565b61286f9054612851565b90565b67ffffffffffffffff1690565b61288b612890916114c6565b612872565b90565b61289d905461287f565b90565b67ffffffffffffffff1690565b6128c16128bc6128c692611e04565b610311565b6128a0565b90565b6128dd6128d86128e292611dc0565b610311565b6128a0565b90565b6128ee90610362565b90565b9061290467ffffffffffffffff91611916565b9181191691161790565b61292261291d612927926128a0565b610311565b6128a0565b90565b90565b9061294261293d6129499261290e565b61292a565b82546128f1565b9055565b60401b90565b9061296768ff00000000000000009161294d565b9181191691161790565b61297a906104e6565b90565b90565b9061299561299061299c92612971565b61297d565b8254612953565b9055565b6129a9906128c9565b9052565b91906129c0905f602085019401906129a0565b565b9693909794919895926129d36135d5565b996129e86129e25f8d01612865565b156104e6565b996129f45f8d01612893565b80612a07612a015f6128ad565b916128a0565b1480612b23575b90612a22612a1c60016128c9565b916128a0565b1480612afb575b612a349091156104e6565b9081612aea575b50612ace57612a6599612a5a8d5f612a5360016128c9565b910161292d565b8b612abb575b612b2a565b612a6d575b50565b612a7a905f809101612980565b6001612ab27fc7f505b2f371ae2175ee4913f4499e1f2633a7b5936321eed1cdaeb6115181d291612aa9610272565b918291826129ad565b0390a15f612a6a565b612ac98d5f60019101612980565b612a60565b5f63f92ee8a960e01b815280612ae660048201610662565b0390fd5b612af59150156104e6565b5f612a3b565b50612a34612b08306128e5565b3b612b1b612b155f612274565b91610284565b149050612a29565b508b612a0e565b929897969794939194612b3c84613617565b612b4581613640565b81612b58612b525f612274565b91610284565b1115612dee5785612b71612b6b8c610284565b91610284565b1015612dd25789612b8a612b8485610284565b91610284565b1015612db65787612ba3612b9d5f612274565b91610284565b1180612d92575b612d765784612bc1612bbb5f612274565b91610284565b115f14612d1c5786612be2612bdc612bd7611972565b6102b5565b916102b5565b145f14612ca6575034612bfd612bf786610284565b91610284565b03612c8a57612c6298612c40612c5596612c39612c4794612c32612c4e98612c2b612c5c9e5b5b6003611931565b60046117ba565b6002611931565b6008611931565b6009611931565b600a611931565b600b611931565b600c611e6e565b5f611931565b612c75612c6e5f612274565b6001611931565b612c88612c815f612274565b600d611931565b565b5f6368b1946560e01b815280612ca260048201610662565b0390fd5b949690929834612cbe612cb85f612274565b91610284565b11612d0057612c40612c5c98612c39612c4e96612c32612c629e612c2b612c4798612cfb8f9e612c559f8f9091612cf43061198a565b9192613399565b612c23565b5f6368b1946560e01b815280612d1860048201610662565b0390fd5b5034612d30612d2a5f612274565b91610284565b11612d5a57612c6298612c40612c5596612c39612c4794612c32612c4e98612c2b612c5c9e612c24565b5f6368b1946560e01b815280612d7260048201610662565b0390fd5b5f634dd23c8b60e01b815280612d8e60048201610662565b0390fd5b5084612db0612daa612da58b86906123c9565b610284565b91610284565b10612baa565b5f6368f6151d60e11b815280612dce60048201610662565b0390fd5b5f6397c0867360e01b815280612dea60048201610662565b0390fd5b5f63ad03f1cd60e01b815280612e0660048201610662565b0390fd5b90612e1c9998979695949392916129c2565b565b612e3291612e2a6133fd565b91909161364b565b565b612e4790612e415f6114df565b906114ec565b612e59612e535f612274565b91610284565b11612eda5742612e7a612e74612e6f60086114df565b610284565b91610284565b10612ebe5742612e9b612e95612e9060096114df565b610284565b91610284565b11612ea257565b5f6341524ecf60e11b815280612eba60048201610662565b0390fd5b5f635874e70f60e11b815280612ed660048201610662565b0390fd5b5f633d6a72ef60e11b815280612ef260048201610662565b0390fd5b612efe6114c2565b50612f076123fe565b80612f23612f1d612f18600b6114df565b610284565b91610284565b1015612f3f57612f3c90612f37600b6114df565b6118f1565b90565b50612f495f612274565b90565b90612f5860ff91611916565b9181191691161790565b90612f77612f72612f7e92612971565b61297d565b8254612f4c565b9055565b916020612fa3929493612f9c60408201965f8301906108ac565b01906103de565b565b612fb9612fb4600e3390610d77565b611e43565b61306957612fc7600b6114df565b612fe2612fdc612fd760036114df565b610284565b91610284565b1061304d57612ffd6001612ff8600e3390610d77565b612f62565b336130073061198a565b90426130337f990349658e7763fcf9afe1ec1a24f36dc2225f1506509a9169a1205e9a536a689261036e565b9261304861303f610272565b92839283612f82565b0390a2565b5f634dd23c8b60e01b81528061306560048201610662565b0390fd5b5f62434be160e51b81528061308060048201610662565b0390fd5b61308e600c611965565b6130a76130a161309c611972565b6102b5565b916102b5565b145f1461314e57346130c16130bb83610284565b91610284565b03613132575b6130e46130dd826130d8600b6114df565b611ddf565b600b611931565b336130ee3061198a565b6131187f599419cc9c3fed0d4c06df68b361976b3559f232e25700cc78c51471251a73a59261036e565b9261312d613124610272565b92839283611a7d565b0390a2565b5f6368b1946560e01b81528061314a60048201610662565b0390fd5b3461316161315b5f612274565b91610284565b1161318a57613185613173600c611965565b3361317d3061198a565b908492613399565b6130c7565b5f6368b1946560e01b8152806131a260048201610662565b0390fd5b906131b09061036e565b5f5260205260405f2090565b6131ea916131e06131e5926131cf61151c565b5060016131da613301565b016131a6565b610d77565b611e43565b90565b9493919290926131fb6133fd565b8661320e613208836102b5565b916102b5565b14158061324c575b61322c575061322a9495939091929361370e565b565b86906132485f92839263711bec9160e11b845260048401611d24565b0390fd5b5061326161325b8883906131bc565b156104e6565b613216565b6132779061327261334b565b613279565b565b8061329461328e6132895f611e23565b6102b5565b916102b5565b146132a4576132a290613545565b565b6132c76132b05f611e23565b5f918291631e4fbdf760e01b8352600483016108b9565b0390fd5b6132d490613266565b565b6132e7906132e261334b565b6132e9565b565b6132f490600b611931565b565b6132ff906132d6565b565b7f88be536d5240c274a3b1d3a1be54482fd9caa294f08c62a7cde569f49a3c450090565b61332d61151c565b506133476133416301ffc9a760e01b610499565b91610499565b1490565b61335361282d565b61336c6133666133616133fd565b6102b5565b916102b5565b0361337357565b61339561337e6133fd565b5f91829163118cdaa760e01b8352600483016108b9565b0390fd5b929190826133af6133a95f612274565b91610284565b146133f757836133ce6133c86133c3611972565b6102b5565b916102b5565b145f146133e357506133e09250613852565b5b565b91906133f293929091926137dd565b6133e1565b50505050565b613405612829565b503390565b93919290928361342a61342461341f5f611e23565b6102b5565b916102b5565b14613485578461344a61344461343f5f611e23565b6102b5565b916102b5565b1461345f5761345d9493909192936138a5565b565b61348161346b5f611e23565b5f918291626a0d4560e21b8352600483016108b9565b0390fd5b6134a86134915f611e23565b5f918291632bfa23e760e11b8352600483016108b9565b0390fd5b919290826134ca6134c46134bf5f611e23565b6102b5565b916102b5565b146134f2576134f0936134dc91613961565b906134e65f611e23565b93909192936138a5565b565b6135156134fe5f611e23565b5f918291632bfa23e760e11b8352600483016108b9565b0390fd5b9060208091613526612829565b50029101015190565b906020809161353c6114c2565b50029101015190565b61354d6135b1565b61356561355b5f8301611965565b915f849101611e6e565b906135996135937f8be0079c531659141344cd1fd0a4f28419497f9722a3daafe3b4186f6b6457e09361036e565b9161036e565b916135a2610272565b806135ac81610662565b0390a3565b7f9016d09d72d40fdae2fd8ceac6b6234c7706214fd39c1cd1e609a0528c19930090565b7ff0c57e16840df040f15088dc2f81fe391c3923bec73e23a9662efc9c229c6a0090565b61360a90613605613998565b61360c565b565b613615906139e9565b565b613620906135f9565b565b6136339061362e613998565b613635565b565b61363e90613a59565b565b61364990613622565b565b919091613656613301565b8361367161366b6136665f611e23565b6102b5565b916102b5565b146136e8576136989061369361368c600186930185906131a6565b8690610d77565b612f62565b9190916136e36136d16136cb7f17307eab39ab6107e8899845ad3d59bd9653f200f220920489ca2b5937696c319361036e565b9361036e565b936136da610272565b918291826104f8565b0390a3565b61370a6136f45f611e23565b5f91829162ced3e160e81b8352600483016108b9565b0390fd5b909293918361372d6137276137225f611e23565b6102b5565b916102b5565b14613792578161374d6137476137425f611e23565b6102b5565b916102b5565b1461376c5761376a9461375f91613961565b9193909192936138a5565b565b61378e6137785f611e23565b5f918291626a0d4560e21b8352600483016108b9565b0390fd5b6137b561379e5f611e23565b5f918291632bfa23e760e11b8352600483016108b9565b0390fd5b6137c290610362565b90565b6137ce90610346565b90565b6137da906137c5565b90565b9290806137f26137ec856102b5565b916102b5565b1461384c578061381261380c613807306137b9565b6102b5565b916102b5565b145f14613831575061382661382e936137d1565b919091613b1c565b5b565b9161383e613847946137d1565b92909192613acd565b61382f565b50505050565b61387f5f808385613861610272565b908161386c816119aa565b03925af16138786119d2565b50156104e6565b613887575050565b6138a15f928392635fdc4ec160e11b845260048401612f82565b0390fd5b929391936138b7848387908492613bde565b816138d26138cc6138c75f611e23565b6102b5565b916102b5565b036138df575b5050505050565b6138e76133fd565b916138f186610ca2565b6139046138fe6001611dc3565b91610284565b145f1461394b576139346139246139409761391e5f612274565b9061352f565b9261392e5f612274565b9061352f565b92949091929394614158565b5b5f808080806138d8565b61395c959192949091929394613fa8565b613941565b9161396a612205565b50613973612205565b5060405192600184526020840152604083019160018352602083015260408201604052565b6139a96139a36142b7565b156104e6565b6139af57565b5f631afcd79f60e31b8152806139c760048201610662565b0390fd5b6139dc906139d7613998565b6139de565b565b6139e7906142d5565b565b6139f2906139cb565b565b613a0590613a00613998565b613a07565b565b80613a22613a1c613a175f611e23565b6102b5565b916102b5565b14613a3257613a3090613545565b565b613a55613a3e5f611e23565b5f918291631e4fbdf760e01b8352600483016108b9565b0390fd5b613a62906139f4565b565b613a6d90610362565b90565b63ffffffff1690565b60e01b90565b613a93613a8e613a9892613a70565b613a79565b610499565b90565b604090613ac4613acb9496959396613aba60608401985f8501906108ac565b60208301906108ac565b01906103de565b565b613b1a9391613b06600494613b159394613aea6323b872dd613a7f565b93919091613af6610272565b9788956020870190815201613a9b565b60208201810382520383610568565b61440b565b565b91613b60600492613b51613b659593613b3863a9059cbb613a7f565b92613b41610272565b9687946020860190815201612f82565b60208201810382520383610568565b61440b565b565b613b9c613ba394613b92606094989795613b88608086019a5f8701906108ac565b60208501906103de565b60408301906103de565b01906103de565b565b90613bb09103610284565b90565b9091613bcd613bdb9360408401908482035f860152610cd9565b916020818403910152610cd9565b90565b9392919091613beb613301565b91613bf581610ca2565b613c0f613c09613c0485610ca2565b610284565b91610284565b03613e8f57613c1c6133fd565b94613c265f612274565b5b80613c42613c3c613c3786610ca2565b610284565b91610284565b1015613d8557613c5383829061352f565b613c5e85839061352f565b9089613c7a613c74613c6f5f611e23565b6102b5565b916102b5565b03613cec575b90613cae929188613ca1613c9b613c965f611e23565b6102b5565b916102b5565b03613cb3575b5050612290565b613c27565b613cdf613cd0613cc9613ce594935f8c01610330565b8b9061037a565b91613cda836114df565b611ddf565b90611931565b5f80613ca7565b613d0b613d06613cff5f8a018490610330565b8c9061037a565b6114df565b80613d1e613d1885610284565b91610284565b10613d5b5790613d52613d37613cae9594938490613ba5565b613d4d8d613d485f8d018690610330565b61037a565b611931565b90919250613c80565b90613d81908b9293613d6b610272565b9485946303dee4c560e01b865260048601613b67565b0390fd5b509591939250613d9481610ca2565b613da7613da16001611dc3565b91610284565b145f14613e3057613dc4613dd491613dbe5f612274565b9061352f565b93613dce5f612274565b9061352f565b9390919293613e15613e0f613e097fc3d58168c5ae7397731d063d5bbf3d657854427343f4c083240f7aacaa2d0f629461036e565b9461036e565b9461036e565b94613e2a613e21610272565b9283928361220e565b0390a45b565b929390919293613e72613e6c613e667f4a39dc06d4c0dbc64b70af90fd698a233a518aa5d07e595d983b8c0526c8f7fb9461036e565b9461036e565b9461036e565b94613e87613e7e610272565b92839283613bb3565b0390a4613e2e565b613e9b613ea191610ca2565b91610ca2565b90613ebc5f928392635b05999160e01b84526004840161220e565b0390fd5b613ec990610346565b90565b613ed590613ec0565b90565b613ee190610362565b90565b90505190613ef1826104a5565b565b90602082820312613f0c57613f09915f01613ee4565b90565b61027c565b5190565b60209181520190565b613f3d613f46602093613f4b93613f3481613f11565b93848093613f15565b958691016106c5565b61054a565b0190565b9390613f8990613fa59694613f7c613f9795613f7260a08a01945f8b01906108ac565b60208901906108ac565b8682036040880152610cd9565b908482036060860152610cd9565b916080818403910152613f1e565b90565b94909194939293853b613fc3613fbd5f612274565b91610284565b11613fd1575b505050505050565b5f61400d91614018602096613fed613fe88b613ecc565b613ed8565b9563bc197c81939799919091614001610272565b9a8b998a988997613a79565b875260048701613f4f565b03925af180915f926140d7575b50155f146140945750600161404157505b5f8080808080613fc9565b6140496119d2565b9061405382613f11565b61406561405f5f612274565b91610284565b145f1461408b57614087905f918291632bfa23e760e11b8352600483016108b9565b0390fd5b50805190602001fd5b6140ad6140a763bc197c8160e01b610499565b91610499565b036140b85750614036565b6140d3905f918291632bfa23e760e11b8352600483016108b9565b0390fd5b6140f991925060203d8111614100575b6140f18183610568565b810190613ef3565b905f614025565b503d6140e7565b919361413e6141559694614134614148949761412a60a08801995f8901906108ac565b60208701906108ac565b60408501906103de565b60608301906103de565b6080818403910152613f1e565b90565b94909194939293853b61417361416d5f612274565b91610284565b11614181575b505050505050565b5f6141bd916141c860209661419d6141988b613ecc565b613ed8565b9563f23a6e619397999190916141b1610272565b9a8b998a988997613a79565b875260048701614107565b03925af180915f92614287575b50155f14614244575060016141f157505b5f8080808080614179565b6141f96119d2565b9061420382613f11565b61421561420f5f612274565b91610284565b145f1461423b57614237905f918291632bfa23e760e11b8352600483016108b9565b0390fd5b50805190602001fd5b61425d61425763f23a6e6160e01b610499565b91610499565b0361426857506141e6565b614283905f918291632bfa23e760e11b8352600483016108b9565b0390fd5b6142a991925060203d81116142b0575b6142a18183610568565b810190613ef3565b905f6141d5565b503d614297565b6142bf61151c565b506142d25f6142cc6135d5565b01612865565b90565b6142e99060026142e3613301565b016117ba565b565b5f7f5361666545524332303a206c6f772d6c6576656c2063616c6c206661696c6564910152565b61431c6020611e8e565b90614329602083016142eb565b565b614333614312565b90565b905051906143438261106a565b565b9060208282031261435e5761435b915f01614336565b90565b61027c565b60207f6f74207375636365656400000000000000000000000000000000000000000000917f5361666545524332303a204552433230206f7065726174696f6e20646964206e5f8201520152565b6143bd602a6040926106bc565b6143c681614363565b0190565b6143df9060208101905f8183039101526143b0565b90565b156143e957565b6143f1610272565b62461bcd60e51b815280614407600482016143ca565b0390fd5b9061441861442792613a64565b9061442161432b565b91614473565b61443081613f11565b61444261443c5f612274565b91610284565b1161444b575b50565b61446861446d91602061445d82613f11565b818301019101614345565b6143e2565b5f614448565b9061449292916144816119cd565b509061448c5f612274565b91614549565b90565b61449e90610362565b90565b60207f722063616c6c0000000000000000000000000000000000000000000000000000917f416464726573733a20696e73756666696369656e742062616c616e636520666f5f8201520152565b6144fb60266040926106bc565b614504816144a1565b0190565b61451d9060208101905f8183039101526144ee565b90565b1561452757565b61452f610272565b62461bcd60e51b81528061454560048201614508565b0390fd5b915f809161459f959361455a6119cd565b5061458161456730614495565b3161457a61457485610284565b91610284565b1015614520565b8591602082019151925af1916145956119d2565b9092909192614624565b90565b5f7f416464726573733a2063616c6c20746f206e6f6e2d636f6e7472616374000000910152565b6145d6601d6020926106bc565b6145df816145a2565b0190565b6145f89060208101905f8183039101526145c9565b90565b1561460257565b61460a610272565b62461bcd60e51b815280614620600482016145e3565b0390fd5b91929061462f6119cd565b505f14614673575061464082613f11565b61465261464c5f612274565b91610284565b1461465c575b5090565b61466861466d916146c5565b6145fb565b5f614658565b829061467e82613f11565b61469061468a5f612274565b91610284565b115f146146a05750805190602001fd5b6146c1906146ac610272565b91829162461bcd60e51b835260048301610701565b0390fd5b6146cd61151c565b503b6146e16146db5f612274565b91610284565b119056fea26469706673582212209940308e979a7dcbd32ff333c6b7574d6a302d7e00a83118f2ee2d39e709f1b064736f6c634300081c0033","linkReferences":{}},"methodIdentifiers":{"affiliateReferrals(address)":"d88053e9","balanceOf(address,uint256)":"00fdd58e","balanceOfBatch(address[],uint256[])":"4e1273f4","calculateRequiredBudget()":"5ca2a204","claimEnd()":"3ccfa92f","claimStart()":"f04d688f","currencyAddress()":"1c1cb323","customClaim(address)":"47a395fd","fee()":"ddca3f43","getAvailableBudget()":"b328a4d3","initialize(string,uint256,uint256,uint256,uint256,uint256,address,uint256,uint256,address)":"95e74bc7","isAffiliate(address)":"4fa85186","isApprovedForAll(address,address)":"e985e9c5","lockBudget(uint256)":"c4a0e40c","lockedBudget()":"15eb2954","maxSupply()":"d5abeb01","owner()":"8da5cb5b","redeemCoupon(address)":"74d8f48e","redeemExpiration()":"1b3dad64","redeemedQuantities(uint256,address)":"0007476c","redeemedTokenCount(uint256)":"7057b941","registerAffiliate()":"becf0426","renounceOwnership()":"715018a6","safeBatchTransferFrom(address,address,uint256[],uint256[],bytes)":"2eb2c2d6","safeTransferFrom(address,address,uint256,uint256,bytes)":"f242432a","setApprovalForAll(address,bool)":"a22cb465","setLockedBudgetForTesting(uint256)":"ffa3816a","setURI(string)":"02fe5305","supportsInterface(bytes4)":"01ffc9a7","tokenId()":"17d70f7c","tokenOwnerAffiliates(uint256,address)":"bf396c23","tokensWithAffiliates()":"74f5a9f9","totalSupply()":"18160ddd","transferOwnership(address)":"f2fde38b","uri(uint256)":"0e89341c","verifyClaim(address)":"a80d520c","withdrawBudget(uint256)":"2cc81a61"},"id":0}