{"abi":[{"type":"constructor","inputs":[{"name":"_implementation","type":"address","internalType":"address"}],"stateMutability":"nonpayable"},{"type":"function","name":"NO_PROJECT_ID","inputs":[],"outputs":[{"name":"","type":"uint256","internalType":"uint256"}],"stateMutability":"view"},{"type":"function","name":"TOKEN_ID","inputs":[],"outputs":[{"name":"","type":"uint256","internalType":"uint256"}],"stateMutability":"view"},{"type":"function","name":"couponToProject","inputs":[{"name":"","type":"address","internalType":"address"}],"outputs":[{"name":"","type":"uint256","internalType":"uint256"}],"stateMutability":"view"},{"type":"function","name":"createLazyMint","inputs":[{"name":"_projectId","type":"uint256","internalType":"uint256"},{"name":"_projectName","type":"string","internalType":"string"},{"name":"_uri","type":"string","internalType":"string"},{"name":"_maxSupply","type":"uint256","internalType":"uint256"},{"name":"_claimStart","type":"uint256","internalType":"uint256"},{"name":"_claimEnd","type":"uint256","internalType":"uint256"},{"name":"_redeemExpiration","type":"uint256","internalType":"uint256"},{"name":"_lockedBudget","type":"uint256","internalType":"uint256"},{"name":"_currencyAddress","type":"address","internalType":"address"},{"name":"_fee","type":"uint256","internalType":"uint256"},{"name":"_salt","type":"bytes32","internalType":"bytes32"}],"outputs":[{"name":"","type":"address","internalType":"address"}],"stateMutability":"payable"},{"type":"function","name":"createProject","inputs":[{"name":"_name","type":"string","internalType":"string"}],"outputs":[{"name":"","type":"uint256","internalType":"uint256"}],"stateMutability":"nonpayable"},{"type":"function","name":"getCouponProject","inputs":[{"name":"_couponAddress","type":"address","internalType":"address"}],"outputs":[{"name":"","type":"uint256","internalType":"uint256"}],"stateMutability":"view"},{"type":"function","name":"getProjectCoupons","inputs":[{"name":"_projectId","type":"uint256","internalType":"uint256"}],"outputs":[{"name":"","type":"address[]","internalType":"address[]"}],"stateMutability":"view"},{"type":"function","name":"implementation","inputs":[],"outputs":[{"name":"","type":"address","internalType":"address"}],"stateMutability":"view"},{"type":"function","name":"owner","inputs":[],"outputs":[{"name":"","type":"address","internalType":"address"}],"stateMutability":"view"},{"type":"function","name":"predictCouponAddress","inputs":[{"name":"_salt","type":"bytes32","internalType":"bytes32"}],"outputs":[{"name":"","type":"address","internalType":"address"}],"stateMutability":"view"},{"type":"function","name":"projectCount","inputs":[],"outputs":[{"name":"","type":"uint256","internalType":"uint256"}],"stateMutability":"view"},{"type":"function","name":"projects","inputs":[{"name":"","type":"uint256","internalType":"uint256"}],"outputs":[{"name":"name","type":"string","internalType":"string"},{"name":"owner","type":"address","internalType":"address"},{"name":"createdAt","type":"uint256","internalType":"uint256"}],"stateMutability":"view"},{"type":"function","name":"renounceOwnership","inputs":[],"outputs":[],"stateMutability":"nonpayable"},{"type":"function","name":"transferOwnership","inputs":[{"name":"newOwner","type":"address","internalType":"address"}],"outputs":[],"stateMutability":"nonpayable"},{"type":"function","name":"updateImplementation","inputs":[{"name":"_newImplementation","type":"address","internalType":"address"}],"outputs":[],"stateMutability":"nonpayable"},{"type":"function","name":"updateProject","inputs":[{"name":"_projectId","type":"uint256","internalType":"uint256"},{"name":"_name","type":"string","internalType":"string"}],"outputs":[],"stateMutability":"nonpayable"},{"type":"event","name":"ImplementationUpdated","inputs":[{"name":"oldImplementation","type":"address","indexed":true,"internalType":"address"},{"name":"newImplementation","type":"address","indexed":true,"internalType":"address"}],"anonymous":false},{"type":"event","name":"LazyMintDeployed","inputs":[{"name":"creator","type":"address","indexed":true,"internalType":"address"},{"name":"lazyMintAddress","type":"address","indexed":false,"internalType":"address"},{"name":"uri","type":"string","indexed":false,"internalType":"string"},{"name":"maxSupply","type":"uint256","indexed":false,"internalType":"uint256"},{"name":"claimStart","type":"uint256","indexed":false,"internalType":"uint256"},{"name":"claimEnd","type":"uint256","indexed":false,"internalType":"uint256"},{"name":"redeemExpiration","type":"uint256","indexed":false,"internalType":"uint256"},{"name":"lockedBudget","type":"uint256","indexed":false,"internalType":"uint256"},{"name":"currencyAddress","type":"address","indexed":false,"internalType":"address"},{"name":"tokenId","type":"uint256","indexed":false,"internalType":"uint256"},{"name":"fee","type":"uint256","indexed":false,"internalType":"uint256"},{"name":"projectId","type":"uint256","indexed":true,"internalType":"uint256"}],"anonymous":false},{"type":"event","name":"OwnershipTransferred","inputs":[{"name":"previousOwner","type":"address","indexed":true,"internalType":"address"},{"name":"newOwner","type":"address","indexed":true,"internalType":"address"}],"anonymous":false},{"type":"event","name":"ProjectCreated","inputs":[{"name":"projectId","type":"uint256","indexed":true,"internalType":"uint256"},{"name":"owner","type":"address","indexed":true,"internalType":"address"},{"name":"name","type":"string","indexed":false,"internalType":"string"}],"anonymous":false},{"type":"event","name":"ProjectUpdated","inputs":[{"name":"projectId","type":"uint256","indexed":true,"internalType":"uint256"},{"name":"owner","type":"address","indexed":true,"internalType":"address"},{"name":"name","type":"string","indexed":false,"internalType":"string"}],"anonymous":false},{"type":"error","name":"FailedDeployment","inputs":[]},{"type":"error","name":"FeeMustBeSetWithBudget","inputs":[]},{"type":"error","name":"ImplementationNotSet","inputs":[]},{"type":"error","name":"InsufficientBalance","inputs":[{"name":"balance","type":"uint256","internalType":"uint256"},{"name":"needed","type":"uint256","internalType":"uint256"}]},{"type":"error","name":"MaxSupplyMustBeGreaterThanZero","inputs":[]},{"type":"error","name":"NotProjectOwner","inputs":[]},{"type":"error","name":"OwnableInvalidOwner","inputs":[{"name":"owner","type":"address","internalType":"address"}]},{"type":"error","name":"OwnableUnauthorizedAccount","inputs":[{"name":"account","type":"address","internalType":"address"}]},{"type":"error","name":"ProjectDoesNotExist","inputs":[]}],"bytecode":{"object":"0x60806040523461002f576100196100146100f4565b6101bf565b610021610034565b611be961032d8239611be990f35b61003a565b60405190565b5f80fd5b601f801991011690565b634e487b7160e01b5f52604160045260245ffd5b906100669061003e565b810190811060018060401b0382111761007e57604052565b610048565b9061009661008f610034565b928361005c565b565b5f80fd5b60018060a01b031690565b6100b09061009c565b90565b6100bc816100a7565b036100c357565b5f80fd5b905051906100d4826100b3565b565b906020828203126100ef576100ec915f016100c7565b90565b610098565b610112611f168038038061010781610083565b9283398101906100d6565b90565b5f1b90565b9061012b60018060a01b0391610115565b9181191691161790565b90565b61014c6101476101519261009c565b610135565b61009c565b90565b61015d90610138565b90565b61016990610154565b90565b90565b9061018461017f61018b92610160565b61016c565b825461011a565b9055565b90565b6101a66101a16101ab9261018f565b610135565b61009c565b90565b6101b790610192565b90565b5f0190565b6101c83361024a565b6101d381600161016f565b6101dc5f6101ae565b9061021061020a7faa3f731066a578e5f39b4215468d826cdd15373cbc0dfc9cb9bdc649718ef7da93610160565b91610160565b91610219610034565b80610223816101ba565b0390a3565b610231906100a7565b9052565b9190610248905f60208501940190610228565b565b8061026561025f61025a5f6101ae565b6100a7565b916100a7565b1461027557610273906102cd565b565b6102986102815f6101ae565b5f918291631e4fbdf760e01b835260048301610235565b0390fd5b5f1c90565b60018060a01b031690565b6102b86102bd9161029c565b6102a1565b90565b6102ca90546102ac565b90565b6102d65f6102c0565b6102e0825f61016f565b9061031461030e7f8be0079c531659141344cd1fd0a4f28419497f9722a3daafe3b4186f6b6457e093610160565b91610160565b9161031d610034565b80610327816101ba565b0390a356fe60a06040526004361015610013575b610bf9565b61001d5f3561011c565b8063018e2b2a14610117578063025b22bc14610112578063107046bd1461010d57806315ee4df11461010857806336fbad261461010357806342c64442146100fe5780635c60da1b146100f95780636e08547b146100f4578063715018a6146100ef57806389a89002146100ea5780638da5cb5b146100e5578063bbc3a7f3146100e0578063bc502f39146100db578063cd8cf88f146100d6578063f2fde38b146100d15763f44951590361000e57610bc4565b610b81565b610b4c565b610a75565b610963565b6108e9565b6108b4565b61084b565b610816565b61077e565b610714565b610686565b610609565b6104f8565b6101eb565b6101b1565b60e01c90565b60405190565b5f80fd5b5f80fd5b5f80fd5b60018060a01b031690565b61014890610134565b90565b6101548161013f565b0361015b57565b5f80fd5b9050359061016c8261014b565b565b9060208282031261018757610184915f0161015f565b90565b61012c565b90565b6101989061018c565b9052565b91906101af905f6020850194019061018f565b565b346101e1576101dd6101cc6101c736600461016e565b610c01565b6101d4610122565b9182918261019c565b0390f35b610128565b5f0190565b34610219576102036101fe36600461016e565b610cd7565b61020b610122565b80610215816101e6565b0390f35b610128565b6102278161018c565b0361022e57565b5f80fd5b9050359061023f8261021e565b565b9060208282031261025a57610257915f01610232565b90565b61012c565b90565b61027661027161027b9261018c565b61025f565b61018c565b90565b9061028890610262565b5f5260205260405f2090565b634e487b7160e01b5f52602260045260245ffd5b90600160028304921680156102c8575b60208310146102c357565b610294565b91607f16916102b8565b60209181520190565b5f5260205f2090565b905f92918054906102fe6102f7836102a8565b80946102d2565b916001811690815f146103555750600114610319575b505050565b61032691929394506102db565b915f925b81841061033d57505001905f8080610314565b6001816020929593955484860152019101929061032a565b92949550505060ff19168252151560200201905f8080610314565b9061037a916102e4565b90565b601f801991011690565b634e487b7160e01b5f52604160045260245ffd5b906103a59061037d565b810190811067ffffffffffffffff8211176103bf57604052565b610387565b906103e46103dd926103d4610122565b93848092610370565b038361039b565b565b5f1c90565b60018060a01b031690565b610402610407916103e6565b6103eb565b90565b61041490546103f6565b90565b90565b61042661042b916103e6565b610417565b90565b610438905461041a565b90565b61044690600261027e565b6104515f82016103c4565b9161046a60036104636001850161040a565b930161042e565b90565b5190565b60209181520190565b90825f9392825e0152565b6104a46104ad6020936104b29361049b8161046d565b93848093610471565b9586910161047a565b61037d565b0190565b6104bf9061013f565b9052565b6040906104ef6104e46104f69597969460608401908482035f860152610485565b9660208301906104b6565b019061018f565b565b3461052b5761052761051361050e366004610241565b61043b565b61051e939193610122565b938493846104c3565b0390f35b610128565b5f80fd5b5f80fd5b9061054b610544610122565b928361039b565b565b67ffffffffffffffff811161056b5761056760209161037d565b0190565b610387565b90825f939282370152565b9092919261059061058b8261054d565b610538565b938185526020850190828401116105ac576105aa92610570565b565b610534565b9080601f830112156105cf578160206105cc9335910161057b565b90565b610530565b90602082820312610604575f82013567ffffffffffffffff81116105ff576105fc92016105b1565b90565b610130565b61012c565b346106395761063561062461061f3660046105d4565b610f47565b61062c610122565b9182918261019c565b0390f35b610128565b5f91031261064857565b61012c565b1c90565b610661906008610666930261064d565b610417565b90565b906106749154610651565b90565b61068360045f90610669565b90565b346106b65761069636600461063e565b6106b26106a1610677565b6106a9610122565b9182918261019c565b0390f35b610128565b90565b6106c7816106bb565b036106ce57565b5f80fd5b905035906106df826106be565b565b906020828203126106fa576106f7915f016106d2565b90565b61012c565b9190610712905f602085019401906104b6565b565b346107445761074061072f61072a3660046106e1565b611014565b610737610122565b918291826106ff565b0390f35b610128565b61075990600861075e930261064d565b6103eb565b90565b9061076c9154610749565b90565b61077b60015f90610761565b90565b346107ae5761078e36600461063e565b6107aa61079961076f565b6107a1610122565b918291826106ff565b0390f35b610128565b6107c76107c26107cc92610134565b61025f565b610134565b90565b6107d8906107b3565b90565b6107e4906107cf565b90565b906107f1906107db565b5f5260205260405f2090565b6108139061080e6003915f926107e7565b610669565b90565b346108465761084261083161082c36600461016e565b6107fd565b610839610122565b9182918261019c565b0390f35b610128565b346108795761085b36600461063e565b61086361108b565b61086b610122565b80610875816101e6565b0390f35b610128565b90565b61089561089061089a9261087e565b61025f565b61018c565b90565b6108a65f610881565b90565b6108b161089d565b90565b346108e4576108c436600461063e565b6108e06108cf6108a9565b6108d7610122565b9182918261019c565b0390f35b610128565b34610919576108f936600461063e565b610915610904611095565b61090c610122565b918291826106ff565b0390f35b610128565b91909160408184031261095e57610937835f8301610232565b92602082013567ffffffffffffffff81116109595761095692016105b1565b90565b610130565b61012c565b346109925761097c61097636600461091e565b906110aa565b610984610122565b8061098e816101e6565b0390f35b610128565b919061016083820312610a70576109b0815f8501610232565b92602081013567ffffffffffffffff8111610a6b57826109d19183016105b1565b92604082013567ffffffffffffffff8111610a6657836109f29184016105b1565b92610a008160608501610232565b92610a0e8260808301610232565b92610a1c8360a08401610232565b92610a2a8160c08501610232565b92610a388260e08301610232565b92610a63610a4a84610100850161015f565b93610a59816101208601610232565b93610140016106d2565b90565b610130565b610130565b61012c565b610aa9610a98610a86366004610997565b99989098979197969296959395611409565b610aa0610122565b918291826106ff565b0390f35b5190565b60209181520190565b60200190565b610ac99061013f565b9052565b90610ada81602093610ac0565b0190565b60200190565b90610b01610afb610af484610aad565b8093610ab1565b92610aba565b905f5b818110610b115750505090565b909192610b2a610b246001928651610acd565b94610ade565b9101919091610b04565b610b499160208201915f818403910152610ae4565b90565b34610b7c57610b78610b67610b62366004610241565b6117e1565b610b6f610122565b91829182610b34565b0390f35b610128565b34610baf57610b99610b9436600461016e565b6118a5565b610ba1610122565b80610bab816101e6565b0390f35b610128565b5f1990565b610bc1610bb4565b90565b34610bf457610bd436600461063e565b610bf0610bdf610bb9565b610be7610122565b9182918261019c565b0390f35b610128565b5f80fd5b5f90565b610c18610c1d91610c10610bfd565b5060036107e7565b61042e565b90565b610c3190610c2c6118b0565b610c76565b565b5f1b90565b90610c4960018060a01b0391610c33565b9181191691161790565b90565b90610c6b610c66610c72926107db565b610c53565b8254610c38565b9055565b610c80600161040a565b610c8b826001610c56565b90610cbf610cb97faa3f731066a578e5f39b4215468d826cdd15373cbc0dfc9cb9bdc649718ef7da936107db565b916107db565b91610cc8610122565b80610cd2816101e6565b0390a3565b610ce090610c20565b565b90565b601f602091010490565b1b90565b91906008610d0e910291610d085f1984610cef565b92610cef565b9181191691161790565b90565b9190610d31610d2c610d3993610262565b610d18565b908354610cf3565b9055565b610d4f91610d49610bfd565b91610d1b565b565b5b818110610d5d575050565b80610d6a5f600193610d3d565b01610d52565b9190601f8111610d80575b505050565b610d8c610db1936102db565b906020610d9884610ce5565b83019310610db9575b610daa90610ce5565b0190610d51565b5f8080610d7b565b9150610daa81929050610da1565b90610dd7905f199060080261064d565b191690565b81610de691610dc7565b906002021790565b90610df88161046d565b9067ffffffffffffffff8211610eb857610e1c82610e1685546102a8565b85610d70565b602090601f8311600114610e5057918091610e3f935f92610e44575b5050610ddc565b90555b565b90915001515f80610e38565b601f19831691610e5f856102db565b925f5b818110610ea057509160029391856001969410610e86575b50505002019055610e42565b610e96910151601f841690610dc7565b90555f8080610e7a565b91936020600181928787015181550195019201610e62565b610387565b90610ec791610dee565b565b90610ed55f1991610c33565b9181191691161790565b90610ef4610eef610efb92610262565b610d18565b8254610ec9565b9055565b634e487b7160e01b5f52601160045260245ffd5b610f1c9061018c565b5f198114610f2a5760010190565b610eff565b610f449160208201915f818403910152610485565b90565b610f4f610bfd565b50610f5a600461042e565b90610f95610f72610f6d6002859061027e565b610ce2565b610f7e835f8301610ebd565b610f8b3360018301610c56565b6003429101610edf565b610fb1610faa610fa5600461042e565b610f13565b6004610edf565b8190339091610ffe610fec610fe67f9d9ec461f162f3f4fdb9f6d189bfe13c59e48d8acd23a4c3bfcf7cc0fe4e84ed93610262565b936107db565b93610ff5610122565b91829182610f2f565b0390a390565b5f90565b611011906107cf565b90565b61103b90611020611004565b5061102b600161040a565b9061103530611008565b916118fe565b90565b6110466118b0565b61104e611078565b565b61106461105f6110699261087e565b61025f565b610134565b90565b61107590611050565b90565b6110896110845f61106c565b611965565b565b61109361103e565b565b61109d611004565b506110a75f61040a565b90565b806110c66110c06110bb600461042e565b61018c565b9161018c565b1015611187576110e360016110dd6002849061027e565b0161040a565b6110f56110ef3361013f565b9161013f565b0361116b5761111a61111161110c6002849061027e565b610ce2565b5f849101610ebd565b9033909161116661115461114e7fc5415528ee86488fe1f477421de501f322736399c3109615bf3be675485a928b93610262565b936107db565b9361115d610122565b91829182610f2f565b0390a3565b5f637c2411e960e01b815280611183600482016101e6565b0390fd5b5f6338fde52b60e01b81528061119f600482016101e6565b0390fd5b6111ac906107b3565b90565b6111b8906111a3565b90565b6111c4906107b3565b90565b6111d0906111bb565b90565b6111dc906107cf565b90565b5f80fd5b60e01b90565b5f9103126111f357565b61012c565b979593919a99989694929061014089018981035f8b015261121891610485565b9a602089016112269161018f565b604088016112339161018f565b606087016112409161018f565b6080860161124d9161018f565b60a0850161125a9161018f565b60c08401611267916104b6565b60e083016112749161018f565b61010082016112829161018f565b6101200161128f916104b6565b565b611299610122565b3d5f823e3d90fd5b90565b5f5260205f2090565b634e487b7160e01b5f52603260045260245ffd5b5490565b6112ce816112c1565b8210156112e8576112e06001916112a4565b910201905f90565b6112ad565b9190600861130d91029161130760018060a01b0384610cef565b92610cef565b9181191691161790565b919061132d611328611335936107db565b610c53565b9083546112ed565b9055565b90815491680100000000000000008310156113695782611361916001611367950181556112c5565b90611317565b565b610387565b97959391909a99989694929a6101408901905f8a0161138c916104b6565b88810360208a015261139d91610485565b99604088016113ab9161018f565b606087016113b89161018f565b608086016113c59161018f565b60a085016113d29161018f565b60c084016113df9161018f565b60e083016113ec916104b6565b61010082016113fa9161018f565b610120016114079161018f565b565b909992959998919497939861141c611004565b50611427600161040a565b61144161143b6114365f61106c565b61013f565b9161013f565b146117055761144e610bfd565b508161146961146361145e610bb4565b61018c565b9161018c565b145f146116765761147a91506119c4565b915b8561148f6114895f610881565b9161018c565b111561165a57866114a86114a25f610881565b9161018c565b1180611640575b611624576114c6906114c1600161040a565b611a81565b986114e06114db6114d68c6111af565b6111c7565b6111d3565b6395e74bc79034879289938d8d8d88908c916114fa61089d565b938c958a3b1561161f575f9b61151d61152e9a611515610122565b6080526111e3565b6080515233986004608051016111f8565b9160805192608051900391608051915af193841561161a576115de946115e4575b61156f611568600261156281889061027e565b016112a1565b8c90611339565b6115838461157e8d60036107e7565b610edf565b33978b96979a999290919261159661089d565b94959a6115cc6115c67fb0d2e457bcb08670e640ae345c7a03d7e41de4d24bfeafda0dfec84077e07df59c6107db565b9c610262565b9c6115d5610122565b9a8b9a8b61136e565b0390a390565b5f3d811161160e575b806115fd6116099260805161039b565b608051016080516111e9565b61154f565b506116093d90506115ed565b611291565b6111df565b5f63938693cf60e01b81528061163c600482016101e6565b0390fd5b508161165461164e5f610881565b9161018c565b146114af565b5f63ad03f1cd60e01b815280611672600482016101e6565b0390fd5b508061169361168d611688600461042e565b61018c565b9161018c565b10156116e9576116b060016116aa6002849061027e565b0161040a565b6116c26116bc3361013f565b9161013f565b036116cd579161147c565b5f637c2411e960e01b8152806116e5600482016101e6565b0390fd5b5f6338fde52b60e01b815280611701600482016101e6565b0390fd5b5f6340dde93560e01b81528061171d600482016101e6565b0390fd5b606090565b5490565b60209181520190565b5f5260205f2090565b61174690546103f6565b90565b60010190565b9061176c61176661175f84611726565b809361172a565b92611733565b905f5b81811061177c5750505090565b90919261179c6117966001926117918761173c565b610acd565b94611749565b910191909161176f565b906117b09161174f565b90565b906117d36117cc926117c3610122565b938480926117a6565b038361039b565b565b6117de906117b3565b90565b6117e9611721565b50806118066118006117fb600461042e565b61018c565b9161018c565b101561182457600261181b611821928261027e565b016117d5565b90565b5f6338fde52b60e01b81528061183c600482016101e6565b0390fd5b6118519061184c6118b0565b611853565b565b8061186e6118686118635f61106c565b61013f565b9161013f565b1461187e5761187c90611965565b565b6118a161188a5f61106c565b5f918291631e4fbdf760e01b8352600483016106ff565b0390fd5b6118ae90611840565b565b6118b8611095565b6118d16118cb6118c6611aa2565b61013f565b9161013f565b036118d857565b6118fa6118e3611aa2565b5f91829163118cdaa760e01b8352600483016106ff565b0390fd5b611906611004565b506040519260388401526f5af43d82803e903d91602b57fd5bf3ff60248401526014830152733d602d80600a3d3981f3363d3d373d3d3d363d73825260588201526037600c82012060788201526055604360018060a01b039201201690565b61196e5f61040a565b611978825f610c56565b906119ac6119a67f8be0079c531659141344cd1fd0a4f28419497f9722a3daafe3b4186f6b6457e0936107db565b916107db565b916119b5610122565b806119bf816101e6565b0390a3565b6119cc610bfd565b506119d7600461042e565b90611a126119ef6119ea6002859061027e565b610ce2565b6119fb835f8301610ebd565b611a083360018301610c56565b6003429101610edf565b611a2e611a27611a22600461042e565b610f13565b6004610edf565b8190339091611a7b611a69611a637f9d9ec461f162f3f4fdb9f6d189bfe13c59e48d8acd23a4c3bfcf7cc0fe4e84ed93610262565b936107db565b93611a72610122565b91829182610f2f565b0390a390565b90611a9f91611a8e611004565b5090611a995f610881565b91611ade565b90565b611aaa611004565b503390565b611ab8906107cf565b90565b916020611adc929493611ad560408201965f83019061018f565b019061018f565b565b919091611ae9611004565b50611af330611aaf565b31611b06611b008461018c565b9161018c565b10611b8a576037916e5af43d82803e903d91602b57fd5bf382763d602d80600a3d3981f3363d3d373d3d3d363d7300000060099460601b60e81c175f5260781b17602052f59081611b67611b61611b5c5f61106c565b61013f565b9161013f565b14611b6e57565b5f63b06ebf3d60e01b815280611b86600482016101e6565b0390fd5b50611b9430611aaf565b31611baf5f92839263cf47918160e01b845260048401611abb565b0390fdfea26469706673582212200ff3f6289b04f88d011f2d57d8e26ce1a3f57d8ddcca8c3cde544a49717551a964736f6c634300081c0033","linkReferences":{}},"methodIdentifiers":{"NO_PROJECT_ID()":"f4495159","TOKEN_ID()":"89a89002","couponToProject(address)":"6e08547b","createLazyMint(uint256,string,string,uint256,uint256,uint256,uint256,uint256,address,uint256,bytes32)":"bc502f39","createProject(string)":"15ee4df1","getCouponProject(address)":"018e2b2a","getProjectCoupons(uint256)":"cd8cf88f","implementation()":"5c60da1b","owner()":"8da5cb5b","predictCouponAddress(bytes32)":"42c64442","projectCount()":"36fbad26","projects(uint256)":"107046bd","renounceOwnership()":"715018a6","transferOwnership(address)":"f2fde38b","updateImplementation(address)":"025b22bc","updateProject(uint256,string)":"bbc3a7f3"},"id":1}