{
  "_format": "hh-sol-artifact-1",
  "contractName": "OpenBitcoinCredit",
  "sourceName": "contracts/OpenBitcoinCredit.sol",
  "abi": [
    {
      "inputs": [
        {
          "internalType": "address",
          "name": "defaultAdmin",
          "type": "address"
        },
        {
          "internalType": "address",
          "name": "pauser",
          "type": "address"
        },
        {
          "internalType": "address",
          "name": "minter",
          "type": "address"
        }
      ],
      "stateMutability": "nonpayable",
      "type": "constructor"
    },
    {
      "inputs": [],
      "name": "AccessControlBadConfirmation",
      "type": "error"
    },
    {
      "inputs": [
        {
          "internalType": "address",
          "name": "account",
          "type": "address"
        },
        {
          "internalType": "bytes32",
          "name": "neededRole",
          "type": "bytes32"
        }
      ],
      "name": "AccessControlUnauthorizedAccount",
      "type": "error"
    },
    {
      "inputs": [],
      "name": "CheckpointUnorderedInsertion",
      "type": "error"
    },
    {
      "inputs": [],
      "name": "ECDSAInvalidSignature",
      "type": "error"
    },
    {
      "inputs": [
        {
          "internalType": "uint256",
          "name": "length",
          "type": "uint256"
        }
      ],
      "name": "ECDSAInvalidSignatureLength",
      "type": "error"
    },
    {
      "inputs": [
        {
          "internalType": "bytes32",
          "name": "s",
          "type": "bytes32"
        }
      ],
      "name": "ECDSAInvalidSignatureS",
      "type": "error"
    },
    {
      "inputs": [
        {
          "internalType": "uint256",
          "name": "increasedSupply",
          "type": "uint256"
        },
        {
          "internalType": "uint256",
          "name": "cap",
          "type": "uint256"
        }
      ],
      "name": "ERC20ExceededSafeSupply",
      "type": "error"
    },
    {
      "inputs": [
        {
          "internalType": "address",
          "name": "spender",
          "type": "address"
        },
        {
          "internalType": "uint256",
          "name": "allowance",
          "type": "uint256"
        },
        {
          "internalType": "uint256",
          "name": "needed",
          "type": "uint256"
        }
      ],
      "name": "ERC20InsufficientAllowance",
      "type": "error"
    },
    {
      "inputs": [
        {
          "internalType": "address",
          "name": "sender",
          "type": "address"
        },
        {
          "internalType": "uint256",
          "name": "balance",
          "type": "uint256"
        },
        {
          "internalType": "uint256",
          "name": "needed",
          "type": "uint256"
        }
      ],
      "name": "ERC20InsufficientBalance",
      "type": "error"
    },
    {
      "inputs": [
        {
          "internalType": "address",
          "name": "approver",
          "type": "address"
        }
      ],
      "name": "ERC20InvalidApprover",
      "type": "error"
    },
    {
      "inputs": [
        {
          "internalType": "address",
          "name": "receiver",
          "type": "address"
        }
      ],
      "name": "ERC20InvalidReceiver",
      "type": "error"
    },
    {
      "inputs": [
        {
          "internalType": "address",
          "name": "sender",
          "type": "address"
        }
      ],
      "name": "ERC20InvalidSender",
      "type": "error"
    },
    {
      "inputs": [
        {
          "internalType": "address",
          "name": "spender",
          "type": "address"
        }
      ],
      "name": "ERC20InvalidSpender",
      "type": "error"
    },
    {
      "inputs": [
        {
          "internalType": "uint256",
          "name": "deadline",
          "type": "uint256"
        }
      ],
      "name": "ERC2612ExpiredSignature",
      "type": "error"
    },
    {
      "inputs": [
        {
          "internalType": "address",
          "name": "signer",
          "type": "address"
        },
        {
          "internalType": "address",
          "name": "owner",
          "type": "address"
        }
      ],
      "name": "ERC2612InvalidSigner",
      "type": "error"
    },
    {
      "inputs": [
        {
          "internalType": "uint256",
          "name": "timepoint",
          "type": "uint256"
        },
        {
          "internalType": "uint48",
          "name": "clock",
          "type": "uint48"
        }
      ],
      "name": "ERC5805FutureLookup",
      "type": "error"
    },
    {
      "inputs": [],
      "name": "ERC6372InconsistentClock",
      "type": "error"
    },
    {
      "inputs": [],
      "name": "EnforcedPause",
      "type": "error"
    },
    {
      "inputs": [],
      "name": "ExpectedPause",
      "type": "error"
    },
    {
      "inputs": [
        {
          "internalType": "address",
          "name": "account",
          "type": "address"
        },
        {
          "internalType": "uint256",
          "name": "currentNonce",
          "type": "uint256"
        }
      ],
      "name": "InvalidAccountNonce",
      "type": "error"
    },
    {
      "inputs": [],
      "name": "InvalidShortString",
      "type": "error"
    },
    {
      "inputs": [
        {
          "internalType": "uint8",
          "name": "bits",
          "type": "uint8"
        },
        {
          "internalType": "uint256",
          "name": "value",
          "type": "uint256"
        }
      ],
      "name": "SafeCastOverflowedUintDowncast",
      "type": "error"
    },
    {
      "inputs": [
        {
          "internalType": "string",
          "name": "str",
          "type": "string"
        }
      ],
      "name": "StringTooLong",
      "type": "error"
    },
    {
      "inputs": [
        {
          "internalType": "uint256",
          "name": "expiry",
          "type": "uint256"
        }
      ],
      "name": "VotesExpiredSignature",
      "type": "error"
    },
    {
      "anonymous": false,
      "inputs": [
        {
          "indexed": true,
          "internalType": "address",
          "name": "owner",
          "type": "address"
        },
        {
          "indexed": true,
          "internalType": "address",
          "name": "spender",
          "type": "address"
        },
        {
          "indexed": false,
          "internalType": "uint256",
          "name": "value",
          "type": "uint256"
        }
      ],
      "name": "Approval",
      "type": "event"
    },
    {
      "anonymous": false,
      "inputs": [
        {
          "indexed": true,
          "internalType": "address",
          "name": "delegator",
          "type": "address"
        },
        {
          "indexed": true,
          "internalType": "address",
          "name": "fromDelegate",
          "type": "address"
        },
        {
          "indexed": true,
          "internalType": "address",
          "name": "toDelegate",
          "type": "address"
        }
      ],
      "name": "DelegateChanged",
      "type": "event"
    },
    {
      "anonymous": false,
      "inputs": [
        {
          "indexed": true,
          "internalType": "address",
          "name": "delegate",
          "type": "address"
        },
        {
          "indexed": false,
          "internalType": "uint256",
          "name": "previousVotes",
          "type": "uint256"
        },
        {
          "indexed": false,
          "internalType": "uint256",
          "name": "newVotes",
          "type": "uint256"
        }
      ],
      "name": "DelegateVotesChanged",
      "type": "event"
    },
    {
      "anonymous": false,
      "inputs": [],
      "name": "EIP712DomainChanged",
      "type": "event"
    },
    {
      "anonymous": false,
      "inputs": [
        {
          "indexed": false,
          "internalType": "address",
          "name": "account",
          "type": "address"
        }
      ],
      "name": "Paused",
      "type": "event"
    },
    {
      "anonymous": false,
      "inputs": [
        {
          "indexed": true,
          "internalType": "bytes32",
          "name": "role",
          "type": "bytes32"
        },
        {
          "indexed": true,
          "internalType": "bytes32",
          "name": "previousAdminRole",
          "type": "bytes32"
        },
        {
          "indexed": true,
          "internalType": "bytes32",
          "name": "newAdminRole",
          "type": "bytes32"
        }
      ],
      "name": "RoleAdminChanged",
      "type": "event"
    },
    {
      "anonymous": false,
      "inputs": [
        {
          "indexed": true,
          "internalType": "bytes32",
          "name": "role",
          "type": "bytes32"
        },
        {
          "indexed": true,
          "internalType": "address",
          "name": "account",
          "type": "address"
        },
        {
          "indexed": true,
          "internalType": "address",
          "name": "sender",
          "type": "address"
        }
      ],
      "name": "RoleGranted",
      "type": "event"
    },
    {
      "anonymous": false,
      "inputs": [
        {
          "indexed": true,
          "internalType": "bytes32",
          "name": "role",
          "type": "bytes32"
        },
        {
          "indexed": true,
          "internalType": "address",
          "name": "account",
          "type": "address"
        },
        {
          "indexed": true,
          "internalType": "address",
          "name": "sender",
          "type": "address"
        }
      ],
      "name": "RoleRevoked",
      "type": "event"
    },
    {
      "anonymous": false,
      "inputs": [
        {
          "indexed": true,
          "internalType": "address",
          "name": "from",
          "type": "address"
        },
        {
          "indexed": true,
          "internalType": "address",
          "name": "to",
          "type": "address"
        },
        {
          "indexed": false,
          "internalType": "uint256",
          "name": "value",
          "type": "uint256"
        }
      ],
      "name": "Transfer",
      "type": "event"
    },
    {
      "anonymous": false,
      "inputs": [
        {
          "indexed": false,
          "internalType": "address",
          "name": "account",
          "type": "address"
        }
      ],
      "name": "Unpaused",
      "type": "event"
    },
    {
      "inputs": [],
      "name": "CLOCK_MODE",
      "outputs": [
        {
          "internalType": "string",
          "name": "",
          "type": "string"
        }
      ],
      "stateMutability": "pure",
      "type": "function"
    },
    {
      "inputs": [],
      "name": "DEFAULT_ADMIN_ROLE",
      "outputs": [
        {
          "internalType": "bytes32",
          "name": "",
          "type": "bytes32"
        }
      ],
      "stateMutability": "view",
      "type": "function"
    },
    {
      "inputs": [],
      "name": "DOMAIN_SEPARATOR",
      "outputs": [
        {
          "internalType": "bytes32",
          "name": "",
          "type": "bytes32"
        }
      ],
      "stateMutability": "view",
      "type": "function"
    },
    {
      "inputs": [],
      "name": "MINTER_ROLE",
      "outputs": [
        {
          "internalType": "bytes32",
          "name": "",
          "type": "bytes32"
        }
      ],
      "stateMutability": "view",
      "type": "function"
    },
    {
      "inputs": [],
      "name": "PAUSER_ROLE",
      "outputs": [
        {
          "internalType": "bytes32",
          "name": "",
          "type": "bytes32"
        }
      ],
      "stateMutability": "view",
      "type": "function"
    },
    {
      "inputs": [
        {
          "internalType": "address",
          "name": "owner",
          "type": "address"
        },
        {
          "internalType": "address",
          "name": "spender",
          "type": "address"
        }
      ],
      "name": "allowance",
      "outputs": [
        {
          "internalType": "uint256",
          "name": "",
          "type": "uint256"
        }
      ],
      "stateMutability": "view",
      "type": "function"
    },
    {
      "inputs": [
        {
          "internalType": "address",
          "name": "spender",
          "type": "address"
        },
        {
          "internalType": "uint256",
          "name": "value",
          "type": "uint256"
        }
      ],
      "name": "approve",
      "outputs": [
        {
          "internalType": "bool",
          "name": "",
          "type": "bool"
        }
      ],
      "stateMutability": "nonpayable",
      "type": "function"
    },
    {
      "inputs": [
        {
          "internalType": "address",
          "name": "account",
          "type": "address"
        }
      ],
      "name": "balanceOf",
      "outputs": [
        {
          "internalType": "uint256",
          "name": "",
          "type": "uint256"
        }
      ],
      "stateMutability": "view",
      "type": "function"
    },
    {
      "inputs": [
        {
          "internalType": "uint256",
          "name": "value",
          "type": "uint256"
        }
      ],
      "name": "burn",
      "outputs": [],
      "stateMutability": "nonpayable",
      "type": "function"
    },
    {
      "inputs": [
        {
          "internalType": "address",
          "name": "account",
          "type": "address"
        },
        {
          "internalType": "uint256",
          "name": "value",
          "type": "uint256"
        }
      ],
      "name": "burnFrom",
      "outputs": [],
      "stateMutability": "nonpayable",
      "type": "function"
    },
    {
      "inputs": [
        {
          "internalType": "address",
          "name": "account",
          "type": "address"
        },
        {
          "internalType": "uint32",
          "name": "pos",
          "type": "uint32"
        }
      ],
      "name": "checkpoints",
      "outputs": [
        {
          "components": [
            {
              "internalType": "uint48",
              "name": "_key",
              "type": "uint48"
            },
            {
              "internalType": "uint208",
              "name": "_value",
              "type": "uint208"
            }
          ],
          "internalType": "struct Checkpoints.Checkpoint208",
          "name": "",
          "type": "tuple"
        }
      ],
      "stateMutability": "view",
      "type": "function"
    },
    {
      "inputs": [],
      "name": "clock",
      "outputs": [
        {
          "internalType": "uint48",
          "name": "",
          "type": "uint48"
        }
      ],
      "stateMutability": "view",
      "type": "function"
    },
    {
      "inputs": [],
      "name": "decimals",
      "outputs": [
        {
          "internalType": "uint8",
          "name": "",
          "type": "uint8"
        }
      ],
      "stateMutability": "view",
      "type": "function"
    },
    {
      "inputs": [
        {
          "internalType": "address",
          "name": "delegatee",
          "type": "address"
        }
      ],
      "name": "delegate",
      "outputs": [],
      "stateMutability": "nonpayable",
      "type": "function"
    },
    {
      "inputs": [
        {
          "internalType": "address",
          "name": "delegatee",
          "type": "address"
        },
        {
          "internalType": "uint256",
          "name": "nonce",
          "type": "uint256"
        },
        {
          "internalType": "uint256",
          "name": "expiry",
          "type": "uint256"
        },
        {
          "internalType": "uint8",
          "name": "v",
          "type": "uint8"
        },
        {
          "internalType": "bytes32",
          "name": "r",
          "type": "bytes32"
        },
        {
          "internalType": "bytes32",
          "name": "s",
          "type": "bytes32"
        }
      ],
      "name": "delegateBySig",
      "outputs": [],
      "stateMutability": "nonpayable",
      "type": "function"
    },
    {
      "inputs": [
        {
          "internalType": "address",
          "name": "account",
          "type": "address"
        }
      ],
      "name": "delegates",
      "outputs": [
        {
          "internalType": "address",
          "name": "",
          "type": "address"
        }
      ],
      "stateMutability": "view",
      "type": "function"
    },
    {
      "inputs": [],
      "name": "eip712Domain",
      "outputs": [
        {
          "internalType": "bytes1",
          "name": "fields",
          "type": "bytes1"
        },
        {
          "internalType": "string",
          "name": "name",
          "type": "string"
        },
        {
          "internalType": "string",
          "name": "version",
          "type": "string"
        },
        {
          "internalType": "uint256",
          "name": "chainId",
          "type": "uint256"
        },
        {
          "internalType": "address",
          "name": "verifyingContract",
          "type": "address"
        },
        {
          "internalType": "bytes32",
          "name": "salt",
          "type": "bytes32"
        },
        {
          "internalType": "uint256[]",
          "name": "extensions",
          "type": "uint256[]"
        }
      ],
      "stateMutability": "view",
      "type": "function"
    },
    {
      "inputs": [
        {
          "internalType": "uint256",
          "name": "timepoint",
          "type": "uint256"
        }
      ],
      "name": "getPastTotalSupply",
      "outputs": [
        {
          "internalType": "uint256",
          "name": "",
          "type": "uint256"
        }
      ],
      "stateMutability": "view",
      "type": "function"
    },
    {
      "inputs": [
        {
          "internalType": "address",
          "name": "account",
          "type": "address"
        },
        {
          "internalType": "uint256",
          "name": "timepoint",
          "type": "uint256"
        }
      ],
      "name": "getPastVotes",
      "outputs": [
        {
          "internalType": "uint256",
          "name": "",
          "type": "uint256"
        }
      ],
      "stateMutability": "view",
      "type": "function"
    },
    {
      "inputs": [
        {
          "internalType": "bytes32",
          "name": "role",
          "type": "bytes32"
        }
      ],
      "name": "getRoleAdmin",
      "outputs": [
        {
          "internalType": "bytes32",
          "name": "",
          "type": "bytes32"
        }
      ],
      "stateMutability": "view",
      "type": "function"
    },
    {
      "inputs": [
        {
          "internalType": "address",
          "name": "account",
          "type": "address"
        }
      ],
      "name": "getVotes",
      "outputs": [
        {
          "internalType": "uint256",
          "name": "",
          "type": "uint256"
        }
      ],
      "stateMutability": "view",
      "type": "function"
    },
    {
      "inputs": [
        {
          "internalType": "bytes32",
          "name": "role",
          "type": "bytes32"
        },
        {
          "internalType": "address",
          "name": "account",
          "type": "address"
        }
      ],
      "name": "grantRole",
      "outputs": [],
      "stateMutability": "nonpayable",
      "type": "function"
    },
    {
      "inputs": [
        {
          "internalType": "bytes32",
          "name": "role",
          "type": "bytes32"
        },
        {
          "internalType": "address",
          "name": "account",
          "type": "address"
        }
      ],
      "name": "hasRole",
      "outputs": [
        {
          "internalType": "bool",
          "name": "",
          "type": "bool"
        }
      ],
      "stateMutability": "view",
      "type": "function"
    },
    {
      "inputs": [
        {
          "internalType": "address",
          "name": "to",
          "type": "address"
        },
        {
          "internalType": "uint256",
          "name": "amount",
          "type": "uint256"
        }
      ],
      "name": "mint",
      "outputs": [],
      "stateMutability": "nonpayable",
      "type": "function"
    },
    {
      "inputs": [],
      "name": "name",
      "outputs": [
        {
          "internalType": "string",
          "name": "",
          "type": "string"
        }
      ],
      "stateMutability": "view",
      "type": "function"
    },
    {
      "inputs": [
        {
          "internalType": "address",
          "name": "owner",
          "type": "address"
        }
      ],
      "name": "nonces",
      "outputs": [
        {
          "internalType": "uint256",
          "name": "",
          "type": "uint256"
        }
      ],
      "stateMutability": "view",
      "type": "function"
    },
    {
      "inputs": [
        {
          "internalType": "address",
          "name": "account",
          "type": "address"
        }
      ],
      "name": "numCheckpoints",
      "outputs": [
        {
          "internalType": "uint32",
          "name": "",
          "type": "uint32"
        }
      ],
      "stateMutability": "view",
      "type": "function"
    },
    {
      "inputs": [],
      "name": "pause",
      "outputs": [],
      "stateMutability": "nonpayable",
      "type": "function"
    },
    {
      "inputs": [],
      "name": "paused",
      "outputs": [
        {
          "internalType": "bool",
          "name": "",
          "type": "bool"
        }
      ],
      "stateMutability": "view",
      "type": "function"
    },
    {
      "inputs": [
        {
          "internalType": "address",
          "name": "owner",
          "type": "address"
        },
        {
          "internalType": "address",
          "name": "spender",
          "type": "address"
        },
        {
          "internalType": "uint256",
          "name": "value",
          "type": "uint256"
        },
        {
          "internalType": "uint256",
          "name": "deadline",
          "type": "uint256"
        },
        {
          "internalType": "uint8",
          "name": "v",
          "type": "uint8"
        },
        {
          "internalType": "bytes32",
          "name": "r",
          "type": "bytes32"
        },
        {
          "internalType": "bytes32",
          "name": "s",
          "type": "bytes32"
        }
      ],
      "name": "permit",
      "outputs": [],
      "stateMutability": "nonpayable",
      "type": "function"
    },
    {
      "inputs": [
        {
          "internalType": "bytes32",
          "name": "role",
          "type": "bytes32"
        },
        {
          "internalType": "address",
          "name": "callerConfirmation",
          "type": "address"
        }
      ],
      "name": "renounceRole",
      "outputs": [],
      "stateMutability": "nonpayable",
      "type": "function"
    },
    {
      "inputs": [
        {
          "internalType": "bytes32",
          "name": "role",
          "type": "bytes32"
        },
        {
          "internalType": "address",
          "name": "account",
          "type": "address"
        }
      ],
      "name": "revokeRole",
      "outputs": [],
      "stateMutability": "nonpayable",
      "type": "function"
    },
    {
      "inputs": [
        {
          "internalType": "bytes4",
          "name": "interfaceId",
          "type": "bytes4"
        }
      ],
      "name": "supportsInterface",
      "outputs": [
        {
          "internalType": "bool",
          "name": "",
          "type": "bool"
        }
      ],
      "stateMutability": "view",
      "type": "function"
    },
    {
      "inputs": [],
      "name": "symbol",
      "outputs": [
        {
          "internalType": "string",
          "name": "",
          "type": "string"
        }
      ],
      "stateMutability": "view",
      "type": "function"
    },
    {
      "inputs": [],
      "name": "totalSupply",
      "outputs": [
        {
          "internalType": "uint256",
          "name": "",
          "type": "uint256"
        }
      ],
      "stateMutability": "view",
      "type": "function"
    },
    {
      "inputs": [
        {
          "internalType": "address",
          "name": "to",
          "type": "address"
        },
        {
          "internalType": "uint256",
          "name": "value",
          "type": "uint256"
        }
      ],
      "name": "transfer",
      "outputs": [
        {
          "internalType": "bool",
          "name": "",
          "type": "bool"
        }
      ],
      "stateMutability": "nonpayable",
      "type": "function"
    },
    {
      "inputs": [
        {
          "internalType": "address",
          "name": "from",
          "type": "address"
        },
        {
          "internalType": "address",
          "name": "to",
          "type": "address"
        },
        {
          "internalType": "uint256",
          "name": "value",
          "type": "uint256"
        }
      ],
      "name": "transferFrom",
      "outputs": [
        {
          "internalType": "bool",
          "name": "",
          "type": "bool"
        }
      ],
      "stateMutability": "nonpayable",
      "type": "function"
    },
    {
      "inputs": [],
      "name": "unpause",
      "outputs": [],
      "stateMutability": "nonpayable",
      "type": "function"
    }
  ],
  "bytecode": "0x61016060405234801561001157600080fd5b50604051616085380380616085833981810160405281019061003391906112f8565b6040518060400160405280601381526020017f4f70656e20426974636f696e2043726564697400000000000000000000000000815250806040518060400160405280600181526020017f31000000000000000000000000000000000000000000000000000000000000008152506040518060400160405280601381526020017f4f70656e20426974636f696e20437265646974000000000000000000000000008152506040518060400160405280600481526020017f4f42544300000000000000000000000000000000000000000000000000000000815250816003908161011b919061159b565b50806004908161012b919061159b565b5050506000600560006101000a81548160ff02191690831515021790555061015d6007836102aa60201b90919060201c565b61012081815250506101796008826102aa60201b90919060201c565b6101408181525050818051906020012060e08181525050808051906020012061010081815250504660a081815250506101b66102fa60201b60201c565b608081815250503073ffffffffffffffffffffffffffffffffffffffff1660c08173ffffffffffffffffffffffffffffffffffffffff16815250505050506102076000801b8461035560201b60201c565b506102387f65d7a28e3265b37a6474929f336521b332c1681b933f6cb9f3376673440d862a8361035560201b60201c565b506102713361024b61045360201b60201c565b600a61025791906117dc565b6305f5e1006102669190611827565b61045c60201b60201c565b6102a17f9f2df0fed2c77648de5860a4cc508cd0818c85b8b8a1ab4ceeef8d981c8956a68261035560201b60201c565b50505050611c55565b60006020835110156102cc576102c5836104e460201b60201c565b90506102f4565b826102dc8361054c60201b60201c565b60000190816102eb919061159b565b5060ff60001b90505b92915050565b60007f8b73c3c69bb8fe3d512ecc4cf759cc79239f7b179b0ffacaa9a75d522b39400f60e05161010051463060405160200161033a9594939291906118a0565b60405160208183030381529060405280519060200120905090565b6000610367838361055660201b60201c565b6104485760016006600085815260200190815260200160002060000160008473ffffffffffffffffffffffffffffffffffffffff1673ffffffffffffffffffffffffffffffffffffffff16815260200190815260200160002060006101000a81548160ff0219169083151502179055506103e56105c160201b60201c565b73ffffffffffffffffffffffffffffffffffffffff168273ffffffffffffffffffffffffffffffffffffffff16847f2f8788117e7eff1d82e926ec794901d17c78024a50270940304540a733656f0d60405160405180910390a46001905061044d565b600090505b92915050565b60006012905090565b600073ffffffffffffffffffffffffffffffffffffffff168273ffffffffffffffffffffffffffffffffffffffff16036104ce5760006040517fec442f050000000000000000000000000000000000000000000000000000000081526004016104c591906118f3565b60405180910390fd5b6104e0600083836105c960201b60201c565b5050565b600080829050601f8151111561053157826040517f305a27a90000000000000000000000000000000000000000000000000000000081526004016105289190611993565b60405180910390fd5b80518161053d906119e5565b60001c1760001b915050919050565b6000819050919050565b60006006600084815260200190815260200160002060000160008373ffffffffffffffffffffffffffffffffffffffff1673ffffffffffffffffffffffffffffffffffffffff16815260200190815260200160002060009054906101000a900460ff16905092915050565b600033905090565b6105da8383836105df60201b60201c565b505050565b6105f08383836106a860201b60201c565b600073ffffffffffffffffffffffffffffffffffffffff168373ffffffffffffffffffffffffffffffffffffffff16036106925760006106346106cc60201b60201c565b905060006106466106d660201b60201c565b90508082111561068f5781816040517f1cb15d26000000000000000000000000000000000000000000000000000000008152600401610686929190611a4c565b60405180910390fd5b50505b6106a38383836106fa60201b60201c565b505050565b6106b66107ec60201b60201c565b6106c783838361083360201b60201c565b505050565b6000600254905090565b600079ffffffffffffffffffffffffffffffffffffffffffffffffffff8016905090565b600073ffffffffffffffffffffffffffffffffffffffff168373ffffffffffffffffffffffffffffffffffffffff160361075a57610757600c610a5860201b6112ae1761074c84610a6e60201b60201c565b610adc60201b60201c565b50505b600073ffffffffffffffffffffffffffffffffffffffff168273ffffffffffffffffffffffffffffffffffffffff16036107ba576107b7600c610b2560201b6112c4176107ac84610a6e60201b60201c565b610adc60201b60201c565b50505b6107e76107cc84610b3b60201b60201c565b6107db84610b3b60201b60201c565b83610ba460201b60201c565b505050565b6107fa610e4360201b60201c565b15610831576040517fd93c066500000000000000000000000000000000000000000000000000000000815260040160405180910390fd5b565b600073ffffffffffffffffffffffffffffffffffffffff168373ffffffffffffffffffffffffffffffffffffffff16036108855780600260008282546108799190611a75565b92505081905550610958565b60008060008573ffffffffffffffffffffffffffffffffffffffff1673ffffffffffffffffffffffffffffffffffffffff16815260200190815260200160002054905081811015610911578381836040517fe450d38c00000000000000000000000000000000000000000000000000000000815260040161090893929190611aa9565b60405180910390fd5b8181036000808673ffffffffffffffffffffffffffffffffffffffff1673ffffffffffffffffffffffffffffffffffffffff16815260200190815260200160002081905550505b600073ffffffffffffffffffffffffffffffffffffffff168273ffffffffffffffffffffffffffffffffffffffff16036109a157806002600082825403925050819055506109ee565b806000808473ffffffffffffffffffffffffffffffffffffffff1673ffffffffffffffffffffffffffffffffffffffff168152602001908152602001600020600082825401925050819055505b8173ffffffffffffffffffffffffffffffffffffffff168373ffffffffffffffffffffffffffffffffffffffff167fddf252ad1be2c89b69c2b068fc378daa952ba7f163c4a11628f55a4df523b3ef83604051610a4b9190611ae0565b60405180910390a3505050565b60008183610a669190611b21565b905092915050565b600079ffffffffffffffffffffffffffffffffffffffffffffffffffff8016821115610ad45760d0826040517f6dfcc650000000000000000000000000000000000000000000000000000000008152600401610acb929190611baa565b60405180910390fd5b819050919050565b600080610b19610af0610e5a60201b60201c565b610b09610b0288610e6260201b60201c565b868860201c565b87610ed060201b9092919060201c565b91509150935093915050565b60008183610b339190611bd3565b905092915050565b6000600a60008373ffffffffffffffffffffffffffffffffffffffff1673ffffffffffffffffffffffffffffffffffffffff16815260200190815260200160002060009054906101000a900473ffffffffffffffffffffffffffffffffffffffff169050919050565b8173ffffffffffffffffffffffffffffffffffffffff168373ffffffffffffffffffffffffffffffffffffffff1614158015610be05750600081115b15610e3e57600073ffffffffffffffffffffffffffffffffffffffff168373ffffffffffffffffffffffffffffffffffffffff1614610d1157600080610c82600b60008773ffffffffffffffffffffffffffffffffffffffff1673ffffffffffffffffffffffffffffffffffffffff168152602001908152602001600020610b2560201b6112c417610c7786610a6e60201b60201c565b610adc60201b60201c565b79ffffffffffffffffffffffffffffffffffffffffffffffffffff16915079ffffffffffffffffffffffffffffffffffffffffffffffffffff1691508473ffffffffffffffffffffffffffffffffffffffff167fdec2bacdd2f05b59de34da9b523dff8be42e5e38e818c82fdb0bae774387a7248383604051610d06929190611a4c565b60405180910390a250505b600073ffffffffffffffffffffffffffffffffffffffff168273ffffffffffffffffffffffffffffffffffffffff1614610e3d57600080610dae600b60008673ffffffffffffffffffffffffffffffffffffffff1673ffffffffffffffffffffffffffffffffffffffff168152602001908152602001600020610a5860201b6112ae17610da386610a6e60201b60201c565b610adc60201b60201c565b79ffffffffffffffffffffffffffffffffffffffffffffffffffff16915079ffffffffffffffffffffffffffffffffffffffffffffffffffff1691508373ffffffffffffffffffffffffffffffffffffffff167fdec2bacdd2f05b59de34da9b523dff8be42e5e38e818c82fdb0bae774387a7248383604051610e32929190611a4c565b60405180910390a250505b5b505050565b6000600560009054906101000a900460ff16905090565b600042905090565b6000808260000180549050905060008114610ec557610e9683600001600183610e8b9190611c21565b610ef360201b60201c565b60000160069054906101000a900479ffffffffffffffffffffffffffffffffffffffffffffffffffff16610ec8565b60005b915050919050565b600080610ee7856000018585610f0860201b60201c565b91509150935093915050565b60008260005281602060002001905092915050565b60008060008580549050905060008111156111a5576000610f3b87600184610f309190611c21565b610ef360201b60201c565b6040518060400160405290816000820160009054906101000a900465ffffffffffff1665ffffffffffff1665ffffffffffff1681526020016000820160069054906101000a900479ffffffffffffffffffffffffffffffffffffffffffffffffffff1679ffffffffffffffffffffffffffffffffffffffffffffffffffff1679ffffffffffffffffffffffffffffffffffffffffffffffffffff168152505090508565ffffffffffff16816000015165ffffffffffff16111561102a576040517f2520601d00000000000000000000000000000000000000000000000000000000815260040160405180910390fd5b8565ffffffffffff16816000015165ffffffffffff16036110b45784611062886001856110579190611c21565b610ef360201b60201c565b60000160066101000a81548179ffffffffffffffffffffffffffffffffffffffffffffffffffff021916908379ffffffffffffffffffffffffffffffffffffffffffffffffffff160217905550611194565b8660405180604001604052808865ffffffffffff1681526020018779ffffffffffffffffffffffffffffffffffffffffffffffffffff168152509080600181540180825580915050600190039060005260206000200160009091909190915060008201518160000160006101000a81548165ffffffffffff021916908365ffffffffffff16021790555060208201518160000160066101000a81548179ffffffffffffffffffffffffffffffffffffffffffffffffffff021916908379ffffffffffffffffffffffffffffffffffffffffffffffffffff16021790555050505b80602001518593509350505061128d565b8560405180604001604052808765ffffffffffff1681526020018679ffffffffffffffffffffffffffffffffffffffffffffffffffff168152509080600181540180825580915050600190039060005260206000200160009091909190915060008201518160000160006101000a81548165ffffffffffff021916908365ffffffffffff16021790555060208201518160000160066101000a81548179ffffffffffffffffffffffffffffffffffffffffffffffffffff021916908379ffffffffffffffffffffffffffffffffffffffffffffffffffff160217905550505060008492509250505b935093915050565b600080fd5b600073ffffffffffffffffffffffffffffffffffffffff82169050919050565b60006112c58261129a565b9050919050565b6112d5816112ba565b81146112e057600080fd5b50565b6000815190506112f2816112cc565b92915050565b60008060006060848603121561131157611310611295565b5b600061131f868287016112e3565b9350506020611330868287016112e3565b9250506040611341868287016112e3565b9150509250925092565b600081519050919050565b7f4e487b7100000000000000000000000000000000000000000000000000000000600052604160045260246000fd5b7f4e487b7100000000000000000000000000000000000000000000000000000000600052602260045260246000fd5b600060028204905060018216806113cc57607f821691505b6020821081036113df576113de611385565b5b50919050565b60008190508160005260206000209050919050565b60006020601f8301049050919050565b600082821b905092915050565b6000600883026114477fffffffffffffffffffffffffffffffffffffffffffffffffffffffffffffffff8261140a565b611451868361140a565b95508019841693508086168417925050509392505050565b6000819050919050565b6000819050919050565b600061149861149361148e84611469565b611473565b611469565b9050919050565b6000819050919050565b6114b28361147d565b6114c66114be8261149f565b848454611417565b825550505050565b600090565b6114db6114ce565b6114e68184846114a9565b505050565b5b8181101561150a576114ff6000826114d3565b6001810190506114ec565b5050565b601f82111561154f57611520816113e5565b611529846113fa565b81016020851015611538578190505b61154c611544856113fa565b8301826114eb565b50505b505050565b600082821c905092915050565b600061157260001984600802611554565b1980831691505092915050565b600061158b8383611561565b9150826002028217905092915050565b6115a48261134b565b67ffffffffffffffff8111156115bd576115bc611356565b5b6115c782546113b4565b6115d282828561150e565b600060209050601f83116001811461160557600084156115f3578287015190505b6115fd858261157f565b865550611665565b601f198416611613866113e5565b60005b8281101561163b57848901518255600182019150602085019450602081019050611616565b868310156116585784890151611654601f891682611561565b8355505b6001600288020188555050505b505050505050565b7f4e487b7100000000000000000000000000000000000000000000000000000000600052601160045260246000fd5b60008160011c9050919050565b6000808291508390505b60018511156116f3578086048111156116cf576116ce61166d565b5b60018516156116de5780820291505b80810290506116ec8561169c565b94506116b3565b94509492505050565b60008261170c57600190506117c8565b8161171a57600090506117c8565b8160018114611730576002811461173a57611769565b60019150506117c8565b60ff84111561174c5761174b61166d565b5b8360020a9150848211156117635761176261166d565b5b506117c8565b5060208310610133831016604e8410600b841016171561179e5782820a9050838111156117995761179861166d565b5b6117c8565b6117ab84848460016116a9565b925090508184048111156117c2576117c161166d565b5b81810290505b9392505050565b600060ff82169050919050565b60006117e782611469565b91506117f2836117cf565b925061181f7fffffffffffffffffffffffffffffffffffffffffffffffffffffffffffffffff84846116fc565b905092915050565b600061183282611469565b915061183d83611469565b925082820261184b81611469565b915082820484148315176118625761186161166d565b5b5092915050565b6000819050919050565b61187c81611869565b82525050565b61188b81611469565b82525050565b61189a816112ba565b82525050565b600060a0820190506118b56000830188611873565b6118c26020830187611873565b6118cf6040830186611873565b6118dc6060830185611882565b6118e96080830184611891565b9695505050505050565b60006020820190506119086000830184611891565b92915050565b600082825260208201905092915050565b60005b8381101561193d578082015181840152602081019050611922565b60008484015250505050565b6000601f19601f8301169050919050565b60006119658261134b565b61196f818561190e565b935061197f81856020860161191f565b61198881611949565b840191505092915050565b600060208201905081810360008301526119ad818461195a565b905092915050565b600081519050919050565b6000819050602082019050919050565b60006119dc8251611869565b80915050919050565b60006119f0826119b5565b826119fa846119c0565b9050611a05816119d0565b92506020821015611a4557611a407fffffffffffffffffffffffffffffffffffffffffffffffffffffffffffffffff8360200360080261140a565b831692505b5050919050565b6000604082019050611a616000830185611882565b611a6e6020830184611882565b9392505050565b6000611a8082611469565b9150611a8b83611469565b9250828201905080821115611aa357611aa261166d565b5b92915050565b6000606082019050611abe6000830186611891565b611acb6020830185611882565b611ad86040830184611882565b949350505050565b6000602082019050611af56000830184611882565b92915050565b600079ffffffffffffffffffffffffffffffffffffffffffffffffffff82169050919050565b6000611b2c82611afb565b9150611b3783611afb565b9250828201905079ffffffffffffffffffffffffffffffffffffffffffffffffffff811115611b6957611b6861166d565b5b92915050565b6000819050919050565b6000611b94611b8f611b8a84611b6f565b611473565b6117cf565b9050919050565b611ba481611b79565b82525050565b6000604082019050611bbf6000830185611b9b565b611bcc6020830184611882565b9392505050565b6000611bde82611afb565b9150611be983611afb565b9250828203905079ffffffffffffffffffffffffffffffffffffffffffffffffffff811115611c1b57611c1a61166d565b5b92915050565b6000611c2c82611469565b9150611c3783611469565b9250828203905081811115611c4f57611c4e61166d565b5b92915050565b60805160a05160c05160e0516101005161012051610140516143d6611caf6000396000611c7601526000611c3b015260006120e8015260006120c7015260006115f0015260006116460152600061166f01526143d66000f3fe608060405234801561001057600080fd5b50600436106102325760003560e01c806370a08231116101305780639ab24eb0116100b8578063d53913931161007c578063d5391393146106cd578063d547741f146106eb578063dd62ed3e14610707578063e63ab1e914610737578063f1127ed81461075557610232565b80639ab24eb014610617578063a217fddf14610647578063a9059cbb14610665578063c3cda52014610695578063d505accf146106b157610232565b806384b0196e116100ff57806384b0196e146105575780638e539e8c1461057b57806391d14854146105ab57806391ddadf4146105db57806395d89b41146105f957610232565b806370a08231146104d157806379cc6790146105015780637ecebe001461051d5780638456cb591461054d57610232565b806336568abe116101be5780634bf5d7e9116101825780634bf5d7e914610419578063587cde1e146104375780635c19a95c146104675780635c975abb146104835780636fcfff45146104a157610232565b806336568abe1461038b5780633a46b1a8146103a75780633f4ba83a146103d757806340c10f19146103e157806342966c68146103fd57610232565b806323b872dd1161020557806323b872dd146102d3578063248a9ca3146103035780632f2ff15d14610333578063313ce5671461034f5780633644e5151461036d57610232565b806301ffc9a71461023757806306fdde0314610267578063095ea7b31461028557806318160ddd146102b5575b600080fd5b610251600480360381019061024c9190613532565b610785565b60405161025e919061357a565b60405180910390f35b61026f6107ff565b60405161027c9190613625565b60405180910390f35b61029f600480360381019061029a91906136db565b610891565b6040516102ac919061357a565b60405180910390f35b6102bd6108b4565b6040516102ca919061372a565b60405180910390f35b6102ed60048036038101906102e89190613745565b6108be565b6040516102fa919061357a565b60405180910390f35b61031d600480360381019061031891906137ce565b6108ed565b60405161032a919061380a565b60405180910390f35b61034d60048036038101906103489190613825565b61090d565b005b61035761092f565b6040516103649190613881565b60405180910390f35b610375610938565b604051610382919061380a565b60405180910390f35b6103a560048036038101906103a09190613825565b610947565b005b6103c160048036038101906103bc91906136db565b6109c2565b6040516103ce919061372a565b60405180910390f35b6103df610a9b565b005b6103fb60048036038101906103f691906136db565b610ad0565b005b6104176004803603810190610412919061389c565b610b09565b005b610421610b1d565b60405161042e9190613625565b60405180910390f35b610451600480360381019061044c91906138c9565b610b5a565b60405161045e9190613905565b60405180910390f35b610481600480360381019061047c91906138c9565b610bc3565b005b61048b610bdd565b604051610498919061357a565b60405180910390f35b6104bb60048036038101906104b691906138c9565b610bf4565b6040516104c8919061393f565b60405180910390f35b6104eb60048036038101906104e691906138c9565b610c06565b6040516104f8919061372a565b60405180910390f35b61051b600480360381019061051691906136db565b610c4e565b005b610537600480360381019061053291906138c9565b610c6e565b604051610544919061372a565b60405180910390f35b610555610c80565b005b61055f610cb5565b6040516105729796959493929190613a53565b60405180910390f35b6105956004803603810190610590919061389c565b610d5f565b6040516105a2919061372a565b60405180910390f35b6105c560048036038101906105c09190613825565b610dfa565b6040516105d2919061357a565b60405180910390f35b6105e3610e65565b6040516105f09190613af8565b60405180910390f35b610601610e6d565b60405161060e9190613625565b60405180910390f35b610631600480360381019061062c91906138c9565b610eff565b60405161063e919061372a565b60405180910390f35b61064f610f6b565b60405161065c919061380a565b60405180910390f35b61067f600480360381019061067a91906136db565b610f72565b60405161068c919061357a565b60405180910390f35b6106af60048036038101906106aa9190613b3f565b610f95565b005b6106cb60048036038101906106c69190613bcc565b61105b565b005b6106d56111a3565b6040516106e2919061380a565b60405180910390f35b61070560048036038101906107009190613825565b6111c7565b005b610721600480360381019061071c9190613c6e565b6111e9565b60405161072e919061372a565b60405180910390f35b61073f611270565b60405161074c919061380a565b60405180910390f35b61076f600480360381019061076a9190613cda565b611294565b60405161077c9190613d8d565b60405180910390f35b60007f7965db0b000000000000000000000000000000000000000000000000000000007bffffffffffffffffffffffffffffffffffffffffffffffffffffffff1916827bffffffffffffffffffffffffffffffffffffffffffffffffffffffff191614806107f857506107f7826112da565b5b9050919050565b60606003805461080e90613dd7565b80601f016020809104026020016040519081016040528092919081815260200182805461083a90613dd7565b80156108875780601f1061085c57610100808354040283529160200191610887565b820191906000526020600020905b81548152906001019060200180831161086a57829003601f168201915b5050505050905090565b60008061089c611344565b90506108a981858561134c565b600191505092915050565b6000600254905090565b6000806108c9611344565b90506108d685828561135e565b6108e18585856113f2565b60019150509392505050565b600060066000838152602001908152602001600020600101549050919050565b610916826108ed565b61091f816114e6565b61092983836114fa565b50505050565b60006012905090565b60006109426115ec565b905090565b61094f611344565b73ffffffffffffffffffffffffffffffffffffffff168173ffffffffffffffffffffffffffffffffffffffff16146109b3576040517f6697b23200000000000000000000000000000000000000000000000000000000815260040160405180910390fd5b6109bd82826116a3565b505050565b6000806109cd610e65565b90508065ffffffffffff168310610a1d5782816040517fecd3f81e000000000000000000000000000000000000000000000000000000008152600401610a14929190613e08565b60405180910390fd5b610a76610a2984611796565b600b60008773ffffffffffffffffffffffffffffffffffffffff1673ffffffffffffffffffffffffffffffffffffffff1681526020019081526020016000206117f090919063ffffffff16565b79ffffffffffffffffffffffffffffffffffffffffffffffffffff1691505092915050565b7f65d7a28e3265b37a6474929f336521b332c1681b933f6cb9f3376673440d862a610ac5816114e6565b610acd6118ea565b50565b7f9f2df0fed2c77648de5860a4cc508cd0818c85b8b8a1ab4ceeef8d981c8956a6610afa816114e6565b610b04838361194d565b505050565b610b1a610b14611344565b826119cf565b50565b60606040518060400160405280600e81526020017f6d6f64653d74696d657374616d70000000000000000000000000000000000000815250905090565b6000600a60008373ffffffffffffffffffffffffffffffffffffffff1673ffffffffffffffffffffffffffffffffffffffff16815260200190815260200160002060009054906101000a900473ffffffffffffffffffffffffffffffffffffffff169050919050565b6000610bcd611344565b9050610bd98183611a51565b5050565b6000600560009054906101000a900460ff16905090565b6000610bff82611b65565b9050919050565b60008060008373ffffffffffffffffffffffffffffffffffffffff1673ffffffffffffffffffffffffffffffffffffffff168152602001908152602001600020549050919050565b610c6082610c5a611344565b8361135e565b610c6a82826119cf565b5050565b6000610c7982611bbd565b9050919050565b7f65d7a28e3265b37a6474929f336521b332c1681b933f6cb9f3376673440d862a610caa816114e6565b610cb2611bcf565b50565b600060608060008060006060610cc9611c32565b610cd1611c6d565b46306000801b600067ffffffffffffffff811115610cf257610cf1613e31565b5b604051908082528060200260200182016040528015610d205781602001602082028036833780820191505090505b507f0f00000000000000000000000000000000000000000000000000000000000000959493929190965096509650965096509650965090919293949596565b600080610d6a610e65565b90508065ffffffffffff168310610dba5782816040517fecd3f81e000000000000000000000000000000000000000000000000000000008152600401610db1929190613e08565b60405180910390fd5b610dd6610dc684611796565b600c6117f090919063ffffffff16565b79ffffffffffffffffffffffffffffffffffffffffffffffffffff16915050919050565b60006006600084815260200190815260200160002060000160008373ffffffffffffffffffffffffffffffffffffffff1673ffffffffffffffffffffffffffffffffffffffff16815260200190815260200160002060009054906101000a900460ff16905092915050565b600042905090565b606060048054610e7c90613dd7565b80601f0160208091040260200160405190810160405280929190818152602001828054610ea890613dd7565b8015610ef55780601f10610eca57610100808354040283529160200191610ef5565b820191906000526020600020905b815481529060010190602001808311610ed857829003601f168201915b5050505050905090565b6000610f48600b60008473ffffffffffffffffffffffffffffffffffffffff1673ffffffffffffffffffffffffffffffffffffffff168152602001908152602001600020611ca8565b79ffffffffffffffffffffffffffffffffffffffffffffffffffff169050919050565b6000801b81565b600080610f7d611344565b9050610f8a8185856113f2565b600191505092915050565b83421115610fda57836040517f4683af0e000000000000000000000000000000000000000000000000000000008152600401610fd1919061372a565b60405180910390fd5b600061103c6110347fe48329057bfd03d55e49b547132e39cffd9c1820ad7b9d4c5307691425d15adf8989896040516020016110199493929190613e60565b60405160208183030381529060405280519060200120611d10565b858585611d2a565b90506110488187611d5a565b6110528188611a51565b50505050505050565b834211156110a057836040517f62791302000000000000000000000000000000000000000000000000000000008152600401611097919061372a565b60405180910390fd5b60007f6e71edae12b1b97f4d1f60370fef10105fa2faae0126114a169c64845d6126c98888886110cf8c611db2565b896040516020016110e596959493929190613ea5565b604051602081830303815290604052805190602001209050600061110882611d10565b9050600061111882878787611d2a565b90508973ffffffffffffffffffffffffffffffffffffffff168173ffffffffffffffffffffffffffffffffffffffff161461118c57808a6040517f4b800e46000000000000000000000000000000000000000000000000000000008152600401611183929190613f06565b60405180910390fd5b6111978a8a8a61134c565b50505050505050505050565b7f9f2df0fed2c77648de5860a4cc508cd0818c85b8b8a1ab4ceeef8d981c8956a681565b6111d0826108ed565b6111d9816114e6565b6111e383836116a3565b50505050565b6000600160008473ffffffffffffffffffffffffffffffffffffffff1673ffffffffffffffffffffffffffffffffffffffff16815260200190815260200160002060008373ffffffffffffffffffffffffffffffffffffffff1673ffffffffffffffffffffffffffffffffffffffff16815260200190815260200160002054905092915050565b7f65d7a28e3265b37a6474929f336521b332c1681b933f6cb9f3376673440d862a81565b61129c613497565b6112a68383611e09565b905092915050565b600081836112bc9190613f5e565b905092915050565b600081836112d29190613fac565b905092915050565b60007f01ffc9a7000000000000000000000000000000000000000000000000000000007bffffffffffffffffffffffffffffffffffffffffffffffffffffffff1916827bffffffffffffffffffffffffffffffffffffffffffffffffffffffff1916149050919050565b600033905090565b6113598383836001611e6a565b505050565b600061136a84846111e9565b90507fffffffffffffffffffffffffffffffffffffffffffffffffffffffffffffffff81146113ec57818110156113dc578281836040517ffb8f41b20000000000000000000000000000000000000000000000000000000081526004016113d393929190613ffa565b60405180910390fd5b6113eb84848484036000611e6a565b5b50505050565b600073ffffffffffffffffffffffffffffffffffffffff168373ffffffffffffffffffffffffffffffffffffffff16036114645760006040517f96c6fd1e00000000000000000000000000000000000000000000000000000000815260040161145b9190613905565b60405180910390fd5b600073ffffffffffffffffffffffffffffffffffffffff168273ffffffffffffffffffffffffffffffffffffffff16036114d65760006040517fec442f050000000000000000000000000000000000000000000000000000000081526004016114cd9190613905565b60405180910390fd5b6114e1838383612041565b505050565b6114f7816114f2611344565b612051565b50565b60006115068383610dfa565b6115e15760016006600085815260200190815260200160002060000160008473ffffffffffffffffffffffffffffffffffffffff1673ffffffffffffffffffffffffffffffffffffffff16815260200190815260200160002060006101000a81548160ff02191690831515021790555061157e611344565b73ffffffffffffffffffffffffffffffffffffffff168273ffffffffffffffffffffffffffffffffffffffff16847f2f8788117e7eff1d82e926ec794901d17c78024a50270940304540a733656f0d60405160405180910390a4600190506115e6565b600090505b92915050565b60007f000000000000000000000000000000000000000000000000000000000000000073ffffffffffffffffffffffffffffffffffffffff163073ffffffffffffffffffffffffffffffffffffffff1614801561166857507f000000000000000000000000000000000000000000000000000000000000000046145b15611695577f000000000000000000000000000000000000000000000000000000000000000090506116a0565b61169d6120a2565b90505b90565b60006116af8383610dfa565b1561178b5760006006600085815260200190815260200160002060000160008473ffffffffffffffffffffffffffffffffffffffff1673ffffffffffffffffffffffffffffffffffffffff16815260200190815260200160002060006101000a81548160ff021916908315150217905550611728611344565b73ffffffffffffffffffffffffffffffffffffffff168273ffffffffffffffffffffffffffffffffffffffff16847ff6391f5c32d9c69d2a47ea670b442974b53935d1edc7fd64eb21e047a839171b60405160405180910390a460019050611790565b600090505b92915050565b600065ffffffffffff80168211156117e8576030826040517f6dfcc6500000000000000000000000000000000000000000000000000000000081526004016117df929190614076565b60405180910390fd5b819050919050565b60008083600001805490509050600080829050600583111561187857600061181784612138565b84611822919061409f565b90506118318760000182612231565b60000160009054906101000a900465ffffffffffff1665ffffffffffff168665ffffffffffff16101561186657809150611876565b60018161187391906140d3565b92505b505b600061188987600001878585612246565b9050600081146118db576118ac876000016001836118a7919061409f565b612231565b60000160069054906101000a900479ffffffffffffffffffffffffffffffffffffffffffffffffffff166118de565b60005b94505050505092915050565b6118f26122bf565b6000600560006101000a81548160ff0219169083151502179055507f5db9ee0a495bf2e6ff9c91a7834c1ba4fdd244a5e8aa4e537bd38aeae4b073aa611936611344565b6040516119439190613905565b60405180910390a1565b600073ffffffffffffffffffffffffffffffffffffffff168273ffffffffffffffffffffffffffffffffffffffff16036119bf5760006040517fec442f050000000000000000000000000000000000000000000000000000000081526004016119b69190613905565b60405180910390fd5b6119cb60008383612041565b5050565b600073ffffffffffffffffffffffffffffffffffffffff168273ffffffffffffffffffffffffffffffffffffffff1603611a415760006040517f96c6fd1e000000000000000000000000000000000000000000000000000000008152600401611a389190613905565b60405180910390fd5b611a4d82600083612041565b5050565b6000611a5c83610b5a565b905081600a60008573ffffffffffffffffffffffffffffffffffffffff1673ffffffffffffffffffffffffffffffffffffffff16815260200190815260200160002060006101000a81548173ffffffffffffffffffffffffffffffffffffffff021916908373ffffffffffffffffffffffffffffffffffffffff1602179055508173ffffffffffffffffffffffffffffffffffffffff168173ffffffffffffffffffffffffffffffffffffffff168473ffffffffffffffffffffffffffffffffffffffff167f3134e8a2e6d97e929a7e54011ea5485d7d196dd5f0ba4d4ef95803e8e3fc257f60405160405180910390a4611b608183611b5b866122ff565b612311565b505050565b6000611bb6611bb1600b60008573ffffffffffffffffffffffffffffffffffffffff1673ffffffffffffffffffffffffffffffffffffffff16815260200190815260200160002061258a565b61259b565b9050919050565b6000611bc8826125f3565b9050919050565b611bd761263c565b6001600560006101000a81548160ff0219169083151502179055507f62e78cea01bee320cd4e420270b5ea74000d11b0c9f74754ebdbfc544b05a258611c1b611344565b604051611c289190613905565b60405180910390a1565b6060611c6860077f000000000000000000000000000000000000000000000000000000000000000061267d90919063ffffffff16565b905090565b6060611ca360087f000000000000000000000000000000000000000000000000000000000000000061267d90919063ffffffff16565b905090565b6000808260000180549050905060008114611d0557611cd683600001600183611cd1919061409f565b612231565b60000160069054906101000a900479ffffffffffffffffffffffffffffffffffffffffffffffffffff16611d08565b60005b915050919050565b6000611d23611d1d6115ec565b8361272d565b9050919050565b600080600080611d3c8888888861276e565b925092509250611d4c8282612862565b829350505050949350505050565b6000611d6583611db2565b9050808214611dad5782816040517f752d88c0000000000000000000000000000000000000000000000000000000008152600401611da4929190614107565b60405180910390fd5b505050565b6000600960008373ffffffffffffffffffffffffffffffffffffffff1673ffffffffffffffffffffffffffffffffffffffff1681526020019081526020016000206000815480929190600101919050559050919050565b611e11613497565b611e6282600b60008673ffffffffffffffffffffffffffffffffffffffff1673ffffffffffffffffffffffffffffffffffffffff1681526020019081526020016000206129c690919063ffffffff16565b905092915050565b600073ffffffffffffffffffffffffffffffffffffffff168473ffffffffffffffffffffffffffffffffffffffff1603611edc5760006040517fe602df05000000000000000000000000000000000000000000000000000000008152600401611ed39190613905565b60405180910390fd5b600073ffffffffffffffffffffffffffffffffffffffff168373ffffffffffffffffffffffffffffffffffffffff1603611f4e5760006040517f94280d62000000000000000000000000000000000000000000000000000000008152600401611f459190613905565b60405180910390fd5b81600160008673ffffffffffffffffffffffffffffffffffffffff1673ffffffffffffffffffffffffffffffffffffffff16815260200190815260200160002060008573ffffffffffffffffffffffffffffffffffffffff1673ffffffffffffffffffffffffffffffffffffffff16815260200190815260200160002081905550801561203b578273ffffffffffffffffffffffffffffffffffffffff168473ffffffffffffffffffffffffffffffffffffffff167f8c5be1e5ebec7d5bd14f71427d1e84f3dd0314c0f7b2291e5b200ac8c7c3b92584604051612032919061372a565b60405180910390a35b50505050565b61204c838383612a9b565b505050565b61205b8282610dfa565b61209e5780826040517fe2517d3f000000000000000000000000000000000000000000000000000000008152600401612095929190614130565b60405180910390fd5b5050565b60007f8b73c3c69bb8fe3d512ecc4cf759cc79239f7b179b0ffacaa9a75d522b39400f7f00000000000000000000000000000000000000000000000000000000000000007f0000000000000000000000000000000000000000000000000000000000000000463060405160200161211d959493929190614159565b60405160208183030381529060405280519060200120905090565b600080820361214a576000905061222c565b6000600161215784612b4c565b901c6001901b90506001818481612171576121706141ac565b5b048201901c9050600181848161218a576121896141ac565b5b048201901c905060018184816121a3576121a26141ac565b5b048201901c905060018184816121bc576121bb6141ac565b5b048201901c905060018184816121d5576121d46141ac565b5b048201901c905060018184816121ee576121ed6141ac565b5b048201901c90506001818481612207576122066141ac565b5b048201901c905061222881828581612222576122216141ac565b5b04612c2d565b9150505b919050565b60008260005281602060002001905092915050565b60005b818310156122b457600061225d8484612c46565b90508465ffffffffffff166122728783612231565b60000160009054906101000a900465ffffffffffff1665ffffffffffff16111561229e578092506122ae565b6001816122ab91906140d3565b93505b50612249565b819050949350505050565b6122c7610bdd565b6122fd576040517f8dfc202b00000000000000000000000000000000000000000000000000000000815260040160405180910390fd5b565b600061230a82610c06565b9050919050565b8173ffffffffffffffffffffffffffffffffffffffff168373ffffffffffffffffffffffffffffffffffffffff161415801561234d5750600081115b1561258557600073ffffffffffffffffffffffffffffffffffffffff168373ffffffffffffffffffffffffffffffffffffffff161461246b576000806123dc600b60008773ffffffffffffffffffffffffffffffffffffffff1673ffffffffffffffffffffffffffffffffffffffff1681526020019081526020016000206112c46123d786612c6c565b612cda565b79ffffffffffffffffffffffffffffffffffffffffffffffffffff16915079ffffffffffffffffffffffffffffffffffffffffffffffffffff1691508473ffffffffffffffffffffffffffffffffffffffff167fdec2bacdd2f05b59de34da9b523dff8be42e5e38e818c82fdb0bae774387a72483836040516124609291906141db565b60405180910390a250505b600073ffffffffffffffffffffffffffffffffffffffff168273ffffffffffffffffffffffffffffffffffffffff1614612584576000806124f5600b60008673ffffffffffffffffffffffffffffffffffffffff1673ffffffffffffffffffffffffffffffffffffffff1681526020019081526020016000206112ae6124f086612c6c565b612cda565b79ffffffffffffffffffffffffffffffffffffffffffffffffffff16915079ffffffffffffffffffffffffffffffffffffffffffffffffffff1691508373ffffffffffffffffffffffffffffffffffffffff167fdec2bacdd2f05b59de34da9b523dff8be42e5e38e818c82fdb0bae774387a72483836040516125799291906141db565b60405180910390a250505b5b505050565b600081600001805490509050919050565b600063ffffffff80168211156125eb576020826040517f6dfcc6500000000000000000000000000000000000000000000000000000000081526004016125e292919061423f565b60405180910390fd5b819050919050565b6000600960008373ffffffffffffffffffffffffffffffffffffffff1673ffffffffffffffffffffffffffffffffffffffff168152602001908152602001600020549050919050565b612644610bdd565b1561267b576040517fd93c066500000000000000000000000000000000000000000000000000000000815260040160405180910390fd5b565b606060ff60001b831461269a5761269383612d1a565b9050612727565b8180546126a690613dd7565b80601f01602080910402602001604051908101604052809291908181526020018280546126d290613dd7565b801561271f5780601f106126f45761010080835404028352916020019161271f565b820191906000526020600020905b81548152906001019060200180831161270257829003601f168201915b505050505090505b92915050565b60006040517f190100000000000000000000000000000000000000000000000000000000000081528360028201528260228201526042812091505092915050565b60008060007f7fffffffffffffffffffffffffffffff5d576e7357a4501ddfe92f46681b20a08460001c11156127ae576000600385925092509250612858565b6000600188888888604051600081526020016040526040516127d39493929190614268565b6020604051602081039080840390855afa1580156127f5573d6000803e3d6000fd5b505050602060405103519050600073ffffffffffffffffffffffffffffffffffffffff168173ffffffffffffffffffffffffffffffffffffffff160361284957600060016000801b93509350935050612858565b8060008060001b935093509350505b9450945094915050565b60006003811115612876576128756142ad565b5b826003811115612889576128886142ad565b5b03156129c257600160038111156128a3576128a26142ad565b5b8260038111156128b6576128b56142ad565b5b036128ed576040517ff645eedf00000000000000000000000000000000000000000000000000000000815260040160405180910390fd5b60026003811115612901576129006142ad565b5b826003811115612914576129136142ad565b5b03612959578060001c6040517ffce698f7000000000000000000000000000000000000000000000000000000008152600401612950919061372a565b60405180910390fd5b60038081111561296c5761296b6142ad565b5b82600381111561297f5761297e6142ad565b5b036129c157806040517fd78bce0c0000000000000000000000000000000000000000000000000000000081526004016129b8919061380a565b60405180910390fd5b5b5050565b6129ce613497565b826000018263ffffffff16815481106129ea576129e96142dc565b5b906000526020600020016040518060400160405290816000820160009054906101000a900465ffffffffffff1665ffffffffffff1665ffffffffffff1681526020016000820160069054906101000a900479ffffffffffffffffffffffffffffffffffffffffffffffffffff1679ffffffffffffffffffffffffffffffffffffffffffffffffffff1679ffffffffffffffffffffffffffffffffffffffffffffffffffff1681525050905092915050565b612aa6838383612d8e565b600073ffffffffffffffffffffffffffffffffffffffff168373ffffffffffffffffffffffffffffffffffffffff1603612b3c576000612ae46108b4565b90506000612af0612da6565b905080821115612b395781816040517f1cb15d26000000000000000000000000000000000000000000000000000000008152600401612b309291906141db565b60405180910390fd5b50505b612b47838383612dca565b505050565b600080600090506000608084901c1115612b6e57608083901c92506080810190505b6000604084901c1115612b8957604083901c92506040810190505b6000602084901c1115612ba457602083901c92506020810190505b6000601084901c1115612bbf57601083901c92506010810190505b6000600884901c1115612bda57600883901c92506008810190505b6000600484901c1115612bf557600483901c92506004810190505b6000600284901c1115612c1057600283901c92506002810190505b6000600184901c1115612c24576001810190505b80915050919050565b6000818310612c3c5781612c3e565b825b905092915050565b60006002828418612c57919061430b565b828416612c6491906140d3565b905092915050565b600079ffffffffffffffffffffffffffffffffffffffffffffffffffff8016821115612cd25760d0826040517f6dfcc650000000000000000000000000000000000000000000000000000000008152600401612cc9929190614377565b60405180910390fd5b819050919050565b600080612d0e612ce8610e65565b612cfe612cf488611ca8565b868863ffffffff16565b87612e849092919063ffffffff16565b91509150935093915050565b60606000612d2783612ea1565b90506000602067ffffffffffffffff811115612d4657612d45613e31565b5b6040519080825280601f01601f191660200182016040528015612d785781602001600182028036833780820191505090505b5090508181528360208201528092505050919050565b612d9661263c565b612da1838383612ef1565b505050565b600079ffffffffffffffffffffffffffffffffffffffffffffffffffff8016905090565b600073ffffffffffffffffffffffffffffffffffffffff168373ffffffffffffffffffffffffffffffffffffffff1603612e1757612e14600c6112ae612e0f84612c6c565b612cda565b50505b600073ffffffffffffffffffffffffffffffffffffffff168273ffffffffffffffffffffffffffffffffffffffff1603612e6457612e61600c6112c4612e5c84612c6c565b612cda565b50505b612e7f612e7084610b5a565b612e7984610b5a565b83612311565b505050565b600080612e95856000018585613116565b91509150935093915050565b60008060ff8360001c169050601f811115612ee8576040517fb3512b0c00000000000000000000000000000000000000000000000000000000815260040160405180910390fd5b80915050919050565b600073ffffffffffffffffffffffffffffffffffffffff168373ffffffffffffffffffffffffffffffffffffffff1603612f43578060026000828254612f3791906140d3565b92505081905550613016565b60008060008573ffffffffffffffffffffffffffffffffffffffff1673ffffffffffffffffffffffffffffffffffffffff16815260200190815260200160002054905081811015612fcf578381836040517fe450d38c000000000000000000000000000000000000000000000000000000008152600401612fc693929190613ffa565b60405180910390fd5b8181036000808673ffffffffffffffffffffffffffffffffffffffff1673ffffffffffffffffffffffffffffffffffffffff16815260200190815260200160002081905550505b600073ffffffffffffffffffffffffffffffffffffffff168273ffffffffffffffffffffffffffffffffffffffff160361305f57806002600082825403925050819055506130ac565b806000808473ffffffffffffffffffffffffffffffffffffffff1673ffffffffffffffffffffffffffffffffffffffff168152602001908152602001600020600082825401925050819055505b8173ffffffffffffffffffffffffffffffffffffffff168373ffffffffffffffffffffffffffffffffffffffff167fddf252ad1be2c89b69c2b068fc378daa952ba7f163c4a11628f55a4df523b3ef83604051613109919061372a565b60405180910390a3505050565b60008060008580549050905060008111156133a75760006131438760018461313e919061409f565b612231565b6040518060400160405290816000820160009054906101000a900465ffffffffffff1665ffffffffffff1665ffffffffffff1681526020016000820160069054906101000a900479ffffffffffffffffffffffffffffffffffffffffffffffffffff1679ffffffffffffffffffffffffffffffffffffffffffffffffffff1679ffffffffffffffffffffffffffffffffffffffffffffffffffff168152505090508565ffffffffffff16816000015165ffffffffffff161115613232576040517f2520601d00000000000000000000000000000000000000000000000000000000815260040160405180910390fd5b8565ffffffffffff16816000015165ffffffffffff16036132b657846132648860018561325f919061409f565b612231565b60000160066101000a81548179ffffffffffffffffffffffffffffffffffffffffffffffffffff021916908379ffffffffffffffffffffffffffffffffffffffffffffffffffff160217905550613396565b8660405180604001604052808865ffffffffffff1681526020018779ffffffffffffffffffffffffffffffffffffffffffffffffffff168152509080600181540180825580915050600190039060005260206000200160009091909190915060008201518160000160006101000a81548165ffffffffffff021916908365ffffffffffff16021790555060208201518160000160066101000a81548179ffffffffffffffffffffffffffffffffffffffffffffffffffff021916908379ffffffffffffffffffffffffffffffffffffffffffffffffffff16021790555050505b80602001518593509350505061348f565b8560405180604001604052808765ffffffffffff1681526020018679ffffffffffffffffffffffffffffffffffffffffffffffffffff168152509080600181540180825580915050600190039060005260206000200160009091909190915060008201518160000160006101000a81548165ffffffffffff021916908365ffffffffffff16021790555060208201518160000160066101000a81548179ffffffffffffffffffffffffffffffffffffffffffffffffffff021916908379ffffffffffffffffffffffffffffffffffffffffffffffffffff160217905550505060008492509250505b935093915050565b6040518060400160405280600065ffffffffffff168152602001600079ffffffffffffffffffffffffffffffffffffffffffffffffffff1681525090565b600080fd5b60007fffffffff0000000000000000000000000000000000000000000000000000000082169050919050565b61350f816134da565b811461351a57600080fd5b50565b60008135905061352c81613506565b92915050565b600060208284031215613548576135476134d5565b5b60006135568482850161351d565b91505092915050565b60008115159050919050565b6135748161355f565b82525050565b600060208201905061358f600083018461356b565b92915050565b600081519050919050565b600082825260208201905092915050565b60005b838110156135cf5780820151818401526020810190506135b4565b60008484015250505050565b6000601f19601f8301169050919050565b60006135f782613595565b61360181856135a0565b93506136118185602086016135b1565b61361a816135db565b840191505092915050565b6000602082019050818103600083015261363f81846135ec565b905092915050565b600073ffffffffffffffffffffffffffffffffffffffff82169050919050565b600061367282613647565b9050919050565b61368281613667565b811461368d57600080fd5b50565b60008135905061369f81613679565b92915050565b6000819050919050565b6136b8816136a5565b81146136c357600080fd5b50565b6000813590506136d5816136af565b92915050565b600080604083850312156136f2576136f16134d5565b5b600061370085828601613690565b9250506020613711858286016136c6565b9150509250929050565b613724816136a5565b82525050565b600060208201905061373f600083018461371b565b92915050565b60008060006060848603121561375e5761375d6134d5565b5b600061376c86828701613690565b935050602061377d86828701613690565b925050604061378e868287016136c6565b9150509250925092565b6000819050919050565b6137ab81613798565b81146137b657600080fd5b50565b6000813590506137c8816137a2565b92915050565b6000602082840312156137e4576137e36134d5565b5b60006137f2848285016137b9565b91505092915050565b61380481613798565b82525050565b600060208201905061381f60008301846137fb565b92915050565b6000806040838503121561383c5761383b6134d5565b5b600061384a858286016137b9565b925050602061385b85828601613690565b9150509250929050565b600060ff82169050919050565b61387b81613865565b82525050565b60006020820190506138966000830184613872565b92915050565b6000602082840312156138b2576138b16134d5565b5b60006138c0848285016136c6565b91505092915050565b6000602082840312156138df576138de6134d5565b5b60006138ed84828501613690565b91505092915050565b6138ff81613667565b82525050565b600060208201905061391a60008301846138f6565b92915050565b600063ffffffff82169050919050565b61393981613920565b82525050565b60006020820190506139546000830184613930565b92915050565b60007fff0000000000000000000000000000000000000000000000000000000000000082169050919050565b61398f8161395a565b82525050565b600081519050919050565b600082825260208201905092915050565b6000819050602082019050919050565b6139ca816136a5565b82525050565b60006139dc83836139c1565b60208301905092915050565b6000602082019050919050565b6000613a0082613995565b613a0a81856139a0565b9350613a15836139b1565b8060005b83811015613a46578151613a2d88826139d0565b9750613a38836139e8565b925050600181019050613a19565b5085935050505092915050565b600060e082019050613a68600083018a613986565b8181036020830152613a7a81896135ec565b90508181036040830152613a8e81886135ec565b9050613a9d606083018761371b565b613aaa60808301866138f6565b613ab760a08301856137fb565b81810360c0830152613ac981846139f5565b905098975050505050505050565b600065ffffffffffff82169050919050565b613af281613ad7565b82525050565b6000602082019050613b0d6000830184613ae9565b92915050565b613b1c81613865565b8114613b2757600080fd5b50565b600081359050613b3981613b13565b92915050565b60008060008060008060c08789031215613b5c57613b5b6134d5565b5b6000613b6a89828a01613690565b9650506020613b7b89828a016136c6565b9550506040613b8c89828a016136c6565b9450506060613b9d89828a01613b2a565b9350506080613bae89828a016137b9565b92505060a0613bbf89828a016137b9565b9150509295509295509295565b600080600080600080600060e0888a031215613beb57613bea6134d5565b5b6000613bf98a828b01613690565b9750506020613c0a8a828b01613690565b9650506040613c1b8a828b016136c6565b9550506060613c2c8a828b016136c6565b9450506080613c3d8a828b01613b2a565b93505060a0613c4e8a828b016137b9565b92505060c0613c5f8a828b016137b9565b91505092959891949750929550565b60008060408385031215613c8557613c846134d5565b5b6000613c9385828601613690565b9250506020613ca485828601613690565b9150509250929050565b613cb781613920565b8114613cc257600080fd5b50565b600081359050613cd481613cae565b92915050565b60008060408385031215613cf157613cf06134d5565b5b6000613cff85828601613690565b9250506020613d1085828601613cc5565b9150509250929050565b613d2381613ad7565b82525050565b600079ffffffffffffffffffffffffffffffffffffffffffffffffffff82169050919050565b613d5881613d29565b82525050565b604082016000820151613d746000850182613d1a565b506020820151613d876020850182613d4f565b50505050565b6000604082019050613da26000830184613d5e565b92915050565b7f4e487b7100000000000000000000000000000000000000000000000000000000600052602260045260246000fd5b60006002820490506001821680613def57607f821691505b602082108103613e0257613e01613da8565b5b50919050565b6000604082019050613e1d600083018561371b565b613e2a6020830184613ae9565b9392505050565b7f4e487b7100000000000000000000000000000000000000000000000000000000600052604160045260246000fd5b6000608082019050613e7560008301876137fb565b613e8260208301866138f6565b613e8f604083018561371b565b613e9c606083018461371b565b95945050505050565b600060c082019050613eba60008301896137fb565b613ec760208301886138f6565b613ed460408301876138f6565b613ee1606083018661371b565b613eee608083018561371b565b613efb60a083018461371b565b979650505050505050565b6000604082019050613f1b60008301856138f6565b613f2860208301846138f6565b9392505050565b7f4e487b7100000000000000000000000000000000000000000000000000000000600052601160045260246000fd5b6000613f6982613d29565b9150613f7483613d29565b9250828201905079ffffffffffffffffffffffffffffffffffffffffffffffffffff811115613fa657613fa5613f2f565b5b92915050565b6000613fb782613d29565b9150613fc283613d29565b9250828203905079ffffffffffffffffffffffffffffffffffffffffffffffffffff811115613ff457613ff3613f2f565b5b92915050565b600060608201905061400f60008301866138f6565b61401c602083018561371b565b614029604083018461371b565b949350505050565b6000819050919050565b6000819050919050565b600061406061405b61405684614031565b61403b565b613865565b9050919050565b61407081614045565b82525050565b600060408201905061408b6000830185614067565b614098602083018461371b565b9392505050565b60006140aa826136a5565b91506140b5836136a5565b92508282039050818111156140cd576140cc613f2f565b5b92915050565b60006140de826136a5565b91506140e9836136a5565b925082820190508082111561410157614100613f2f565b5b92915050565b600060408201905061411c60008301856138f6565b614129602083018461371b565b9392505050565b600060408201905061414560008301856138f6565b61415260208301846137fb565b9392505050565b600060a08201905061416e60008301886137fb565b61417b60208301876137fb565b61418860408301866137fb565b614195606083018561371b565b6141a260808301846138f6565b9695505050505050565b7f4e487b7100000000000000000000000000000000000000000000000000000000600052601260045260246000fd5b60006040820190506141f0600083018561371b565b6141fd602083018461371b565b9392505050565b6000819050919050565b600061422961422461421f84614204565b61403b565b613865565b9050919050565b6142398161420e565b82525050565b60006040820190506142546000830185614230565b614261602083018461371b565b9392505050565b600060808201905061427d60008301876137fb565b61428a6020830186613872565b61429760408301856137fb565b6142a460608301846137fb565b95945050505050565b7f4e487b7100000000000000000000000000000000000000000000000000000000600052602160045260246000fd5b7f4e487b7100000000000000000000000000000000000000000000000000000000600052603260045260246000fd5b6000614316826136a5565b9150614321836136a5565b925082614331576143306141ac565b5b828204905092915050565b6000819050919050565b600061436161435c6143578461433c565b61403b565b613865565b9050919050565b61437181614346565b82525050565b600060408201905061438c6000830185614368565b614399602083018461371b565b939250505056fea2646970667358221220d295ef18ec4a1bc2f9a55778feca2cc843df1cdf85e42def00c549190aaf2b3364736f6c634300081b0033",
  "linkReferences": {},
  "deployedLinkReferences": {}
}