{"abi":[{"type":"constructor","inputs":[{"name":"_implementation","type":"address","internalType":"address"}],"stateMutability":"nonpayable"},{"type":"function","name":"NO_PROJECT_ID","inputs":[],"outputs":[{"name":"","type":"uint256","internalType":"uint256"}],"stateMutability":"view"},{"type":"function","name":"TOKEN_ID","inputs":[],"outputs":[{"name":"","type":"uint256","internalType":"uint256"}],"stateMutability":"view"},{"type":"function","name":"couponToProject","inputs":[{"name":"","type":"address","internalType":"address"}],"outputs":[{"name":"","type":"uint256","internalType":"uint256"}],"stateMutability":"view"},{"type":"function","name":"createLazyMint","inputs":[{"name":"_projectId","type":"uint256","internalType":"uint256"},{"name":"_projectName","type":"string","internalType":"string"},{"name":"_uri","type":"string","internalType":"string"},{"name":"_maxSupply","type":"uint256","internalType":"uint256"},{"name":"_claimStart","type":"uint256","internalType":"uint256"},{"name":"_claimEnd","type":"uint256","internalType":"uint256"},{"name":"_redeemExpiration","type":"uint256","internalType":"uint256"},{"name":"_lockedBudget","type":"uint256","internalType":"uint256"},{"name":"_currencyAddress","type":"address","internalType":"address"},{"name":"_fee","type":"uint256","internalType":"uint256"}],"outputs":[{"name":"","type":"address","internalType":"address"}],"stateMutability":"payable"},{"type":"function","name":"createProject","inputs":[{"name":"_name","type":"string","internalType":"string"}],"outputs":[{"name":"","type":"uint256","internalType":"uint256"}],"stateMutability":"nonpayable"},{"type":"function","name":"getCouponProject","inputs":[{"name":"_couponAddress","type":"address","internalType":"address"}],"outputs":[{"name":"","type":"uint256","internalType":"uint256"}],"stateMutability":"view"},{"type":"function","name":"getProjectCoupons","inputs":[{"name":"_projectId","type":"uint256","internalType":"uint256"}],"outputs":[{"name":"","type":"address[]","internalType":"address[]"}],"stateMutability":"view"},{"type":"function","name":"implementation","inputs":[],"outputs":[{"name":"","type":"address","internalType":"address"}],"stateMutability":"view"},{"type":"function","name":"owner","inputs":[],"outputs":[{"name":"","type":"address","internalType":"address"}],"stateMutability":"view"},{"type":"function","name":"projectCount","inputs":[],"outputs":[{"name":"","type":"uint256","internalType":"uint256"}],"stateMutability":"view"},{"type":"function","name":"projects","inputs":[{"name":"","type":"uint256","internalType":"uint256"}],"outputs":[{"name":"name","type":"string","internalType":"string"},{"name":"owner","type":"address","internalType":"address"},{"name":"createdAt","type":"uint256","internalType":"uint256"}],"stateMutability":"view"},{"type":"function","name":"renounceOwnership","inputs":[],"outputs":[],"stateMutability":"nonpayable"},{"type":"function","name":"transferOwnership","inputs":[{"name":"newOwner","type":"address","internalType":"address"}],"outputs":[],"stateMutability":"nonpayable"},{"type":"function","name":"updateImplementation","inputs":[{"name":"_newImplementation","type":"address","internalType":"address"}],"outputs":[],"stateMutability":"nonpayable"},{"type":"function","name":"updateProject","inputs":[{"name":"_projectId","type":"uint256","internalType":"uint256"},{"name":"_name","type":"string","internalType":"string"}],"outputs":[],"stateMutability":"nonpayable"},{"type":"event","name":"ImplementationUpdated","inputs":[{"name":"oldImplementation","type":"address","indexed":true,"internalType":"address"},{"name":"newImplementation","type":"address","indexed":true,"internalType":"address"}],"anonymous":false},{"type":"event","name":"LazyMintDeployed","inputs":[{"name":"creator","type":"address","indexed":true,"internalType":"address"},{"name":"lazyMintAddress","type":"address","indexed":false,"internalType":"address"},{"name":"uri","type":"string","indexed":false,"internalType":"string"},{"name":"maxSupply","type":"uint256","indexed":false,"internalType":"uint256"},{"name":"claimStart","type":"uint256","indexed":false,"internalType":"uint256"},{"name":"claimEnd","type":"uint256","indexed":false,"internalType":"uint256"},{"name":"redeemExpiration","type":"uint256","indexed":false,"internalType":"uint256"},{"name":"lockedBudget","type":"uint256","indexed":false,"internalType":"uint256"},{"name":"currencyAddress","type":"address","indexed":false,"internalType":"address"},{"name":"tokenId","type":"uint256","indexed":false,"internalType":"uint256"},{"name":"fee","type":"uint256","indexed":false,"internalType":"uint256"},{"name":"projectId","type":"uint256","indexed":true,"internalType":"uint256"}],"anonymous":false},{"type":"event","name":"OwnershipTransferred","inputs":[{"name":"previousOwner","type":"address","indexed":true,"internalType":"address"},{"name":"newOwner","type":"address","indexed":true,"internalType":"address"}],"anonymous":false},{"type":"event","name":"ProjectCreated","inputs":[{"name":"projectId","type":"uint256","indexed":true,"internalType":"uint256"},{"name":"owner","type":"address","indexed":true,"internalType":"address"},{"name":"name","type":"string","indexed":false,"internalType":"string"}],"anonymous":false},{"type":"event","name":"ProjectUpdated","inputs":[{"name":"projectId","type":"uint256","indexed":true,"internalType":"uint256"},{"name":"owner","type":"address","indexed":true,"internalType":"address"},{"name":"name","type":"string","indexed":false,"internalType":"string"}],"anonymous":false},{"type":"error","name":"FailedDeployment","inputs":[]},{"type":"error","name":"FeeMustBeSetWithBudget","inputs":[]},{"type":"error","name":"ImplementationNotSet","inputs":[]},{"type":"error","name":"InsufficientBalance","inputs":[{"name":"balance","type":"uint256","internalType":"uint256"},{"name":"needed","type":"uint256","internalType":"uint256"}]},{"type":"error","name":"MaxSupplyMustBeGreaterThanZero","inputs":[]},{"type":"error","name":"NotProjectOwner","inputs":[]},{"type":"error","name":"OwnableInvalidOwner","inputs":[{"name":"owner","type":"address","internalType":"address"}]},{"type":"error","name":"OwnableUnauthorizedAccount","inputs":[{"name":"account","type":"address","internalType":"address"}]},{"type":"error","name":"ProjectDoesNotExist","inputs":[]}],"bytecode":{"object":"0x608060405234801561000f575f5ffd5b50604051611e4d380380611e4d83398181016040528101906100319190610271565b335f73ffffffffffffffffffffffffffffffffffffffff168173ffffffffffffffffffffffffffffffffffffffff16036100a2575f6040517f1e4fbdf700000000000000000000000000000000000000000000000000000000815260040161009991906102ab565b60405180910390fd5b6100b18161015260201b60201c565b508060015f6101000a81548173ffffffffffffffffffffffffffffffffffffffff021916908373ffffffffffffffffffffffffffffffffffffffff1602179055508073ffffffffffffffffffffffffffffffffffffffff165f73ffffffffffffffffffffffffffffffffffffffff167faa3f731066a578e5f39b4215468d826cdd15373cbc0dfc9cb9bdc649718ef7da60405160405180910390a3506102c4565b5f5f5f9054906101000a900473ffffffffffffffffffffffffffffffffffffffff169050815f5f6101000a81548173ffffffffffffffffffffffffffffffffffffffff021916908373ffffffffffffffffffffffffffffffffffffffff1602179055508173ffffffffffffffffffffffffffffffffffffffff168173ffffffffffffffffffffffffffffffffffffffff167f8be0079c531659141344cd1fd0a4f28419497f9722a3daafe3b4186f6b6457e060405160405180910390a35050565b5f5ffd5b5f73ffffffffffffffffffffffffffffffffffffffff82169050919050565b5f61024082610217565b9050919050565b61025081610236565b811461025a575f5ffd5b50565b5f8151905061026b81610247565b92915050565b5f6020828403121561028657610285610213565b5b5f6102938482850161025d565b91505092915050565b6102a581610236565b82525050565b5f6020820190506102be5f83018461029c565b92915050565b611b7c806102d15f395ff3fe6080604052600436106100e7575f3560e01c8063715018a611610089578063bbc3a7f311610058578063bbc3a7f3146102f3578063cd8cf88f1461031b578063f2fde38b14610357578063f44951591461037f576100e7565b8063715018a61461025957806389a890021461026f5780638da5cb5b146102995780639ff5dcde146102c3576100e7565b806315ee4df1116100c557806315ee4df11461018d57806336fbad26146101c95780635c60da1b146101f35780636e08547b1461021d576100e7565b8063018e2b2a146100eb578063025b22bc14610127578063107046bd1461014f575b5f5ffd5b3480156100f6575f5ffd5b50610111600480360381019061010c9190611143565b6103a9565b60405161011e9190611186565b60405180910390f35b348015610132575f5ffd5b5061014d60048036038101906101489190611143565b6103ef565b005b34801561015a575f5ffd5b50610175600480360381019061017091906111c9565b6104ba565b60405161018493929190611273565b60405180910390f35b348015610198575f5ffd5b506101b360048036038101906101ae91906113db565b610585565b6040516101c09190611186565b60405180910390f35b3480156101d4575f5ffd5b506101dd61066c565b6040516101ea9190611186565b60405180910390f35b3480156101fe575f5ffd5b50610207610672565b6040516102149190611422565b60405180910390f35b348015610228575f5ffd5b50610243600480360381019061023e9190611143565b610697565b6040516102509190611186565b60405180910390f35b348015610264575f5ffd5b5061026d6106ac565b005b34801561027a575f5ffd5b506102836106bf565b6040516102909190611186565b60405180910390f35b3480156102a4575f5ffd5b506102ad6106c3565b6040516102ba9190611422565b60405180910390f35b6102dd60048036038101906102d8919061143b565b6106ea565b6040516102ea9190611422565b60405180910390f35b3480156102fe575f5ffd5b506103196004803603810190610314919061154c565b610acd565b005b348015610326575f5ffd5b50610341600480360381019061033c91906111c9565b610c19565b60405161034e919061165d565b60405180910390f35b348015610362575f5ffd5b5061037d60048036038101906103789190611143565b610cf3565b005b34801561038a575f5ffd5b50610393610d77565b6040516103a09190611186565b60405180910390f35b5f60035f8373ffffffffffffffffffffffffffffffffffffffff1673ffffffffffffffffffffffffffffffffffffffff1681526020019081526020015f20549050919050565b6103f7610d9b565b5f60015f9054906101000a900473ffffffffffffffffffffffffffffffffffffffff1690508160015f6101000a81548173ffffffffffffffffffffffffffffffffffffffff021916908373ffffffffffffffffffffffffffffffffffffffff1602179055508173ffffffffffffffffffffffffffffffffffffffff168173ffffffffffffffffffffffffffffffffffffffff167faa3f731066a578e5f39b4215468d826cdd15373cbc0dfc9cb9bdc649718ef7da60405160405180910390a35050565b6002602052805f5260405f205f91509050805f0180546104d9906116aa565b80601f0160208091040260200160405190810160405280929190818152602001828054610505906116aa565b80156105505780601f1061052757610100808354040283529160200191610550565b820191905f5260205f20905b81548152906001019060200180831161053357829003601f168201915b505050505090806001015f9054906101000a900473ffffffffffffffffffffffffffffffffffffffff16908060030154905083565b5f5f60045490505f60025f8381526020019081526020015f20905083815f0190816105b0919061187a565b5033816001015f6101000a81548173ffffffffffffffffffffffffffffffffffffffff021916908373ffffffffffffffffffffffffffffffffffffffff16021790555042816003018190555060045f81548092919061060e90611976565b91905055503373ffffffffffffffffffffffffffffffffffffffff16827f9d9ec461f162f3f4fdb9f6d189bfe13c59e48d8acd23a4c3bfcf7cc0fe4e84ed8660405161065a91906119bd565b60405180910390a38192505050919050565b60045481565b60015f9054906101000a900473ffffffffffffffffffffffffffffffffffffffff1681565b6003602052805f5260405f205f915090505481565b6106b4610d9b565b6106bd5f610e22565b565b5f81565b5f5f5f9054906101000a900473ffffffffffffffffffffffffffffffffffffffff16905090565b5f5f73ffffffffffffffffffffffffffffffffffffffff1660015f9054906101000a900473ffffffffffffffffffffffffffffffffffffffff1673ffffffffffffffffffffffffffffffffffffffff1603610771576040517f40dde93500000000000000000000000000000000000000000000000000000000815260040160405180910390fd5b5f7fffffffffffffffffffffffffffffffffffffffffffffffffffffffffffffffff8c036107a9576107a28b610ee3565b9050610880565b6004548c106107e4576040517f38fde52b00000000000000000000000000000000000000000000000000000000815260040160405180910390fd5b3373ffffffffffffffffffffffffffffffffffffffff1660025f8e81526020019081526020015f206001015f9054906101000a900473ffffffffffffffffffffffffffffffffffffffff1673ffffffffffffffffffffffffffffffffffffffff161461087c576040517f7c2411e900000000000000000000000000000000000000000000000000000000815260040160405180910390fd5b8b90505b5f89116108b9576040517fad03f1cd00000000000000000000000000000000000000000000000000000000815260040160405180910390fd5b5f851180156108c757505f83145b156108fe576040517f938693cf00000000000000000000000000000000000000000000000000000000815260040160405180910390fd5b5f61092960015f9054906101000a900473ffffffffffffffffffffffffffffffffffffffff16610fca565b90508073ffffffffffffffffffffffffffffffffffffffff166395e74bc7348d8d8d8d8d8d8d5f8e336040518c63ffffffff1660e01b81526004016109779a999897969594939291906119dd565b5f604051808303818588803b15801561098e575f5ffd5b505af11580156109a0573d5f5f3e3d5ffd5b505050505060025f8381526020019081526020015f2060020181908060018154018082558091505060019003905f5260205f20015f9091909190916101000a81548173ffffffffffffffffffffffffffffffffffffffff021916908373ffffffffffffffffffffffffffffffffffffffff1602179055508160035f8373ffffffffffffffffffffffffffffffffffffffff1673ffffffffffffffffffffffffffffffffffffffff1681526020019081526020015f2081905550813373ffffffffffffffffffffffffffffffffffffffff167fb0d2e457bcb08670e640ae345c7a03d7e41de4d24bfeafda0dfec84077e07df5838e8e8e8e8e8e8e5f8f604051610ab29a99989796959493929190611a7e565b60405180910390a380925050509a9950505050505050505050565b6004548210610b08576040517f38fde52b00000000000000000000000000000000000000000000000000000000815260040160405180910390fd5b3373ffffffffffffffffffffffffffffffffffffffff1660025f8481526020019081526020015f206001015f9054906101000a900473ffffffffffffffffffffffffffffffffffffffff1673ffffffffffffffffffffffffffffffffffffffff1614610ba0576040517f7c2411e900000000000000000000000000000000000000000000000000000000815260040160405180910390fd5b5f60025f8481526020019081526020015f20905081815f019081610bc4919061187a565b503373ffffffffffffffffffffffffffffffffffffffff16837fc5415528ee86488fe1f477421de501f322736399c3109615bf3be675485a928b84604051610c0c91906119bd565b60405180910390a3505050565b60606004548210610c56576040517f38fde52b00000000000000000000000000000000000000000000000000000000815260040160405180910390fd5b60025f8381526020019081526020015f20600201805480602002602001604051908101604052809291908181526020018280548015610ce757602002820191905f5260205f20905b815f9054906101000a900473ffffffffffffffffffffffffffffffffffffffff1673ffffffffffffffffffffffffffffffffffffffff1681526020019060010190808311610c9e575b50505050509050919050565b610cfb610d9b565b5f73ffffffffffffffffffffffffffffffffffffffff168173ffffffffffffffffffffffffffffffffffffffff1603610d6b575f6040517f1e4fbdf7000000000000000000000000000000000000000000000000000000008152600401610d629190611422565b60405180910390fd5b610d7481610e22565b50565b7fffffffffffffffffffffffffffffffffffffffffffffffffffffffffffffffff81565b610da3610fdc565b73ffffffffffffffffffffffffffffffffffffffff16610dc16106c3565b73ffffffffffffffffffffffffffffffffffffffff1614610e2057610de4610fdc565b6040517f118cdaa7000000000000000000000000000000000000000000000000000000008152600401610e179190611422565b60405180910390fd5b565b5f5f5f9054906101000a900473ffffffffffffffffffffffffffffffffffffffff169050815f5f6101000a81548173ffffffffffffffffffffffffffffffffffffffff021916908373ffffffffffffffffffffffffffffffffffffffff1602179055508173ffffffffffffffffffffffffffffffffffffffff168173ffffffffffffffffffffffffffffffffffffffff167f8be0079c531659141344cd1fd0a4f28419497f9722a3daafe3b4186f6b6457e060405160405180910390a35050565b5f5f60045490505f60025f8381526020019081526020015f20905083815f019081610f0e919061187a565b5033816001015f6101000a81548173ffffffffffffffffffffffffffffffffffffffff021916908373ffffffffffffffffffffffffffffffffffffffff16021790555042816003018190555060045f815480929190610f6c90611976565b91905055503373ffffffffffffffffffffffffffffffffffffffff16827f9d9ec461f162f3f4fdb9f6d189bfe13c59e48d8acd23a4c3bfcf7cc0fe4e84ed86604051610fb891906119bd565b60405180910390a38192505050919050565b5f610fd5825f610fe3565b9050919050565b5f33905090565b5f8147101561102b5747826040517fcf479181000000000000000000000000000000000000000000000000000000008152600401611022929190611b1f565b60405180910390fd5b763d602d80600a3d3981f3363d3d373d3d3d363d730000008360601b60e81c175f526e5af43d82803e903d91602b57fd5bf38360781b176020526037600983f090505f73ffffffffffffffffffffffffffffffffffffffff168173ffffffffffffffffffffffffffffffffffffffff16036110d2576040517fb06ebf3d00000000000000000000000000000000000000000000000000000000815260040160405180910390fd5b92915050565b5f604051905090565b5f5ffd5b5f5ffd5b5f73ffffffffffffffffffffffffffffffffffffffff82169050919050565b5f611112826110e9565b9050919050565b61112281611108565b811461112c575f5ffd5b50565b5f8135905061113d81611119565b92915050565b5f60208284031215611158576111576110e1565b5b5f6111658482850161112f565b91505092915050565b5f819050919050565b6111808161116e565b82525050565b5f6020820190506111995f830184611177565b92915050565b6111a88161116e565b81146111b2575f5ffd5b50565b5f813590506111c38161119f565b92915050565b5f602082840312156111de576111dd6110e1565b5b5f6111eb848285016111b5565b91505092915050565b5f81519050919050565b5f82825260208201905092915050565b8281835e5f83830152505050565b5f601f19601f8301169050919050565b5f611236826111f4565b61124081856111fe565b935061125081856020860161120e565b6112598161121c565b840191505092915050565b61126d81611108565b82525050565b5f6060820190508181035f83015261128b818661122c565b905061129a6020830185611264565b6112a76040830184611177565b949350505050565b5f5ffd5b5f5ffd5b7f4e487b71000000000000000000000000000000000000000000000000000000005f52604160045260245ffd5b6112ed8261121c565b810181811067ffffffffffffffff8211171561130c5761130b6112b7565b5b80604052505050565b5f61131e6110d8565b905061132a82826112e4565b919050565b5f67ffffffffffffffff821115611349576113486112b7565b5b6113528261121c565b9050602081019050919050565b828183375f83830152505050565b5f61137f61137a8461132f565b611315565b90508281526020810184848401111561139b5761139a6112b3565b5b6113a684828561135f565b509392505050565b5f82601f8301126113c2576113c16112af565b5b81356113d284826020860161136d565b91505092915050565b5f602082840312156113f0576113ef6110e1565b5b5f82013567ffffffffffffffff81111561140d5761140c6110e5565b5b611419848285016113ae565b91505092915050565b5f6020820190506114355f830184611264565b92915050565b5f5f5f5f5f5f5f5f5f5f6101408b8d03121561145a576114596110e1565b5b5f6114678d828e016111b5565b9a505060208b013567ffffffffffffffff811115611488576114876110e5565b5b6114948d828e016113ae565b99505060408b013567ffffffffffffffff8111156114b5576114b46110e5565b5b6114c18d828e016113ae565b98505060606114d28d828e016111b5565b97505060806114e38d828e016111b5565b96505060a06114f48d828e016111b5565b95505060c06115058d828e016111b5565b94505060e06115168d828e016111b5565b9350506101006115288d828e0161112f565b92505061012061153a8d828e016111b5565b9150509295989b9194979a5092959850565b5f5f60408385031215611562576115616110e1565b5b5f61156f858286016111b5565b925050602083013567ffffffffffffffff8111156115905761158f6110e5565b5b61159c858286016113ae565b9150509250929050565b5f81519050919050565b5f82825260208201905092915050565b5f819050602082019050919050565b6115d881611108565b82525050565b5f6115e983836115cf565b60208301905092915050565b5f602082019050919050565b5f61160b826115a6565b61161581856115b0565b9350611620836115c0565b805f5b8381101561165057815161163788826115de565b9750611642836115f5565b925050600181019050611623565b5085935050505092915050565b5f6020820190508181035f8301526116758184611601565b905092915050565b7f4e487b71000000000000000000000000000000000000000000000000000000005f52602260045260245ffd5b5f60028204905060018216806116c157607f821691505b6020821081036116d4576116d361167d565b5b50919050565b5f819050815f5260205f209050919050565b5f6020601f8301049050919050565b5f82821b905092915050565b5f600883026117367fffffffffffffffffffffffffffffffffffffffffffffffffffffffffffffffff826116fb565b61174086836116fb565b95508019841693508086168417925050509392505050565b5f819050919050565b5f61177b6117766117718461116e565b611758565b61116e565b9050919050565b5f819050919050565b61179483611761565b6117a86117a082611782565b848454611707565b825550505050565b5f5f905090565b6117bf6117b0565b6117ca81848461178b565b505050565b5b818110156117ed576117e25f826117b7565b6001810190506117d0565b5050565b601f82111561183257611803816116da565b61180c846116ec565b8101602085101561181b578190505b61182f611827856116ec565b8301826117cf565b50505b505050565b5f82821c905092915050565b5f6118525f1984600802611837565b1980831691505092915050565b5f61186a8383611843565b9150826002028217905092915050565b611883826111f4565b67ffffffffffffffff81111561189c5761189b6112b7565b5b6118a682546116aa565b6118b18282856117f1565b5f60209050601f8311600181146118e2575f84156118d0578287015190505b6118da858261185f565b865550611941565b601f1984166118f0866116da565b5f5b82811015611917578489015182556001820191506020850194506020810190506118f2565b868310156119345784890151611930601f891682611843565b8355505b6001600288020188555050505b505050505050565b7f4e487b71000000000000000000000000000000000000000000000000000000005f52601160045260245ffd5b5f6119808261116e565b91507fffffffffffffffffffffffffffffffffffffffffffffffffffffffffffffffff82036119b2576119b1611949565b5b600182019050919050565b5f6020820190508181035f8301526119d5818461122c565b905092915050565b5f610140820190508181035f8301526119f6818d61122c565b9050611a05602083018c611177565b611a12604083018b611177565b611a1f606083018a611177565b611a2c6080830189611177565b611a3960a0830188611177565b611a4660c0830187611264565b611a5360e0830186611177565b611a61610100830185611177565b611a6f610120830184611264565b9b9a5050505050505050505050565b5f61014082019050611a925f83018d611264565b8181036020830152611aa4818c61122c565b9050611ab3604083018b611177565b611ac0606083018a611177565b611acd6080830189611177565b611ada60a0830188611177565b611ae760c0830187611177565b611af460e0830186611264565b611b02610100830185611177565b611b10610120830184611177565b9b9a5050505050505050505050565b5f604082019050611b325f830185611177565b611b3f6020830184611177565b939250505056fea264697066735822122060a6662775b04b5fe3f7cd515ecd84289db3bd73cfb8f0e84aa2e22314d5736464736f6c634300081c0033","linkReferences":{}},"methodIdentifiers":{"NO_PROJECT_ID()":"f4495159","TOKEN_ID()":"89a89002","couponToProject(address)":"6e08547b","createLazyMint(uint256,string,string,uint256,uint256,uint256,uint256,uint256,address,uint256)":"9ff5dcde","createProject(string)":"15ee4df1","getCouponProject(address)":"018e2b2a","getProjectCoupons(uint256)":"cd8cf88f","implementation()":"5c60da1b","owner()":"8da5cb5b","projectCount()":"36fbad26","projects(uint256)":"107046bd","renounceOwnership()":"715018a6","transferOwnership(address)":"f2fde38b","updateImplementation(address)":"025b22bc","updateProject(uint256,string)":"bbc3a7f3"},"id":1}