{"abi":[{"type":"function","name":"NATIVE_TOKEN","inputs":[],"outputs":[{"name":"","type":"address","internalType":"address"}],"stateMutability":"view"},{"type":"error","name":"CurrencyTransferLibFailedNativeTransfer","inputs":[{"name":"recipient","type":"address","internalType":"address"},{"name":"value","type":"uint256","internalType":"uint256"}]},{"type":"error","name":"CurrencyTransferLibMismatchedValue","inputs":[{"name":"expected","type":"uint256","internalType":"uint256"},{"name":"actual","type":"uint256","internalType":"uint256"}]}],"bytecode":{"object":"0x608060405234601e57600e6022565b60f461002d82393081505060f490f35b6028565b60405190565b5f80fdfe608060405260043610156011575b60ba565b60195f356026565b6331f7d96403600d576097565b60e01c90565b60405190565b5f80fd5b5f910312603f57565b6032565b73eeeeeeeeeeeeeeeeeeeeeeeeeeeeeeeeeeeeeeee90565b60616043565b90565b60018060a01b031690565b6076906064565b90565b608090606f565b9052565b91906095905f602085019401906079565b565b60a03660046036565b60b660a8605b565b60ae602c565b918291826084565b0390f35b5f80fdfea264697066735822122083f8e0bbc3aba89ca6c7d049853022a82e17d553841cd85a71f05034b5020b4564736f6c634300081c0033","linkReferences":{}},"methodIdentifiers":{"NATIVE_TOKEN()":"31f7d964"},"id":28}